{
  "_format": "hh-sol-artifact-1",
  "contractName": "MockToken",
  "sourceName": "contracts/mocks/MockToken.sol",
  "abi": [
    {
      "inputs": [
        {
          "internalType": "string",
          "name": "name",
          "type": "string"
        },
        {
          "internalType": "string",
          "name": "symbol",
          "type": "string"
        },
        {
          "internalType": "uint256",
          "name": "initialSupply",
          "type": "uint256"
        },
        {
          "internalType": "uint8",
          "name": "decimals_",
          "type": "uint8"
        }
      ],
      "stateMutability": "nonpayable",
      "type": "constructor"
    },
    {
      "inputs": [
        {
          "internalType": "address",
          "name": "spender",
          "type": "address"
        },
        {
          "internalType": "uint256",
          "name": "allowance",
          "type": "uint256"
        },
        {
          "internalType": "uint256",
          "name": "needed",
          "type": "uint256"
        }
      ],
      "name": "ERC20InsufficientAllowance",
      "type": "error"
    },
    {
      "inputs": [
        {
          "internalType": "address",
          "name": "sender",
          "type": "address"
        },
        {
          "internalType": "uint256",
          "name": "balance",
          "type": "uint256"
        },
        {
          "internalType": "uint256",
          "name": "needed",
          "type": "uint256"
        }
      ],
      "name": "ERC20InsufficientBalance",
      "type": "error"
    },
    {
      "inputs": [
        {
          "internalType": "address",
          "name": "approver",
          "type": "address"
        }
      ],
      "name": "ERC20InvalidApprover",
      "type": "error"
    },
    {
      "inputs": [
        {
          "internalType": "address",
          "name": "receiver",
          "type": "address"
        }
      ],
      "name": "ERC20InvalidReceiver",
      "type": "error"
    },
    {
      "inputs": [
        {
          "internalType": "address",
          "name": "sender",
          "type": "address"
        }
      ],
      "name": "ERC20InvalidSender",
      "type": "error"
    },
    {
      "inputs": [
        {
          "internalType": "address",
          "name": "spender",
          "type": "address"
        }
      ],
      "name": "ERC20InvalidSpender",
      "type": "error"
    },
    {
      "anonymous": false,
      "inputs": [
        {
          "indexed": true,
          "internalType": "address",
          "name": "owner",
          "type": "address"
        },
        {
          "indexed": true,
          "internalType": "address",
          "name": "spender",
          "type": "address"
        },
        {
          "indexed": false,
          "internalType": "uint256",
          "name": "value",
          "type": "uint256"
        }
      ],
      "name": "Approval",
      "type": "event"
    },
    {
      "anonymous": false,
      "inputs": [
        {
          "indexed": true,
          "internalType": "address",
          "name": "from",
          "type": "address"
        },
        {
          "indexed": true,
          "internalType": "address",
          "name": "to",
          "type": "address"
        },
        {
          "indexed": false,
          "internalType": "uint256",
          "name": "value",
          "type": "uint256"
        }
      ],
      "name": "Transfer",
      "type": "event"
    },
    {
      "inputs": [
        {
          "internalType": "address",
          "name": "owner",
          "type": "address"
        },
        {
          "internalType": "address",
          "name": "spender",
          "type": "address"
        }
      ],
      "name": "allowance",
      "outputs": [
        {
          "internalType": "uint256",
          "name": "",
          "type": "uint256"
        }
      ],
      "stateMutability": "view",
      "type": "function"
    },
    {
      "inputs": [
        {
          "internalType": "address",
          "name": "spender",
          "type": "address"
        },
        {
          "internalType": "uint256",
          "name": "value",
          "type": "uint256"
        }
      ],
      "name": "approve",
      "outputs": [
        {
          "internalType": "bool",
          "name": "",
          "type": "bool"
        }
      ],
      "stateMutability": "nonpayable",
      "type": "function"
    },
    {
      "inputs": [
        {
          "internalType": "address",
          "name": "account",
          "type": "address"
        }
      ],
      "name": "balanceOf",
      "outputs": [
        {
          "internalType": "uint256",
          "name": "",
          "type": "uint256"
        }
      ],
      "stateMutability": "view",
      "type": "function"
    },
    {
      "inputs": [
        {
          "internalType": "address[]",
          "name": "recipients",
          "type": "address[]"
        },
        {
          "internalType": "uint256[]",
          "name": "amounts",
          "type": "uint256[]"
        }
      ],
      "name": "batchMint",
      "outputs": [],
      "stateMutability": "nonpayable",
      "type": "function"
    },
    {
      "inputs": [
        {
          "internalType": "address",
          "name": "from",
          "type": "address"
        },
        {
          "internalType": "uint256",
          "name": "amount",
          "type": "uint256"
        }
      ],
      "name": "burn",
      "outputs": [],
      "stateMutability": "nonpayable",
      "type": "function"
    },
    {
      "inputs": [],
      "name": "decimals",
      "outputs": [
        {
          "internalType": "uint8",
          "name": "",
          "type": "uint8"
        }
      ],
      "stateMutability": "view",
      "type": "function"
    },
    {
      "inputs": [
        {
          "internalType": "address",
          "name": "to",
          "type": "address"
        },
        {
          "internalType": "uint256",
          "name": "amount",
          "type": "uint256"
        }
      ],
      "name": "mint",
      "outputs": [],
      "stateMutability": "nonpayable",
      "type": "function"
    },
    {
      "inputs": [],
      "name": "name",
      "outputs": [
        {
          "internalType": "string",
          "name": "",
          "type": "string"
        }
      ],
      "stateMutability": "view",
      "type": "function"
    },
    {
      "inputs": [
        {
          "internalType": "uint8",
          "name": "decimals_",
          "type": "uint8"
        }
      ],
      "name": "setDecimals",
      "outputs": [],
      "stateMutability": "nonpayable",
      "type": "function"
    },
    {
      "inputs": [],
      "name": "symbol",
      "outputs": [
        {
          "internalType": "string",
          "name": "",
          "type": "string"
        }
      ],
      "stateMutability": "view",
      "type": "function"
    },
    {
      "inputs": [],
      "name": "totalSupply",
      "outputs": [
        {
          "internalType": "uint256",
          "name": "",
          "type": "uint256"
        }
      ],
      "stateMutability": "view",
      "type": "function"
    },
    {
      "inputs": [
        {
          "internalType": "address",
          "name": "to",
          "type": "address"
        },
        {
          "internalType": "uint256",
          "name": "value",
          "type": "uint256"
        }
      ],
      "name": "transfer",
      "outputs": [
        {
          "internalType": "bool",
          "name": "",
          "type": "bool"
        }
      ],
      "stateMutability": "nonpayable",
      "type": "function"
    },
    {
      "inputs": [
        {
          "internalType": "address",
          "name": "from",
          "type": "address"
        },
        {
          "internalType": "address",
          "name": "to",
          "type": "address"
        },
        {
          "internalType": "uint256",
          "name": "value",
          "type": "uint256"
        }
      ],
      "name": "transferFrom",
      "outputs": [
        {
          "internalType": "bool",
          "name": "",
          "type": "bool"
        }
      ],
      "stateMutability": "nonpayable",
      "type": "function"
    }
  ],
  "bytecode": "0x6080604052346103d957610d8d80380380610019816103de565b9283398101906080818303126103d95780516001600160401b0381116103d95782610045918301610403565b602082015190926001600160401b0382116103d957610065918301610403565b906060604082015191015160ff81168091036103d95783516001600160401b0381116102e257600354600181811c911680156103cf575b60208210146102c257601f811161036a575b50602094601f8211600114610303579481929394956000926102f8575b50508160011b916000199060031b1c1916176003555b82516001600160401b0381116102e257600454600181811c911680156102d8575b60208210146102c257601f811161025d575b506020601f82116001146101f657819293946000926101eb575b50508160011b916000199060031b1c1916176004555b60ff19600554161760055580610164575b60405161091e908161046f8239f35b33156101d5576002548181018091116101bf57600255600033815280602052604081208281540190556040519182527fddf252ad1be2c89b69c2b068fc378daa952ba7f163c4a11628f55a4df523b3ef60203393a338610155565b634e487b7160e01b600052601160045260246000fd5b63ec442f0560e01b600052600060045260246000fd5b01519050388061012e565b601f198216906004600052806000209160005b8181106102455750958360019596971061022c575b505050811b01600455610144565b015160001960f88460031b161c1916905538808061021e565b9192602060018192868b015181550194019201610209565b60046000527f8a35acfbc15ff81a39ae7d344fd709f28e8600b4aa8c65c6b64bfe7fe36bd19b601f830160051c810191602084106102b8575b601f0160051c01905b8181106102ac5750610114565b6000815560010161029f565b9091508190610296565b634e487b7160e01b600052602260045260246000fd5b90607f1690610102565b634e487b7160e01b600052604160045260246000fd5b0151905038806100cb565b601f198216956003600052806000209160005b88811061035257508360019596979810610339575b505050811b016003556100e1565b015160001960f88460031b161c1916905538808061032b565b91926020600181928685015181550194019201610316565b60036000527fc2575a0e9e593c00f959f8c92f12db2869c3395a3b0502d05e2516446f71f85b601f830160051c810191602084106103c5575b601f0160051c01905b8181106103b957506100ae565b600081556001016103ac565b90915081906103a3565b90607f169061009c565b600080fd5b6040519190601f01601f191682016001600160401b038111838210176102e257604052565b81601f820112156103d9578051906001600160401b0382116102e257610432601f8301601f19166020016103de565b92828452602083830101116103d95760005b82811061045957505060206000918301015290565b8060208092840101518282870101520161044456fe608080604052600436101561001357600080fd5b60003560e01c90816306fdde031461062557508063095ea7b31461059f57806318160ddd1461058157806323b872dd14610494578063313ce5671461047357806340c10f191461044c578063685731071461037457806370a082311461033a5780637a1395aa1461030b57806395d89b41146101ea5780639dc29fac14610135578063a9059cbb146101045763dd62ed3e146100ae57600080fd5b346100ff5760403660031901126100ff576100c7610741565b6100cf610757565b6001600160a01b039182166000908152600160209081526040808320949093168252928352819020549051908152f35b600080fd5b346100ff5760403660031901126100ff5761012a610120610741565b60243590336107c4565b602060405160018152f35b346100ff5760403660031901126100ff5761014e610741565b6001600160a01b031660243581156101d4576000908282528160205260408220548181106101bc5760208285937fddf252ad1be2c89b69c2b068fc378daa952ba7f163c4a11628f55a4df523b3ef93869787528684520360408620558060025403600255604051908152a380f35b60649363391434e360e21b8452600452602452604452fd5b634b637e8f60e11b600052600060045260246000fd5b346100ff5760003660031901126100ff5760405160006004548060011c90600181168015610301575b6020831081146102ed578285529081156102d1575060011461027a575b50819003601f01601f191681019067ffffffffffffffff82118183101761026457610260829182604052826106f8565b0390f35b634e487b7160e01b600052604160045260246000fd5b905060046000527f8a35acfbc15ff81a39ae7d344fd709f28e8600b4aa8c65c6b64bfe7fe36bd19b6000905b8282106102bb57506020915082010182610230565b60018160209254838588010152019101906102a6565b90506020925060ff191682840152151560051b82010182610230565b634e487b7160e01b84526022600452602484fd5b91607f1691610213565b346100ff5760203660031901126100ff5760043560ff81168091036100ff5760ff196005541617600555600080f35b346100ff5760203660031901126100ff576001600160a01b0361035b610741565b1660005260006020526020604060002054604051908152f35b346100ff5760403660031901126100ff5760043567ffffffffffffffff81116100ff576103a590369060040161076d565b9060243567ffffffffffffffff81116100ff576103c690369060040161076d565b928381036104155760005b8181106103da57005b6103e581838661079e565b35906001600160a01b03821682036100ff5761040f60019261040883898861079e565b3590610873565b016103d1565b60405162461bcd60e51b815260206004820152600f60248201526e098cadccee8d040dad2e6dac2e8c6d608b1b6044820152606490fd5b346100ff5760403660031901126100ff57610471610468610741565b60243590610873565b005b346100ff5760003660031901126100ff57602060ff60055416604051908152f35b346100ff5760603660031901126100ff576104ad610741565b6104b5610757565b6001600160a01b03821660008181526001602090815260408083203384529091529020549092604435929160001981106104f5575b5061012a93506107c4565b83811061056457841561054e5733156105385761012a946000526001602052604060002060018060a01b03331660005260205283604060002091039055846104ea565b634a1406b160e11b600052600060045260246000fd5b63e602df0560e01b600052600060045260246000fd5b8390637dc7a0d960e11b6000523360045260245260445260646000fd5b346100ff5760003660031901126100ff576020600254604051908152f35b346100ff5760403660031901126100ff576105b8610741565b60243590331561054e576001600160a01b031690811561053857336000526001602052604060002082600052602052806040600020556040519081527f8c5be1e5ebec7d5bd14f71427d1e84f3dd0314c0f7b2291e5b200ac8c7c3b92560203392a3602060405160018152f35b346100ff5760003660031901126100ff5760006003548060011c906001811680156106ee575b6020831081146102ed578285529081156102d157506001146106975750819003601f01601f191681019067ffffffffffffffff82118183101761026457610260829182604052826106f8565b905060036000527fc2575a0e9e593c00f959f8c92f12db2869c3395a3b0502d05e2516446f71f85b6000905b8282106106d857506020915082010182610230565b60018160209254838588010152019101906106c3565b91607f169161064b565b91909160208152825180602083015260005b81811061072b575060409293506000838284010152601f8019910116010190565b806020809287010151604082860101520161070a565b600435906001600160a01b03821682036100ff57565b602435906001600160a01b03821682036100ff57565b9181601f840112156100ff5782359167ffffffffffffffff83116100ff576020808501948460051b0101116100ff57565b91908110156107ae5760051b0190565b634e487b7160e01b600052603260045260246000fd5b6001600160a01b03169081156101d4576001600160a01b031691821561085d5760008281528060205260408120548281106108435791604082827fddf252ad1be2c89b69c2b068fc378daa952ba7f163c4a11628f55a4df523b3ef958760209652828652038282205586815280845220818154019055604051908152a3565b916064928463391434e360e21b8452600452602452604452fd5b63ec442f0560e01b600052600060045260246000fd5b6001600160a01b031690811561085d576002548181018091116108d2576002557fddf252ad1be2c89b69c2b068fc378daa952ba7f163c4a11628f55a4df523b3ef602060009284845283825260408420818154019055604051908152a3565b634e487b7160e01b600052601160045260246000fdfea2646970667358221220bd662de5d32cdefb08cbd2b8808c2a7fe5586c6c82f0751e211bf3dcd086386064736f6c634300081c0033",
  "linkReferences": {},
  "deployedLinkReferences": {}
}