{"contracts/core/ThreatToken.sol":{"ThreatToken":{"abi":[{"inputs":[{"internalType":"address","name":"admin","type":"address"}],"stateMutability":"nonpayable","type":"constructor"},{"inputs":[],"name":"AccessControlBadConfirmation","type":"error"},{"inputs":[{"internalType":"address","name":"account","type":"address"},{"internalType":"bytes32","name":"neededRole","type":"bytes32"}],"name":"AccessControlUnauthorizedAccount","type":"error"},{"inputs":[{"internalType":"address","name":"spender","type":"address"},{"internalType":"uint256","name":"allowance","type":"uint256"},{"internalType":"uint256","name":"needed","type":"uint256"}],"name":"ERC20InsufficientAllowance","type":"error"},{"inputs":[{"internalType":"address","name":"sender","type":"address"},{"internalType":"uint256","name":"balance","type":"uint256"},{"internalType":"uint256","name":"needed","type":"uint256"}],"name":"ERC20InsufficientBalance","type":"error"},{"inputs":[{"internalType":"address","name":"approver","type":"address"}],"name":"ERC20InvalidApprover","type":"error"},{"inputs":[{"internalType":"address","name":"receiver","type":"address"}],"name":"ERC20InvalidReceiver","type":"error"},{"inputs":[{"internalType":"address","name":"sender","type":"address"}],"name":"ERC20InvalidSender","type":"error"},{"inputs":[{"internalType":"address","name":"spender","type":"address"}],"name":"ERC20InvalidSpender","type":"error"},{"inputs":[],"name":"EnforcedPause","type":"error"},{"inputs":[],"name":"ExpectedPause","type":"error"},{"inputs":[],"name":"ReentrancyGuardReentrantCall","type":"error"},{"anonymous":false,"inputs":[{"indexed":true,"internalType":"address","name":"owner","type":"address"},{"indexed":true,"internalType":"address","name":"spender","type":"address"},{"indexed":false,"internalType":"uint256","name":"value","type":"uint256"}],"name":"Approval","type":"event"},{"anonymous":false,"inputs":[{"indexed":true,"internalType":"address","name":"engine","type":"address"},{"indexed":false,"internalType":"bool","name":"authorized","type":"bool"}],"name":"EngineAuthorized","type":"event"},{"anonymous":false,"inputs":[{"indexed":false,"internalType":"address","name":"account","type":"address"}],"name":"Paused","type":"event"},{"anonymous":false,"inputs":[{"indexed":true,"internalType":"address","name":"engine","type":"address"},{"indexed":false,"internalType":"uint256","name":"newReputation","type":"uint256"}],"name":"ReputationUpdated","type":"event"},{"anonymous":false,"inputs":[{"indexed":true,"internalType":"address","name":"engine","type":"address"},{"indexed":false,"internalType":"uint256","name":"amount","type":"uint256"},{"indexed":true,"internalType":"bytes32","name":"analysisId","type":"bytes32"}],"name":"RewardDistributed","type":"event"},{"anonymous":false,"inputs":[{"indexed":true,"internalType":"bytes32","name":"role","type":"bytes32"},{"indexed":true,"internalType":"bytes32","name":"previousAdminRole","type":"bytes32"},{"indexed":true,"internalType":"bytes32","name":"newAdminRole","type":"bytes32"}],"name":"RoleAdminChanged","type":"event"},{"anonymous":false,"inputs":[{"indexed":true,"internalType":"bytes32","name":"role","type":"bytes32"},{"indexed":true,"internalType":"address","name":"account","type":"address"},{"indexed":true,"internalType":"address","name":"sender","type":"address"}],"name":"RoleGranted","type":"event"},{"anonymous":false,"inputs":[{"indexed":true,"internalType":"bytes32","name":"role","type":"bytes32"},{"indexed":true,"internalType":"address","name":"account","type":"address"},{"indexed":true,"internalType":"address","name":"sender","type":"address"}],"name":"RoleRevoked","type":"event"},{"anonymous":false,"inputs":[{"indexed":true,"internalType":"address","name":"engine","type":"address"},{"indexed":false,"internalType":"uint256","name":"amount","type":"uint256"},{"indexed":true,"internalType":"bytes32","name":"analysisId","type":"bytes32"},{"indexed":false,"internalType":"uint256","name":"stakeIndex","type":"uint256"}],"name":"Slashed","type":"event"},{"anonymous":false,"inputs":[{"indexed":true,"internalType":"address","name":"engine","type":"address"},{"indexed":false,"internalType":"uint256","name":"amount","type":"uint256"},{"indexed":true,"internalType":"bytes32","name":"analysisId","type":"bytes32"},{"indexed":false,"internalType":"uint256","name":"stakeIndex","type":"uint256"}],"name":"Staked","type":"event"},{"anonymous":false,"inputs":[{"indexed":true,"internalType":"address","name":"to","type":"address"},{"indexed":false,"internalType":"uint256","name":"amount","type":"uint256"}],"name":"TokensMinted","type":"event"},{"anonymous":false,"inputs":[{"indexed":true,"internalType":"address","name":"from","type":"address"},{"indexed":true,"internalType":"address","name":"to","type":"address"},{"indexed":false,"internalType":"uint256","name":"value","type":"uint256"}],"name":"Transfer","type":"event"},{"anonymous":false,"inputs":[{"indexed":false,"internalType":"address","name":"account","type":"address"}],"name":"Unpaused","type":"event"},{"anonymous":false,"inputs":[{"indexed":true,"internalType":"address","name":"engine","type":"address"},{"indexed":false,"internalType":"uint256","name":"amount","type":"uint256"},{"indexed":true,"internalType":"bytes32","name":"analysisId","type":"bytes32"},{"indexed":false,"internalType":"uint256","name":"stakeIndex","type":"uint256"}],"name":"Unstaked","type":"event"},{"inputs":[],"name":"BASE_REWARD_RATE","outputs":[{"internalType":"uint256","name":"","type":"uint256"}],"stateMutability":"view","type":"function"},{"inputs":[],"name":"BONUS_MULTIPLIER","outputs":[{"internalType":"uint256","name":"","type":"uint256"}],"stateMutability":"view","type":"function"},{"inputs":[],"name":"BOUNTY_MANAGER_ROLE","outputs":[{"internalType":"bytes32","name":"","type":"bytes32"}],"stateMutability":"view","type":"function"},{"inputs":[],"name":"DEFAULT_ADMIN_ROLE","outputs":[{"internalType":"bytes32","name":"","type":"bytes32"}],"stateMutability":"view","type":"function"},{"inputs":[],"name":"INITIAL_SUPPLY","outputs":[{"internalType":"uint256","name":"","type":"uint256"}],"stateMutability":"view","type":"function"},{"inputs":[],"name":"MAX_SUPPLY","outputs":[{"internalType":"uint256","name":"","type":"uint256"}],"stateMutability":"view","type":"function"},{"inputs":[],"name":"MINTER_ROLE","outputs":[{"internalType":"bytes32","name":"","type":"bytes32"}],"stateMutability":"view","type":"function"},{"inputs":[],"name":"MIN_STAKE_AMOUNT","outputs":[{"internalType":"uint256","name":"","type":"uint256"}],"stateMutability":"view","type":"function"},{"inputs":[],"name":"PAUSER_ROLE","outputs":[{"internalType":"bytes32","name":"","type":"bytes32"}],"stateMutability":"view","type":"function"},{"inputs":[],"name":"REPUTATION_MANAGER_ROLE","outputs":[{"internalType":"bytes32","name":"","type":"bytes32"}],"stateMutability":"view","type":"function"},{"inputs":[],"name":"SLASH_PERCENTAGE","outputs":[{"internalType":"uint256","name":"","type":"uint256"}],"stateMutability":"view","type":"function"},{"inputs":[],"name":"STAKE_LOCK_PERIOD","outputs":[{"internalType":"uint256","name":"","type":"uint256"}],"stateMutability":"view","type":"function"},{"inputs":[{"internalType":"address","name":"owner","type":"address"},{"internalType":"address","name":"spender","type":"address"}],"name":"allowance","outputs":[{"internalType":"uint256","name":"","type":"uint256"}],"stateMutability":"view","type":"function"},{"inputs":[{"internalType":"bytes32","name":"","type":"bytes32"}],"name":"analysisRewards","outputs":[{"internalType":"uint256","name":"totalPool","type":"uint256"},{"internalType":"uint256","name":"distributed","type":"uint256"},{"internalType":"bool","name":"finalized","type":"bool"}],"stateMutability":"view","type":"function"},{"inputs":[{"internalType":"address","name":"spender","type":"address"},{"internalType":"uint256","name":"value","type":"uint256"}],"name":"approve","outputs":[{"internalType":"bool","name":"","type":"bool"}],"stateMutability":"nonpayable","type":"function"},{"inputs":[{"internalType":"address","name":"","type":"address"}],"name":"authorizedEngines","outputs":[{"internalType":"bool","name":"","type":"bool"}],"stateMutability":"view","type":"function"},{"inputs":[{"internalType":"address","name":"account","type":"address"}],"name":"balanceOf","outputs":[{"internalType":"uint256","name":"","type":"uint256"}],"stateMutability":"view","type":"function"},{"inputs":[{"internalType":"uint256","name":"value","type":"uint256"}],"name":"burn","outputs":[],"stateMutability":"nonpayable","type":"function"},{"inputs":[{"internalType":"address","name":"account","type":"address"},{"internalType":"uint256","name":"value","type":"uint256"}],"name":"burnFrom","outputs":[],"stateMutability":"nonpayable","type":"function"},{"inputs":[],"name":"decimals","outputs":[{"internalType":"uint8","name":"","type":"uint8"}],"stateMutability":"view","type":"function"},{"inputs":[{"internalType":"bytes32","name":"analysisId","type":"bytes32"},{"internalType":"address[]","name":"correctEngines","type":"address[]"},{"internalType":"bool[]","name":"isFirstCorrect","type":"bool[]"}],"name":"distributeRewards","outputs":[],"stateMutability":"nonpayable","type":"function"},{"inputs":[{"internalType":"address","name":"token","type":"address"},{"internalType":"uint256","name":"amount","type":"uint256"}],"name":"emergencyRecover","outputs":[],"stateMutability":"nonpayable","type":"function"},{"inputs":[{"internalType":"address","name":"","type":"address"}],"name":"engineReputation","outputs":[{"internalType":"uint256","name":"","type":"uint256"}],"stateMutability":"view","type":"function"},{"inputs":[{"internalType":"address","name":"","type":"address"},{"internalType":"uint256","name":"","type":"uint256"}],"name":"engineStakes","outputs":[{"internalType":"uint256","name":"amount","type":"uint256"},{"internalType":"uint256","name":"lockTime","type":"uint256"},{"internalType":"bool","name":"active","type":"bool"},{"internalType":"address","name":"engine","type":"address"},{"internalType":"bytes32","name":"analysisId","type":"bytes32"}],"stateMutability":"view","type":"function"},{"inputs":[{"internalType":"bytes32","name":"analysisId","type":"bytes32"},{"internalType":"address","name":"engine","type":"address"}],"name":"getAnalysisReward","outputs":[{"internalType":"uint256","name":"","type":"uint256"}],"stateMutability":"view","type":"function"},{"inputs":[{"internalType":"address","name":"engine","type":"address"}],"name":"getEngineStakes","outputs":[{"components":[{"internalType":"uint256","name":"amount","type":"uint256"},{"internalType":"uint256","name":"lockTime","type":"uint256"},{"internalType":"bool","name":"active","type":"bool"},{"internalType":"address","name":"engine","type":"address"},{"internalType":"bytes32","name":"analysisId","type":"bytes32"}],"internalType":"struct ThreatToken.Stake[]","name":"","type":"tuple[]"}],"stateMutability":"view","type":"function"},{"inputs":[{"internalType":"bytes32","name":"role","type":"bytes32"}],"name":"getRoleAdmin","outputs":[{"internalType":"bytes32","name":"","type":"bytes32"}],"stateMutability":"view","type":"function"},{"inputs":[],"name":"globalActiveStakes","outputs":[{"internalType":"uint256","name":"","type":"uint256"}],"stateMutability":"view","type":"function"},{"inputs":[{"internalType":"bytes32","name":"role","type":"bytes32"},{"internalType":"address","name":"account","type":"address"}],"name":"grantRole","outputs":[],"stateMutability":"nonpayable","type":"function"},{"inputs":[{"internalType":"bytes32","name":"role","type":"bytes32"},{"internalType":"address","name":"account","type":"address"}],"name":"hasRole","outputs":[{"internalType":"bool","name":"","type":"bool"}],"stateMutability":"view","type":"function"},{"inputs":[{"internalType":"address","name":"to","type":"address"},{"internalType":"uint256","name":"amount","type":"uint256"}],"name":"mint","outputs":[],"stateMutability":"nonpayable","type":"function"},{"inputs":[],"name":"name","outputs":[{"internalType":"string","name":"","type":"string"}],"stateMutability":"view","type":"function"},{"inputs":[],"name":"pause","outputs":[],"stateMutability":"nonpayable","type":"function"},{"inputs":[],"name":"paused","outputs":[{"internalType":"bool","name":"","type":"bool"}],"stateMutability":"view","type":"function"},{"inputs":[{"internalType":"bytes32","name":"role","type":"bytes32"},{"internalType":"address","name":"callerConfirmation","type":"address"}],"name":"renounceRole","outputs":[],"stateMutability":"nonpayable","type":"function"},{"inputs":[{"internalType":"bytes32","name":"role","type":"bytes32"},{"internalType":"address","name":"account","type":"address"}],"name":"revokeRole","outputs":[],"stateMutability":"nonpayable","type":"function"},{"inputs":[{"internalType":"address","name":"engine","type":"address"},{"internalType":"bool","name":"authorized","type":"bool"}],"name":"setEngineAuthorization","outputs":[],"stateMutability":"nonpayable","type":"function"},{"inputs":[{"internalType":"address","name":"engine","type":"address"},{"internalType":"uint256","name":"stakeIndex","type":"uint256"}],"name":"slashStake","outputs":[],"stateMutability":"nonpayable","type":"function"},{"inputs":[{"internalType":"uint256","name":"amount","type":"uint256"},{"internalType":"bytes32","name":"analysisId","type":"bytes32"}],"name":"stakeForAnalysis","outputs":[],"stateMutability":"nonpayable","type":"function"},{"inputs":[{"internalType":"bytes4","name":"interfaceId","type":"bytes4"}],"name":"supportsInterface","outputs":[{"internalType":"bool","name":"","type":"bool"}],"stateMutability":"view","type":"function"},{"inputs":[],"name":"symbol","outputs":[{"internalType":"string","name":"","type":"string"}],"stateMutability":"view","type":"function"},{"inputs":[{"internalType":"address","name":"","type":"address"}],"name":"totalStaked","outputs":[{"internalType":"uint256","name":"","type":"uint256"}],"stateMutability":"view","type":"function"},{"inputs":[],"name":"totalSupply","outputs":[{"internalType":"uint256","name":"","type":"uint256"}],"stateMutability":"view","type":"function"},{"inputs":[{"internalType":"address","name":"to","type":"address"},{"internalType":"uint256","name":"value","type":"uint256"}],"name":"transfer","outputs":[{"internalType":"bool","name":"","type":"bool"}],"stateMutability":"nonpayable","type":"function"},{"inputs":[{"internalType":"address","name":"from","type":"address"},{"internalType":"address","name":"to","type":"address"},{"internalType":"uint256","name":"value","type":"uint256"}],"name":"transferFrom","outputs":[{"internalType":"bool","name":"","type":"bool"}],"stateMutability":"nonpayable","type":"function"},{"inputs":[],"name":"unpause","outputs":[],"stateMutability":"nonpayable","type":"function"},{"inputs":[{"internalType":"uint256","name":"stakeIndex","type":"uint256"}],"name":"unstake","outputs":[],"stateMutability":"nonpayable","type":"function"}],"evm":{"bytecode":{"linkReferences":{},"object":"60806040523461043a576129c76020813803918261001c8161043f565b93849283398101031261043a57516001600160a01b03811680820361043a57610045604061043f565b91600b83526a2a343932b0ba2a37b5b2b760a91b6020840152610068604061043f565b600681526515121491505560d21b602082015283516001600160401b03811161034357600354600181811c91168015610430575b602082101461032357601f81116103cb575b50602094601f821160011461036457948192939495600092610359575b50508160011b916000199060031b1c1916176003555b8051906001600160401b03821161034357600454600181811c91168015610339575b602082101461032357601f81116102be575b50602090601f83116001146102515761017b93929160009183610246575b50508160011b916000199060031b1c1916176004555b600160075561015781610464565b50610161816104e0565b5061016b81610578565b5061017581610634565b506106cc565b5080156102305760ff6005541661021f576002546a52b7d2dcc80cd2e4000000810180911161020957600255600081815280602052604081206a52b7d2dcc80cd2e400000081540190557fddf252ad1be2c89b69c2b068fc378daa952ba7f163c4a11628f55a4df523b3ef60206040516a52b7d2dcc80cd2e40000008152a36040516121c290816107658239f35b634e487b7160e01b600052601160045260246000fd5b63d93c066560e01b60005260046000fd5b63ec442f0560e01b600052600060045260246000fd5b015190503880610133565b90601f198316916004600052816000209260005b8181106102a6575091600193918561017b9796941061028d575b505050811b01600455610149565b015160001960f88460031b161c1916905538808061027f565b92936020600181928786015181550195019301610265565b60046000527f8a35acfbc15ff81a39ae7d344fd709f28e8600b4aa8c65c6b64bfe7fe36bd19b601f840160051c81019160208510610319575b601f0160051c01905b81811061030d5750610115565b60008155600101610300565b90915081906102f7565b634e487b7160e01b600052602260045260246000fd5b90607f1690610103565b634e487b7160e01b600052604160045260246000fd5b0151905038806100cb565b601f198216956003600052806000209160005b8881106103b35750836001959697981061039a575b505050811b016003556100e1565b015160001960f88460031b161c1916905538808061038c565b91926020600181928685015181550194019201610377565b60036000527fc2575a0e9e593c00f959f8c92f12db2869c3395a3b0502d05e2516446f71f85b601f830160051c81019160208410610426575b601f0160051c01905b81811061041a57506100ae565b6000815560010161040d565b9091508190610404565b90607f169061009c565b600080fd5b6040519190601f01601f191682016001600160401b0381118382101761034357604052565b6001600160a01b03811660009081526000805160206129a7833981519152602052604090205460ff166104da576001600160a01b031660008181526000805160206129a783398151915260205260408120805460ff191660011790553391906000805160206129278339815191528180a4600190565b50600090565b6001600160a01b0381166000908152600080516020612947833981519152602052604090205460ff166104da576001600160a01b0316600081815260008051602061294783398151915260205260408120805460ff191660011790553391907f65d7a28e3265b37a6474929f336521b332c1681b933f6cb9f3376673440d862a906000805160206129278339815191529080a4600190565b6001600160a01b03811660009081527f3195c024b2ddd6d9b8f6c836aa52f67fe69376c8903d009b80229b3ce4425f51602052604090205460ff166104da576001600160a01b031660008181527f3195c024b2ddd6d9b8f6c836aa52f67fe69376c8903d009b80229b3ce4425f5160205260408120805460ff191660011790553391907f9f2df0fed2c77648de5860a4cc508cd0818c85b8b8a1ab4ceeef8d981c8956a6906000805160206129278339815191529080a4600190565b6001600160a01b0381166000908152600080516020612967833981519152602052604090205460ff166104da576001600160a01b0316600081815260008051602061296783398151915260205260408120805460ff191660011790553391907f1099f3e9139a65223b9ebdd967a9bcc626157189e78178d8ab04d9ac02bdda22906000805160206129278339815191529080a4600190565b6001600160a01b0381166000908152600080516020612987833981519152602052604090205460ff166104da576001600160a01b0316600081815260008051602061298783398151915260205260408120805460ff191660011790553391907fa5df84d05f94c8e589750a34f9631c6df369aabc0811ccbbd233872ff60aec66906000805160206129278339815191529080a460019056fe608080604052600436101561001357600080fd5b60003560e01c90816301ffc9a714611a475750806306fdde0314611988578063095ea7b3146118d65780630e40fe9f146118ba57806318160ddd1461189c5780631932526d1461187e57806323b872dd14611846578063248a9ca31461181157806327ed7188146117ed5780632c23f962146117a55780632e17de78146115d75780632ef87062146112675780632f2ff15d146112275780632f8c6b8d146110e75780632ff2e9dc146110c1578063313ce567146110a5578063319dc99614610fb557806332cb6b0c14610f8e57806336568abe14610f485780633f4ba83a14610edf57806340c10f1914610ded57806342966c6814610dd057806352727f6a14610d445780635435b89f14610cf95780635c975abb14610cd657806370a0823114610c9c57806379cc679014610c6c5780638456cb5914610c125780638aa2855014610bf657806391d1485414610ba957806395d89b4114610aa15780639639011e1461092157806398d1c5a8146107955780639bfd8d611461075b5780639f29f1351461073f578063a217fddf14610723578063a9059cbb146106f2578063b1bf884a146106b3578063bdc0e18114610679578063c3622bad146103cb578063c46c18e3146103ad578063d539139314610372578063d547741f1461032b578063dd62ed3e146102da578063e63ab1e91461029f578063e9f244b4146102645763eb0fd86a1461022457600080fd5b3461025f57600036600319011261025f5760206040517fa5df84d05f94c8e589750a34f9631c6df369aabc0811ccbbd233872ff60aec668152f35b600080fd5b3461025f57600036600319011261025f5760206040517f1099f3e9139a65223b9ebdd967a9bcc626157189e78178d8ab04d9ac02bdda228152f35b3461025f57600036600319011261025f5760206040517f65d7a28e3265b37a6474929f336521b332c1681b933f6cb9f3376673440d862a8152f35b3461025f57604036600319011261025f576102f3611ae3565b6102fb611af9565b6001600160a01b039182166000908152600160209081526040808320949093168252928352819020549051908152f35b3461025f57604036600319011261025f5761037060043561034a611af9565b9061036b61036682600052600660205260016040600020015490565b611f4b565b61207d565b005b3461025f57600036600319011261025f5760206040517f9f2df0fed2c77648de5860a4cc508cd0818c85b8b8a1ab4ceeef8d981c8956a68152f35b3461025f57600036600319011261025f576020600d54604051908152f35b3461025f57604036600319011261025f576024356004356103ea611e28565b6103f2611e4a565b33600052600c60205260ff604060002054161561063c5768056bc75e2d6310000081106105f75733600052600060205280604060002054106105bb57610439813033611d5b565b6201518042018042116105795760405161045281611b72565b8281526020810191825260408101600181526060820190338252608083019186835233600052600860205260406000208054680100000000000000008110156105a5576104a491600182018155611b40565b95909561058f576003945186555160018601556104d46002860192511515839060ff801983541691151516179055565b518154610100600160a81b03191660089190911b610100600160a81b031617905551910155336000908152600a602052604090208054610515908390611c62565b905561052381600d54611c62565b600d5533600052600860205260406000205460001981019081116105795760405191825260208201527f6ab56402128d5ce83ce14710fcb2e6b3e7cd4670f7f1711c966829beb0cdc56260403392a36001600755005b634e487b7160e01b600052601160045260246000fd5b634e487b7160e01b600052600060045260246000fd5b634e487b7160e01b600052604160045260246000fd5b60405162461bcd60e51b8152602060048201526014602482015273496e73756666696369656e742062616c616e636560601b6044820152606490fd5b60405162461bcd60e51b815260206004820152601a60248201527f416d6f756e742062656c6f77206d696e696d756d207374616b650000000000006044820152606490fd5b60405162461bcd60e51b8152602060048201526015602482015274115b99da5b99481b9bdd08185d5d1a1bdc9a5e9959605a1b6044820152606490fd5b3461025f57602036600319011261025f576001600160a01b0361069a611ae3565b16600052600b6020526020604060002054604051908152f35b3461025f57602036600319011261025f576001600160a01b036106d4611ae3565b16600052600c602052602060ff604060002054166040519015158152f35b3461025f57604036600319011261025f5761071861070e611ae3565b6024359033611d5b565b602060405160018152f35b3461025f57600036600319011261025f57602060405160008152f35b3461025f57600036600319011261025f576020604051600a8152f35b3461025f57602036600319011261025f576001600160a01b0361077c611ae3565b16600052600a6020526020604060002054604051908152f35b3461025f57604036600319011261025f576107ae611ae3565b602435906107ba611e67565b6107c2611e28565b60018060a01b0316908160005260086020526107e46040600020548210611bb0565b8160005260086020526107fb816040600020611b40565b5061080c60ff600283015416611bf2565b805490600a820290828204600a1483151715610579578492600360409261085860647f22ef2969215e4455c001a52f88fc7e2c518e034a35a5f76fa84f658ceb51346796048094611c31565b815585600052600a60205283600020610872848254611c31565b905561088083600d54611c31565b600d5561088d8330612103565b85600052600b6020528284600020541160001461090d5785600052600b602052836000206108bc848254611c31565b90555b01549482519182526020820152a380600052600b6020527ffc577563f1b9a0461e24abef1e1fcc0d33d3d881f20b5df6dda59de4aae2c8216020604060002054604051908152a26001600755005b85600052600b6020526000848120556108bf565b3461025f57604036600319011261025f5761093a611ae3565b3360009081527f54cdd369e4e8a8515e52ca72ec816c2101831ad1f18bf44102ed171459c9b4f86020526040902054602435919060ff1615610a87576001600160a01b031690308214610a20575b600091806109bc5750818080928181156109b3575b3390f1156109a757005b6040513d6000823e3d90fd5b506108fc61099d565b6044602092604051948593849263a9059cbb60e01b845233600485015260248401525af180156109a7576109ec57005b6020813d602011610a18575b81610a0560209383611b8e565b8101031261025f57518015150361025f57005b3d91506109f8565b306000526000602052610a3b604060002054600d5490611c31565b8111156109885760405162461bcd60e51b815260206004820152601c60248201527f43616e6e6f74207265636f766572207374616b656420746f6b656e73000000006044820152606490fd5b63e2517d3f60e01b60005233600452600060245260446000fd5b3461025f57600036600319011261025f5760405160006004548060011c90600181168015610b9f575b602083108114610b8b57828552908115610b675750600114610b07575b610b0383610af781850382611b8e565b60405191829182611a9a565b0390f35b91905060046000527f8a35acfbc15ff81a39ae7d344fd709f28e8600b4aa8c65c6b64bfe7fe36bd19b916000905b808210610b4d57509091508101602001610af7610ae7565b919260018160209254838588010152019101909291610b35565b60ff191660208086019190915291151560051b84019091019150610af79050610ae7565b634e487b7160e01b84526022600452602484fd5b91607f1691610aca565b3461025f57604036600319011261025f57610bc2611af9565b600435600052600660205260406000209060018060a01b0316600052602052602060ff604060002054166040519015158152f35b3461025f57600036600319011261025f57602060405160968152f35b3461025f57600036600319011261025f57610c2b611ed9565b610c33611e4a565b600160ff1960055416176005557f62e78cea01bee320cd4e420270b5ea74000d11b0c9f74754ebdbfc544b05a2586020604051338152a1005b3461025f57604036600319011261025f57610370610c88611ae3565b60243590610c97823383611cb0565b612103565b3461025f57602036600319011261025f576001600160a01b03610cbd611ae3565b1660005260006020526020604060002054604051908152f35b3461025f57600036600319011261025f57602060ff600554166040519015158152f35b3461025f57604036600319011261025f57610d12611af9565b600435600052600960205260026040600020019060018060a01b03166000526020526020604060002054604051908152f35b3461025f57604036600319011261025f57610d5d611ae3565b6001600160a01b031660009081526008602052604090208054602435919082101561025f5760a091610d8e91611b40565b508054906001810154906003600282015491015491604051938452602084015260ff811615156040840152600180851b039060081c1660608301526080820152f35b3461025f57602036600319011261025f5761037060043533612103565b3461025f57604036600319011261025f57610e06611ae3565b3360009081527f3195c024b2ddd6d9b8f6c836aa52f67fe69376c8903d009b80229b3ce4425f516020526040902054602435919060ff1615610ea65760207f3f2c9d57c068687834f0de942a9babb9e5acab57d516d3480a3c16ee165a427391610e896b033b2e3c9fd0803ce8000000610e8286600254611c62565b1115611c6f565b610e938482611f88565b6040519384526001600160a01b031692a2005b63e2517d3f60e01b600052336004527f9f2df0fed2c77648de5860a4cc508cd0818c85b8b8a1ab4ceeef8d981c8956a660245260446000fd5b3461025f57600036600319011261025f57610ef8611ed9565b60055460ff811615610f375760ff19166005557f5db9ee0a495bf2e6ff9c91a7834c1ba4fdd244a5e8aa4e537bd38aeae4b073aa6020604051338152a1005b638dfc202b60e01b60005260046000fd5b3461025f57604036600319011261025f57610f61611af9565b336001600160a01b03821603610f7d576103709060043561207d565b63334bd91960e11b60005260046000fd5b3461025f57600036600319011261025f5760206040516b033b2e3c9fd0803ce80000008152f35b3461025f57604036600319011261025f57610fce611ae3565b602435908115159081830361025f573360009081527f46b51a4c03c4b503e27f8c62446c378e534965ac4316cc9587f460b6c5616eb7602052604090205460ff161561106c577f83bf8afac9234ed83a207493167e1591d6a431888f797c46d0c902e27b8dcd2a9161106360209260018060a01b03169485600052600c845260406000209060ff801983541691151516179055565b604051908152a2005b63e2517d3f60e01b600052336004527fa5df84d05f94c8e589750a34f9631c6df369aabc0811ccbbd233872ff60aec6660245260446000fd5b3461025f57600036600319011261025f57602060405160128152f35b3461025f57600036600319011261025f5760206040516a52b7d2dcc80cd2e40000008152f35b3461025f57602036600319011261025f576001600160a01b03611108611ae3565b166000526008602052604060002080549067ffffffffffffffff82116105a5576040519161113c60208260051b0184611b8e565b80835260208301809260005260206000206000915b8383106111d05784866040519182916020830190602084525180915260408301919060005b818110611184575050500390f35b91935091602060a0600192608087518051835284810151858401526040810151151560408401528580851b03606082015116606084015201516080820152019401910191849392611176565b600460206001926040516111e381611b72565b855481528486015483820152600286015460ff811615156040830152858060a01b039060081c16606082015260038601546080820152815201920192019190611151565b3461025f57604036600319011261025f57610370600435611246611af9565b9061126261036682600052600660205260016040600020015490565b611fee565b3461025f57606036600319011261025f5760043560243567ffffffffffffffff811161025f5761129b903690600401611b0f565b9060443567ffffffffffffffff811161025f576112bc903690600401611b0f565b90936112c6611e67565b6112ce611e28565b81840361159a5780600052600960205260ff6003604060002001541661155557806000959295526009602052604060002093600095869060028701945b83831061141c575050506113316b033b2e3c9fd0803ce8000000610e8288600254611c62565b60005b81811061135957868655600180870188905560038701805460ff191682179055600755005b8061136f61136a6001938589611c3e565b611c4e565b8460406000858060a01b0384168152886020522054917f254f4ef1b561c715e2c9e6d6bde03d7d5afacf3d9d1d0fd8423fe86cc53615676020846113d6888060a01b03851696879586600052600b855260406000206113cf838254611c62565b9055611f88565b604051908152a380600052600b6020527ffc577563f1b9a0461e24abef1e1fcc0d33d3d881f20b5df6dda59de4aae2c8216020604060002054604051908152a201611334565b90919761142d61136a8a868a611c3e565b6001600160a01b03166000818152600860205260408120805490825b8281106114f85750505081600052600b6020526103e86040600020540490600581029080820460051490151715610579576064900481810291818304148115171561057957606461149b920490611c62565b906114a78b8686611c3e565b35801515810361025f576114da575b906001928160406114d19460009081528b6020522055611c62565b9801919061130b565b906096810290808204609614901517156105795760649004906114b6565b8960036115058385611b40565b500154148061153d575b61151c575b600101611449565b9261153560019161152d8685611b40565b505490611c62565b939050611514565b5060ff600261154c8385611b40565b5001541661150f565b60405162461bcd60e51b815260206004820152601b60248201527f5265776172647320616c726561647920646973747269627574656400000000006044820152606490fd5b60405162461bcd60e51b8152602060048201526015602482015274082e4e4c2f240d8cadccee8d040dad2e6dac2e8c6d605b1b6044820152606490fd5b3461025f57602036600319011261025f576004356115f3611e28565b6115fb611e4a565b3360005260086020526116146040600020548210611bb0565b33600052600860205261162b816040600020611b40565b50600281019081549161164060ff8416611bf2565b33600884901c6001600160a01b03160361176e57600182015442106117345760038201918254600052600960205260ff60036040600020015416156116f657549260ff1916905533600052600a60205260406000206116a0838254611c31565b90556116ae82600d54611c31565b600d556116bc823330611d5b565b549160405191825260208201527f080f7fcd27accd4f6c31241245a0cd594803b9db5059fcd3be5091bdbc14522460403392a36001600755005b60405162461bcd60e51b8152602060048201526016602482015275105b985b1e5cda5cc81b9bdd08199a5b985b1a5e995960521b6044820152606490fd5b60405162461bcd60e51b815260206004820152601260248201527114dd185ad9481cdd1a5b1b081b1bd8dad95960721b6044820152606490fd5b60405162461bcd60e51b815260206004820152600f60248201526e2737ba1039ba30b5b29037bbb732b960891b6044820152606490fd5b3461025f57602036600319011261025f5760043560005260096020526060604060002080549060ff600360018301549201541690604051928352602083015215156040820152f35b3461025f57600036600319011261025f57602060405168056bc75e2d631000008152f35b3461025f57602036600319011261025f57602061183e600435600052600660205260016040600020015490565b604051908152f35b3461025f57606036600319011261025f57610718611862611ae3565b61186a611af9565b60443591611879833383611cb0565b611d5b565b3461025f57600036600319011261025f576020604051620151808152f35b3461025f57600036600319011261025f576020600254604051908152f35b3461025f57600036600319011261025f57602060405160058152f35b3461025f57604036600319011261025f576118ef611ae3565b602435903315611972576001600160a01b031690811561195c57336000526001602052604060002082600052602052806040600020556040519081527f8c5be1e5ebec7d5bd14f71427d1e84f3dd0314c0f7b2291e5b200ac8c7c3b92560203392a3602060405160018152f35b634a1406b160e11b600052600060045260246000fd5b63e602df0560e01b600052600060045260246000fd5b3461025f57600036600319011261025f5760405160006003548060011c90600181168015611a3d575b602083108114610b8b57828552908115610b6757506001146119dd57610b0383610af781850382611b8e565b91905060036000527fc2575a0e9e593c00f959f8c92f12db2869c3395a3b0502d05e2516446f71f85b916000905b808210611a2357509091508101602001610af7610ae7565b919260018160209254838588010152019101909291611a0b565b91607f16916119b1565b3461025f57602036600319011261025f576004359063ffffffff60e01b821680920361025f57602091637965db0b60e01b8114908115611a89575b5015158152f35b6301ffc9a760e01b14905083611a82565b91909160208152825180602083015260005b818110611acd575060409293506000838284010152601f8019910116010190565b8060208092870101516040828601015201611aac565b600435906001600160a01b038216820361025f57565b602435906001600160a01b038216820361025f57565b9181601f8401121561025f5782359167ffffffffffffffff831161025f576020808501948460051b01011161025f57565b8054821015611b5c5760005260206000209060021b0190600090565b634e487b7160e01b600052603260045260246000fd5b60a0810190811067ffffffffffffffff8211176105a557604052565b90601f8019910116810190811067ffffffffffffffff8211176105a557604052565b15611bb757565b60405162461bcd60e51b8152602060048201526013602482015272092dcecc2d8d2c840e6e8c2d6ca40d2dcc8caf606b1b6044820152606490fd5b15611bf957565b60405162461bcd60e51b815260206004820152601060248201526f5374616b65206e6f742061637469766560801b6044820152606490fd5b9190820391821161057957565b9190811015611b5c5760051b0190565b356001600160a01b038116810361025f5790565b9190820180921161057957565b15611c7657565b60405162461bcd60e51b815260206004820152601260248201527145786365656473206d617820737570706c7960701b6044820152606490fd5b6001600160a01b039081166000818152600160209081526040808320948616835293905291909120549291906000198410611cec575b50505050565b828410611d36578015611972576001600160a01b0382161561195c57600052600160205260406000209060018060a01b031660005260205260406000209103905538808080611ce6565b508290637dc7a0d960e11b60005260018060a01b031660045260245260445260646000fd5b6001600160a01b0316908115611e12576001600160a01b0316918215611dfc57611d83611e4a565b6000828152806020526040812054828110611de25791604082827fddf252ad1be2c89b69c2b068fc378daa952ba7f163c4a11628f55a4df523b3ef958760209652828652038282205586815280845220818154019055604051908152a3565b916064928463391434e360e21b8452600452602452604452fd5b63ec442f0560e01b600052600060045260246000fd5b634b637e8f60e11b600052600060045260246000fd5b600260075414611e39576002600755565b633ee5aeb560e01b60005260046000fd5b60ff60055416611e5657565b63d93c066560e01b60005260046000fd5b3360009081527f175d78f916a1b5c34fce2e95011bd8d1f4c7d7f3b97a43a570884309db3fd3c0602052604090205460ff1615611ea057565b63e2517d3f60e01b600052336004527f1099f3e9139a65223b9ebdd967a9bcc626157189e78178d8ab04d9ac02bdda2260245260446000fd5b3360009081527fe09f975e15f8f53f24cbbc282b13c40b84df485fcdb8d3997fa103dc5a4ef841602052604090205460ff1615611f1257565b63e2517d3f60e01b600052336004527f65d7a28e3265b37a6474929f336521b332c1681b933f6cb9f3376673440d862a60245260446000fd5b600081815260066020908152604080832033845290915290205460ff1615611f705750565b63e2517d3f60e01b6000523360045260245260446000fd5b6001600160a01b0316908115611dfc57611fa0611e4a565b611fac81600254611c62565b6002557fddf252ad1be2c89b69c2b068fc378daa952ba7f163c4a11628f55a4df523b3ef602060009284845283825260408420818154019055604051908152a3565b60008181526006602090815260408083206001600160a01b038616845290915290205460ff166120765760008181526006602090815260408083206001600160a01b0395909516808452949091528120805460ff19166001179055339291907f2f8788117e7eff1d82e926ec794901d17c78024a50270940304540a733656f0d9080a4600190565b5050600090565b60008181526006602090815260408083206001600160a01b038616845290915290205460ff16156120765760008181526006602090815260408083206001600160a01b0395909516808452949091528120805460ff19169055339291907ff6391f5c32d9c69d2a47ea670b442974b53935d1edc7fd64eb21e047a839171b9080a4600190565b6001600160a01b03168015611e125761211a611e4a565b60009181835282602052604083205481811061217357817fddf252ad1be2c89b69c2b068fc378daa952ba7f163c4a11628f55a4df523b3ef926020928587528684520360408620558060025403600255604051908152a3565b6064939263391434e360e21b8452600452602452604452fdfea26469706673582212208b10ca085f98a1881e243fd91d30a717556cdf58bcbce8f73c28c0f66799d91264736f6c634300081c00332f8788117e7eff1d82e926ec794901d17c78024a50270940304540a733656f0de09f975e15f8f53f24cbbc282b13c40b84df485fcdb8d3997fa103dc5a4ef841175d78f916a1b5c34fce2e95011bd8d1f4c7d7f3b97a43a570884309db3fd3c046b51a4c03c4b503e27f8c62446c378e534965ac4316cc9587f460b6c5616eb754cdd369e4e8a8515e52ca72ec816c2101831ad1f18bf44102ed171459c9b4f8","opcodes":"PUSH1 0x80 PUSH1 0x40 MSTORE CALLVALUE PUSH2 0x43A JUMPI PUSH2 0x29C7 PUSH1 0x20 DUP2 CODESIZE SUB SWAP2 DUP3 PUSH2 0x1C DUP2 PUSH2 0x43F JUMP JUMPDEST SWAP4 DUP5 SWAP3 DUP4 CODECOPY DUP2 ADD SUB SLT PUSH2 0x43A JUMPI MLOAD PUSH1 0x1 PUSH1 0x1 PUSH1 0xA0 SHL SUB DUP2 AND DUP1 DUP3 SUB PUSH2 0x43A JUMPI PUSH2 0x45 PUSH1 0x40 PUSH2 0x43F JUMP JUMPDEST SWAP2 PUSH1 0xB DUP4 MSTORE PUSH11 0x2A343932B0BA2A37B5B2B7 PUSH1 0xA9 SHL PUSH1 0x20 DUP5 ADD MSTORE PUSH2 0x68 PUSH1 0x40 PUSH2 0x43F JUMP JUMPDEST PUSH1 0x6 DUP2 MSTORE PUSH6 0x151214915055 PUSH1 0xD2 SHL PUSH1 0x20 DUP3 ADD MSTORE DUP4 MLOAD PUSH1 0x1 PUSH1 0x1 PUSH1 0x40 SHL SUB DUP2 GT PUSH2 0x343 JUMPI PUSH1 0x3 SLOAD PUSH1 0x1 DUP2 DUP2 SHR SWAP2 AND DUP1 ISZERO PUSH2 0x430 JUMPI JUMPDEST PUSH1 0x20 DUP3 LT EQ PUSH2 0x323 JUMPI PUSH1 0x1F DUP2 GT PUSH2 0x3CB JUMPI JUMPDEST POP PUSH1 0x20 SWAP5 PUSH1 0x1F DUP3 GT PUSH1 0x1 EQ PUSH2 0x364 JUMPI SWAP5 DUP2 SWAP3 SWAP4 SWAP5 SWAP6 PUSH1 0x0 SWAP3 PUSH2 0x359 JUMPI JUMPDEST POP POP DUP2 PUSH1 0x1 SHL SWAP2 PUSH1 0x0 NOT SWAP1 PUSH1 0x3 SHL SHR NOT AND OR PUSH1 0x3 SSTORE JUMPDEST DUP1 MLOAD SWAP1 PUSH1 0x1 PUSH1 0x1 PUSH1 0x40 SHL SUB DUP3 GT PUSH2 0x343 JUMPI PUSH1 0x4 SLOAD PUSH1 0x1 DUP2 DUP2 SHR SWAP2 AND DUP1 ISZERO PUSH2 0x339 JUMPI JUMPDEST PUSH1 0x20 DUP3 LT EQ PUSH2 0x323 JUMPI PUSH1 0x1F DUP2 GT PUSH2 0x2BE JUMPI JUMPDEST POP PUSH1 0x20 SWAP1 PUSH1 0x1F DUP4 GT PUSH1 0x1 EQ PUSH2 0x251 JUMPI PUSH2 0x17B SWAP4 SWAP3 SWAP2 PUSH1 0x0 SWAP2 DUP4 PUSH2 0x246 JUMPI JUMPDEST POP POP DUP2 PUSH1 0x1 SHL SWAP2 PUSH1 0x0 NOT SWAP1 PUSH1 0x3 SHL SHR NOT AND OR PUSH1 0x4 SSTORE JUMPDEST PUSH1 0x1 PUSH1 0x7 SSTORE PUSH2 0x157 DUP2 PUSH2 0x464 JUMP JUMPDEST POP PUSH2 0x161 DUP2 PUSH2 0x4E0 JUMP JUMPDEST POP PUSH2 0x16B DUP2 PUSH2 0x578 JUMP JUMPDEST POP PUSH2 0x175 DUP2 PUSH2 0x634 JUMP JUMPDEST POP PUSH2 0x6CC JUMP JUMPDEST POP DUP1 ISZERO PUSH2 0x230 JUMPI PUSH1 0xFF PUSH1 0x5 SLOAD AND PUSH2 0x21F JUMPI PUSH1 0x2 SLOAD PUSH11 0x52B7D2DCC80CD2E4000000 DUP2 ADD DUP1 SWAP2 GT PUSH2 0x209 JUMPI PUSH1 0x2 SSTORE PUSH1 0x0 DUP2 DUP2 MSTORE DUP1 PUSH1 0x20 MSTORE PUSH1 0x40 DUP2 KECCAK256 PUSH11 0x52B7D2DCC80CD2E4000000 DUP2 SLOAD ADD SWAP1 SSTORE PUSH32 0xDDF252AD1BE2C89B69C2B068FC378DAA952BA7F163C4A11628F55A4DF523B3EF PUSH1 0x20 PUSH1 0x40 MLOAD PUSH11 0x52B7D2DCC80CD2E4000000 DUP2 MSTORE LOG3 PUSH1 0x40 MLOAD PUSH2 0x21C2 SWAP1 DUP2 PUSH2 0x765 DUP3 CODECOPY RETURN JUMPDEST PUSH4 0x4E487B71 PUSH1 0xE0 SHL PUSH1 0x0 MSTORE PUSH1 0x11 PUSH1 0x4 MSTORE PUSH1 0x24 PUSH1 0x0 REVERT JUMPDEST PUSH4 0xD93C0665 PUSH1 0xE0 SHL PUSH1 0x0 MSTORE PUSH1 0x4 PUSH1 0x0 REVERT JUMPDEST PUSH4 0xEC442F05 PUSH1 0xE0 SHL PUSH1 0x0 MSTORE PUSH1 0x0 PUSH1 0x4 MSTORE PUSH1 0x24 PUSH1 0x0 REVERT JUMPDEST ADD MLOAD SWAP1 POP CODESIZE DUP1 PUSH2 0x133 JUMP JUMPDEST SWAP1 PUSH1 0x1F NOT DUP4 AND SWAP2 PUSH1 0x4 PUSH1 0x0 MSTORE DUP2 PUSH1 0x0 KECCAK256 SWAP3 PUSH1 0x0 JUMPDEST DUP2 DUP2 LT PUSH2 0x2A6 JUMPI POP SWAP2 PUSH1 0x1 SWAP4 SWAP2 DUP6 PUSH2 0x17B SWAP8 SWAP7 SWAP5 LT PUSH2 0x28D JUMPI JUMPDEST POP POP POP DUP2 SHL ADD PUSH1 0x4 SSTORE PUSH2 0x149 JUMP JUMPDEST ADD MLOAD PUSH1 0x0 NOT PUSH1 0xF8 DUP5 PUSH1 0x3 SHL AND SHR NOT AND SWAP1 SSTORE CODESIZE DUP1 DUP1 PUSH2 0x27F JUMP JUMPDEST SWAP3 SWAP4 PUSH1 0x20 PUSH1 0x1 DUP2 SWAP3 DUP8 DUP7 ADD MLOAD DUP2 SSTORE ADD SWAP6 ADD SWAP4 ADD PUSH2 0x265 JUMP JUMPDEST PUSH1 0x4 PUSH1 0x0 MSTORE PUSH32 0x8A35ACFBC15FF81A39AE7D344FD709F28E8600B4AA8C65C6B64BFE7FE36BD19B PUSH1 0x1F DUP5 ADD PUSH1 0x5 SHR DUP2 ADD SWAP2 PUSH1 0x20 DUP6 LT PUSH2 0x319 JUMPI JUMPDEST PUSH1 0x1F ADD PUSH1 0x5 SHR ADD SWAP1 JUMPDEST DUP2 DUP2 LT PUSH2 0x30D JUMPI POP PUSH2 0x115 JUMP JUMPDEST PUSH1 0x0 DUP2 SSTORE PUSH1 0x1 ADD PUSH2 0x300 JUMP JUMPDEST SWAP1 SWAP2 POP DUP2 SWAP1 PUSH2 0x2F7 JUMP JUMPDEST PUSH4 0x4E487B71 PUSH1 0xE0 SHL PUSH1 0x0 MSTORE PUSH1 0x22 PUSH1 0x4 MSTORE PUSH1 0x24 PUSH1 0x0 REVERT JUMPDEST SWAP1 PUSH1 0x7F AND SWAP1 PUSH2 0x103 JUMP JUMPDEST PUSH4 0x4E487B71 PUSH1 0xE0 SHL PUSH1 0x0 MSTORE PUSH1 0x41 PUSH1 0x4 MSTORE PUSH1 0x24 PUSH1 0x0 REVERT JUMPDEST ADD MLOAD SWAP1 POP CODESIZE DUP1 PUSH2 0xCB JUMP JUMPDEST PUSH1 0x1F NOT DUP3 AND SWAP6 PUSH1 0x3 PUSH1 0x0 MSTORE DUP1 PUSH1 0x0 KECCAK256 SWAP2 PUSH1 0x0 JUMPDEST DUP9 DUP2 LT PUSH2 0x3B3 JUMPI POP DUP4 PUSH1 0x1 SWAP6 SWAP7 SWAP8 SWAP9 LT PUSH2 0x39A JUMPI JUMPDEST POP POP POP DUP2 SHL ADD PUSH1 0x3 SSTORE PUSH2 0xE1 JUMP JUMPDEST ADD MLOAD PUSH1 0x0 NOT PUSH1 0xF8 DUP5 PUSH1 0x3 SHL AND SHR NOT AND SWAP1 SSTORE CODESIZE DUP1 DUP1 PUSH2 0x38C JUMP JUMPDEST SWAP2 SWAP3 PUSH1 0x20 PUSH1 0x1 DUP2 SWAP3 DUP7 DUP6 ADD MLOAD DUP2 SSTORE ADD SWAP5 ADD SWAP3 ADD PUSH2 0x377 JUMP JUMPDEST PUSH1 0x3 PUSH1 0x0 MSTORE PUSH32 0xC2575A0E9E593C00F959F8C92F12DB2869C3395A3B0502D05E2516446F71F85B PUSH1 0x1F DUP4 ADD PUSH1 0x5 SHR DUP2 ADD SWAP2 PUSH1 0x20 DUP5 LT PUSH2 0x426 JUMPI JUMPDEST PUSH1 0x1F ADD PUSH1 0x5 SHR ADD SWAP1 JUMPDEST DUP2 DUP2 LT PUSH2 0x41A JUMPI POP PUSH2 0xAE JUMP JUMPDEST PUSH1 0x0 DUP2 SSTORE PUSH1 0x1 ADD PUSH2 0x40D JUMP JUMPDEST SWAP1 SWAP2 POP DUP2 SWAP1 PUSH2 0x404 JUMP JUMPDEST SWAP1 PUSH1 0x7F AND SWAP1 PUSH2 0x9C JUMP JUMPDEST PUSH1 0x0 DUP1 REVERT JUMPDEST PUSH1 0x40 MLOAD SWAP2 SWAP1 PUSH1 0x1F ADD PUSH1 0x1F NOT AND DUP3 ADD PUSH1 0x1 PUSH1 0x1 PUSH1 0x40 SHL SUB DUP2 GT DUP4 DUP3 LT OR PUSH2 0x343 JUMPI PUSH1 0x40 MSTORE JUMP JUMPDEST PUSH1 0x1 PUSH1 0x1 PUSH1 0xA0 SHL SUB DUP2 AND PUSH1 0x0 SWAP1 DUP2 MSTORE PUSH1 0x0 DUP1 MLOAD PUSH1 0x20 PUSH2 0x29A7 DUP4 CODECOPY DUP2 MLOAD SWAP2 MSTORE PUSH1 0x20 MSTORE PUSH1 0x40 SWAP1 KECCAK256 SLOAD PUSH1 0xFF AND PUSH2 0x4DA JUMPI PUSH1 0x1 PUSH1 0x1 PUSH1 0xA0 SHL SUB AND PUSH1 0x0 DUP2 DUP2 MSTORE PUSH1 0x0 DUP1 MLOAD PUSH1 0x20 PUSH2 0x29A7 DUP4 CODECOPY DUP2 MLOAD SWAP2 MSTORE PUSH1 0x20 MSTORE PUSH1 0x40 DUP2 KECCAK256 DUP1 SLOAD PUSH1 0xFF NOT AND PUSH1 0x1 OR SWAP1 SSTORE CALLER SWAP2 SWAP1 PUSH1 0x0 DUP1 MLOAD PUSH1 0x20 PUSH2 0x2927 DUP4 CODECOPY DUP2 MLOAD SWAP2 MSTORE DUP2 DUP1 LOG4 PUSH1 0x1 SWAP1 JUMP JUMPDEST POP PUSH1 0x0 SWAP1 JUMP JUMPDEST PUSH1 0x1 PUSH1 0x1 PUSH1 0xA0 SHL SUB DUP2 AND PUSH1 0x0 SWAP1 DUP2 MSTORE PUSH1 0x0 DUP1 MLOAD PUSH1 0x20 PUSH2 0x2947 DUP4 CODECOPY DUP2 MLOAD SWAP2 MSTORE PUSH1 0x20 MSTORE PUSH1 0x40 SWAP1 KECCAK256 SLOAD PUSH1 0xFF AND PUSH2 0x4DA JUMPI PUSH1 0x1 PUSH1 0x1 PUSH1 0xA0 SHL SUB AND PUSH1 0x0 DUP2 DUP2 MSTORE PUSH1 0x0 DUP1 MLOAD PUSH1 0x20 PUSH2 0x2947 DUP4 CODECOPY DUP2 MLOAD SWAP2 MSTORE PUSH1 0x20 MSTORE PUSH1 0x40 DUP2 KECCAK256 DUP1 SLOAD PUSH1 0xFF NOT AND PUSH1 0x1 OR SWAP1 SSTORE CALLER SWAP2 SWAP1 PUSH32 0x65D7A28E3265B37A6474929F336521B332C1681B933F6CB9F3376673440D862A SWAP1 PUSH1 0x0 DUP1 MLOAD PUSH1 0x20 PUSH2 0x2927 DUP4 CODECOPY DUP2 MLOAD SWAP2 MSTORE SWAP1 DUP1 LOG4 PUSH1 0x1 SWAP1 JUMP JUMPDEST PUSH1 0x1 PUSH1 0x1 PUSH1 0xA0 SHL SUB DUP2 AND PUSH1 0x0 SWAP1 DUP2 MSTORE PUSH32 0x3195C024B2DDD6D9B8F6C836AA52F67FE69376C8903D009B80229B3CE4425F51 PUSH1 0x20 MSTORE PUSH1 0x40 SWAP1 KECCAK256 SLOAD PUSH1 0xFF AND PUSH2 0x4DA JUMPI PUSH1 0x1 PUSH1 0x1 PUSH1 0xA0 SHL SUB AND PUSH1 0x0 DUP2 DUP2 MSTORE PUSH32 0x3195C024B2DDD6D9B8F6C836AA52F67FE69376C8903D009B80229B3CE4425F51 PUSH1 0x20 MSTORE PUSH1 0x40 DUP2 KECCAK256 DUP1 SLOAD PUSH1 0xFF NOT AND PUSH1 0x1 OR SWAP1 SSTORE CALLER SWAP2 SWAP1 PUSH32 0x9F2DF0FED2C77648DE5860A4CC508CD0818C85B8B8A1AB4CEEEF8D981C8956A6 SWAP1 PUSH1 0x0 DUP1 MLOAD PUSH1 0x20 PUSH2 0x2927 DUP4 CODECOPY DUP2 MLOAD SWAP2 MSTORE SWAP1 DUP1 LOG4 PUSH1 0x1 SWAP1 JUMP JUMPDEST PUSH1 0x1 PUSH1 0x1 PUSH1 0xA0 SHL SUB DUP2 AND PUSH1 0x0 SWAP1 DUP2 MSTORE PUSH1 0x0 DUP1 MLOAD PUSH1 0x20 PUSH2 0x2967 DUP4 CODECOPY DUP2 MLOAD SWAP2 MSTORE PUSH1 0x20 MSTORE PUSH1 0x40 SWAP1 KECCAK256 SLOAD PUSH1 0xFF AND PUSH2 0x4DA JUMPI PUSH1 0x1 PUSH1 0x1 PUSH1 0xA0 SHL SUB AND PUSH1 0x0 DUP2 DUP2 MSTORE PUSH1 0x0 DUP1 MLOAD PUSH1 0x20 PUSH2 0x2967 DUP4 CODECOPY DUP2 MLOAD SWAP2 MSTORE PUSH1 0x20 MSTORE PUSH1 0x40 DUP2 KECCAK256 DUP1 SLOAD PUSH1 0xFF NOT AND PUSH1 0x1 OR SWAP1 SSTORE CALLER SWAP2 SWAP1 PUSH32 0x1099F3E9139A65223B9EBDD967A9BCC626157189E78178D8AB04D9AC02BDDA22 SWAP1 PUSH1 0x0 DUP1 MLOAD PUSH1 0x20 PUSH2 0x2927 DUP4 CODECOPY DUP2 MLOAD SWAP2 MSTORE SWAP1 DUP1 LOG4 PUSH1 0x1 SWAP1 JUMP JUMPDEST PUSH1 0x1 PUSH1 0x1 PUSH1 0xA0 SHL SUB DUP2 AND PUSH1 0x0 SWAP1 DUP2 MSTORE PUSH1 0x0 DUP1 MLOAD PUSH1 0x20 PUSH2 0x2987 DUP4 CODECOPY DUP2 MLOAD SWAP2 MSTORE PUSH1 0x20 MSTORE PUSH1 0x40 SWAP1 KECCAK256 SLOAD PUSH1 0xFF AND PUSH2 0x4DA JUMPI PUSH1 0x1 PUSH1 0x1 PUSH1 0xA0 SHL SUB AND PUSH1 0x0 DUP2 DUP2 MSTORE PUSH1 0x0 DUP1 MLOAD PUSH1 0x20 PUSH2 0x2987 DUP4 CODECOPY DUP2 MLOAD SWAP2 MSTORE PUSH1 0x20 MSTORE PUSH1 0x40 DUP2 KECCAK256 DUP1 SLOAD PUSH1 0xFF NOT AND PUSH1 0x1 OR SWAP1 SSTORE CALLER SWAP2 SWAP1 PUSH32 0xA5DF84D05F94C8E589750A34F9631C6DF369AABC0811CCBBD233872FF60AEC66 SWAP1 PUSH1 0x0 DUP1 MLOAD PUSH1 0x20 PUSH2 0x2927 DUP4 CODECOPY DUP2 MLOAD SWAP2 MSTORE SWAP1 DUP1 LOG4 PUSH1 0x1 SWAP1 JUMP INVALID PUSH1 0x80 DUP1 PUSH1 0x40 MSTORE PUSH1 0x4 CALLDATASIZE LT ISZERO PUSH2 0x13 JUMPI PUSH1 0x0 DUP1 REVERT JUMPDEST PUSH1 0x0 CALLDATALOAD PUSH1 0xE0 SHR SWAP1 DUP2 PUSH4 0x1FFC9A7 EQ PUSH2 0x1A47 JUMPI POP DUP1 PUSH4 0x6FDDE03 EQ PUSH2 0x1988 JUMPI DUP1 PUSH4 0x95EA7B3 EQ PUSH2 0x18D6 JUMPI DUP1 PUSH4 0xE40FE9F EQ PUSH2 0x18BA JUMPI DUP1 PUSH4 0x18160DDD EQ PUSH2 0x189C JUMPI DUP1 PUSH4 0x1932526D EQ PUSH2 0x187E JUMPI DUP1 PUSH4 0x23B872DD EQ PUSH2 0x1846 JUMPI DUP1 PUSH4 0x248A9CA3 EQ PUSH2 0x1811 JUMPI DUP1 PUSH4 0x27ED7188 EQ PUSH2 0x17ED JUMPI DUP1 PUSH4 0x2C23F962 EQ PUSH2 0x17A5 JUMPI DUP1 PUSH4 0x2E17DE78 EQ PUSH2 0x15D7 JUMPI DUP1 PUSH4 0x2EF87062 EQ PUSH2 0x1267 JUMPI DUP1 PUSH4 0x2F2FF15D EQ PUSH2 0x1227 JUMPI DUP1 PUSH4 0x2F8C6B8D EQ PUSH2 0x10E7 JUMPI DUP1 PUSH4 0x2FF2E9DC EQ PUSH2 0x10C1 JUMPI DUP1 PUSH4 0x313CE567 EQ PUSH2 0x10A5 JUMPI DUP1 PUSH4 0x319DC996 EQ PUSH2 0xFB5 JUMPI DUP1 PUSH4 0x32CB6B0C EQ PUSH2 0xF8E JUMPI DUP1 PUSH4 0x36568ABE EQ PUSH2 0xF48 JUMPI DUP1 PUSH4 0x3F4BA83A EQ PUSH2 0xEDF JUMPI DUP1 PUSH4 0x40C10F19 EQ PUSH2 0xDED JUMPI DUP1 PUSH4 0x42966C68 EQ PUSH2 0xDD0 JUMPI DUP1 PUSH4 0x52727F6A EQ PUSH2 0xD44 JUMPI DUP1 PUSH4 0x5435B89F EQ PUSH2 0xCF9 JUMPI DUP1 PUSH4 0x5C975ABB EQ PUSH2 0xCD6 JUMPI DUP1 PUSH4 0x70A08231 EQ PUSH2 0xC9C JUMPI DUP1 PUSH4 0x79CC6790 EQ PUSH2 0xC6C JUMPI DUP1 PUSH4 0x8456CB59 EQ PUSH2 0xC12 JUMPI DUP1 PUSH4 0x8AA28550 EQ PUSH2 0xBF6 JUMPI DUP1 PUSH4 0x91D14854 EQ PUSH2 0xBA9 JUMPI DUP1 PUSH4 0x95D89B41 EQ PUSH2 0xAA1 JUMPI DUP1 PUSH4 0x9639011E EQ PUSH2 0x921 JUMPI DUP1 PUSH4 0x98D1C5A8 EQ PUSH2 0x795 JUMPI DUP1 PUSH4 0x9BFD8D61 EQ PUSH2 0x75B JUMPI DUP1 PUSH4 0x9F29F135 EQ PUSH2 0x73F JUMPI DUP1 PUSH4 0xA217FDDF EQ PUSH2 0x723 JUMPI DUP1 PUSH4 0xA9059CBB EQ PUSH2 0x6F2 JUMPI DUP1 PUSH4 0xB1BF884A EQ PUSH2 0x6B3 JUMPI DUP1 PUSH4 0xBDC0E181 EQ PUSH2 0x679 JUMPI DUP1 PUSH4 0xC3622BAD EQ PUSH2 0x3CB JUMPI DUP1 PUSH4 0xC46C18E3 EQ PUSH2 0x3AD JUMPI DUP1 PUSH4 0xD5391393 EQ PUSH2 0x372 JUMPI DUP1 PUSH4 0xD547741F EQ PUSH2 0x32B JUMPI DUP1 PUSH4 0xDD62ED3E EQ PUSH2 0x2DA JUMPI DUP1 PUSH4 0xE63AB1E9 EQ PUSH2 0x29F JUMPI DUP1 PUSH4 0xE9F244B4 EQ PUSH2 0x264 JUMPI PUSH4 0xEB0FD86A EQ PUSH2 0x224 JUMPI PUSH1 0x0 DUP1 REVERT JUMPDEST CALLVALUE PUSH2 0x25F JUMPI PUSH1 0x0 CALLDATASIZE PUSH1 0x3 NOT ADD SLT PUSH2 0x25F JUMPI PUSH1 0x20 PUSH1 0x40 MLOAD PUSH32 0xA5DF84D05F94C8E589750A34F9631C6DF369AABC0811CCBBD233872FF60AEC66 DUP2 MSTORE RETURN JUMPDEST PUSH1 0x0 DUP1 REVERT JUMPDEST CALLVALUE PUSH2 0x25F JUMPI PUSH1 0x0 CALLDATASIZE PUSH1 0x3 NOT ADD SLT PUSH2 0x25F JUMPI PUSH1 0x20 PUSH1 0x40 MLOAD PUSH32 0x1099F3E9139A65223B9EBDD967A9BCC626157189E78178D8AB04D9AC02BDDA22 DUP2 MSTORE RETURN JUMPDEST CALLVALUE PUSH2 0x25F JUMPI PUSH1 0x0 CALLDATASIZE PUSH1 0x3 NOT ADD SLT PUSH2 0x25F JUMPI PUSH1 0x20 PUSH1 0x40 MLOAD PUSH32 0x65D7A28E3265B37A6474929F336521B332C1681B933F6CB9F3376673440D862A DUP2 MSTORE RETURN JUMPDEST CALLVALUE PUSH2 0x25F JUMPI PUSH1 0x40 CALLDATASIZE PUSH1 0x3 NOT ADD SLT PUSH2 0x25F JUMPI PUSH2 0x2F3 PUSH2 0x1AE3 JUMP JUMPDEST PUSH2 0x2FB PUSH2 0x1AF9 JUMP JUMPDEST PUSH1 0x1 PUSH1 0x1 PUSH1 0xA0 SHL SUB SWAP2 DUP3 AND PUSH1 0x0 SWAP1 DUP2 MSTORE PUSH1 0x1 PUSH1 0x20 SWAP1 DUP2 MSTORE PUSH1 0x40 DUP1 DUP4 KECCAK256 SWAP5 SWAP1 SWAP4 AND DUP3 MSTORE SWAP3 DUP4 MSTORE DUP2 SWAP1 KECCAK256 SLOAD SWAP1 MLOAD SWAP1 DUP2 MSTORE RETURN JUMPDEST CALLVALUE PUSH2 0x25F JUMPI PUSH1 0x40 CALLDATASIZE PUSH1 0x3 NOT ADD SLT PUSH2 0x25F JUMPI PUSH2 0x370 PUSH1 0x4 CALLDATALOAD PUSH2 0x34A PUSH2 0x1AF9 JUMP JUMPDEST SWAP1 PUSH2 0x36B PUSH2 0x366 DUP3 PUSH1 0x0 MSTORE PUSH1 0x6 PUSH1 0x20 MSTORE PUSH1 0x1 PUSH1 0x40 PUSH1 0x0 KECCAK256 ADD SLOAD SWAP1 JUMP JUMPDEST PUSH2 0x1F4B JUMP JUMPDEST PUSH2 0x207D JUMP JUMPDEST STOP JUMPDEST CALLVALUE PUSH2 0x25F JUMPI PUSH1 0x0 CALLDATASIZE PUSH1 0x3 NOT ADD SLT PUSH2 0x25F JUMPI PUSH1 0x20 PUSH1 0x40 MLOAD PUSH32 0x9F2DF0FED2C77648DE5860A4CC508CD0818C85B8B8A1AB4CEEEF8D981C8956A6 DUP2 MSTORE RETURN JUMPDEST CALLVALUE PUSH2 0x25F JUMPI PUSH1 0x0 CALLDATASIZE PUSH1 0x3 NOT ADD SLT PUSH2 0x25F JUMPI PUSH1 0x20 PUSH1 0xD SLOAD PUSH1 0x40 MLOAD SWAP1 DUP2 MSTORE RETURN JUMPDEST CALLVALUE PUSH2 0x25F JUMPI PUSH1 0x40 CALLDATASIZE PUSH1 0x3 NOT ADD SLT PUSH2 0x25F JUMPI PUSH1 0x24 CALLDATALOAD PUSH1 0x4 CALLDATALOAD PUSH2 0x3EA PUSH2 0x1E28 JUMP JUMPDEST PUSH2 0x3F2 PUSH2 0x1E4A JUMP JUMPDEST CALLER PUSH1 0x0 MSTORE PUSH1 0xC PUSH1 0x20 MSTORE PUSH1 0xFF PUSH1 0x40 PUSH1 0x0 KECCAK256 SLOAD AND ISZERO PUSH2 0x63C JUMPI PUSH9 0x56BC75E2D63100000 DUP2 LT PUSH2 0x5F7 JUMPI CALLER PUSH1 0x0 MSTORE PUSH1 0x0 PUSH1 0x20 MSTORE DUP1 PUSH1 0x40 PUSH1 0x0 KECCAK256 SLOAD LT PUSH2 0x5BB JUMPI PUSH2 0x439 DUP2 ADDRESS CALLER PUSH2 0x1D5B JUMP JUMPDEST PUSH3 0x15180 TIMESTAMP ADD DUP1 TIMESTAMP GT PUSH2 0x579 JUMPI PUSH1 0x40 MLOAD PUSH2 0x452 DUP2 PUSH2 0x1B72 JUMP JUMPDEST DUP3 DUP2 MSTORE PUSH1 0x20 DUP2 ADD SWAP2 DUP3 MSTORE PUSH1 0x40 DUP2 ADD PUSH1 0x1 DUP2 MSTORE PUSH1 0x60 DUP3 ADD SWAP1 CALLER DUP3 MSTORE PUSH1 0x80 DUP4 ADD SWAP2 DUP7 DUP4 MSTORE CALLER PUSH1 0x0 MSTORE PUSH1 0x8 PUSH1 0x20 MSTORE PUSH1 0x40 PUSH1 0x0 KECCAK256 DUP1 SLOAD PUSH9 0x10000000000000000 DUP2 LT ISZERO PUSH2 0x5A5 JUMPI PUSH2 0x4A4 SWAP2 PUSH1 0x1 DUP3 ADD DUP2 SSTORE PUSH2 0x1B40 JUMP JUMPDEST SWAP6 SWAP1 SWAP6 PUSH2 0x58F JUMPI PUSH1 0x3 SWAP5 MLOAD DUP7 SSTORE MLOAD PUSH1 0x1 DUP7 ADD SSTORE PUSH2 0x4D4 PUSH1 0x2 DUP7 ADD SWAP3 MLOAD ISZERO ISZERO DUP4 SWAP1 PUSH1 0xFF DUP1 NOT DUP4 SLOAD AND SWAP2 ISZERO ISZERO AND OR SWAP1 SSTORE JUMP JUMPDEST MLOAD DUP2 SLOAD PUSH2 0x100 PUSH1 0x1 PUSH1 0xA8 SHL SUB NOT AND PUSH1 0x8 SWAP2 SWAP1 SWAP2 SHL PUSH2 0x100 PUSH1 0x1 PUSH1 0xA8 SHL SUB AND OR SWAP1 SSTORE MLOAD SWAP2 ADD SSTORE CALLER PUSH1 0x0 SWAP1 DUP2 MSTORE PUSH1 0xA PUSH1 0x20 MSTORE PUSH1 0x40 SWAP1 KECCAK256 DUP1 SLOAD PUSH2 0x515 SWAP1 DUP4 SWAP1 PUSH2 0x1C62 JUMP JUMPDEST SWAP1 SSTORE PUSH2 0x523 DUP2 PUSH1 0xD SLOAD PUSH2 0x1C62 JUMP JUMPDEST PUSH1 0xD SSTORE CALLER PUSH1 0x0 MSTORE PUSH1 0x8 PUSH1 0x20 MSTORE PUSH1 0x40 PUSH1 0x0 KECCAK256 SLOAD PUSH1 0x0 NOT DUP2 ADD SWAP1 DUP2 GT PUSH2 0x579 JUMPI PUSH1 0x40 MLOAD SWAP2 DUP3 MSTORE PUSH1 0x20 DUP3 ADD MSTORE PUSH32 0x6AB56402128D5CE83CE14710FCB2E6B3E7CD4670F7F1711C966829BEB0CDC562 PUSH1 0x40 CALLER SWAP3 LOG3 PUSH1 0x1 PUSH1 0x7 SSTORE STOP JUMPDEST PUSH4 0x4E487B71 PUSH1 0xE0 SHL PUSH1 0x0 MSTORE PUSH1 0x11 PUSH1 0x4 MSTORE PUSH1 0x24 PUSH1 0x0 REVERT JUMPDEST PUSH4 0x4E487B71 PUSH1 0xE0 SHL PUSH1 0x0 MSTORE PUSH1 0x0 PUSH1 0x4 MSTORE PUSH1 0x24 PUSH1 0x0 REVERT JUMPDEST PUSH4 0x4E487B71 PUSH1 0xE0 SHL PUSH1 0x0 MSTORE PUSH1 0x41 PUSH1 0x4 MSTORE PUSH1 0x24 PUSH1 0x0 REVERT JUMPDEST PUSH1 0x40 MLOAD PUSH3 0x461BCD PUSH1 0xE5 SHL DUP2 MSTORE PUSH1 0x20 PUSH1 0x4 DUP3 ADD MSTORE PUSH1 0x14 PUSH1 0x24 DUP3 ADD MSTORE PUSH20 0x496E73756666696369656E742062616C616E6365 PUSH1 0x60 SHL PUSH1 0x44 DUP3 ADD MSTORE PUSH1 0x64 SWAP1 REVERT JUMPDEST PUSH1 0x40 MLOAD PUSH3 0x461BCD PUSH1 0xE5 SHL DUP2 MSTORE PUSH1 0x20 PUSH1 0x4 DUP3 ADD MSTORE PUSH1 0x1A PUSH1 0x24 DUP3 ADD MSTORE PUSH32 0x416D6F756E742062656C6F77206D696E696D756D207374616B65000000000000 PUSH1 0x44 DUP3 ADD MSTORE PUSH1 0x64 SWAP1 REVERT JUMPDEST PUSH1 0x40 MLOAD PUSH3 0x461BCD PUSH1 0xE5 SHL DUP2 MSTORE PUSH1 0x20 PUSH1 0x4 DUP3 ADD MSTORE PUSH1 0x15 PUSH1 0x24 DUP3 ADD MSTORE PUSH21 0x115B99DA5B99481B9BDD08185D5D1A1BDC9A5E9959 PUSH1 0x5A SHL PUSH1 0x44 DUP3 ADD MSTORE PUSH1 0x64 SWAP1 REVERT JUMPDEST CALLVALUE PUSH2 0x25F JUMPI PUSH1 0x20 CALLDATASIZE PUSH1 0x3 NOT ADD SLT PUSH2 0x25F JUMPI PUSH1 0x1 PUSH1 0x1 PUSH1 0xA0 SHL SUB PUSH2 0x69A PUSH2 0x1AE3 JUMP JUMPDEST AND PUSH1 0x0 MSTORE PUSH1 0xB PUSH1 0x20 MSTORE PUSH1 0x20 PUSH1 0x40 PUSH1 0x0 KECCAK256 SLOAD PUSH1 0x40 MLOAD SWAP1 DUP2 MSTORE RETURN JUMPDEST CALLVALUE PUSH2 0x25F JUMPI PUSH1 0x20 CALLDATASIZE PUSH1 0x3 NOT ADD SLT PUSH2 0x25F JUMPI PUSH1 0x1 PUSH1 0x1 PUSH1 0xA0 SHL SUB PUSH2 0x6D4 PUSH2 0x1AE3 JUMP JUMPDEST AND PUSH1 0x0 MSTORE PUSH1 0xC PUSH1 0x20 MSTORE PUSH1 0x20 PUSH1 0xFF PUSH1 0x40 PUSH1 0x0 KECCAK256 SLOAD AND PUSH1 0x40 MLOAD SWAP1 ISZERO ISZERO DUP2 MSTORE RETURN JUMPDEST CALLVALUE PUSH2 0x25F JUMPI PUSH1 0x40 CALLDATASIZE PUSH1 0x3 NOT ADD SLT PUSH2 0x25F JUMPI PUSH2 0x718 PUSH2 0x70E PUSH2 0x1AE3 JUMP JUMPDEST PUSH1 0x24 CALLDATALOAD SWAP1 CALLER PUSH2 0x1D5B JUMP JUMPDEST PUSH1 0x20 PUSH1 0x40 MLOAD PUSH1 0x1 DUP2 MSTORE RETURN JUMPDEST CALLVALUE PUSH2 0x25F JUMPI PUSH1 0x0 CALLDATASIZE PUSH1 0x3 NOT ADD SLT PUSH2 0x25F JUMPI PUSH1 0x20 PUSH1 0x40 MLOAD PUSH1 0x0 DUP2 MSTORE RETURN JUMPDEST CALLVALUE PUSH2 0x25F JUMPI PUSH1 0x0 CALLDATASIZE PUSH1 0x3 NOT ADD SLT PUSH2 0x25F JUMPI PUSH1 0x20 PUSH1 0x40 MLOAD PUSH1 0xA DUP2 MSTORE RETURN JUMPDEST CALLVALUE PUSH2 0x25F JUMPI PUSH1 0x20 CALLDATASIZE PUSH1 0x3 NOT ADD SLT PUSH2 0x25F JUMPI PUSH1 0x1 PUSH1 0x1 PUSH1 0xA0 SHL SUB PUSH2 0x77C PUSH2 0x1AE3 JUMP JUMPDEST AND PUSH1 0x0 MSTORE PUSH1 0xA PUSH1 0x20 MSTORE PUSH1 0x20 PUSH1 0x40 PUSH1 0x0 KECCAK256 SLOAD PUSH1 0x40 MLOAD SWAP1 DUP2 MSTORE RETURN JUMPDEST CALLVALUE PUSH2 0x25F JUMPI PUSH1 0x40 CALLDATASIZE PUSH1 0x3 NOT ADD SLT PUSH2 0x25F JUMPI PUSH2 0x7AE PUSH2 0x1AE3 JUMP JUMPDEST PUSH1 0x24 CALLDATALOAD SWAP1 PUSH2 0x7BA PUSH2 0x1E67 JUMP JUMPDEST PUSH2 0x7C2 PUSH2 0x1E28 JUMP JUMPDEST PUSH1 0x1 DUP1 PUSH1 0xA0 SHL SUB AND SWAP1 DUP2 PUSH1 0x0 MSTORE PUSH1 0x8 PUSH1 0x20 MSTORE PUSH2 0x7E4 PUSH1 0x40 PUSH1 0x0 KECCAK256 SLOAD DUP3 LT PUSH2 0x1BB0 JUMP JUMPDEST DUP2 PUSH1 0x0 MSTORE PUSH1 0x8 PUSH1 0x20 MSTORE PUSH2 0x7FB DUP2 PUSH1 0x40 PUSH1 0x0 KECCAK256 PUSH2 0x1B40 JUMP JUMPDEST POP PUSH2 0x80C PUSH1 0xFF PUSH1 0x2 DUP4 ADD SLOAD AND PUSH2 0x1BF2 JUMP JUMPDEST DUP1 SLOAD SWAP1 PUSH1 0xA DUP3 MUL SWAP1 DUP3 DUP3 DIV PUSH1 0xA EQ DUP4 ISZERO OR ISZERO PUSH2 0x579 JUMPI DUP5 SWAP3 PUSH1 0x3 PUSH1 0x40 SWAP3 PUSH2 0x858 PUSH1 0x64 PUSH32 0x22EF2969215E4455C001A52F88FC7E2C518E034A35A5F76FA84F658CEB513467 SWAP7 DIV DUP1 SWAP5 PUSH2 0x1C31 JUMP JUMPDEST DUP2 SSTORE DUP6 PUSH1 0x0 MSTORE PUSH1 0xA PUSH1 0x20 MSTORE DUP4 PUSH1 0x0 KECCAK256 PUSH2 0x872 DUP5 DUP3 SLOAD PUSH2 0x1C31 JUMP JUMPDEST SWAP1 SSTORE PUSH2 0x880 DUP4 PUSH1 0xD SLOAD PUSH2 0x1C31 JUMP JUMPDEST PUSH1 0xD SSTORE PUSH2 0x88D DUP4 ADDRESS PUSH2 0x2103 JUMP JUMPDEST DUP6 PUSH1 0x0 MSTORE PUSH1 0xB PUSH1 0x20 MSTORE DUP3 DUP5 PUSH1 0x0 KECCAK256 SLOAD GT PUSH1 0x0 EQ PUSH2 0x90D JUMPI DUP6 PUSH1 0x0 MSTORE PUSH1 0xB PUSH1 0x20 MSTORE DUP4 PUSH1 0x0 KECCAK256 PUSH2 0x8BC DUP5 DUP3 SLOAD PUSH2 0x1C31 JUMP JUMPDEST SWAP1 SSTORE JUMPDEST ADD SLOAD SWAP5 DUP3 MLOAD SWAP2 DUP3 MSTORE PUSH1 0x20 DUP3 ADD MSTORE LOG3 DUP1 PUSH1 0x0 MSTORE PUSH1 0xB PUSH1 0x20 MSTORE PUSH32 0xFC577563F1B9A0461E24ABEF1E1FCC0D33D3D881F20B5DF6DDA59DE4AAE2C821 PUSH1 0x20 PUSH1 0x40 PUSH1 0x0 KECCAK256 SLOAD PUSH1 0x40 MLOAD SWAP1 DUP2 MSTORE LOG2 PUSH1 0x1 PUSH1 0x7 SSTORE STOP JUMPDEST DUP6 PUSH1 0x0 MSTORE PUSH1 0xB PUSH1 0x20 MSTORE PUSH1 0x0 DUP5 DUP2 KECCAK256 SSTORE PUSH2 0x8BF JUMP JUMPDEST CALLVALUE PUSH2 0x25F JUMPI PUSH1 0x40 CALLDATASIZE PUSH1 0x3 NOT ADD SLT PUSH2 0x25F JUMPI PUSH2 0x93A PUSH2 0x1AE3 JUMP JUMPDEST CALLER PUSH1 0x0 SWAP1 DUP2 MSTORE PUSH32 0x54CDD369E4E8A8515E52CA72EC816C2101831AD1F18BF44102ED171459C9B4F8 PUSH1 0x20 MSTORE PUSH1 0x40 SWAP1 KECCAK256 SLOAD PUSH1 0x24 CALLDATALOAD SWAP2 SWAP1 PUSH1 0xFF AND ISZERO PUSH2 0xA87 JUMPI PUSH1 0x1 PUSH1 0x1 PUSH1 0xA0 SHL SUB AND SWAP1 ADDRESS DUP3 EQ PUSH2 0xA20 JUMPI JUMPDEST PUSH1 0x0 SWAP2 DUP1 PUSH2 0x9BC JUMPI POP DUP2 DUP1 DUP1 SWAP3 DUP2 DUP2 ISZERO PUSH2 0x9B3 JUMPI JUMPDEST CALLER SWAP1 CALL ISZERO PUSH2 0x9A7 JUMPI STOP JUMPDEST PUSH1 0x40 MLOAD RETURNDATASIZE PUSH1 0x0 DUP3 RETURNDATACOPY RETURNDATASIZE SWAP1 REVERT JUMPDEST POP PUSH2 0x8FC PUSH2 0x99D JUMP JUMPDEST PUSH1 0x44 PUSH1 0x20 SWAP3 PUSH1 0x40 MLOAD SWAP5 DUP6 SWAP4 DUP5 SWAP3 PUSH4 0xA9059CBB PUSH1 0xE0 SHL DUP5 MSTORE CALLER PUSH1 0x4 DUP6 ADD MSTORE PUSH1 0x24 DUP5 ADD MSTORE GAS CALL DUP1 ISZERO PUSH2 0x9A7 JUMPI PUSH2 0x9EC JUMPI STOP JUMPDEST PUSH1 0x20 DUP2 RETURNDATASIZE PUSH1 0x20 GT PUSH2 0xA18 JUMPI JUMPDEST DUP2 PUSH2 0xA05 PUSH1 0x20 SWAP4 DUP4 PUSH2 0x1B8E JUMP JUMPDEST DUP2 ADD SUB SLT PUSH2 0x25F JUMPI MLOAD DUP1 ISZERO ISZERO SUB PUSH2 0x25F JUMPI STOP JUMPDEST RETURNDATASIZE SWAP2 POP PUSH2 0x9F8 JUMP JUMPDEST ADDRESS PUSH1 0x0 MSTORE PUSH1 0x0 PUSH1 0x20 MSTORE PUSH2 0xA3B PUSH1 0x40 PUSH1 0x0 KECCAK256 SLOAD PUSH1 0xD SLOAD SWAP1 PUSH2 0x1C31 JUMP JUMPDEST DUP2 GT ISZERO PUSH2 0x988 JUMPI PUSH1 0x40 MLOAD PUSH3 0x461BCD PUSH1 0xE5 SHL DUP2 MSTORE PUSH1 0x20 PUSH1 0x4 DUP3 ADD MSTORE PUSH1 0x1C PUSH1 0x24 DUP3 ADD MSTORE PUSH32 0x43616E6E6F74207265636F766572207374616B656420746F6B656E7300000000 PUSH1 0x44 DUP3 ADD MSTORE PUSH1 0x64 SWAP1 REVERT JUMPDEST PUSH4 0xE2517D3F PUSH1 0xE0 SHL PUSH1 0x0 MSTORE CALLER PUSH1 0x4 MSTORE PUSH1 0x0 PUSH1 0x24 MSTORE PUSH1 0x44 PUSH1 0x0 REVERT JUMPDEST CALLVALUE PUSH2 0x25F JUMPI PUSH1 0x0 CALLDATASIZE PUSH1 0x3 NOT ADD SLT PUSH2 0x25F JUMPI PUSH1 0x40 MLOAD PUSH1 0x0 PUSH1 0x4 SLOAD DUP1 PUSH1 0x1 SHR SWAP1 PUSH1 0x1 DUP2 AND DUP1 ISZERO PUSH2 0xB9F JUMPI JUMPDEST PUSH1 0x20 DUP4 LT DUP2 EQ PUSH2 0xB8B JUMPI DUP3 DUP6 MSTORE SWAP1 DUP2 ISZERO PUSH2 0xB67 JUMPI POP PUSH1 0x1 EQ PUSH2 0xB07 JUMPI JUMPDEST PUSH2 0xB03 DUP4 PUSH2 0xAF7 DUP2 DUP6 SUB DUP3 PUSH2 0x1B8E JUMP JUMPDEST PUSH1 0x40 MLOAD SWAP2 DUP3 SWAP2 DUP3 PUSH2 0x1A9A JUMP JUMPDEST SUB SWAP1 RETURN JUMPDEST SWAP2 SWAP1 POP PUSH1 0x4 PUSH1 0x0 MSTORE PUSH32 0x8A35ACFBC15FF81A39AE7D344FD709F28E8600B4AA8C65C6B64BFE7FE36BD19B SWAP2 PUSH1 0x0 SWAP1 JUMPDEST DUP1 DUP3 LT PUSH2 0xB4D JUMPI POP SWAP1 SWAP2 POP DUP2 ADD PUSH1 0x20 ADD PUSH2 0xAF7 PUSH2 0xAE7 JUMP JUMPDEST SWAP2 SWAP3 PUSH1 0x1 DUP2 PUSH1 0x20 SWAP3 SLOAD DUP4 DUP6 DUP9 ADD ADD MSTORE ADD SWAP2 ADD SWAP1 SWAP3 SWAP2 PUSH2 0xB35 JUMP JUMPDEST PUSH1 0xFF NOT AND PUSH1 0x20 DUP1 DUP7 ADD SWAP2 SWAP1 SWAP2 MSTORE SWAP2 ISZERO ISZERO PUSH1 0x5 SHL DUP5 ADD SWAP1 SWAP2 ADD SWAP2 POP PUSH2 0xAF7 SWAP1 POP PUSH2 0xAE7 JUMP JUMPDEST PUSH4 0x4E487B71 PUSH1 0xE0 SHL DUP5 MSTORE PUSH1 0x22 PUSH1 0x4 MSTORE PUSH1 0x24 DUP5 REVERT JUMPDEST SWAP2 PUSH1 0x7F AND SWAP2 PUSH2 0xACA JUMP JUMPDEST CALLVALUE PUSH2 0x25F JUMPI PUSH1 0x40 CALLDATASIZE PUSH1 0x3 NOT ADD SLT PUSH2 0x25F JUMPI PUSH2 0xBC2 PUSH2 0x1AF9 JUMP JUMPDEST PUSH1 0x4 CALLDATALOAD PUSH1 0x0 MSTORE PUSH1 0x6 PUSH1 0x20 MSTORE PUSH1 0x40 PUSH1 0x0 KECCAK256 SWAP1 PUSH1 0x1 DUP1 PUSH1 0xA0 SHL SUB AND PUSH1 0x0 MSTORE PUSH1 0x20 MSTORE PUSH1 0x20 PUSH1 0xFF PUSH1 0x40 PUSH1 0x0 KECCAK256 SLOAD AND PUSH1 0x40 MLOAD SWAP1 ISZERO ISZERO DUP2 MSTORE RETURN JUMPDEST CALLVALUE PUSH2 0x25F JUMPI PUSH1 0x0 CALLDATASIZE PUSH1 0x3 NOT ADD SLT PUSH2 0x25F JUMPI PUSH1 0x20 PUSH1 0x40 MLOAD PUSH1 0x96 DUP2 MSTORE RETURN JUMPDEST CALLVALUE PUSH2 0x25F JUMPI PUSH1 0x0 CALLDATASIZE PUSH1 0x3 NOT ADD SLT PUSH2 0x25F JUMPI PUSH2 0xC2B PUSH2 0x1ED9 JUMP JUMPDEST PUSH2 0xC33 PUSH2 0x1E4A JUMP JUMPDEST PUSH1 0x1 PUSH1 0xFF NOT PUSH1 0x5 SLOAD AND OR PUSH1 0x5 SSTORE PUSH32 0x62E78CEA01BEE320CD4E420270B5EA74000D11B0C9F74754EBDBFC544B05A258 PUSH1 0x20 PUSH1 0x40 MLOAD CALLER DUP2 MSTORE LOG1 STOP JUMPDEST CALLVALUE PUSH2 0x25F JUMPI PUSH1 0x40 CALLDATASIZE PUSH1 0x3 NOT ADD SLT PUSH2 0x25F JUMPI PUSH2 0x370 PUSH2 0xC88 PUSH2 0x1AE3 JUMP JUMPDEST PUSH1 0x24 CALLDATALOAD SWAP1 PUSH2 0xC97 DUP3 CALLER DUP4 PUSH2 0x1CB0 JUMP JUMPDEST PUSH2 0x2103 JUMP JUMPDEST CALLVALUE PUSH2 0x25F JUMPI PUSH1 0x20 CALLDATASIZE PUSH1 0x3 NOT ADD SLT PUSH2 0x25F JUMPI PUSH1 0x1 PUSH1 0x1 PUSH1 0xA0 SHL SUB PUSH2 0xCBD PUSH2 0x1AE3 JUMP JUMPDEST AND PUSH1 0x0 MSTORE PUSH1 0x0 PUSH1 0x20 MSTORE PUSH1 0x20 PUSH1 0x40 PUSH1 0x0 KECCAK256 SLOAD PUSH1 0x40 MLOAD SWAP1 DUP2 MSTORE RETURN JUMPDEST CALLVALUE PUSH2 0x25F JUMPI PUSH1 0x0 CALLDATASIZE PUSH1 0x3 NOT ADD SLT PUSH2 0x25F JUMPI PUSH1 0x20 PUSH1 0xFF PUSH1 0x5 SLOAD AND PUSH1 0x40 MLOAD SWAP1 ISZERO ISZERO DUP2 MSTORE RETURN JUMPDEST CALLVALUE PUSH2 0x25F JUMPI PUSH1 0x40 CALLDATASIZE PUSH1 0x3 NOT ADD SLT PUSH2 0x25F JUMPI PUSH2 0xD12 PUSH2 0x1AF9 JUMP JUMPDEST PUSH1 0x4 CALLDATALOAD PUSH1 0x0 MSTORE PUSH1 0x9 PUSH1 0x20 MSTORE PUSH1 0x2 PUSH1 0x40 PUSH1 0x0 KECCAK256 ADD SWAP1 PUSH1 0x1 DUP1 PUSH1 0xA0 SHL SUB AND PUSH1 0x0 MSTORE PUSH1 0x20 MSTORE PUSH1 0x20 PUSH1 0x40 PUSH1 0x0 KECCAK256 SLOAD PUSH1 0x40 MLOAD SWAP1 DUP2 MSTORE RETURN JUMPDEST CALLVALUE PUSH2 0x25F JUMPI PUSH1 0x40 CALLDATASIZE PUSH1 0x3 NOT ADD SLT PUSH2 0x25F JUMPI PUSH2 0xD5D PUSH2 0x1AE3 JUMP JUMPDEST PUSH1 0x1 PUSH1 0x1 PUSH1 0xA0 SHL SUB AND PUSH1 0x0 SWAP1 DUP2 MSTORE PUSH1 0x8 PUSH1 0x20 MSTORE PUSH1 0x40 SWAP1 KECCAK256 DUP1 SLOAD PUSH1 0x24 CALLDATALOAD SWAP2 SWAP1 DUP3 LT ISZERO PUSH2 0x25F JUMPI PUSH1 0xA0 SWAP2 PUSH2 0xD8E SWAP2 PUSH2 0x1B40 JUMP JUMPDEST POP DUP1 SLOAD SWAP1 PUSH1 0x1 DUP2 ADD SLOAD SWAP1 PUSH1 0x3 PUSH1 0x2 DUP3 ADD SLOAD SWAP2 ADD SLOAD SWAP2 PUSH1 0x40 MLOAD SWAP4 DUP5 MSTORE PUSH1 0x20 DUP5 ADD MSTORE PUSH1 0xFF DUP2 AND ISZERO ISZERO PUSH1 0x40 DUP5 ADD MSTORE PUSH1 0x1 DUP1 DUP6 SHL SUB SWAP1 PUSH1 0x8 SHR AND PUSH1 0x60 DUP4 ADD MSTORE PUSH1 0x80 DUP3 ADD MSTORE RETURN JUMPDEST CALLVALUE PUSH2 0x25F JUMPI PUSH1 0x20 CALLDATASIZE PUSH1 0x3 NOT ADD SLT PUSH2 0x25F JUMPI PUSH2 0x370 PUSH1 0x4 CALLDATALOAD CALLER PUSH2 0x2103 JUMP JUMPDEST CALLVALUE PUSH2 0x25F JUMPI PUSH1 0x40 CALLDATASIZE PUSH1 0x3 NOT ADD SLT PUSH2 0x25F JUMPI PUSH2 0xE06 PUSH2 0x1AE3 JUMP JUMPDEST CALLER PUSH1 0x0 SWAP1 DUP2 MSTORE PUSH32 0x3195C024B2DDD6D9B8F6C836AA52F67FE69376C8903D009B80229B3CE4425F51 PUSH1 0x20 MSTORE PUSH1 0x40 SWAP1 KECCAK256 SLOAD PUSH1 0x24 CALLDATALOAD SWAP2 SWAP1 PUSH1 0xFF AND ISZERO PUSH2 0xEA6 JUMPI PUSH1 0x20 PUSH32 0x3F2C9D57C068687834F0DE942A9BABB9E5ACAB57D516D3480A3C16EE165A4273 SWAP2 PUSH2 0xE89 PUSH12 0x33B2E3C9FD0803CE8000000 PUSH2 0xE82 DUP7 PUSH1 0x2 SLOAD PUSH2 0x1C62 JUMP JUMPDEST GT ISZERO PUSH2 0x1C6F JUMP JUMPDEST PUSH2 0xE93 DUP5 DUP3 PUSH2 0x1F88 JUMP JUMPDEST PUSH1 0x40 MLOAD SWAP4 DUP5 MSTORE PUSH1 0x1 PUSH1 0x1 PUSH1 0xA0 SHL SUB AND SWAP3 LOG2 STOP JUMPDEST PUSH4 0xE2517D3F PUSH1 0xE0 SHL PUSH1 0x0 MSTORE CALLER PUSH1 0x4 MSTORE PUSH32 0x9F2DF0FED2C77648DE5860A4CC508CD0818C85B8B8A1AB4CEEEF8D981C8956A6 PUSH1 0x24 MSTORE PUSH1 0x44 PUSH1 0x0 REVERT JUMPDEST CALLVALUE PUSH2 0x25F JUMPI PUSH1 0x0 CALLDATASIZE PUSH1 0x3 NOT ADD SLT PUSH2 0x25F JUMPI PUSH2 0xEF8 PUSH2 0x1ED9 JUMP JUMPDEST PUSH1 0x5 SLOAD PUSH1 0xFF DUP2 AND ISZERO PUSH2 0xF37 JUMPI PUSH1 0xFF NOT AND PUSH1 0x5 SSTORE PUSH32 0x5DB9EE0A495BF2E6FF9C91A7834C1BA4FDD244A5E8AA4E537BD38AEAE4B073AA PUSH1 0x20 PUSH1 0x40 MLOAD CALLER DUP2 MSTORE LOG1 STOP JUMPDEST PUSH4 0x8DFC202B PUSH1 0xE0 SHL PUSH1 0x0 MSTORE PUSH1 0x4 PUSH1 0x0 REVERT JUMPDEST CALLVALUE PUSH2 0x25F JUMPI PUSH1 0x40 CALLDATASIZE PUSH1 0x3 NOT ADD SLT PUSH2 0x25F JUMPI PUSH2 0xF61 PUSH2 0x1AF9 JUMP JUMPDEST CALLER PUSH1 0x1 PUSH1 0x1 PUSH1 0xA0 SHL SUB DUP3 AND SUB PUSH2 0xF7D JUMPI PUSH2 0x370 SWAP1 PUSH1 0x4 CALLDATALOAD PUSH2 0x207D JUMP JUMPDEST PUSH4 0x334BD919 PUSH1 0xE1 SHL PUSH1 0x0 MSTORE PUSH1 0x4 PUSH1 0x0 REVERT JUMPDEST CALLVALUE PUSH2 0x25F JUMPI PUSH1 0x0 CALLDATASIZE PUSH1 0x3 NOT ADD SLT PUSH2 0x25F JUMPI PUSH1 0x20 PUSH1 0x40 MLOAD PUSH12 0x33B2E3C9FD0803CE8000000 DUP2 MSTORE RETURN JUMPDEST CALLVALUE PUSH2 0x25F JUMPI PUSH1 0x40 CALLDATASIZE PUSH1 0x3 NOT ADD SLT PUSH2 0x25F JUMPI PUSH2 0xFCE PUSH2 0x1AE3 JUMP JUMPDEST PUSH1 0x24 CALLDATALOAD SWAP1 DUP2 ISZERO ISZERO SWAP1 DUP2 DUP4 SUB PUSH2 0x25F JUMPI CALLER PUSH1 0x0 SWAP1 DUP2 MSTORE PUSH32 0x46B51A4C03C4B503E27F8C62446C378E534965AC4316CC9587F460B6C5616EB7 PUSH1 0x20 MSTORE PUSH1 0x40 SWAP1 KECCAK256 SLOAD PUSH1 0xFF AND ISZERO PUSH2 0x106C JUMPI PUSH32 0x83BF8AFAC9234ED83A207493167E1591D6A431888F797C46D0C902E27B8DCD2A SWAP2 PUSH2 0x1063 PUSH1 0x20 SWAP3 PUSH1 0x1 DUP1 PUSH1 0xA0 SHL SUB AND SWAP5 DUP6 PUSH1 0x0 MSTORE PUSH1 0xC DUP5 MSTORE PUSH1 0x40 PUSH1 0x0 KECCAK256 SWAP1 PUSH1 0xFF DUP1 NOT DUP4 SLOAD AND SWAP2 ISZERO ISZERO AND OR SWAP1 SSTORE JUMP JUMPDEST PUSH1 0x40 MLOAD SWAP1 DUP2 MSTORE LOG2 STOP JUMPDEST PUSH4 0xE2517D3F PUSH1 0xE0 SHL PUSH1 0x0 MSTORE CALLER PUSH1 0x4 MSTORE PUSH32 0xA5DF84D05F94C8E589750A34F9631C6DF369AABC0811CCBBD233872FF60AEC66 PUSH1 0x24 MSTORE PUSH1 0x44 PUSH1 0x0 REVERT JUMPDEST CALLVALUE PUSH2 0x25F JUMPI PUSH1 0x0 CALLDATASIZE PUSH1 0x3 NOT ADD SLT PUSH2 0x25F JUMPI PUSH1 0x20 PUSH1 0x40 MLOAD PUSH1 0x12 DUP2 MSTORE RETURN JUMPDEST CALLVALUE PUSH2 0x25F JUMPI PUSH1 0x0 CALLDATASIZE PUSH1 0x3 NOT ADD SLT PUSH2 0x25F JUMPI PUSH1 0x20 PUSH1 0x40 MLOAD PUSH11 0x52B7D2DCC80CD2E4000000 DUP2 MSTORE RETURN JUMPDEST CALLVALUE PUSH2 0x25F JUMPI PUSH1 0x20 CALLDATASIZE PUSH1 0x3 NOT ADD SLT PUSH2 0x25F JUMPI PUSH1 0x1 PUSH1 0x1 PUSH1 0xA0 SHL SUB PUSH2 0x1108 PUSH2 0x1AE3 JUMP JUMPDEST AND PUSH1 0x0 MSTORE PUSH1 0x8 PUSH1 0x20 MSTORE PUSH1 0x40 PUSH1 0x0 KECCAK256 DUP1 SLOAD SWAP1 PUSH8 0xFFFFFFFFFFFFFFFF DUP3 GT PUSH2 0x5A5 JUMPI PUSH1 0x40 MLOAD SWAP2 PUSH2 0x113C PUSH1 0x20 DUP3 PUSH1 0x5 SHL ADD DUP5 PUSH2 0x1B8E JUMP JUMPDEST DUP1 DUP4 MSTORE PUSH1 0x20 DUP4 ADD DUP1 SWAP3 PUSH1 0x0 MSTORE PUSH1 0x20 PUSH1 0x0 KECCAK256 PUSH1 0x0 SWAP2 JUMPDEST DUP4 DUP4 LT PUSH2 0x11D0 JUMPI DUP5 DUP7 PUSH1 0x40 MLOAD SWAP2 DUP3 SWAP2 PUSH1 0x20 DUP4 ADD SWAP1 PUSH1 0x20 DUP5 MSTORE MLOAD DUP1 SWAP2 MSTORE PUSH1 0x40 DUP4 ADD SWAP2 SWAP1 PUSH1 0x0 JUMPDEST DUP2 DUP2 LT PUSH2 0x1184 JUMPI POP POP POP SUB SWAP1 RETURN JUMPDEST SWAP2 SWAP4 POP SWAP2 PUSH1 0x20 PUSH1 0xA0 PUSH1 0x1 SWAP3 PUSH1 0x80 DUP8 MLOAD DUP1 MLOAD DUP4 MSTORE DUP5 DUP2 ADD MLOAD DUP6 DUP5 ADD MSTORE PUSH1 0x40 DUP2 ADD MLOAD ISZERO ISZERO PUSH1 0x40 DUP5 ADD MSTORE DUP6 DUP1 DUP6 SHL SUB PUSH1 0x60 DUP3 ADD MLOAD AND PUSH1 0x60 DUP5 ADD MSTORE ADD MLOAD PUSH1 0x80 DUP3 ADD MSTORE ADD SWAP5 ADD SWAP2 ADD SWAP2 DUP5 SWAP4 SWAP3 PUSH2 0x1176 JUMP JUMPDEST PUSH1 0x4 PUSH1 0x20 PUSH1 0x1 SWAP3 PUSH1 0x40 MLOAD PUSH2 0x11E3 DUP2 PUSH2 0x1B72 JUMP JUMPDEST DUP6 SLOAD DUP2 MSTORE DUP5 DUP7 ADD SLOAD DUP4 DUP3 ADD MSTORE PUSH1 0x2 DUP7 ADD SLOAD PUSH1 0xFF DUP2 AND ISZERO ISZERO PUSH1 0x40 DUP4 ADD MSTORE DUP6 DUP1 PUSH1 0xA0 SHL SUB SWAP1 PUSH1 0x8 SHR AND PUSH1 0x60 DUP3 ADD MSTORE PUSH1 0x3 DUP7 ADD SLOAD PUSH1 0x80 DUP3 ADD MSTORE DUP2 MSTORE ADD SWAP3 ADD SWAP3 ADD SWAP2 SWAP1 PUSH2 0x1151 JUMP JUMPDEST CALLVALUE PUSH2 0x25F JUMPI PUSH1 0x40 CALLDATASIZE PUSH1 0x3 NOT ADD SLT PUSH2 0x25F JUMPI PUSH2 0x370 PUSH1 0x4 CALLDATALOAD PUSH2 0x1246 PUSH2 0x1AF9 JUMP JUMPDEST SWAP1 PUSH2 0x1262 PUSH2 0x366 DUP3 PUSH1 0x0 MSTORE PUSH1 0x6 PUSH1 0x20 MSTORE PUSH1 0x1 PUSH1 0x40 PUSH1 0x0 KECCAK256 ADD SLOAD SWAP1 JUMP JUMPDEST PUSH2 0x1FEE JUMP JUMPDEST CALLVALUE PUSH2 0x25F JUMPI PUSH1 0x60 CALLDATASIZE PUSH1 0x3 NOT ADD SLT PUSH2 0x25F JUMPI PUSH1 0x4 CALLDATALOAD PUSH1 0x24 CALLDATALOAD PUSH8 0xFFFFFFFFFFFFFFFF DUP2 GT PUSH2 0x25F JUMPI PUSH2 0x129B SWAP1 CALLDATASIZE SWAP1 PUSH1 0x4 ADD PUSH2 0x1B0F JUMP JUMPDEST SWAP1 PUSH1 0x44 CALLDATALOAD PUSH8 0xFFFFFFFFFFFFFFFF DUP2 GT PUSH2 0x25F JUMPI PUSH2 0x12BC SWAP1 CALLDATASIZE SWAP1 PUSH1 0x4 ADD PUSH2 0x1B0F JUMP JUMPDEST SWAP1 SWAP4 PUSH2 0x12C6 PUSH2 0x1E67 JUMP JUMPDEST PUSH2 0x12CE PUSH2 0x1E28 JUMP JUMPDEST DUP2 DUP5 SUB PUSH2 0x159A JUMPI DUP1 PUSH1 0x0 MSTORE PUSH1 0x9 PUSH1 0x20 MSTORE PUSH1 0xFF PUSH1 0x3 PUSH1 0x40 PUSH1 0x0 KECCAK256 ADD SLOAD AND PUSH2 0x1555 JUMPI DUP1 PUSH1 0x0 SWAP6 SWAP3 SWAP6 MSTORE PUSH1 0x9 PUSH1 0x20 MSTORE PUSH1 0x40 PUSH1 0x0 KECCAK256 SWAP4 PUSH1 0x0 SWAP6 DUP7 SWAP1 PUSH1 0x2 DUP8 ADD SWAP5 JUMPDEST DUP4 DUP4 LT PUSH2 0x141C JUMPI POP POP POP PUSH2 0x1331 PUSH12 0x33B2E3C9FD0803CE8000000 PUSH2 0xE82 DUP9 PUSH1 0x2 SLOAD PUSH2 0x1C62 JUMP JUMPDEST PUSH1 0x0 JUMPDEST DUP2 DUP2 LT PUSH2 0x1359 JUMPI DUP7 DUP7 SSTORE PUSH1 0x1 DUP1 DUP8 ADD DUP9 SWAP1 SSTORE PUSH1 0x3 DUP8 ADD DUP1 SLOAD PUSH1 0xFF NOT AND DUP3 OR SWAP1 SSTORE PUSH1 0x7 SSTORE STOP JUMPDEST DUP1 PUSH2 0x136F PUSH2 0x136A PUSH1 0x1 SWAP4 DUP6 DUP10 PUSH2 0x1C3E JUMP JUMPDEST PUSH2 0x1C4E JUMP JUMPDEST DUP5 PUSH1 0x40 PUSH1 0x0 DUP6 DUP1 PUSH1 0xA0 SHL SUB DUP5 AND DUP2 MSTORE DUP9 PUSH1 0x20 MSTORE KECCAK256 SLOAD SWAP2 PUSH32 0x254F4EF1B561C715E2C9E6D6BDE03D7D5AFACF3D9D1D0FD8423FE86CC5361567 PUSH1 0x20 DUP5 PUSH2 0x13D6 DUP9 DUP1 PUSH1 0xA0 SHL SUB DUP6 AND SWAP7 DUP8 SWAP6 DUP7 PUSH1 0x0 MSTORE PUSH1 0xB DUP6 MSTORE PUSH1 0x40 PUSH1 0x0 KECCAK256 PUSH2 0x13CF DUP4 DUP3 SLOAD PUSH2 0x1C62 JUMP JUMPDEST SWAP1 SSTORE PUSH2 0x1F88 JUMP JUMPDEST PUSH1 0x40 MLOAD SWAP1 DUP2 MSTORE LOG3 DUP1 PUSH1 0x0 MSTORE PUSH1 0xB PUSH1 0x20 MSTORE PUSH32 0xFC577563F1B9A0461E24ABEF1E1FCC0D33D3D881F20B5DF6DDA59DE4AAE2C821 PUSH1 0x20 PUSH1 0x40 PUSH1 0x0 KECCAK256 SLOAD PUSH1 0x40 MLOAD SWAP1 DUP2 MSTORE LOG2 ADD PUSH2 0x1334 JUMP JUMPDEST SWAP1 SWAP2 SWAP8 PUSH2 0x142D PUSH2 0x136A DUP11 DUP7 DUP11 PUSH2 0x1C3E JUMP JUMPDEST PUSH1 0x1 PUSH1 0x1 PUSH1 0xA0 SHL SUB AND PUSH1 0x0 DUP2 DUP2 MSTORE PUSH1 0x8 PUSH1 0x20 MSTORE PUSH1 0x40 DUP2 KECCAK256 DUP1 SLOAD SWAP1 DUP3 JUMPDEST DUP3 DUP2 LT PUSH2 0x14F8 JUMPI POP POP POP DUP2 PUSH1 0x0 MSTORE PUSH1 0xB PUSH1 0x20 MSTORE PUSH2 0x3E8 PUSH1 0x40 PUSH1 0x0 KECCAK256 SLOAD DIV SWAP1 PUSH1 0x5 DUP2 MUL SWAP1 DUP1 DUP3 DIV PUSH1 0x5 EQ SWAP1 ISZERO OR ISZERO PUSH2 0x579 JUMPI PUSH1 0x64 SWAP1 DIV DUP2 DUP2 MUL SWAP2 DUP2 DUP4 DIV EQ DUP2 ISZERO OR ISZERO PUSH2 0x579 JUMPI PUSH1 0x64 PUSH2 0x149B SWAP3 DIV SWAP1 PUSH2 0x1C62 JUMP JUMPDEST SWAP1 PUSH2 0x14A7 DUP12 DUP7 DUP7 PUSH2 0x1C3E JUMP JUMPDEST CALLDATALOAD DUP1 ISZERO ISZERO DUP2 SUB PUSH2 0x25F JUMPI PUSH2 0x14DA JUMPI JUMPDEST SWAP1 PUSH1 0x1 SWAP3 DUP2 PUSH1 0x40 PUSH2 0x14D1 SWAP5 PUSH1 0x0 SWAP1 DUP2 MSTORE DUP12 PUSH1 0x20 MSTORE KECCAK256 SSTORE PUSH2 0x1C62 JUMP JUMPDEST SWAP9 ADD SWAP2 SWAP1 PUSH2 0x130B JUMP JUMPDEST SWAP1 PUSH1 0x96 DUP2 MUL SWAP1 DUP1 DUP3 DIV PUSH1 0x96 EQ SWAP1 ISZERO OR ISZERO PUSH2 0x579 JUMPI PUSH1 0x64 SWAP1 DIV SWAP1 PUSH2 0x14B6 JUMP JUMPDEST DUP10 PUSH1 0x3 PUSH2 0x1505 DUP4 DUP6 PUSH2 0x1B40 JUMP JUMPDEST POP ADD SLOAD EQ DUP1 PUSH2 0x153D JUMPI JUMPDEST PUSH2 0x151C JUMPI JUMPDEST PUSH1 0x1 ADD PUSH2 0x1449 JUMP JUMPDEST SWAP3 PUSH2 0x1535 PUSH1 0x1 SWAP2 PUSH2 0x152D DUP7 DUP6 PUSH2 0x1B40 JUMP JUMPDEST POP SLOAD SWAP1 PUSH2 0x1C62 JUMP JUMPDEST SWAP4 SWAP1 POP PUSH2 0x1514 JUMP JUMPDEST POP PUSH1 0xFF PUSH1 0x2 PUSH2 0x154C DUP4 DUP6 PUSH2 0x1B40 JUMP JUMPDEST POP ADD SLOAD AND PUSH2 0x150F JUMP JUMPDEST PUSH1 0x40 MLOAD PUSH3 0x461BCD PUSH1 0xE5 SHL DUP2 MSTORE PUSH1 0x20 PUSH1 0x4 DUP3 ADD MSTORE PUSH1 0x1B PUSH1 0x24 DUP3 ADD MSTORE PUSH32 0x5265776172647320616C72656164792064697374726962757465640000000000 PUSH1 0x44 DUP3 ADD MSTORE PUSH1 0x64 SWAP1 REVERT JUMPDEST PUSH1 0x40 MLOAD PUSH3 0x461BCD PUSH1 0xE5 SHL DUP2 MSTORE PUSH1 0x20 PUSH1 0x4 DUP3 ADD MSTORE PUSH1 0x15 PUSH1 0x24 DUP3 ADD MSTORE PUSH21 0x82E4E4C2F240D8CADCCEE8D040DAD2E6DAC2E8C6D PUSH1 0x5B SHL PUSH1 0x44 DUP3 ADD MSTORE PUSH1 0x64 SWAP1 REVERT JUMPDEST CALLVALUE PUSH2 0x25F JUMPI PUSH1 0x20 CALLDATASIZE PUSH1 0x3 NOT ADD SLT PUSH2 0x25F JUMPI PUSH1 0x4 CALLDATALOAD PUSH2 0x15F3 PUSH2 0x1E28 JUMP JUMPDEST PUSH2 0x15FB PUSH2 0x1E4A JUMP JUMPDEST CALLER PUSH1 0x0 MSTORE PUSH1 0x8 PUSH1 0x20 MSTORE PUSH2 0x1614 PUSH1 0x40 PUSH1 0x0 KECCAK256 SLOAD DUP3 LT PUSH2 0x1BB0 JUMP JUMPDEST CALLER PUSH1 0x0 MSTORE PUSH1 0x8 PUSH1 0x20 MSTORE PUSH2 0x162B DUP2 PUSH1 0x40 PUSH1 0x0 KECCAK256 PUSH2 0x1B40 JUMP JUMPDEST POP PUSH1 0x2 DUP2 ADD SWAP1 DUP2 SLOAD SWAP2 PUSH2 0x1640 PUSH1 0xFF DUP5 AND PUSH2 0x1BF2 JUMP JUMPDEST CALLER PUSH1 0x8 DUP5 SWAP1 SHR PUSH1 0x1 PUSH1 0x1 PUSH1 0xA0 SHL SUB AND SUB PUSH2 0x176E JUMPI PUSH1 0x1 DUP3 ADD SLOAD TIMESTAMP LT PUSH2 0x1734 JUMPI PUSH1 0x3 DUP3 ADD SWAP2 DUP3 SLOAD PUSH1 0x0 MSTORE PUSH1 0x9 PUSH1 0x20 MSTORE PUSH1 0xFF PUSH1 0x3 PUSH1 0x40 PUSH1 0x0 KECCAK256 ADD SLOAD AND ISZERO PUSH2 0x16F6 JUMPI SLOAD SWAP3 PUSH1 0xFF NOT AND SWAP1 SSTORE CALLER PUSH1 0x0 MSTORE PUSH1 0xA PUSH1 0x20 MSTORE PUSH1 0x40 PUSH1 0x0 KECCAK256 PUSH2 0x16A0 DUP4 DUP3 SLOAD PUSH2 0x1C31 JUMP JUMPDEST SWAP1 SSTORE PUSH2 0x16AE DUP3 PUSH1 0xD SLOAD PUSH2 0x1C31 JUMP JUMPDEST PUSH1 0xD SSTORE PUSH2 0x16BC DUP3 CALLER ADDRESS PUSH2 0x1D5B JUMP JUMPDEST SLOAD SWAP2 PUSH1 0x40 MLOAD SWAP2 DUP3 MSTORE PUSH1 0x20 DUP3 ADD MSTORE PUSH32 0x80F7FCD27ACCD4F6C31241245A0CD594803B9DB5059FCD3BE5091BDBC145224 PUSH1 0x40 CALLER SWAP3 LOG3 PUSH1 0x1 PUSH1 0x7 SSTORE STOP JUMPDEST PUSH1 0x40 MLOAD PUSH3 0x461BCD PUSH1 0xE5 SHL DUP2 MSTORE PUSH1 0x20 PUSH1 0x4 DUP3 ADD MSTORE PUSH1 0x16 PUSH1 0x24 DUP3 ADD MSTORE PUSH22 0x105B985B1E5CDA5CC81B9BDD08199A5B985B1A5E9959 PUSH1 0x52 SHL PUSH1 0x44 DUP3 ADD MSTORE PUSH1 0x64 SWAP1 REVERT JUMPDEST PUSH1 0x40 MLOAD PUSH3 0x461BCD PUSH1 0xE5 SHL DUP2 MSTORE PUSH1 0x20 PUSH1 0x4 DUP3 ADD MSTORE PUSH1 0x12 PUSH1 0x24 DUP3 ADD MSTORE PUSH18 0x14DD185AD9481CDD1A5B1B081B1BD8DAD959 PUSH1 0x72 SHL PUSH1 0x44 DUP3 ADD MSTORE PUSH1 0x64 SWAP1 REVERT JUMPDEST PUSH1 0x40 MLOAD PUSH3 0x461BCD PUSH1 0xE5 SHL DUP2 MSTORE PUSH1 0x20 PUSH1 0x4 DUP3 ADD MSTORE PUSH1 0xF PUSH1 0x24 DUP3 ADD MSTORE PUSH15 0x2737BA1039BA30B5B29037BBB732B9 PUSH1 0x89 SHL PUSH1 0x44 DUP3 ADD MSTORE PUSH1 0x64 SWAP1 REVERT JUMPDEST CALLVALUE PUSH2 0x25F JUMPI PUSH1 0x20 CALLDATASIZE PUSH1 0x3 NOT ADD SLT PUSH2 0x25F JUMPI PUSH1 0x4 CALLDATALOAD PUSH1 0x0 MSTORE PUSH1 0x9 PUSH1 0x20 MSTORE PUSH1 0x60 PUSH1 0x40 PUSH1 0x0 KECCAK256 DUP1 SLOAD SWAP1 PUSH1 0xFF PUSH1 0x3 PUSH1 0x1 DUP4 ADD SLOAD SWAP3 ADD SLOAD AND SWAP1 PUSH1 0x40 MLOAD SWAP3 DUP4 MSTORE PUSH1 0x20 DUP4 ADD MSTORE ISZERO ISZERO PUSH1 0x40 DUP3 ADD MSTORE RETURN JUMPDEST CALLVALUE PUSH2 0x25F JUMPI PUSH1 0x0 CALLDATASIZE PUSH1 0x3 NOT ADD SLT PUSH2 0x25F JUMPI PUSH1 0x20 PUSH1 0x40 MLOAD PUSH9 0x56BC75E2D63100000 DUP2 MSTORE RETURN JUMPDEST CALLVALUE PUSH2 0x25F JUMPI PUSH1 0x20 CALLDATASIZE PUSH1 0x3 NOT ADD SLT PUSH2 0x25F JUMPI PUSH1 0x20 PUSH2 0x183E PUSH1 0x4 CALLDATALOAD PUSH1 0x0 MSTORE PUSH1 0x6 PUSH1 0x20 MSTORE PUSH1 0x1 PUSH1 0x40 PUSH1 0x0 KECCAK256 ADD SLOAD SWAP1 JUMP JUMPDEST PUSH1 0x40 MLOAD SWAP1 DUP2 MSTORE RETURN JUMPDEST CALLVALUE PUSH2 0x25F JUMPI PUSH1 0x60 CALLDATASIZE PUSH1 0x3 NOT ADD SLT PUSH2 0x25F JUMPI PUSH2 0x718 PUSH2 0x1862 PUSH2 0x1AE3 JUMP JUMPDEST PUSH2 0x186A PUSH2 0x1AF9 JUMP JUMPDEST PUSH1 0x44 CALLDATALOAD SWAP2 PUSH2 0x1879 DUP4 CALLER DUP4 PUSH2 0x1CB0 JUMP JUMPDEST PUSH2 0x1D5B JUMP JUMPDEST CALLVALUE PUSH2 0x25F JUMPI PUSH1 0x0 CALLDATASIZE PUSH1 0x3 NOT ADD SLT PUSH2 0x25F JUMPI PUSH1 0x20 PUSH1 0x40 MLOAD PUSH3 0x15180 DUP2 MSTORE RETURN JUMPDEST CALLVALUE PUSH2 0x25F JUMPI PUSH1 0x0 CALLDATASIZE PUSH1 0x3 NOT ADD SLT PUSH2 0x25F JUMPI PUSH1 0x20 PUSH1 0x2 SLOAD PUSH1 0x40 MLOAD SWAP1 DUP2 MSTORE RETURN JUMPDEST CALLVALUE PUSH2 0x25F JUMPI PUSH1 0x0 CALLDATASIZE PUSH1 0x3 NOT ADD SLT PUSH2 0x25F JUMPI PUSH1 0x20 PUSH1 0x40 MLOAD PUSH1 0x5 DUP2 MSTORE RETURN JUMPDEST CALLVALUE PUSH2 0x25F JUMPI PUSH1 0x40 CALLDATASIZE PUSH1 0x3 NOT ADD SLT PUSH2 0x25F JUMPI PUSH2 0x18EF PUSH2 0x1AE3 JUMP JUMPDEST PUSH1 0x24 CALLDATALOAD SWAP1 CALLER ISZERO PUSH2 0x1972 JUMPI PUSH1 0x1 PUSH1 0x1 PUSH1 0xA0 SHL SUB AND SWAP1 DUP2 ISZERO PUSH2 0x195C JUMPI CALLER PUSH1 0x0 MSTORE PUSH1 0x1 PUSH1 0x20 MSTORE PUSH1 0x40 PUSH1 0x0 KECCAK256 DUP3 PUSH1 0x0 MSTORE PUSH1 0x20 MSTORE DUP1 PUSH1 0x40 PUSH1 0x0 KECCAK256 SSTORE PUSH1 0x40 MLOAD SWAP1 DUP2 MSTORE PUSH32 0x8C5BE1E5EBEC7D5BD14F71427D1E84F3DD0314C0F7B2291E5B200AC8C7C3B925 PUSH1 0x20 CALLER SWAP3 LOG3 PUSH1 0x20 PUSH1 0x40 MLOAD PUSH1 0x1 DUP2 MSTORE RETURN JUMPDEST PUSH4 0x4A1406B1 PUSH1 0xE1 SHL PUSH1 0x0 MSTORE PUSH1 0x0 PUSH1 0x4 MSTORE PUSH1 0x24 PUSH1 0x0 REVERT JUMPDEST PUSH4 0xE602DF05 PUSH1 0xE0 SHL PUSH1 0x0 MSTORE PUSH1 0x0 PUSH1 0x4 MSTORE PUSH1 0x24 PUSH1 0x0 REVERT JUMPDEST CALLVALUE PUSH2 0x25F JUMPI PUSH1 0x0 CALLDATASIZE PUSH1 0x3 NOT ADD SLT PUSH2 0x25F JUMPI PUSH1 0x40 MLOAD PUSH1 0x0 PUSH1 0x3 SLOAD DUP1 PUSH1 0x1 SHR SWAP1 PUSH1 0x1 DUP2 AND DUP1 ISZERO PUSH2 0x1A3D JUMPI JUMPDEST PUSH1 0x20 DUP4 LT DUP2 EQ PUSH2 0xB8B JUMPI DUP3 DUP6 MSTORE SWAP1 DUP2 ISZERO PUSH2 0xB67 JUMPI POP PUSH1 0x1 EQ PUSH2 0x19DD JUMPI PUSH2 0xB03 DUP4 PUSH2 0xAF7 DUP2 DUP6 SUB DUP3 PUSH2 0x1B8E JUMP JUMPDEST SWAP2 SWAP1 POP PUSH1 0x3 PUSH1 0x0 MSTORE PUSH32 0xC2575A0E9E593C00F959F8C92F12DB2869C3395A3B0502D05E2516446F71F85B SWAP2 PUSH1 0x0 SWAP1 JUMPDEST DUP1 DUP3 LT PUSH2 0x1A23 JUMPI POP SWAP1 SWAP2 POP DUP2 ADD PUSH1 0x20 ADD PUSH2 0xAF7 PUSH2 0xAE7 JUMP JUMPDEST SWAP2 SWAP3 PUSH1 0x1 DUP2 PUSH1 0x20 SWAP3 SLOAD DUP4 DUP6 DUP9 ADD ADD MSTORE ADD SWAP2 ADD SWAP1 SWAP3 SWAP2 PUSH2 0x1A0B JUMP JUMPDEST SWAP2 PUSH1 0x7F AND SWAP2 PUSH2 0x19B1 JUMP JUMPDEST CALLVALUE PUSH2 0x25F JUMPI PUSH1 0x20 CALLDATASIZE PUSH1 0x3 NOT ADD SLT PUSH2 0x25F JUMPI PUSH1 0x4 CALLDATALOAD SWAP1 PUSH4 0xFFFFFFFF PUSH1 0xE0 SHL DUP3 AND DUP1 SWAP3 SUB PUSH2 0x25F JUMPI PUSH1 0x20 SWAP2 PUSH4 0x7965DB0B PUSH1 0xE0 SHL DUP2 EQ SWAP1 DUP2 ISZERO PUSH2 0x1A89 JUMPI JUMPDEST POP ISZERO ISZERO DUP2 MSTORE RETURN JUMPDEST PUSH4 0x1FFC9A7 PUSH1 0xE0 SHL EQ SWAP1 POP DUP4 PUSH2 0x1A82 JUMP JUMPDEST SWAP2 SWAP1 SWAP2 PUSH1 0x20 DUP2 MSTORE DUP3 MLOAD DUP1 PUSH1 0x20 DUP4 ADD MSTORE PUSH1 0x0 JUMPDEST DUP2 DUP2 LT PUSH2 0x1ACD JUMPI POP PUSH1 0x40 SWAP3 SWAP4 POP PUSH1 0x0 DUP4 DUP3 DUP5 ADD ADD MSTORE PUSH1 0x1F DUP1 NOT SWAP2 ADD AND ADD ADD SWAP1 JUMP JUMPDEST DUP1 PUSH1 0x20 DUP1 SWAP3 DUP8 ADD ADD MLOAD PUSH1 0x40 DUP3 DUP7 ADD ADD MSTORE ADD PUSH2 0x1AAC JUMP JUMPDEST PUSH1 0x4 CALLDATALOAD SWAP1 PUSH1 0x1 PUSH1 0x1 PUSH1 0xA0 SHL SUB DUP3 AND DUP3 SUB PUSH2 0x25F JUMPI JUMP JUMPDEST PUSH1 0x24 CALLDATALOAD SWAP1 PUSH1 0x1 PUSH1 0x1 PUSH1 0xA0 SHL SUB DUP3 AND DUP3 SUB PUSH2 0x25F JUMPI JUMP JUMPDEST SWAP2 DUP2 PUSH1 0x1F DUP5 ADD SLT ISZERO PUSH2 0x25F JUMPI DUP3 CALLDATALOAD SWAP2 PUSH8 0xFFFFFFFFFFFFFFFF DUP4 GT PUSH2 0x25F JUMPI PUSH1 0x20 DUP1 DUP6 ADD SWAP5 DUP5 PUSH1 0x5 SHL ADD ADD GT PUSH2 0x25F JUMPI JUMP JUMPDEST DUP1 SLOAD DUP3 LT ISZERO PUSH2 0x1B5C JUMPI PUSH1 0x0 MSTORE PUSH1 0x20 PUSH1 0x0 KECCAK256 SWAP1 PUSH1 0x2 SHL ADD SWAP1 PUSH1 0x0 SWAP1 JUMP JUMPDEST PUSH4 0x4E487B71 PUSH1 0xE0 SHL PUSH1 0x0 MSTORE PUSH1 0x32 PUSH1 0x4 MSTORE PUSH1 0x24 PUSH1 0x0 REVERT JUMPDEST PUSH1 0xA0 DUP2 ADD SWAP1 DUP2 LT PUSH8 0xFFFFFFFFFFFFFFFF DUP3 GT OR PUSH2 0x5A5 JUMPI PUSH1 0x40 MSTORE JUMP JUMPDEST SWAP1 PUSH1 0x1F DUP1 NOT SWAP2 ADD AND DUP2 ADD SWAP1 DUP2 LT PUSH8 0xFFFFFFFFFFFFFFFF DUP3 GT OR PUSH2 0x5A5 JUMPI PUSH1 0x40 MSTORE JUMP JUMPDEST ISZERO PUSH2 0x1BB7 JUMPI JUMP JUMPDEST PUSH1 0x40 MLOAD PUSH3 0x461BCD PUSH1 0xE5 SHL DUP2 MSTORE PUSH1 0x20 PUSH1 0x4 DUP3 ADD MSTORE PUSH1 0x13 PUSH1 0x24 DUP3 ADD MSTORE PUSH19 0x92DCECC2D8D2C840E6E8C2D6CA40D2DCC8CAF PUSH1 0x6B SHL PUSH1 0x44 DUP3 ADD MSTORE PUSH1 0x64 SWAP1 REVERT JUMPDEST ISZERO PUSH2 0x1BF9 JUMPI JUMP JUMPDEST PUSH1 0x40 MLOAD PUSH3 0x461BCD PUSH1 0xE5 SHL DUP2 MSTORE PUSH1 0x20 PUSH1 0x4 DUP3 ADD MSTORE PUSH1 0x10 PUSH1 0x24 DUP3 ADD MSTORE PUSH16 0x5374616B65206E6F7420616374697665 PUSH1 0x80 SHL PUSH1 0x44 DUP3 ADD MSTORE PUSH1 0x64 SWAP1 REVERT JUMPDEST SWAP2 SWAP1 DUP3 SUB SWAP2 DUP3 GT PUSH2 0x579 JUMPI JUMP JUMPDEST SWAP2 SWAP1 DUP2 LT ISZERO PUSH2 0x1B5C JUMPI PUSH1 0x5 SHL ADD SWAP1 JUMP JUMPDEST CALLDATALOAD PUSH1 0x1 PUSH1 0x1 PUSH1 0xA0 SHL SUB DUP2 AND DUP2 SUB PUSH2 0x25F JUMPI SWAP1 JUMP JUMPDEST SWAP2 SWAP1 DUP3 ADD DUP1 SWAP3 GT PUSH2 0x579 JUMPI JUMP JUMPDEST ISZERO PUSH2 0x1C76 JUMPI JUMP JUMPDEST PUSH1 0x40 MLOAD PUSH3 0x461BCD PUSH1 0xE5 SHL DUP2 MSTORE PUSH1 0x20 PUSH1 0x4 DUP3 ADD MSTORE PUSH1 0x12 PUSH1 0x24 DUP3 ADD MSTORE PUSH18 0x45786365656473206D617820737570706C79 PUSH1 0x70 SHL PUSH1 0x44 DUP3 ADD MSTORE PUSH1 0x64 SWAP1 REVERT JUMPDEST PUSH1 0x1 PUSH1 0x1 PUSH1 0xA0 SHL SUB SWAP1 DUP2 AND PUSH1 0x0 DUP2 DUP2 MSTORE PUSH1 0x1 PUSH1 0x20 SWAP1 DUP2 MSTORE PUSH1 0x40 DUP1 DUP4 KECCAK256 SWAP5 DUP7 AND DUP4 MSTORE SWAP4 SWAP1 MSTORE SWAP2 SWAP1 SWAP2 KECCAK256 SLOAD SWAP3 SWAP2 SWAP1 PUSH1 0x0 NOT DUP5 LT PUSH2 0x1CEC JUMPI JUMPDEST POP POP POP POP JUMP JUMPDEST DUP3 DUP5 LT PUSH2 0x1D36 JUMPI DUP1 ISZERO PUSH2 0x1972 JUMPI PUSH1 0x1 PUSH1 0x1 PUSH1 0xA0 SHL SUB DUP3 AND ISZERO PUSH2 0x195C JUMPI PUSH1 0x0 MSTORE PUSH1 0x1 PUSH1 0x20 MSTORE PUSH1 0x40 PUSH1 0x0 KECCAK256 SWAP1 PUSH1 0x1 DUP1 PUSH1 0xA0 SHL SUB AND PUSH1 0x0 MSTORE PUSH1 0x20 MSTORE PUSH1 0x40 PUSH1 0x0 KECCAK256 SWAP2 SUB SWAP1 SSTORE CODESIZE DUP1 DUP1 DUP1 PUSH2 0x1CE6 JUMP JUMPDEST POP DUP3 SWAP1 PUSH4 0x7DC7A0D9 PUSH1 0xE1 SHL PUSH1 0x0 MSTORE PUSH1 0x1 DUP1 PUSH1 0xA0 SHL SUB AND PUSH1 0x4 MSTORE PUSH1 0x24 MSTORE PUSH1 0x44 MSTORE PUSH1 0x64 PUSH1 0x0 REVERT JUMPDEST PUSH1 0x1 PUSH1 0x1 PUSH1 0xA0 SHL SUB AND SWAP1 DUP2 ISZERO PUSH2 0x1E12 JUMPI PUSH1 0x1 PUSH1 0x1 PUSH1 0xA0 SHL SUB AND SWAP2 DUP3 ISZERO PUSH2 0x1DFC JUMPI PUSH2 0x1D83 PUSH2 0x1E4A JUMP JUMPDEST PUSH1 0x0 DUP3 DUP2 MSTORE DUP1 PUSH1 0x20 MSTORE PUSH1 0x40 DUP2 KECCAK256 SLOAD DUP3 DUP2 LT PUSH2 0x1DE2 JUMPI SWAP2 PUSH1 0x40 DUP3 DUP3 PUSH32 0xDDF252AD1BE2C89B69C2B068FC378DAA952BA7F163C4A11628F55A4DF523B3EF SWAP6 DUP8 PUSH1 0x20 SWAP7 MSTORE DUP3 DUP7 MSTORE SUB DUP3 DUP3 KECCAK256 SSTORE DUP7 DUP2 MSTORE DUP1 DUP5 MSTORE KECCAK256 DUP2 DUP2 SLOAD ADD SWAP1 SSTORE PUSH1 0x40 MLOAD SWAP1 DUP2 MSTORE LOG3 JUMP JUMPDEST SWAP2 PUSH1 0x64 SWAP3 DUP5 PUSH4 0x391434E3 PUSH1 0xE2 SHL DUP5 MSTORE PUSH1 0x4 MSTORE PUSH1 0x24 MSTORE PUSH1 0x44 MSTORE REVERT JUMPDEST PUSH4 0xEC442F05 PUSH1 0xE0 SHL PUSH1 0x0 MSTORE PUSH1 0x0 PUSH1 0x4 MSTORE PUSH1 0x24 PUSH1 0x0 REVERT JUMPDEST PUSH4 0x4B637E8F PUSH1 0xE1 SHL PUSH1 0x0 MSTORE PUSH1 0x0 PUSH1 0x4 MSTORE PUSH1 0x24 PUSH1 0x0 REVERT JUMPDEST PUSH1 0x2 PUSH1 0x7 SLOAD EQ PUSH2 0x1E39 JUMPI PUSH1 0x2 PUSH1 0x7 SSTORE JUMP JUMPDEST PUSH4 0x3EE5AEB5 PUSH1 0xE0 SHL PUSH1 0x0 MSTORE PUSH1 0x4 PUSH1 0x0 REVERT JUMPDEST PUSH1 0xFF PUSH1 0x5 SLOAD AND PUSH2 0x1E56 JUMPI JUMP JUMPDEST PUSH4 0xD93C0665 PUSH1 0xE0 SHL PUSH1 0x0 MSTORE PUSH1 0x4 PUSH1 0x0 REVERT JUMPDEST CALLER PUSH1 0x0 SWAP1 DUP2 MSTORE PUSH32 0x175D78F916A1B5C34FCE2E95011BD8D1F4C7D7F3B97A43A570884309DB3FD3C0 PUSH1 0x20 MSTORE PUSH1 0x40 SWAP1 KECCAK256 SLOAD PUSH1 0xFF AND ISZERO PUSH2 0x1EA0 JUMPI JUMP JUMPDEST PUSH4 0xE2517D3F PUSH1 0xE0 SHL PUSH1 0x0 MSTORE CALLER PUSH1 0x4 MSTORE PUSH32 0x1099F3E9139A65223B9EBDD967A9BCC626157189E78178D8AB04D9AC02BDDA22 PUSH1 0x24 MSTORE PUSH1 0x44 PUSH1 0x0 REVERT JUMPDEST CALLER PUSH1 0x0 SWAP1 DUP2 MSTORE PUSH32 0xE09F975E15F8F53F24CBBC282B13C40B84DF485FCDB8D3997FA103DC5A4EF841 PUSH1 0x20 MSTORE PUSH1 0x40 SWAP1 KECCAK256 SLOAD PUSH1 0xFF AND ISZERO PUSH2 0x1F12 JUMPI JUMP JUMPDEST PUSH4 0xE2517D3F PUSH1 0xE0 SHL PUSH1 0x0 MSTORE CALLER PUSH1 0x4 MSTORE PUSH32 0x65D7A28E3265B37A6474929F336521B332C1681B933F6CB9F3376673440D862A PUSH1 0x24 MSTORE PUSH1 0x44 PUSH1 0x0 REVERT JUMPDEST PUSH1 0x0 DUP2 DUP2 MSTORE PUSH1 0x6 PUSH1 0x20 SWAP1 DUP2 MSTORE PUSH1 0x40 DUP1 DUP4 KECCAK256 CALLER DUP5 MSTORE SWAP1 SWAP2 MSTORE SWAP1 KECCAK256 SLOAD PUSH1 0xFF AND ISZERO PUSH2 0x1F70 JUMPI POP JUMP JUMPDEST PUSH4 0xE2517D3F PUSH1 0xE0 SHL PUSH1 0x0 MSTORE CALLER PUSH1 0x4 MSTORE PUSH1 0x24 MSTORE PUSH1 0x44 PUSH1 0x0 REVERT JUMPDEST PUSH1 0x1 PUSH1 0x1 PUSH1 0xA0 SHL SUB AND SWAP1 DUP2 ISZERO PUSH2 0x1DFC JUMPI PUSH2 0x1FA0 PUSH2 0x1E4A JUMP JUMPDEST PUSH2 0x1FAC DUP2 PUSH1 0x2 SLOAD PUSH2 0x1C62 JUMP JUMPDEST PUSH1 0x2 SSTORE PUSH32 0xDDF252AD1BE2C89B69C2B068FC378DAA952BA7F163C4A11628F55A4DF523B3EF PUSH1 0x20 PUSH1 0x0 SWAP3 DUP5 DUP5 MSTORE DUP4 DUP3 MSTORE PUSH1 0x40 DUP5 KECCAK256 DUP2 DUP2 SLOAD ADD SWAP1 SSTORE PUSH1 0x40 MLOAD SWAP1 DUP2 MSTORE LOG3 JUMP JUMPDEST PUSH1 0x0 DUP2 DUP2 MSTORE PUSH1 0x6 PUSH1 0x20 SWAP1 DUP2 MSTORE PUSH1 0x40 DUP1 DUP4 KECCAK256 PUSH1 0x1 PUSH1 0x1 PUSH1 0xA0 SHL SUB DUP7 AND DUP5 MSTORE SWAP1 SWAP2 MSTORE SWAP1 KECCAK256 SLOAD PUSH1 0xFF AND PUSH2 0x2076 JUMPI PUSH1 0x0 DUP2 DUP2 MSTORE PUSH1 0x6 PUSH1 0x20 SWAP1 DUP2 MSTORE PUSH1 0x40 DUP1 DUP4 KECCAK256 PUSH1 0x1 PUSH1 0x1 PUSH1 0xA0 SHL SUB SWAP6 SWAP1 SWAP6 AND DUP1 DUP5 MSTORE SWAP5 SWAP1 SWAP2 MSTORE DUP2 KECCAK256 DUP1 SLOAD PUSH1 0xFF NOT AND PUSH1 0x1 OR SWAP1 SSTORE CALLER SWAP3 SWAP2 SWAP1 PUSH32 0x2F8788117E7EFF1D82E926EC794901D17C78024A50270940304540A733656F0D SWAP1 DUP1 LOG4 PUSH1 0x1 SWAP1 JUMP JUMPDEST POP POP PUSH1 0x0 SWAP1 JUMP JUMPDEST PUSH1 0x0 DUP2 DUP2 MSTORE PUSH1 0x6 PUSH1 0x20 SWAP1 DUP2 MSTORE PUSH1 0x40 DUP1 DUP4 KECCAK256 PUSH1 0x1 PUSH1 0x1 PUSH1 0xA0 SHL SUB DUP7 AND DUP5 MSTORE SWAP1 SWAP2 MSTORE SWAP1 KECCAK256 SLOAD PUSH1 0xFF AND ISZERO PUSH2 0x2076 JUMPI PUSH1 0x0 DUP2 DUP2 MSTORE PUSH1 0x6 PUSH1 0x20 SWAP1 DUP2 MSTORE PUSH1 0x40 DUP1 DUP4 KECCAK256 PUSH1 0x1 PUSH1 0x1 PUSH1 0xA0 SHL SUB SWAP6 SWAP1 SWAP6 AND DUP1 DUP5 MSTORE SWAP5 SWAP1 SWAP2 MSTORE DUP2 KECCAK256 DUP1 SLOAD PUSH1 0xFF NOT AND SWAP1 SSTORE CALLER SWAP3 SWAP2 SWAP1 PUSH32 0xF6391F5C32D9C69D2A47EA670B442974B53935D1EDC7FD64EB21E047A839171B SWAP1 DUP1 LOG4 PUSH1 0x1 SWAP1 JUMP JUMPDEST PUSH1 0x1 PUSH1 0x1 PUSH1 0xA0 SHL SUB AND DUP1 ISZERO PUSH2 0x1E12 JUMPI PUSH2 0x211A PUSH2 0x1E4A JUMP JUMPDEST PUSH1 0x0 SWAP2 DUP2 DUP4 MSTORE DUP3 PUSH1 0x20 MSTORE PUSH1 0x40 DUP4 KECCAK256 SLOAD DUP2 DUP2 LT PUSH2 0x2173 JUMPI DUP2 PUSH32 0xDDF252AD1BE2C89B69C2B068FC378DAA952BA7F163C4A11628F55A4DF523B3EF SWAP3 PUSH1 0x20 SWAP3 DUP6 DUP8 MSTORE DUP7 DUP5 MSTORE SUB PUSH1 0x40 DUP7 KECCAK256 SSTORE DUP1 PUSH1 0x2 SLOAD SUB PUSH1 0x2 SSTORE PUSH1 0x40 MLOAD SWAP1 DUP2 MSTORE LOG3 JUMP JUMPDEST PUSH1 0x64 SWAP4 SWAP3 PUSH4 0x391434E3 PUSH1 0xE2 SHL DUP5 MSTORE PUSH1 0x4 MSTORE PUSH1 0x24 MSTORE PUSH1 0x44 MSTORE REVERT INVALID LOG2 PUSH5 0x6970667358 0x22 SLT KECCAK256 DUP12 LT 0xCA ADDMOD PUSH0 SWAP9 LOG1 DUP9 0x1E 0x24 EXTCODEHASH 0xD9 SAR ADDRESS 0xA7 OR SSTORE PUSH13 0xDF58BCBCE8F73C28C0F66799D9 SLT PUSH5 0x736F6C6343 STOP ADDMOD SHR STOP CALLER 0x2F DUP8 DUP9 GT PUSH31 0x7EFF1D82E926EC794901D17C78024A50270940304540A733656F0DE09F975E ISZERO 0xF8 CREATE2 EXTCODEHASH 0x24 0xCB 0xBC 0x28 0x2B SGT 0xC4 SIGNEXTEND DUP5 0xDF BASEFEE PUSH0 0xCD 0xB8 0xD3 SWAP10 PUSH32 0xA103DC5A4EF841175D78F916A1B5C34FCE2E95011BD8D1F4C7D7F3B97A43A570 DUP9 NUMBER MULMOD 0xDB EXTCODEHASH 0xD3 0xC0 CHAINID 0xB5 BYTE 0x4C SUB 0xC4 0xB5 SUB 0xE2 PUSH32 0x8C62446C378E534965AC4316CC9587F460B6C5616EB754CDD369E4E8A8515E52 0xCA PUSH19 0xEC816C2101831AD1F18BF44102ED171459C9B4 0xF8 "},"methodIdentifiers":{"BASE_REWARD_RATE()":"0e40fe9f","BONUS_MULTIPLIER()":"8aa28550","BOUNTY_MANAGER_ROLE()":"e9f244b4","DEFAULT_ADMIN_ROLE()":"a217fddf","INITIAL_SUPPLY()":"2ff2e9dc","MAX_SUPPLY()":"32cb6b0c","MINTER_ROLE()":"d5391393","MIN_STAKE_AMOUNT()":"27ed7188","PAUSER_ROLE()":"e63ab1e9","REPUTATION_MANAGER_ROLE()":"eb0fd86a","SLASH_PERCENTAGE()":"9f29f135","STAKE_LOCK_PERIOD()":"1932526d","allowance(address,address)":"dd62ed3e","analysisRewards(bytes32)":"2c23f962","approve(address,uint256)":"095ea7b3","authorizedEngines(address)":"b1bf884a","balanceOf(address)":"70a08231","burn(uint256)":"42966c68","burnFrom(address,uint256)":"79cc6790","decimals()":"313ce567","distributeRewards(bytes32,address[],bool[])":"2ef87062","emergencyRecover(address,uint256)":"9639011e","engineReputation(address)":"bdc0e181","engineStakes(address,uint256)":"52727f6a","getAnalysisReward(bytes32,address)":"5435b89f","getEngineStakes(address)":"2f8c6b8d","getRoleAdmin(bytes32)":"248a9ca3","globalActiveStakes()":"c46c18e3","grantRole(bytes32,address)":"2f2ff15d","hasRole(bytes32,address)":"91d14854","mint(address,uint256)":"40c10f19","name()":"06fdde03","pause()":"8456cb59","paused()":"5c975abb","renounceRole(bytes32,address)":"36568abe","revokeRole(bytes32,address)":"d547741f","setEngineAuthorization(address,bool)":"319dc996","slashStake(address,uint256)":"98d1c5a8","stakeForAnalysis(uint256,bytes32)":"c3622bad","supportsInterface(bytes4)":"01ffc9a7","symbol()":"95d89b41","totalStaked(address)":"9bfd8d61","totalSupply()":"18160ddd","transfer(address,uint256)":"a9059cbb","transferFrom(address,address,uint256)":"23b872dd","unpause()":"3f4ba83a","unstake(uint256)":"2e17de78"}}}}}