{"contracts/core/BountyManager.sol":{"BountyManager":{"abi":[{"inputs":[{"internalType":"address","name":"_threatToken","type":"address"},{"internalType":"address","name":"_reputationSystem","type":"address"},{"internalType":"address","name":"_feeCollector","type":"address"}],"stateMutability":"nonpayable","type":"constructor"},{"anonymous":false,"inputs":[{"indexed":true,"internalType":"uint256","name":"bountyId","type":"uint256"},{"indexed":true,"internalType":"address","name":"engine","type":"address"},{"indexed":false,"internalType":"enum BountyManager.ThreatVerdict","name":"verdict","type":"uint8"},{"indexed":false,"internalType":"uint256","name":"stake","type":"uint256"},{"indexed":false,"internalType":"uint256","name":"confidence","type":"uint256"}],"name":"AnalysisSubmitted","type":"event"},{"anonymous":false,"inputs":[{"indexed":true,"internalType":"uint256","name":"bountyId","type":"uint256"},{"indexed":true,"internalType":"address","name":"creator","type":"address"},{"indexed":false,"internalType":"string","name":"artifactHash","type":"string"},{"indexed":false,"internalType":"uint256","name":"reward","type":"uint256"},{"indexed":false,"internalType":"uint256","name":"deadline","type":"uint256"}],"name":"BountyCreated","type":"event"},{"anonymous":false,"inputs":[{"indexed":true,"internalType":"uint256","name":"bountyId","type":"uint256"},{"indexed":false,"internalType":"enum BountyManager.ThreatVerdict","name":"consensus","type":"uint8"},{"indexed":false,"internalType":"uint256","name":"confidenceScore","type":"uint256"},{"indexed":false,"internalType":"uint256","name":"totalAnalyses","type":"uint256"}],"name":"ConsensusReached","type":"event"},{"anonymous":false,"inputs":[{"indexed":true,"internalType":"uint256","name":"bountyId","type":"uint256"},{"indexed":false,"internalType":"address[]","name":"winners","type":"address[]"},{"indexed":false,"internalType":"uint256[]","name":"rewards","type":"uint256[]"},{"indexed":false,"internalType":"uint256[]","name":"stakes","type":"uint256[]"}],"name":"RewardsDistributed","type":"event"},{"inputs":[],"name":"ANALYSIS_TIMEOUT","outputs":[{"internalType":"uint256","name":"","type":"uint256"}],"stateMutability":"view","type":"function"},{"inputs":[],"name":"CONSENSUS_THRESHOLD","outputs":[{"internalType":"uint256","name":"","type":"uint256"}],"stateMutability":"view","type":"function"},{"inputs":[],"name":"MIN_ANALYSES_TO_RESOLVE","outputs":[{"internalType":"uint256","name":"","type":"uint256"}],"stateMutability":"view","type":"function"},{"inputs":[],"name":"MIN_STAKE_AMOUNT","outputs":[{"internalType":"uint256","name":"","type":"uint256"}],"stateMutability":"view","type":"function"},{"inputs":[],"name":"PLATFORM_FEE_PERCENT","outputs":[{"internalType":"uint256","name":"","type":"uint256"}],"stateMutability":"view","type":"function"},{"inputs":[{"internalType":"uint256","name":"","type":"uint256"},{"internalType":"address","name":"","type":"address"}],"name":"analyses","outputs":[{"internalType":"uint256","name":"bountyId","type":"uint256"},{"internalType":"address","name":"analyst","type":"address"},{"internalType":"enum BountyManager.ThreatVerdict","name":"verdict","type":"uint8"},{"internalType":"uint256","name":"confidence","type":"uint256"},{"internalType":"uint256","name":"stakeAmount","type":"uint256"},{"internalType":"string","name":"analysisHash","type":"string"},{"internalType":"uint256","name":"submittedAt","type":"uint256"},{"internalType":"bool","name":"rewarded","type":"bool"}],"stateMutability":"view","type":"function"},{"inputs":[{"internalType":"uint256","name":"","type":"uint256"},{"internalType":"address","name":"","type":"address"}],"name":"analystSubmissionIds","outputs":[{"internalType":"uint256","name":"","type":"uint256"}],"stateMutability":"view","type":"function"},{"inputs":[{"internalType":"uint256","name":"","type":"uint256"}],"name":"bounties","outputs":[{"internalType":"uint256","name":"id","type":"uint256"},{"internalType":"address","name":"creator","type":"address"},{"internalType":"string","name":"artifactHash","type":"string"},{"internalType":"string","name":"artifactType","type":"string"},{"internalType":"uint256","name":"rewardAmount","type":"uint256"},{"internalType":"uint256","name":"deadline","type":"uint256"},{"internalType":"string","name":"description","type":"string"},{"internalType":"enum BountyManager.BountyStatus","name":"status","type":"uint8"},{"internalType":"enum BountyManager.ThreatVerdict","name":"consensusVerdict","type":"uint8"},{"internalType":"uint256","name":"totalStaked","type":"uint256"},{"internalType":"uint256","name":"analysisCount","type":"uint256"},{"internalType":"uint256","name":"createdAt","type":"uint256"}],"stateMutability":"view","type":"function"},{"inputs":[{"internalType":"uint256","name":"","type":"uint256"},{"internalType":"uint256","name":"","type":"uint256"}],"name":"bountyAnalysts","outputs":[{"internalType":"address","name":"","type":"address"}],"stateMutability":"view","type":"function"},{"inputs":[],"name":"bountyCounter","outputs":[{"internalType":"uint256","name":"","type":"uint256"}],"stateMutability":"view","type":"function"},{"inputs":[{"internalType":"string","name":"artifactHash","type":"string"},{"internalType":"string","name":"artifactType","type":"string"},{"internalType":"uint256","name":"rewardAmount","type":"uint256"},{"internalType":"uint256","name":"deadline","type":"uint256"},{"internalType":"string","name":"description","type":"string"}],"name":"createBounty","outputs":[{"internalType":"uint256","name":"","type":"uint256"}],"stateMutability":"nonpayable","type":"function"},{"inputs":[{"internalType":"address","name":"token","type":"address"},{"internalType":"uint256","name":"amount","type":"uint256"}],"name":"emergencyWithdraw","outputs":[],"stateMutability":"nonpayable","type":"function"},{"inputs":[],"name":"feeCollector","outputs":[{"internalType":"address","name":"","type":"address"}],"stateMutability":"view","type":"function"},{"inputs":[{"internalType":"uint256","name":"bountyId","type":"uint256"},{"internalType":"address","name":"analyst","type":"address"}],"name":"getAnalysis","outputs":[{"components":[{"internalType":"uint256","name":"bountyId","type":"uint256"},{"internalType":"address","name":"analyst","type":"address"},{"internalType":"enum BountyManager.ThreatVerdict","name":"verdict","type":"uint8"},{"internalType":"uint256","name":"confidence","type":"uint256"},{"internalType":"uint256","name":"stakeAmount","type":"uint256"},{"internalType":"string","name":"analysisHash","type":"string"},{"internalType":"uint256","name":"submittedAt","type":"uint256"},{"internalType":"bool","name":"rewarded","type":"bool"}],"internalType":"struct BountyManager.Analysis","name":"","type":"tuple"}],"stateMutability":"view","type":"function"},{"inputs":[{"internalType":"uint256","name":"bountyId","type":"uint256"}],"name":"getBounty","outputs":[{"components":[{"internalType":"uint256","name":"id","type":"uint256"},{"internalType":"address","name":"creator","type":"address"},{"internalType":"string","name":"artifactHash","type":"string"},{"internalType":"string","name":"artifactType","type":"string"},{"internalType":"uint256","name":"rewardAmount","type":"uint256"},{"internalType":"uint256","name":"deadline","type":"uint256"},{"internalType":"string","name":"description","type":"string"},{"internalType":"enum BountyManager.BountyStatus","name":"status","type":"uint8"},{"internalType":"enum BountyManager.ThreatVerdict","name":"consensusVerdict","type":"uint8"},{"internalType":"uint256","name":"totalStaked","type":"uint256"},{"internalType":"uint256","name":"analysisCount","type":"uint256"},{"internalType":"uint256","name":"createdAt","type":"uint256"}],"internalType":"struct BountyManager.Bounty","name":"","type":"tuple"}],"stateMutability":"view","type":"function"},{"inputs":[{"internalType":"uint256","name":"bountyId","type":"uint256"}],"name":"getBountyAnalysts","outputs":[{"internalType":"address[]","name":"","type":"address[]"}],"stateMutability":"view","type":"function"},{"inputs":[],"name":"getTotalBounties","outputs":[{"internalType":"uint256","name":"","type":"uint256"}],"stateMutability":"view","type":"function"},{"inputs":[{"internalType":"address","name":"user","type":"address"}],"name":"getUserBounties","outputs":[{"internalType":"uint256[]","name":"","type":"uint256[]"}],"stateMutability":"view","type":"function"},{"inputs":[],"name":"owner","outputs":[{"internalType":"address","name":"","type":"address"}],"stateMutability":"view","type":"function"},{"inputs":[],"name":"pause","outputs":[],"stateMutability":"nonpayable","type":"function"},{"inputs":[],"name":"paused","outputs":[{"internalType":"bool","name":"","type":"bool"}],"stateMutability":"view","type":"function"},{"inputs":[],"name":"reputationSystem","outputs":[{"internalType":"contract IReputationSystem","name":"","type":"address"}],"stateMutability":"view","type":"function"},{"inputs":[{"internalType":"uint256","name":"bountyId","type":"uint256"}],"name":"resolveBounty","outputs":[],"stateMutability":"nonpayable","type":"function"},{"inputs":[{"internalType":"address","name":"_feeCollector","type":"address"}],"name":"setFeeCollector","outputs":[],"stateMutability":"nonpayable","type":"function"},{"inputs":[{"internalType":"uint256","name":"bountyId","type":"uint256"},{"internalType":"enum BountyManager.ThreatVerdict","name":"verdict","type":"uint8"},{"internalType":"uint256","name":"confidence","type":"uint256"},{"internalType":"uint256","name":"stakeAmount","type":"uint256"},{"internalType":"string","name":"analysisHash","type":"string"}],"name":"submitAnalysis","outputs":[],"stateMutability":"nonpayable","type":"function"},{"inputs":[],"name":"threatToken","outputs":[{"internalType":"contract ThreatToken","name":"","type":"address"}],"stateMutability":"view","type":"function"},{"inputs":[],"name":"unpause","outputs":[],"stateMutability":"nonpayable","type":"function"},{"inputs":[{"internalType":"address","name":"","type":"address"},{"internalType":"uint256","name":"","type":"uint256"}],"name":"userBounties","outputs":[{"internalType":"uint256","name":"","type":"uint256"}],"stateMutability":"view","type":"function"}],"evm":{"bytecode":{"linkReferences":{},"object":"60c0346101ea57601f612fbf38819003918201601f19168301916001600160401b038311848410176101ef578084926060946040528339810103126101ea5761004781610205565b61005f604061005860208501610205565b9301610205565b6001600160a01b039091169182156101a5576001600160a01b0316908115610156576001600160a01b03169182156101115760805260a052600280546001600160a01b03199081169290921790556001805490911633179055604051612da5908161021a82396080518181816108b7015281816111920152818161169d015281816123cc0152818161290701528181612a320152612bb5015260a05181818161130e015281816115ff01526121c50152f35b60405162461bcd60e51b815260206004820152601d60248201527f496e76616c69642066656520636f6c6c6563746f7220616464726573730000006044820152606490fd5b60405162461bcd60e51b815260206004820152602160248201527f496e76616c69642072657075746174696f6e2073797374656d206164647265736044820152607360f81b6064820152608490fd5b60405162461bcd60e51b815260206004820152601560248201527f496e76616c696420746f6b656e206164647265737300000000000000000000006044820152606490fd5b600080fd5b634e487b7160e01b600052604160045260246000fd5b51906001600160a01b03821682036101ea5756fe6080604052600436101561001257600080fd5b60003560e01c80630be8ff0014611c715780630c12d5a4146110365780631a147e37146114e957806327ed7188146114c65780632b9234b91461146d5780633451c0bc146113985780633f4ba83a14611363578063560d52d4146110545780635c975abb1461133d5780636587eda1146112f85780636591a1851461126d5780636fa971c5146112255780638456cb59146111ea5780638da5cb5b146111c15780639008e13f1461117c57806395ccea67146110595780639e6cc94e14611054578063a0d5978714611036578063a42dce8014610fa4578063b2bc1fbd146107d7578063bca125f0146107bb578063bdeb4c2f146106f9578063c415b95c146106d0578063c7d22e9c14610628578063cb5223701461060a578063dc2f874414610500578063eab4e425146103835763ee8c4bbf1461015057600080fd5b3461037e57602036600319011261037e57600435600061016060405161017581611d0d565b828152826020820152606060408201526060808201528260808201528260a0820152606060c08201528260e0820152826101008201528261012082015282610140820152015280151580610372575b6101cd90611f92565b600052600360205260406000206040516101e681611d0d565b8154815260018201546001600160a01b0316602082019081529161020c60028201611e56565b6040830190815261021f60038301611e56565b91606084019283526004810154926080850193845260058201549360a0860194855261024d60068401611e56565b9060c0870191825260078401549160ff83169660e0890197600581101561035c57885261010089019360081c60ff16610286908561207a565b6008860154946101208a019586526009870154966101408b01978852600a0154976101608b019889526040519b8c9b60208d525160208d0152600160a01b6001900390511660408c01525160608b0161018090526101a08b016102e891611f07565b90518a8203601f190160808c01526103009190611f07565b925160a08a01525160c089015251878203601f190160e08901526103249190611f07565b9451610100870161033491611f85565b51610120860161034391611efa565b5161014085015251610160840152516101808301520390f35b634e487b7160e01b600052602160045260246000fd5b506000548111156101c4565b600080fd5b3461037e57604036600319011261037e5760406004356103a1611db6565b90600060e084516103b181611cf1565b8281528260208201528286820152826060820152826080820152606060a08201528260c08201520152801515806104f4575b6103ec90611f92565b60005260046020528160002060009160018060a01b031682526020522060405161041581611cf1565b8154815260018201546001600160a01b03811660208301908152929060408301906104469060a01c60ff168261207a565b6104e060028301546060850190815260038401546080860190815261046d60048601611e56565b9160a087019283526104c060ff600660058901549860c08b01998a520154169560e089019615158752604051998a9960208b525160208b015260018060a01b0390511660408a0152516060890190611efa565b5160808701525160a08601525161010060c0860152610120850190611f07565b915160e08401525115156101008301520390f35b506000548111156103e3565b3461037e57602036600319011261037e576004356000908152600360205260409020805460018201546001600160a01b03169161053f60028201611e56565b61054b60038301611e56565b6004830154600584015493919061056460068401611e56565b90600784015495600885015493600986015495600a0154966040519a8b9a8b5260208b015260408a0161018090526101808a016105a091611f07565b89810360608b01526105b191611f07565b91608089015260a088015286810360c08801526105cd91611f07565b936105de60e0870160ff8316611f85565b61010086019060081c60ff16906105f491611efa565b6101208501526101408401526101608301520390f35b3461037e57600036600319011261037e576020604051620151808152f35b3461037e57602036600319011261037e57600435801515806106c4575b61064e90611f92565b6000526005602052604060002060405190816020825491828152019160005260206000209060005b8181106106a5576106a18561068d81870382611d29565b604051918291602083526020830190611f48565b0390f35b82546001600160a01b0316845260209093019260019283019201610676565b50600054811115610645565b3461037e57600036600319011261037e576002546040516001600160a01b039091168152602090f35b3461037e57604036600319011261037e576040610714611db6565b60043560005260046020528160002060009160018060a01b0316825260205220805460018201549160028101546107aa600383015461075560048501611e56565b9060ff60066005870154960154169361078d604051988998895260018060a01b03811660208a015260ff60408a019160a01c16611efa565b6060870152608086015261010060a0860152610100850190611f07565b9160c0840152151560e08301520390f35b3461037e57600036600319011261037e57602060405160428152f35b3461037e5760a036600319011261037e576004356001600160401b03811161037e57610807903690600401611d4a565b6024356001600160401b03811161037e57610826903690600401611d4a565b906044356064356084356001600160401b03811161037e5761084c903690600401611d4a565b61085e60ff60025460a01c1615612012565b835115610f67578215610f2257610e104201804211610f0c57821115610ed357805115610e97576040516323b872dd60e01b81523360048201523060248201526044810184905260208160648160006001600160a01b037f0000000000000000000000000000000000000000000000000000000000000000165af1908115610e8b57600091610e5c575b5015610e1f576108f9600054612093565b806000556040519161090a83611d0d565b8183526020830190338252604084019087825260608501988952608085019087825260a0860187815260c0870191825260e08701926000845261010088019b60008d52610120890195600087526101408a0197600089526101608b0199428b52600052600360205260406000209a518b5560018060a01b0390511660018b019060018060a01b03166001600160601b0360a01b82541617905560028a0190518051906001600160401b038211610c835781906109c68454611e1c565b601f8111610dcc575b50602090601f8311600114610d6757600092610d5c575b50508160011b916000199060031b1c19161790555b51805160038a01916001600160401b038211610c83578190610a1d8454611e1c565b601f8111610d09575b50602090601f8311600114610ca457600092610c99575b50508160011b916000199060031b1c19161790555b51600488015551600587015551805160068701916001600160401b038211610c83578190610a808454611e1c565b601f8111610c30575b50602090601f8311600114610bcb57600092610bc0575b50508160011b916000199060031b1c19161790555b6007850190519860058a101561035c5760009960ff8019845416911617825551906004821015610bac57600a94939291610aee916120fc565b51600885015551600984015551910155338452600660205260408420845490805490600160401b821015610b985791610b51827f4e9ff8debce04524518777fdf120513b8f7e1f434da1099fd190d1aae0d495b694600160209a95018155611cc3565b819291549060031b91821b91600019901b191617905554938492610b8060405192606084526060840190611f07565b948783015260408201528033940390a3604051908152f35b634e487b7160e01b87526041600452602487fd5b634e487b7160e01b8a52602160045260248afd5b015190508c80610aa0565b60008581528281209350601f198516905b818110610c185750908460019594939210610bff575b505050811b019055610ab5565b015160001960f88460031b161c191690558c8080610bf2565b92936020600181928786015181550195019301610bdc565b909150836000526020600020601f840160051c81019160208510610c79575b90601f859493920160051c01905b818110610c6a5750610a89565b60008155849350600101610c5d565b9091508190610c4f565b634e487b7160e01b600052604160045260246000fd5b015190508f80610a3d565b60008581528281209350601f198516905b818110610cf15750908460019594939210610cd8575b505050811b019055610a52565b015160001960f88460031b161c191690558f8080610ccb565b92936020600181928786015181550195019301610cb5565b909150836000526020600020601f840160051c81019160208510610d52575b90601f859493920160051c01905b818110610d435750610a26565b60008155849350600101610d36565b9091508190610d28565b0151905038806109e6565b60008581528281209350601f198516905b818110610db45750908460019594939210610d9b575b505050811b0190556109fb565b015160001960f88460031b161c19169055388080610d8e565b92936020600181928786015181550195019301610d78565b909150836000526020600020601f840160051c81019160208510610e15575b90601f859493920160051c01905b818110610e0657506109cf565b60008155849350600101610df9565b9091508190610deb565b60405162461bcd60e51b8152602060048201526015602482015274151bdad95b881d1c985b9cd9995c8819985a5b1959605a1b6044820152606490fd5b610e7e915060203d602011610e84575b610e768183611d29565b810190612062565b866108e8565b503d610e6c565b6040513d6000823e3d90fd5b60405162461bcd60e51b815260206004820152601460248201527311195cd8dc9a5c1d1a5bdb881c995c5d5a5c995960621b6044820152606490fd5b60405162461bcd60e51b81526020600482015260116024820152702232b0b23634b732903a37b79039b7b7b760791b6044820152606490fd5b634e487b7160e01b600052601160045260246000fd5b60405162461bcd60e51b815260206004820152601760248201527f526577617264206d75737420626520706f7369746976650000000000000000006044820152606490fd5b60405162461bcd60e51b8152602060048201526015602482015274092dcecc2d8d2c840c2e4e8d2ccc2c6e840d0c2e6d605b1b6044820152606490fd5b3461037e57602036600319011261037e57610fbd611da0565b610fd260018060a01b036001541633146120bf565b6001600160a01b03168015610ff9576001600160601b0360a01b6002541617600255600080f35b60405162461bcd60e51b815260206004820152601560248201527424b73b30b634b2103332b29031b7b63632b1ba37b960591b6044820152606490fd5b3461037e57600036600319011261037e576020600054604051908152f35b611dcc565b3461037e57604036600319011261037e57611072611da0565b600154602435916001600160a01b03909116906110903383146120bf565b60ff60025460a01c1615611137576001600160a01b031690816110dd5750506001546000918291829182916001600160a01b03168282156110d4575bf115610e8b57005b506108fc6110cc565b60405163a9059cbb60e01b81526001600160a01b039190911660048201526024810192909252602090829060449082906000905af18015610e8b5761111f575b005b61111d9060203d602011610e8457610e768183611d29565b60405162461bcd60e51b815260206004820152601760248201527f436f6e7472616374206d757374206265207061757365640000000000000000006044820152606490fd5b3461037e57600036600319011261037e576040517f00000000000000000000000000000000000000000000000000000000000000006001600160a01b03168152602090f35b3461037e57600036600319011261037e576001546040516001600160a01b039091168152602090f35b3461037e57600036600319011261037e5761121060018060a01b036001541633146120bf565b6002805460ff60a01b1916600160a01b179055005b3461037e57604036600319011261037e5761123e611db6565b600435600052600760205260406000209060018060a01b03166000526020526020604060002054604051908152f35b3461037e57602036600319011261037e576001600160a01b0361128e611da0565b166000526006602052604060002060405190816020825491828152019160005260206000209060005b8181106112e2576106a1856112ce81870382611d29565b604051918291602083526020830190611de8565b82548452602090930192600192830192016112b7565b3461037e57600036600319011261037e576040517f00000000000000000000000000000000000000000000000000000000000000006001600160a01b03168152602090f35b3461037e57600036600319011261037e57602060ff60025460a01c166040519015158152f35b3461037e57600036600319011261037e5761138960018060a01b036001541633146120bf565b6002805460ff60a01b19169055005b3461037e57602036600319011261037e5760043580151580611461575b6113be90611f92565b6113d060ff60025460a01c1615612012565b806000526003602052604060002060ff600782015416600581101561035c576113f99015611fd2565b60058101544211908115611451575b50156114175761111d90612177565b60405162461bcd60e51b815260206004820152601260248201527110d85b9b9bdd081c995cdbdb1d99481e595d60721b6044820152606490fd5b6005915060090154101582611408565b506000548111156113b5565b3461037e57604036600319011261037e57611486611da0565b6001600160a01b031660009081526006602052604090208054602435919082101561037e576020916114b791611cc3565b90549060031b1c604051908152f35b3461037e57600036600319011261037e576020604051678ac7230489e800008152f35b3461037e5760a036600319011261037e5760043560243590600482101561037e57606435916044356084356001600160401b03811161037e57611530903690600401611d4a565b9383151580611c65575b61154390611f92565b83600052600360205260ff60076040600020015416600581101561035c5761156b9015611fd2565b8360005260036020526005604060002001544211611c2f5761159560ff60025460a01c1615612012565b6000948315611bf85782151580611bed575b15611bb357678ac7230489e800008210611b7957805115611b3b578486526004602090815260408088203389529091528620600101546001600160a01b0316611b0257604051634e44d07160e11b81523360048201527f00000000000000000000000000000000000000000000000000000000000000006001600160a01b0316602082602481845afa918215611ac2578892611acd575b50906020600492604051938480926393ea1cfd60e01b82525afa918215611ac2578892611a8a575b5010611a45576040516323b872dd60e01b8152336004820152306024820152604481018390526020816064818a6001600160a01b037f0000000000000000000000000000000000000000000000000000000000000000165af1908115611a3a578791611a1b575b50156119de576040516116df81611cf1565b8581526020810133815260408201926116f8878561207a565b60608301868152608084019086825260a0850192835260c085019342855260e08601968c88528b8d52600460205260408d208d60018060a01b033316905260205260408d2096518755600187019160018060a01b039060018060a01b03905116166001600160601b0360a01b8354161782555160048110156119ca57815460ff60a01b191660a09190911b60ff60a01b1617905551600285015551600384015551805160048401916001600160401b0382116119b6576117b88354611e1c565b601f8111611971575b50602090601f831160011461190957600695949392918c91836118fe575b50508160011b916000199060031b1c19161790555b516005820155019051151560ff80198354169116179055838552600560205260408520805490600160401b821015610b98579161185a827f48548e2ce8972b197d1d6ce06e8aa73010781ed451ae1221e2f9956a8f804eb6946001899795018155611cc3565b81549060031b9033821b9160018060a01b03901b191617905583875260036020526008604088200161188d828254612086565b90558387526003602052600960408820016118a88154612093565b90556118bb6040519283923397846120a2565b0390a3808252600360205260408220600a600982015410908115916118f0575b506118e4575080f35b6118ed90612177565b80f35b6005915001544211836118db565b015190508c806117df565b838c52818c209190601f1984168d5b81811061195957509160019391856006999897969410611940575b505050811b0190556117f4565b015160001960f88460031b161c191690558c8080611933565b92936020600181928786015181550195019301611918565b838c5260208c20601f840160051c810191602085106119ac575b601f0160051c01905b8181106119a157506117c1565b8c8155600101611994565b909150819061198b565b634e487b7160e01b8b52604160045260248bfd5b634e487b7160e01b8d52602160045260248dfd5b60405162461bcd60e51b815260206004820152601560248201527414dd185ad9481d1c985b9cd9995c8819985a5b1959605a1b6044820152606490fd5b611a34915060203d602011610e8457610e768183611d29565b876116cd565b6040513d89823e3d90fd5b60405162461bcd60e51b815260206004820152601760248201527f496e73756666696369656e742072657075746174696f6e0000000000000000006044820152606490fd5b9091506020813d602011611aba575b81611aa660209383611d29565b81010312611ab657519088611666565b8780fd5b3d9150611a99565b6040513d8a823e3d90fd5b91506020823d602011611afa575b81611ae860209383611d29565b81010312611ab657905190602061163e565b3d9150611adb565b60405162461bcd60e51b8152602060048201526011602482015270105b1c9958591e481cdd589b5a5d1d1959607a1b6044820152606490fd5b60405162461bcd60e51b8152602060048201526016602482015275105b985b1e5cda5cc81a185cda081c995c5d5a5c995960521b6044820152606490fd5b60405162461bcd60e51b8152602060048201526012602482015271496e73756666696369656e74207374616b6560701b6044820152606490fd5b60405162461bcd60e51b8152602060048201526012602482015271496e76616c696420636f6e666964656e636560701b6044820152606490fd5b5060648311156115a7565b60405162461bcd60e51b815260206004820152600f60248201526e125b9d985b1a59081d995c991a58dd608a1b6044820152606490fd5b60405162461bcd60e51b815260206004820152600e60248201526d109bdd5b9d1e48195e1c1a5c995960921b6044820152606490fd5b5060005484111561153a565b3461037e57604036600319011261037e5760243560043560005260056020526040600020805482101561037e57602091611caa91611cc3565b905460405160039290921b1c6001600160a01b03168152f35b8054821015611cdb5760005260206000200190600090565b634e487b7160e01b600052603260045260246000fd5b61010081019081106001600160401b03821117610c8357604052565b61018081019081106001600160401b03821117610c8357604052565b90601f801991011681019081106001600160401b03821117610c8357604052565b81601f8201121561037e578035906001600160401b038211610c835760405192611d7e601f8401601f191660200185611d29565b8284526020838301011161037e57816000926020809301838601378301015290565b600435906001600160a01b038216820361037e57565b602435906001600160a01b038216820361037e57565b3461037e57600036600319011261037e57602060405160058152f35b906020808351928381520192019060005b818110611e065750505090565b8251845260209384019390920191600101611df9565b90600182811c92168015611e4c575b6020831014611e3657565b634e487b7160e01b600052602260045260246000fd5b91607f1691611e2b565b9060405191826000825492611e6a84611e1c565b8084529360018116908115611ed85750600114611e91575b50611e8f92500383611d29565b565b90506000929192526020600020906000915b818310611ebc575050906020611e8f9282010138611e82565b6020919350806001915483858901015201910190918492611ea3565b905060209250611e8f94915060ff191682840152151560051b82010138611e82565b90600482101561035c5752565b919082519283825260005b848110611f33575050826000602080949584010152601f8019910116010190565b80602080928401015182828601015201611f12565b906020808351928381520192019060005b818110611f665750505090565b82516001600160a01b0316845260209384019390920191600101611f59565b90600582101561035c5752565b15611f9957565b60405162461bcd60e51b8152602060048201526011602482015270125b9d985b1a5908189bdd5b9d1e481251607a1b6044820152606490fd5b15611fd957565b60405162461bcd60e51b8152602060048201526011602482015270426f756e7479206e6f742061637469766560781b6044820152606490fd5b1561201957565b60405162461bcd60e51b815260206004820152601260248201527110dbdb9d1c9858dd081a5cc81c185d5cd95960721b6044820152606490fd5b9081602091031261037e575190565b9081602091031261037e5751801515810361037e5790565b600482101561035c5752565b91908201809211610f0c57565b6000198114610f0c5760010190565b6040919493926120b6826060810197611efa565b60208201520152565b156120c657565b60405162461bcd60e51b815260206004820152600e60248201526d139bdd08185d5d1a1bdc9a5e995960921b6044820152606490fd5b90600481101561035c5761ff0082549160081b169061ff001916179055565b1561212257565b60405162461bcd60e51b815260206004820152600d60248201526c1499599d5b990819985a5b1959609a1b6044820152606490fd5b8115612161570490565b634e487b7160e01b600052601260045260246000fd5b9081600052600360205260406000209180600052600560205260406000208054156123795790600792916121aa8261242d565b949095016121b886826120fc565b805460ff191660021790557f00000000000000000000000000000000000000000000000000000000000000006001600160a01b03169260005b82548110156122cd576122048184611cc3565b60018060a01b0391549060031b1c169084600052600460205260408060002060009060018060a01b03851682526020522060ff600182015460a01c169060048a101561035c57600482101561035c5760038a91015491604051946315f09f4360e01b86526004860152876024860152146044840152606483015260208260848160008a5af1918215610e8b5760019261229f575b50016121f1565b6122bf9060203d81116122c6575b6122b78183611d29565b810190612053565b5038612298565b503d6122ad565b509491939250506122df828285612757565b60008381526005602052604090205490811561234b576127108302928084046127101490151715610f0c57612346612338837f5dea6bb4bb437e9b4cf2cf14f32cc74a3d9c83b99deaf3b6184bee5c0c33408c95612157565b925b604051938493846120a2565b0390a2565b7f5dea6bb4bb437e9b4cf2cf14f32cc74a3d9c83b99deaf3b6184bee5c0c33408c925061234660009261233a565b505060078201805460ff19166003179055600182015460049283015460405163a9059cbb60e01b81526001600160a01b0392909216938201939093526024810192909252906020818060448101038160007f00000000000000000000000000000000000000000000000000000000000000006001600160a01b03165af18015610e8b57611e8f9160009161240e575b5061211b565b612427915060203d602011610e8457610e768183611d29565b38612408565b90816000526005602052604060002060009081809181908054905b8183106125e75750505081156125da57606481029080820460641490151715610f0c578161247591612157565b91606481029080820460641490151715610f0c5760429161249591612157565b9110612533575060029160009080600052600560205260406000206000918154925b8381106124c5575050505090565b81600052600460205260ff60016040806000206124e28588611cc3565b848060a01b0391549060031b1c1690600091848060a01b0316825260205220015460a01c16600481101561035c57871461251f575b6001016124b7565b9361252b600191612093565b949050612517565b6042116125d25760019160009080600052600560205260406000206000908054925b838310612563575050505090565b80600052600460205260ff8760408060002061257f8787611cc3565b905460039190911b1c6001600160a01b0316600090815260209190915220015460a01c1692600484101561035c57878094146125bf575b83019250612555565b946125ca8491612093565b9590506125b6565b600091508190565b5050509050600090600090565b909192938760005260046020526040806000206126048685611cc3565b9054600391821b1c6001600160a01b031660009081526020929092529190209081015460028201549196918082029180159083049091141715610f0c576001612653606460ff93048095612086565b97015460a01c16600481101561035c5760028103612682575060019161267891612086565b935b019190612448565b90949190600114612697575b5060019061267a565b6126a49060019297612086565b959061268e565b91908203918211610f0c57565b156126bf57565b60405162461bcd60e51b8152602060048201526013602482015272119959481d1c985b9cd9995c8819985a5b1959606a1b6044820152606490fd5b6001600160401b038111610c835760051b60200190565b9061271b826126fa565b6127286040519182611d29565b8281528092612739601f19916126fa565b0190602036910137565b8051821015611cdb5760209160051b010190565b9091928160005260036020526040600020928260005260056020526040600020906004850154956005870287810460051488151715610f0c57606490049561279f87896126ab565b906004841015988961035c5784158015612d67575b612b725750508160009187600052600560205260406000206000908054915b828110612af0575050506127ef926127ea91612086565b612157565b966127f9826126fa565b926128076040519485611d29565b828452601f19612816846126fa565b0136602086013761282f61282984612711565b93612711565b94600096875b82548110156129eb57846128498285611cc3565b905460008d815260046020908152604080832060039590951b9390931c6001600160a01b031680835293905220600181015460a01c60ff169261035c57600483101561035c57868f9314806129dc575b6128a9575b505050600101612835565b60206128d1600383969e94959660066129019501600160ff1982541617905501958654612086565b60405163a9059cbb60e01b81526001600160a01b0386166004820152602481019190915291829081906044820190565b038160007f00000000000000000000000000000000000000000000000000000000000000006001600160a01b03165af1908115610e8b576000916129be575b5015612980576001928e61297593612958848d612743565b52612963838b612743565b525461296f828c612743565b52612093565b9890508b388061289e565b60405162461bcd60e51b815260206004820152601660248201527514995dd85c99081d1c985b9cd9995c8819985a5b195960521b6044820152606490fd5b6129d6915060203d8111610e8457610e768183611d29565b38612940565b5060ff60068201541615612899565b5060025460405163a9059cbb60e01b81526001600160a01b039091166004820152602481019a909a52995096979496509194509192915060209050818060448101038160007f00000000000000000000000000000000000000000000000000000000000000006001600160a01b03165af1938415610e8b57612ac3612ab594612aa17fd351cd492a912258f00082a96c5a8bae620e3808063036b80a6f09afa78dae9b9761234695600091612ad1575b506126b8565b604051958695606087526060870190611f48565b908582036020870152611de8565b908382036040850152611de8565b612aea915060203d602011610e8457610e768183611d29565b38612a9b565b90919293506040612b018284611cc3565b905460008d81526004602090815284822060039490941b9290921c6001600160a01b0316815291905220600181015460a01c60ff168d61035c57600481101561035c578803612b59575b5060010190859392916127d3565b600191956003612b6b92015490612086565b9490612b4b565b909350612be594959850612b8b925087969791506126ab565b60025460405163a9059cbb60e01b81526001600160a01b03918216600482015260248101969096527f0000000000000000000000000000000000000000000000000000000000000000169492602090849081906044820190565b03816000895af1918215610e8b57612c0a602093612c3f95600091612d5057506126b8565b6001015460405163a9059cbb60e01b81526001600160a01b039091166004820152602481019190915291829081906044820190565b03816000875af18015610e8b57612c5d9160009161240e575061211b565b60005b8154811015612d4a57612ccd6020612c788385611cc3565b9054600088815260048085526040808320600395861b9490941c6001600160a01b03168084529386529182902090930154905163a9059cbb60e01b815292830191909152602482015291829081906044820190565b03816000885af1908115610e8b57600091612d2c575b5015612cf157600101612c60565b60405162461bcd60e51b815260206004820152601360248201527214dd185ad9481c995d1d5c9b8819985a5b1959606a1b6044820152606490fd5b612d44915060203d8111610e8457610e768183611d29565b38612ce3565b50505050565b612aea9150853d8711610e8457610e768183611d29565b5083156127b456fea26469706673582212209636eb195f492c9bee4924ae83565acf44de0e3950442988063c178b64a4412a64736f6c634300081c0033","opcodes":"PUSH1 0xC0 CALLVALUE PUSH2 0x1EA JUMPI PUSH1 0x1F PUSH2 0x2FBF CODESIZE DUP2 SWAP1 SUB SWAP2 DUP3 ADD PUSH1 0x1F NOT AND DUP4 ADD SWAP2 PUSH1 0x1 PUSH1 0x1 PUSH1 0x40 SHL SUB DUP4 GT DUP5 DUP5 LT OR PUSH2 0x1EF JUMPI DUP1 DUP5 SWAP3 PUSH1 0x60 SWAP5 PUSH1 0x40 MSTORE DUP4 CODECOPY DUP2 ADD SUB SLT PUSH2 0x1EA JUMPI PUSH2 0x47 DUP2 PUSH2 0x205 JUMP JUMPDEST PUSH2 0x5F PUSH1 0x40 PUSH2 0x58 PUSH1 0x20 DUP6 ADD PUSH2 0x205 JUMP JUMPDEST SWAP4 ADD PUSH2 0x205 JUMP JUMPDEST PUSH1 0x1 PUSH1 0x1 PUSH1 0xA0 SHL SUB SWAP1 SWAP2 AND SWAP2 DUP3 ISZERO PUSH2 0x1A5 JUMPI PUSH1 0x1 PUSH1 0x1 PUSH1 0xA0 SHL SUB AND SWAP1 DUP2 ISZERO PUSH2 0x156 JUMPI PUSH1 0x1 PUSH1 0x1 PUSH1 0xA0 SHL SUB AND SWAP2 DUP3 ISZERO PUSH2 0x111 JUMPI PUSH1 0x80 MSTORE PUSH1 0xA0 MSTORE PUSH1 0x2 DUP1 SLOAD PUSH1 0x1 PUSH1 0x1 PUSH1 0xA0 SHL SUB NOT SWAP1 DUP2 AND SWAP3 SWAP1 SWAP3 OR SWAP1 SSTORE PUSH1 0x1 DUP1 SLOAD SWAP1 SWAP2 AND CALLER OR SWAP1 SSTORE PUSH1 0x40 MLOAD PUSH2 0x2DA5 SWAP1 DUP2 PUSH2 0x21A DUP3 CODECOPY PUSH1 0x80 MLOAD DUP2 DUP2 DUP2 PUSH2 0x8B7 ADD MSTORE DUP2 DUP2 PUSH2 0x1192 ADD MSTORE DUP2 DUP2 PUSH2 0x169D ADD MSTORE DUP2 DUP2 PUSH2 0x23CC ADD MSTORE DUP2 DUP2 PUSH2 0x2907 ADD MSTORE DUP2 DUP2 PUSH2 0x2A32 ADD MSTORE PUSH2 0x2BB5 ADD MSTORE PUSH1 0xA0 MLOAD DUP2 DUP2 DUP2 PUSH2 0x130E ADD MSTORE DUP2 DUP2 PUSH2 0x15FF ADD MSTORE PUSH2 0x21C5 ADD MSTORE RETURN JUMPDEST PUSH1 0x40 MLOAD PUSH3 0x461BCD PUSH1 0xE5 SHL DUP2 MSTORE PUSH1 0x20 PUSH1 0x4 DUP3 ADD MSTORE PUSH1 0x1D PUSH1 0x24 DUP3 ADD MSTORE PUSH32 0x496E76616C69642066656520636F6C6C6563746F722061646472657373000000 PUSH1 0x44 DUP3 ADD MSTORE PUSH1 0x64 SWAP1 REVERT JUMPDEST PUSH1 0x40 MLOAD PUSH3 0x461BCD PUSH1 0xE5 SHL DUP2 MSTORE PUSH1 0x20 PUSH1 0x4 DUP3 ADD MSTORE PUSH1 0x21 PUSH1 0x24 DUP3 ADD MSTORE PUSH32 0x496E76616C69642072657075746174696F6E2073797374656D20616464726573 PUSH1 0x44 DUP3 ADD MSTORE PUSH1 0x73 PUSH1 0xF8 SHL PUSH1 0x64 DUP3 ADD MSTORE PUSH1 0x84 SWAP1 REVERT JUMPDEST PUSH1 0x40 MLOAD PUSH3 0x461BCD PUSH1 0xE5 SHL DUP2 MSTORE PUSH1 0x20 PUSH1 0x4 DUP3 ADD MSTORE PUSH1 0x15 PUSH1 0x24 DUP3 ADD MSTORE PUSH32 0x496E76616C696420746F6B656E20616464726573730000000000000000000000 PUSH1 0x44 DUP3 ADD MSTORE PUSH1 0x64 SWAP1 REVERT JUMPDEST PUSH1 0x0 DUP1 REVERT JUMPDEST PUSH4 0x4E487B71 PUSH1 0xE0 SHL PUSH1 0x0 MSTORE PUSH1 0x41 PUSH1 0x4 MSTORE PUSH1 0x24 PUSH1 0x0 REVERT JUMPDEST MLOAD SWAP1 PUSH1 0x1 PUSH1 0x1 PUSH1 0xA0 SHL SUB DUP3 AND DUP3 SUB PUSH2 0x1EA JUMPI JUMP INVALID PUSH1 0x80 PUSH1 0x40 MSTORE PUSH1 0x4 CALLDATASIZE LT ISZERO PUSH2 0x12 JUMPI PUSH1 0x0 DUP1 REVERT JUMPDEST PUSH1 0x0 CALLDATALOAD PUSH1 0xE0 SHR DUP1 PUSH4 0xBE8FF00 EQ PUSH2 0x1C71 JUMPI DUP1 PUSH4 0xC12D5A4 EQ PUSH2 0x1036 JUMPI DUP1 PUSH4 0x1A147E37 EQ PUSH2 0x14E9 JUMPI DUP1 PUSH4 0x27ED7188 EQ PUSH2 0x14C6 JUMPI DUP1 PUSH4 0x2B9234B9 EQ PUSH2 0x146D JUMPI DUP1 PUSH4 0x3451C0BC EQ PUSH2 0x1398 JUMPI DUP1 PUSH4 0x3F4BA83A EQ PUSH2 0x1363 JUMPI DUP1 PUSH4 0x560D52D4 EQ PUSH2 0x1054 JUMPI DUP1 PUSH4 0x5C975ABB EQ PUSH2 0x133D JUMPI DUP1 PUSH4 0x6587EDA1 EQ PUSH2 0x12F8 JUMPI DUP1 PUSH4 0x6591A185 EQ PUSH2 0x126D JUMPI DUP1 PUSH4 0x6FA971C5 EQ PUSH2 0x1225 JUMPI DUP1 PUSH4 0x8456CB59 EQ PUSH2 0x11EA JUMPI DUP1 PUSH4 0x8DA5CB5B EQ PUSH2 0x11C1 JUMPI DUP1 PUSH4 0x9008E13F EQ PUSH2 0x117C JUMPI DUP1 PUSH4 0x95CCEA67 EQ PUSH2 0x1059 JUMPI DUP1 PUSH4 0x9E6CC94E EQ PUSH2 0x1054 JUMPI DUP1 PUSH4 0xA0D59787 EQ PUSH2 0x1036 JUMPI DUP1 PUSH4 0xA42DCE80 EQ PUSH2 0xFA4 JUMPI DUP1 PUSH4 0xB2BC1FBD EQ PUSH2 0x7D7 JUMPI DUP1 PUSH4 0xBCA125F0 EQ PUSH2 0x7BB JUMPI DUP1 PUSH4 0xBDEB4C2F EQ PUSH2 0x6F9 JUMPI DUP1 PUSH4 0xC415B95C EQ PUSH2 0x6D0 JUMPI DUP1 PUSH4 0xC7D22E9C EQ PUSH2 0x628 JUMPI DUP1 PUSH4 0xCB522370 EQ PUSH2 0x60A JUMPI DUP1 PUSH4 0xDC2F8744 EQ PUSH2 0x500 JUMPI DUP1 PUSH4 0xEAB4E425 EQ PUSH2 0x383 JUMPI PUSH4 0xEE8C4BBF EQ PUSH2 0x150 JUMPI PUSH1 0x0 DUP1 REVERT JUMPDEST CALLVALUE PUSH2 0x37E JUMPI PUSH1 0x20 CALLDATASIZE PUSH1 0x3 NOT ADD SLT PUSH2 0x37E JUMPI PUSH1 0x4 CALLDATALOAD PUSH1 0x0 PUSH2 0x160 PUSH1 0x40 MLOAD PUSH2 0x175 DUP2 PUSH2 0x1D0D JUMP JUMPDEST DUP3 DUP2 MSTORE DUP3 PUSH1 0x20 DUP3 ADD MSTORE PUSH1 0x60 PUSH1 0x40 DUP3 ADD MSTORE PUSH1 0x60 DUP1 DUP3 ADD MSTORE DUP3 PUSH1 0x80 DUP3 ADD MSTORE DUP3 PUSH1 0xA0 DUP3 ADD MSTORE PUSH1 0x60 PUSH1 0xC0 DUP3 ADD MSTORE DUP3 PUSH1 0xE0 DUP3 ADD MSTORE DUP3 PUSH2 0x100 DUP3 ADD MSTORE DUP3 PUSH2 0x120 DUP3 ADD MSTORE DUP3 PUSH2 0x140 DUP3 ADD MSTORE ADD MSTORE DUP1 ISZERO ISZERO DUP1 PUSH2 0x372 JUMPI JUMPDEST PUSH2 0x1CD SWAP1 PUSH2 0x1F92 JUMP JUMPDEST PUSH1 0x0 MSTORE PUSH1 0x3 PUSH1 0x20 MSTORE PUSH1 0x40 PUSH1 0x0 KECCAK256 PUSH1 0x40 MLOAD PUSH2 0x1E6 DUP2 PUSH2 0x1D0D JUMP JUMPDEST DUP2 SLOAD DUP2 MSTORE PUSH1 0x1 DUP3 ADD SLOAD PUSH1 0x1 PUSH1 0x1 PUSH1 0xA0 SHL SUB AND PUSH1 0x20 DUP3 ADD SWAP1 DUP2 MSTORE SWAP2 PUSH2 0x20C PUSH1 0x2 DUP3 ADD PUSH2 0x1E56 JUMP JUMPDEST PUSH1 0x40 DUP4 ADD SWAP1 DUP2 MSTORE PUSH2 0x21F PUSH1 0x3 DUP4 ADD PUSH2 0x1E56 JUMP JUMPDEST SWAP2 PUSH1 0x60 DUP5 ADD SWAP3 DUP4 MSTORE PUSH1 0x4 DUP2 ADD SLOAD SWAP3 PUSH1 0x80 DUP6 ADD SWAP4 DUP5 MSTORE PUSH1 0x5 DUP3 ADD SLOAD SWAP4 PUSH1 0xA0 DUP7 ADD SWAP5 DUP6 MSTORE PUSH2 0x24D PUSH1 0x6 DUP5 ADD PUSH2 0x1E56 JUMP JUMPDEST SWAP1 PUSH1 0xC0 DUP8 ADD SWAP2 DUP3 MSTORE PUSH1 0x7 DUP5 ADD SLOAD SWAP2 PUSH1 0xFF DUP4 AND SWAP7 PUSH1 0xE0 DUP10 ADD SWAP8 PUSH1 0x5 DUP2 LT ISZERO PUSH2 0x35C JUMPI DUP9 MSTORE PUSH2 0x100 DUP10 ADD SWAP4 PUSH1 0x8 SHR PUSH1 0xFF AND PUSH2 0x286 SWAP1 DUP6 PUSH2 0x207A JUMP JUMPDEST PUSH1 0x8 DUP7 ADD SLOAD SWAP5 PUSH2 0x120 DUP11 ADD SWAP6 DUP7 MSTORE PUSH1 0x9 DUP8 ADD SLOAD SWAP7 PUSH2 0x140 DUP12 ADD SWAP8 DUP9 MSTORE PUSH1 0xA ADD SLOAD SWAP8 PUSH2 0x160 DUP12 ADD SWAP9 DUP10 MSTORE PUSH1 0x40 MLOAD SWAP12 DUP13 SWAP12 PUSH1 0x20 DUP14 MSTORE MLOAD PUSH1 0x20 DUP14 ADD MSTORE PUSH1 0x1 PUSH1 0xA0 SHL PUSH1 0x1 SWAP1 SUB SWAP1 MLOAD AND PUSH1 0x40 DUP13 ADD MSTORE MLOAD PUSH1 0x60 DUP12 ADD PUSH2 0x180 SWAP1 MSTORE PUSH2 0x1A0 DUP12 ADD PUSH2 0x2E8 SWAP2 PUSH2 0x1F07 JUMP JUMPDEST SWAP1 MLOAD DUP11 DUP3 SUB PUSH1 0x1F NOT ADD PUSH1 0x80 DUP13 ADD MSTORE PUSH2 0x300 SWAP2 SWAP1 PUSH2 0x1F07 JUMP JUMPDEST SWAP3 MLOAD PUSH1 0xA0 DUP11 ADD MSTORE MLOAD PUSH1 0xC0 DUP10 ADD MSTORE MLOAD DUP8 DUP3 SUB PUSH1 0x1F NOT ADD PUSH1 0xE0 DUP10 ADD MSTORE PUSH2 0x324 SWAP2 SWAP1 PUSH2 0x1F07 JUMP JUMPDEST SWAP5 MLOAD PUSH2 0x100 DUP8 ADD PUSH2 0x334 SWAP2 PUSH2 0x1F85 JUMP JUMPDEST MLOAD PUSH2 0x120 DUP7 ADD PUSH2 0x343 SWAP2 PUSH2 0x1EFA JUMP JUMPDEST MLOAD PUSH2 0x140 DUP6 ADD MSTORE MLOAD PUSH2 0x160 DUP5 ADD MSTORE MLOAD PUSH2 0x180 DUP4 ADD MSTORE SUB SWAP1 RETURN JUMPDEST PUSH4 0x4E487B71 PUSH1 0xE0 SHL PUSH1 0x0 MSTORE PUSH1 0x21 PUSH1 0x4 MSTORE PUSH1 0x24 PUSH1 0x0 REVERT JUMPDEST POP PUSH1 0x0 SLOAD DUP2 GT ISZERO PUSH2 0x1C4 JUMP JUMPDEST PUSH1 0x0 DUP1 REVERT JUMPDEST CALLVALUE PUSH2 0x37E JUMPI PUSH1 0x40 CALLDATASIZE PUSH1 0x3 NOT ADD SLT PUSH2 0x37E JUMPI PUSH1 0x40 PUSH1 0x4 CALLDATALOAD PUSH2 0x3A1 PUSH2 0x1DB6 JUMP JUMPDEST SWAP1 PUSH1 0x0 PUSH1 0xE0 DUP5 MLOAD PUSH2 0x3B1 DUP2 PUSH2 0x1CF1 JUMP JUMPDEST DUP3 DUP2 MSTORE DUP3 PUSH1 0x20 DUP3 ADD MSTORE DUP3 DUP7 DUP3 ADD MSTORE DUP3 PUSH1 0x60 DUP3 ADD MSTORE DUP3 PUSH1 0x80 DUP3 ADD MSTORE PUSH1 0x60 PUSH1 0xA0 DUP3 ADD MSTORE DUP3 PUSH1 0xC0 DUP3 ADD MSTORE ADD MSTORE DUP1 ISZERO ISZERO DUP1 PUSH2 0x4F4 JUMPI JUMPDEST PUSH2 0x3EC SWAP1 PUSH2 0x1F92 JUMP JUMPDEST PUSH1 0x0 MSTORE PUSH1 0x4 PUSH1 0x20 MSTORE DUP2 PUSH1 0x0 KECCAK256 PUSH1 0x0 SWAP2 PUSH1 0x1 DUP1 PUSH1 0xA0 SHL SUB AND DUP3 MSTORE PUSH1 0x20 MSTORE KECCAK256 PUSH1 0x40 MLOAD PUSH2 0x415 DUP2 PUSH2 0x1CF1 JUMP JUMPDEST DUP2 SLOAD DUP2 MSTORE PUSH1 0x1 DUP3 ADD SLOAD PUSH1 0x1 PUSH1 0x1 PUSH1 0xA0 SHL SUB DUP2 AND PUSH1 0x20 DUP4 ADD SWAP1 DUP2 MSTORE SWAP3 SWAP1 PUSH1 0x40 DUP4 ADD SWAP1 PUSH2 0x446 SWAP1 PUSH1 0xA0 SHR PUSH1 0xFF AND DUP3 PUSH2 0x207A JUMP JUMPDEST PUSH2 0x4E0 PUSH1 0x2 DUP4 ADD SLOAD PUSH1 0x60 DUP6 ADD SWAP1 DUP2 MSTORE PUSH1 0x3 DUP5 ADD SLOAD PUSH1 0x80 DUP7 ADD SWAP1 DUP2 MSTORE PUSH2 0x46D PUSH1 0x4 DUP7 ADD PUSH2 0x1E56 JUMP JUMPDEST SWAP2 PUSH1 0xA0 DUP8 ADD SWAP3 DUP4 MSTORE PUSH2 0x4C0 PUSH1 0xFF PUSH1 0x6 PUSH1 0x5 DUP10 ADD SLOAD SWAP9 PUSH1 0xC0 DUP12 ADD SWAP10 DUP11 MSTORE ADD SLOAD AND SWAP6 PUSH1 0xE0 DUP10 ADD SWAP7 ISZERO ISZERO DUP8 MSTORE PUSH1 0x40 MLOAD SWAP10 DUP11 SWAP10 PUSH1 0x20 DUP12 MSTORE MLOAD PUSH1 0x20 DUP12 ADD MSTORE PUSH1 0x1 DUP1 PUSH1 0xA0 SHL SUB SWAP1 MLOAD AND PUSH1 0x40 DUP11 ADD MSTORE MLOAD PUSH1 0x60 DUP10 ADD SWAP1 PUSH2 0x1EFA JUMP JUMPDEST MLOAD PUSH1 0x80 DUP8 ADD MSTORE MLOAD PUSH1 0xA0 DUP7 ADD MSTORE MLOAD PUSH2 0x100 PUSH1 0xC0 DUP7 ADD MSTORE PUSH2 0x120 DUP6 ADD SWAP1 PUSH2 0x1F07 JUMP JUMPDEST SWAP2 MLOAD PUSH1 0xE0 DUP5 ADD MSTORE MLOAD ISZERO ISZERO PUSH2 0x100 DUP4 ADD MSTORE SUB SWAP1 RETURN JUMPDEST POP PUSH1 0x0 SLOAD DUP2 GT ISZERO PUSH2 0x3E3 JUMP JUMPDEST CALLVALUE PUSH2 0x37E JUMPI PUSH1 0x20 CALLDATASIZE PUSH1 0x3 NOT ADD SLT PUSH2 0x37E JUMPI PUSH1 0x4 CALLDATALOAD PUSH1 0x0 SWAP1 DUP2 MSTORE PUSH1 0x3 PUSH1 0x20 MSTORE PUSH1 0x40 SWAP1 KECCAK256 DUP1 SLOAD PUSH1 0x1 DUP3 ADD SLOAD PUSH1 0x1 PUSH1 0x1 PUSH1 0xA0 SHL SUB AND SWAP2 PUSH2 0x53F PUSH1 0x2 DUP3 ADD PUSH2 0x1E56 JUMP JUMPDEST PUSH2 0x54B PUSH1 0x3 DUP4 ADD PUSH2 0x1E56 JUMP JUMPDEST PUSH1 0x4 DUP4 ADD SLOAD PUSH1 0x5 DUP5 ADD SLOAD SWAP4 SWAP2 SWAP1 PUSH2 0x564 PUSH1 0x6 DUP5 ADD PUSH2 0x1E56 JUMP JUMPDEST SWAP1 PUSH1 0x7 DUP5 ADD SLOAD SWAP6 PUSH1 0x8 DUP6 ADD SLOAD SWAP4 PUSH1 0x9 DUP7 ADD SLOAD SWAP6 PUSH1 0xA ADD SLOAD SWAP7 PUSH1 0x40 MLOAD SWAP11 DUP12 SWAP11 DUP12 MSTORE PUSH1 0x20 DUP12 ADD MSTORE PUSH1 0x40 DUP11 ADD PUSH2 0x180 SWAP1 MSTORE PUSH2 0x180 DUP11 ADD PUSH2 0x5A0 SWAP2 PUSH2 0x1F07 JUMP JUMPDEST DUP10 DUP2 SUB PUSH1 0x60 DUP12 ADD MSTORE PUSH2 0x5B1 SWAP2 PUSH2 0x1F07 JUMP JUMPDEST SWAP2 PUSH1 0x80 DUP10 ADD MSTORE PUSH1 0xA0 DUP9 ADD MSTORE DUP7 DUP2 SUB PUSH1 0xC0 DUP9 ADD MSTORE PUSH2 0x5CD SWAP2 PUSH2 0x1F07 JUMP JUMPDEST SWAP4 PUSH2 0x5DE PUSH1 0xE0 DUP8 ADD PUSH1 0xFF DUP4 AND PUSH2 0x1F85 JUMP JUMPDEST PUSH2 0x100 DUP7 ADD SWAP1 PUSH1 0x8 SHR PUSH1 0xFF AND SWAP1 PUSH2 0x5F4 SWAP2 PUSH2 0x1EFA JUMP JUMPDEST PUSH2 0x120 DUP6 ADD MSTORE PUSH2 0x140 DUP5 ADD MSTORE PUSH2 0x160 DUP4 ADD MSTORE SUB SWAP1 RETURN JUMPDEST CALLVALUE PUSH2 0x37E JUMPI PUSH1 0x0 CALLDATASIZE PUSH1 0x3 NOT ADD SLT PUSH2 0x37E JUMPI PUSH1 0x20 PUSH1 0x40 MLOAD PUSH3 0x15180 DUP2 MSTORE RETURN JUMPDEST CALLVALUE PUSH2 0x37E JUMPI PUSH1 0x20 CALLDATASIZE PUSH1 0x3 NOT ADD SLT PUSH2 0x37E JUMPI PUSH1 0x4 CALLDATALOAD DUP1 ISZERO ISZERO DUP1 PUSH2 0x6C4 JUMPI JUMPDEST PUSH2 0x64E SWAP1 PUSH2 0x1F92 JUMP JUMPDEST PUSH1 0x0 MSTORE PUSH1 0x5 PUSH1 0x20 MSTORE PUSH1 0x40 PUSH1 0x0 KECCAK256 PUSH1 0x40 MLOAD SWAP1 DUP2 PUSH1 0x20 DUP3 SLOAD SWAP2 DUP3 DUP2 MSTORE ADD SWAP2 PUSH1 0x0 MSTORE PUSH1 0x20 PUSH1 0x0 KECCAK256 SWAP1 PUSH1 0x0 JUMPDEST DUP2 DUP2 LT PUSH2 0x6A5 JUMPI PUSH2 0x6A1 DUP6 PUSH2 0x68D DUP2 DUP8 SUB DUP3 PUSH2 0x1D29 JUMP JUMPDEST PUSH1 0x40 MLOAD SWAP2 DUP3 SWAP2 PUSH1 0x20 DUP4 MSTORE PUSH1 0x20 DUP4 ADD SWAP1 PUSH2 0x1F48 JUMP JUMPDEST SUB SWAP1 RETURN JUMPDEST DUP3 SLOAD PUSH1 0x1 PUSH1 0x1 PUSH1 0xA0 SHL SUB AND DUP5 MSTORE PUSH1 0x20 SWAP1 SWAP4 ADD SWAP3 PUSH1 0x1 SWAP3 DUP4 ADD SWAP3 ADD PUSH2 0x676 JUMP JUMPDEST POP PUSH1 0x0 SLOAD DUP2 GT ISZERO PUSH2 0x645 JUMP JUMPDEST CALLVALUE PUSH2 0x37E JUMPI PUSH1 0x0 CALLDATASIZE PUSH1 0x3 NOT ADD SLT PUSH2 0x37E JUMPI PUSH1 0x2 SLOAD PUSH1 0x40 MLOAD PUSH1 0x1 PUSH1 0x1 PUSH1 0xA0 SHL SUB SWAP1 SWAP2 AND DUP2 MSTORE PUSH1 0x20 SWAP1 RETURN JUMPDEST CALLVALUE PUSH2 0x37E JUMPI PUSH1 0x40 CALLDATASIZE PUSH1 0x3 NOT ADD SLT PUSH2 0x37E JUMPI PUSH1 0x40 PUSH2 0x714 PUSH2 0x1DB6 JUMP JUMPDEST PUSH1 0x4 CALLDATALOAD PUSH1 0x0 MSTORE PUSH1 0x4 PUSH1 0x20 MSTORE DUP2 PUSH1 0x0 KECCAK256 PUSH1 0x0 SWAP2 PUSH1 0x1 DUP1 PUSH1 0xA0 SHL SUB AND DUP3 MSTORE PUSH1 0x20 MSTORE KECCAK256 DUP1 SLOAD PUSH1 0x1 DUP3 ADD SLOAD SWAP2 PUSH1 0x2 DUP2 ADD SLOAD PUSH2 0x7AA PUSH1 0x3 DUP4 ADD SLOAD PUSH2 0x755 PUSH1 0x4 DUP6 ADD PUSH2 0x1E56 JUMP JUMPDEST SWAP1 PUSH1 0xFF PUSH1 0x6 PUSH1 0x5 DUP8 ADD SLOAD SWAP7 ADD SLOAD AND SWAP4 PUSH2 0x78D PUSH1 0x40 MLOAD SWAP9 DUP10 SWAP9 DUP10 MSTORE PUSH1 0x1 DUP1 PUSH1 0xA0 SHL SUB DUP2 AND PUSH1 0x20 DUP11 ADD MSTORE PUSH1 0xFF PUSH1 0x40 DUP11 ADD SWAP2 PUSH1 0xA0 SHR AND PUSH2 0x1EFA JUMP JUMPDEST PUSH1 0x60 DUP8 ADD MSTORE PUSH1 0x80 DUP7 ADD MSTORE PUSH2 0x100 PUSH1 0xA0 DUP7 ADD MSTORE PUSH2 0x100 DUP6 ADD SWAP1 PUSH2 0x1F07 JUMP JUMPDEST SWAP2 PUSH1 0xC0 DUP5 ADD MSTORE ISZERO ISZERO PUSH1 0xE0 DUP4 ADD MSTORE SUB SWAP1 RETURN JUMPDEST CALLVALUE PUSH2 0x37E JUMPI PUSH1 0x0 CALLDATASIZE PUSH1 0x3 NOT ADD SLT PUSH2 0x37E JUMPI PUSH1 0x20 PUSH1 0x40 MLOAD PUSH1 0x42 DUP2 MSTORE RETURN JUMPDEST CALLVALUE PUSH2 0x37E JUMPI PUSH1 0xA0 CALLDATASIZE PUSH1 0x3 NOT ADD SLT PUSH2 0x37E JUMPI PUSH1 0x4 CALLDATALOAD PUSH1 0x1 PUSH1 0x1 PUSH1 0x40 SHL SUB DUP2 GT PUSH2 0x37E JUMPI PUSH2 0x807 SWAP1 CALLDATASIZE SWAP1 PUSH1 0x4 ADD PUSH2 0x1D4A JUMP JUMPDEST PUSH1 0x24 CALLDATALOAD PUSH1 0x1 PUSH1 0x1 PUSH1 0x40 SHL SUB DUP2 GT PUSH2 0x37E JUMPI PUSH2 0x826 SWAP1 CALLDATASIZE SWAP1 PUSH1 0x4 ADD PUSH2 0x1D4A JUMP JUMPDEST SWAP1 PUSH1 0x44 CALLDATALOAD PUSH1 0x64 CALLDATALOAD PUSH1 0x84 CALLDATALOAD PUSH1 0x1 PUSH1 0x1 PUSH1 0x40 SHL SUB DUP2 GT PUSH2 0x37E JUMPI PUSH2 0x84C SWAP1 CALLDATASIZE SWAP1 PUSH1 0x4 ADD PUSH2 0x1D4A JUMP JUMPDEST PUSH2 0x85E PUSH1 0xFF PUSH1 0x2 SLOAD PUSH1 0xA0 SHR AND ISZERO PUSH2 0x2012 JUMP JUMPDEST DUP4 MLOAD ISZERO PUSH2 0xF67 JUMPI DUP3 ISZERO PUSH2 0xF22 JUMPI PUSH2 0xE10 TIMESTAMP ADD DUP1 TIMESTAMP GT PUSH2 0xF0C JUMPI DUP3 GT ISZERO PUSH2 0xED3 JUMPI DUP1 MLOAD ISZERO PUSH2 0xE97 JUMPI PUSH1 0x40 MLOAD PUSH4 0x23B872DD PUSH1 0xE0 SHL DUP2 MSTORE CALLER PUSH1 0x4 DUP3 ADD MSTORE ADDRESS PUSH1 0x24 DUP3 ADD MSTORE PUSH1 0x44 DUP2 ADD DUP5 SWAP1 MSTORE PUSH1 0x20 DUP2 PUSH1 0x64 DUP2 PUSH1 0x0 PUSH1 0x1 PUSH1 0x1 PUSH1 0xA0 SHL SUB PUSH32 0x0 AND GAS CALL SWAP1 DUP2 ISZERO PUSH2 0xE8B JUMPI PUSH1 0x0 SWAP2 PUSH2 0xE5C JUMPI JUMPDEST POP ISZERO PUSH2 0xE1F JUMPI PUSH2 0x8F9 PUSH1 0x0 SLOAD PUSH2 0x2093 JUMP JUMPDEST DUP1 PUSH1 0x0 SSTORE PUSH1 0x40 MLOAD SWAP2 PUSH2 0x90A DUP4 PUSH2 0x1D0D JUMP JUMPDEST DUP2 DUP4 MSTORE PUSH1 0x20 DUP4 ADD SWAP1 CALLER DUP3 MSTORE PUSH1 0x40 DUP5 ADD SWAP1 DUP8 DUP3 MSTORE PUSH1 0x60 DUP6 ADD SWAP9 DUP10 MSTORE PUSH1 0x80 DUP6 ADD SWAP1 DUP8 DUP3 MSTORE PUSH1 0xA0 DUP7 ADD DUP8 DUP2 MSTORE PUSH1 0xC0 DUP8 ADD SWAP2 DUP3 MSTORE PUSH1 0xE0 DUP8 ADD SWAP3 PUSH1 0x0 DUP5 MSTORE PUSH2 0x100 DUP9 ADD SWAP12 PUSH1 0x0 DUP14 MSTORE PUSH2 0x120 DUP10 ADD SWAP6 PUSH1 0x0 DUP8 MSTORE PUSH2 0x140 DUP11 ADD SWAP8 PUSH1 0x0 DUP10 MSTORE PUSH2 0x160 DUP12 ADD SWAP10 TIMESTAMP DUP12 MSTORE PUSH1 0x0 MSTORE PUSH1 0x3 PUSH1 0x20 MSTORE PUSH1 0x40 PUSH1 0x0 KECCAK256 SWAP11 MLOAD DUP12 SSTORE PUSH1 0x1 DUP1 PUSH1 0xA0 SHL SUB SWAP1 MLOAD AND PUSH1 0x1 DUP12 ADD SWAP1 PUSH1 0x1 DUP1 PUSH1 0xA0 SHL SUB AND PUSH1 0x1 PUSH1 0x1 PUSH1 0x60 SHL SUB PUSH1 0xA0 SHL DUP3 SLOAD AND OR SWAP1 SSTORE PUSH1 0x2 DUP11 ADD SWAP1 MLOAD DUP1 MLOAD SWAP1 PUSH1 0x1 PUSH1 0x1 PUSH1 0x40 SHL SUB DUP3 GT PUSH2 0xC83 JUMPI DUP2 SWAP1 PUSH2 0x9C6 DUP5 SLOAD PUSH2 0x1E1C JUMP JUMPDEST PUSH1 0x1F DUP2 GT PUSH2 0xDCC JUMPI JUMPDEST POP PUSH1 0x20 SWAP1 PUSH1 0x1F DUP4 GT PUSH1 0x1 EQ PUSH2 0xD67 JUMPI PUSH1 0x0 SWAP3 PUSH2 0xD5C JUMPI JUMPDEST POP POP DUP2 PUSH1 0x1 SHL SWAP2 PUSH1 0x0 NOT SWAP1 PUSH1 0x3 SHL SHR NOT AND OR SWAP1 SSTORE JUMPDEST MLOAD DUP1 MLOAD PUSH1 0x3 DUP11 ADD SWAP2 PUSH1 0x1 PUSH1 0x1 PUSH1 0x40 SHL SUB DUP3 GT PUSH2 0xC83 JUMPI DUP2 SWAP1 PUSH2 0xA1D DUP5 SLOAD PUSH2 0x1E1C JUMP JUMPDEST PUSH1 0x1F DUP2 GT PUSH2 0xD09 JUMPI JUMPDEST POP PUSH1 0x20 SWAP1 PUSH1 0x1F DUP4 GT PUSH1 0x1 EQ PUSH2 0xCA4 JUMPI PUSH1 0x0 SWAP3 PUSH2 0xC99 JUMPI JUMPDEST POP POP DUP2 PUSH1 0x1 SHL SWAP2 PUSH1 0x0 NOT SWAP1 PUSH1 0x3 SHL SHR NOT AND OR SWAP1 SSTORE JUMPDEST MLOAD PUSH1 0x4 DUP9 ADD SSTORE MLOAD PUSH1 0x5 DUP8 ADD SSTORE MLOAD DUP1 MLOAD PUSH1 0x6 DUP8 ADD SWAP2 PUSH1 0x1 PUSH1 0x1 PUSH1 0x40 SHL SUB DUP3 GT PUSH2 0xC83 JUMPI DUP2 SWAP1 PUSH2 0xA80 DUP5 SLOAD PUSH2 0x1E1C JUMP JUMPDEST PUSH1 0x1F DUP2 GT PUSH2 0xC30 JUMPI JUMPDEST POP PUSH1 0x20 SWAP1 PUSH1 0x1F DUP4 GT PUSH1 0x1 EQ PUSH2 0xBCB JUMPI PUSH1 0x0 SWAP3 PUSH2 0xBC0 JUMPI JUMPDEST POP POP DUP2 PUSH1 0x1 SHL SWAP2 PUSH1 0x0 NOT SWAP1 PUSH1 0x3 SHL SHR NOT AND OR SWAP1 SSTORE JUMPDEST PUSH1 0x7 DUP6 ADD SWAP1 MLOAD SWAP9 PUSH1 0x5 DUP11 LT ISZERO PUSH2 0x35C JUMPI PUSH1 0x0 SWAP10 PUSH1 0xFF DUP1 NOT DUP5 SLOAD AND SWAP2 AND OR DUP3 SSTORE MLOAD SWAP1 PUSH1 0x4 DUP3 LT ISZERO PUSH2 0xBAC JUMPI PUSH1 0xA SWAP5 SWAP4 SWAP3 SWAP2 PUSH2 0xAEE SWAP2 PUSH2 0x20FC JUMP JUMPDEST MLOAD PUSH1 0x8 DUP6 ADD SSTORE MLOAD PUSH1 0x9 DUP5 ADD SSTORE MLOAD SWAP2 ADD SSTORE CALLER DUP5 MSTORE PUSH1 0x6 PUSH1 0x20 MSTORE PUSH1 0x40 DUP5 KECCAK256 DUP5 SLOAD SWAP1 DUP1 SLOAD SWAP1 PUSH1 0x1 PUSH1 0x40 SHL DUP3 LT ISZERO PUSH2 0xB98 JUMPI SWAP2 PUSH2 0xB51 DUP3 PUSH32 0x4E9FF8DEBCE04524518777FDF120513B8F7E1F434DA1099FD190D1AAE0D495B6 SWAP5 PUSH1 0x1 PUSH1 0x20 SWAP11 SWAP6 ADD DUP2 SSTORE PUSH2 0x1CC3 JUMP JUMPDEST DUP2 SWAP3 SWAP2 SLOAD SWAP1 PUSH1 0x3 SHL SWAP2 DUP3 SHL SWAP2 PUSH1 0x0 NOT SWAP1 SHL NOT AND OR SWAP1 SSTORE SLOAD SWAP4 DUP5 SWAP3 PUSH2 0xB80 PUSH1 0x40 MLOAD SWAP3 PUSH1 0x60 DUP5 MSTORE PUSH1 0x60 DUP5 ADD SWAP1 PUSH2 0x1F07 JUMP JUMPDEST SWAP5 DUP8 DUP4 ADD MSTORE PUSH1 0x40 DUP3 ADD MSTORE DUP1 CALLER SWAP5 SUB SWAP1 LOG3 PUSH1 0x40 MLOAD SWAP1 DUP2 MSTORE RETURN JUMPDEST PUSH4 0x4E487B71 PUSH1 0xE0 SHL DUP8 MSTORE PUSH1 0x41 PUSH1 0x4 MSTORE PUSH1 0x24 DUP8 REVERT JUMPDEST PUSH4 0x4E487B71 PUSH1 0xE0 SHL DUP11 MSTORE PUSH1 0x21 PUSH1 0x4 MSTORE PUSH1 0x24 DUP11 REVERT JUMPDEST ADD MLOAD SWAP1 POP DUP13 DUP1 PUSH2 0xAA0 JUMP JUMPDEST PUSH1 0x0 DUP6 DUP2 MSTORE DUP3 DUP2 KECCAK256 SWAP4 POP PUSH1 0x1F NOT DUP6 AND SWAP1 JUMPDEST DUP2 DUP2 LT PUSH2 0xC18 JUMPI POP SWAP1 DUP5 PUSH1 0x1 SWAP6 SWAP5 SWAP4 SWAP3 LT PUSH2 0xBFF JUMPI JUMPDEST POP POP POP DUP2 SHL ADD SWAP1 SSTORE PUSH2 0xAB5 JUMP JUMPDEST ADD MLOAD PUSH1 0x0 NOT PUSH1 0xF8 DUP5 PUSH1 0x3 SHL AND SHR NOT AND SWAP1 SSTORE DUP13 DUP1 DUP1 PUSH2 0xBF2 JUMP JUMPDEST SWAP3 SWAP4 PUSH1 0x20 PUSH1 0x1 DUP2 SWAP3 DUP8 DUP7 ADD MLOAD DUP2 SSTORE ADD SWAP6 ADD SWAP4 ADD PUSH2 0xBDC JUMP JUMPDEST SWAP1 SWAP2 POP DUP4 PUSH1 0x0 MSTORE PUSH1 0x20 PUSH1 0x0 KECCAK256 PUSH1 0x1F DUP5 ADD PUSH1 0x5 SHR DUP2 ADD SWAP2 PUSH1 0x20 DUP6 LT PUSH2 0xC79 JUMPI JUMPDEST SWAP1 PUSH1 0x1F DUP6 SWAP5 SWAP4 SWAP3 ADD PUSH1 0x5 SHR ADD SWAP1 JUMPDEST DUP2 DUP2 LT PUSH2 0xC6A JUMPI POP PUSH2 0xA89 JUMP JUMPDEST PUSH1 0x0 DUP2 SSTORE DUP5 SWAP4 POP PUSH1 0x1 ADD PUSH2 0xC5D JUMP JUMPDEST SWAP1 SWAP2 POP DUP2 SWAP1 PUSH2 0xC4F JUMP JUMPDEST PUSH4 0x4E487B71 PUSH1 0xE0 SHL PUSH1 0x0 MSTORE PUSH1 0x41 PUSH1 0x4 MSTORE PUSH1 0x24 PUSH1 0x0 REVERT JUMPDEST ADD MLOAD SWAP1 POP DUP16 DUP1 PUSH2 0xA3D JUMP JUMPDEST PUSH1 0x0 DUP6 DUP2 MSTORE DUP3 DUP2 KECCAK256 SWAP4 POP PUSH1 0x1F NOT DUP6 AND SWAP1 JUMPDEST DUP2 DUP2 LT PUSH2 0xCF1 JUMPI POP SWAP1 DUP5 PUSH1 0x1 SWAP6 SWAP5 SWAP4 SWAP3 LT PUSH2 0xCD8 JUMPI JUMPDEST POP POP POP DUP2 SHL ADD SWAP1 SSTORE PUSH2 0xA52 JUMP JUMPDEST ADD MLOAD PUSH1 0x0 NOT PUSH1 0xF8 DUP5 PUSH1 0x3 SHL AND SHR NOT AND SWAP1 SSTORE DUP16 DUP1 DUP1 PUSH2 0xCCB JUMP JUMPDEST SWAP3 SWAP4 PUSH1 0x20 PUSH1 0x1 DUP2 SWAP3 DUP8 DUP7 ADD MLOAD DUP2 SSTORE ADD SWAP6 ADD SWAP4 ADD PUSH2 0xCB5 JUMP JUMPDEST SWAP1 SWAP2 POP DUP4 PUSH1 0x0 MSTORE PUSH1 0x20 PUSH1 0x0 KECCAK256 PUSH1 0x1F DUP5 ADD PUSH1 0x5 SHR DUP2 ADD SWAP2 PUSH1 0x20 DUP6 LT PUSH2 0xD52 JUMPI JUMPDEST SWAP1 PUSH1 0x1F DUP6 SWAP5 SWAP4 SWAP3 ADD PUSH1 0x5 SHR ADD SWAP1 JUMPDEST DUP2 DUP2 LT PUSH2 0xD43 JUMPI POP PUSH2 0xA26 JUMP JUMPDEST PUSH1 0x0 DUP2 SSTORE DUP5 SWAP4 POP PUSH1 0x1 ADD PUSH2 0xD36 JUMP JUMPDEST SWAP1 SWAP2 POP DUP2 SWAP1 PUSH2 0xD28 JUMP JUMPDEST ADD MLOAD SWAP1 POP CODESIZE DUP1 PUSH2 0x9E6 JUMP JUMPDEST PUSH1 0x0 DUP6 DUP2 MSTORE DUP3 DUP2 KECCAK256 SWAP4 POP PUSH1 0x1F NOT DUP6 AND SWAP1 JUMPDEST DUP2 DUP2 LT PUSH2 0xDB4 JUMPI POP SWAP1 DUP5 PUSH1 0x1 SWAP6 SWAP5 SWAP4 SWAP3 LT PUSH2 0xD9B JUMPI JUMPDEST POP POP POP DUP2 SHL ADD SWAP1 SSTORE PUSH2 0x9FB JUMP JUMPDEST ADD MLOAD PUSH1 0x0 NOT PUSH1 0xF8 DUP5 PUSH1 0x3 SHL AND SHR NOT AND SWAP1 SSTORE CODESIZE DUP1 DUP1 PUSH2 0xD8E JUMP JUMPDEST SWAP3 SWAP4 PUSH1 0x20 PUSH1 0x1 DUP2 SWAP3 DUP8 DUP7 ADD MLOAD DUP2 SSTORE ADD SWAP6 ADD SWAP4 ADD PUSH2 0xD78 JUMP JUMPDEST SWAP1 SWAP2 POP DUP4 PUSH1 0x0 MSTORE PUSH1 0x20 PUSH1 0x0 KECCAK256 PUSH1 0x1F DUP5 ADD PUSH1 0x5 SHR DUP2 ADD SWAP2 PUSH1 0x20 DUP6 LT PUSH2 0xE15 JUMPI JUMPDEST SWAP1 PUSH1 0x1F DUP6 SWAP5 SWAP4 SWAP3 ADD PUSH1 0x5 SHR ADD SWAP1 JUMPDEST DUP2 DUP2 LT PUSH2 0xE06 JUMPI POP PUSH2 0x9CF JUMP JUMPDEST PUSH1 0x0 DUP2 SSTORE DUP5 SWAP4 POP PUSH1 0x1 ADD PUSH2 0xDF9 JUMP JUMPDEST SWAP1 SWAP2 POP DUP2 SWAP1 PUSH2 0xDEB JUMP JUMPDEST PUSH1 0x40 MLOAD PUSH3 0x461BCD PUSH1 0xE5 SHL DUP2 MSTORE PUSH1 0x20 PUSH1 0x4 DUP3 ADD MSTORE PUSH1 0x15 PUSH1 0x24 DUP3 ADD MSTORE PUSH21 0x151BDAD95B881D1C985B9CD9995C8819985A5B1959 PUSH1 0x5A SHL PUSH1 0x44 DUP3 ADD MSTORE PUSH1 0x64 SWAP1 REVERT JUMPDEST PUSH2 0xE7E SWAP2 POP PUSH1 0x20 RETURNDATASIZE PUSH1 0x20 GT PUSH2 0xE84 JUMPI JUMPDEST PUSH2 0xE76 DUP2 DUP4 PUSH2 0x1D29 JUMP JUMPDEST DUP2 ADD SWAP1 PUSH2 0x2062 JUMP JUMPDEST DUP7 PUSH2 0x8E8 JUMP JUMPDEST POP RETURNDATASIZE PUSH2 0xE6C JUMP JUMPDEST PUSH1 0x40 MLOAD RETURNDATASIZE PUSH1 0x0 DUP3 RETURNDATACOPY RETURNDATASIZE SWAP1 REVERT JUMPDEST PUSH1 0x40 MLOAD PUSH3 0x461BCD PUSH1 0xE5 SHL DUP2 MSTORE PUSH1 0x20 PUSH1 0x4 DUP3 ADD MSTORE PUSH1 0x14 PUSH1 0x24 DUP3 ADD MSTORE PUSH20 0x11195CD8DC9A5C1D1A5BDB881C995C5D5A5C9959 PUSH1 0x62 SHL PUSH1 0x44 DUP3 ADD MSTORE PUSH1 0x64 SWAP1 REVERT JUMPDEST PUSH1 0x40 MLOAD PUSH3 0x461BCD PUSH1 0xE5 SHL DUP2 MSTORE PUSH1 0x20 PUSH1 0x4 DUP3 ADD MSTORE PUSH1 0x11 PUSH1 0x24 DUP3 ADD MSTORE PUSH17 0x2232B0B23634B732903A37B79039B7B7B7 PUSH1 0x79 SHL PUSH1 0x44 DUP3 ADD MSTORE PUSH1 0x64 SWAP1 REVERT JUMPDEST PUSH4 0x4E487B71 PUSH1 0xE0 SHL PUSH1 0x0 MSTORE PUSH1 0x11 PUSH1 0x4 MSTORE PUSH1 0x24 PUSH1 0x0 REVERT JUMPDEST PUSH1 0x40 MLOAD PUSH3 0x461BCD PUSH1 0xE5 SHL DUP2 MSTORE PUSH1 0x20 PUSH1 0x4 DUP3 ADD MSTORE PUSH1 0x17 PUSH1 0x24 DUP3 ADD MSTORE PUSH32 0x526577617264206D75737420626520706F736974697665000000000000000000 PUSH1 0x44 DUP3 ADD MSTORE PUSH1 0x64 SWAP1 REVERT JUMPDEST PUSH1 0x40 MLOAD PUSH3 0x461BCD PUSH1 0xE5 SHL DUP2 MSTORE PUSH1 0x20 PUSH1 0x4 DUP3 ADD MSTORE PUSH1 0x15 PUSH1 0x24 DUP3 ADD MSTORE PUSH21 0x92DCECC2D8D2C840C2E4E8D2CCC2C6E840D0C2E6D PUSH1 0x5B SHL PUSH1 0x44 DUP3 ADD MSTORE PUSH1 0x64 SWAP1 REVERT JUMPDEST CALLVALUE PUSH2 0x37E JUMPI PUSH1 0x20 CALLDATASIZE PUSH1 0x3 NOT ADD SLT PUSH2 0x37E JUMPI PUSH2 0xFBD PUSH2 0x1DA0 JUMP JUMPDEST PUSH2 0xFD2 PUSH1 0x1 DUP1 PUSH1 0xA0 SHL SUB PUSH1 0x1 SLOAD AND CALLER EQ PUSH2 0x20BF JUMP JUMPDEST PUSH1 0x1 PUSH1 0x1 PUSH1 0xA0 SHL SUB AND DUP1 ISZERO PUSH2 0xFF9 JUMPI PUSH1 0x1 PUSH1 0x1 PUSH1 0x60 SHL SUB PUSH1 0xA0 SHL PUSH1 0x2 SLOAD AND OR PUSH1 0x2 SSTORE PUSH1 0x0 DUP1 RETURN JUMPDEST PUSH1 0x40 MLOAD PUSH3 0x461BCD PUSH1 0xE5 SHL DUP2 MSTORE PUSH1 0x20 PUSH1 0x4 DUP3 ADD MSTORE PUSH1 0x15 PUSH1 0x24 DUP3 ADD MSTORE PUSH21 0x24B73B30B634B2103332B29031B7B63632B1BA37B9 PUSH1 0x59 SHL PUSH1 0x44 DUP3 ADD MSTORE PUSH1 0x64 SWAP1 REVERT JUMPDEST CALLVALUE PUSH2 0x37E JUMPI PUSH1 0x0 CALLDATASIZE PUSH1 0x3 NOT ADD SLT PUSH2 0x37E JUMPI PUSH1 0x20 PUSH1 0x0 SLOAD PUSH1 0x40 MLOAD SWAP1 DUP2 MSTORE RETURN JUMPDEST PUSH2 0x1DCC JUMP JUMPDEST CALLVALUE PUSH2 0x37E JUMPI PUSH1 0x40 CALLDATASIZE PUSH1 0x3 NOT ADD SLT PUSH2 0x37E JUMPI PUSH2 0x1072 PUSH2 0x1DA0 JUMP JUMPDEST PUSH1 0x1 SLOAD PUSH1 0x24 CALLDATALOAD SWAP2 PUSH1 0x1 PUSH1 0x1 PUSH1 0xA0 SHL SUB SWAP1 SWAP2 AND SWAP1 PUSH2 0x1090 CALLER DUP4 EQ PUSH2 0x20BF JUMP JUMPDEST PUSH1 0xFF PUSH1 0x2 SLOAD PUSH1 0xA0 SHR AND ISZERO PUSH2 0x1137 JUMPI PUSH1 0x1 PUSH1 0x1 PUSH1 0xA0 SHL SUB AND SWAP1 DUP2 PUSH2 0x10DD JUMPI POP POP PUSH1 0x1 SLOAD PUSH1 0x0 SWAP2 DUP3 SWAP2 DUP3 SWAP2 DUP3 SWAP2 PUSH1 0x1 PUSH1 0x1 PUSH1 0xA0 SHL SUB AND DUP3 DUP3 ISZERO PUSH2 0x10D4 JUMPI JUMPDEST CALL ISZERO PUSH2 0xE8B JUMPI STOP JUMPDEST POP PUSH2 0x8FC PUSH2 0x10CC JUMP JUMPDEST PUSH1 0x40 MLOAD PUSH4 0xA9059CBB PUSH1 0xE0 SHL DUP2 MSTORE PUSH1 0x1 PUSH1 0x1 PUSH1 0xA0 SHL SUB SWAP2 SWAP1 SWAP2 AND PUSH1 0x4 DUP3 ADD MSTORE PUSH1 0x24 DUP2 ADD SWAP3 SWAP1 SWAP3 MSTORE PUSH1 0x20 SWAP1 DUP3 SWAP1 PUSH1 0x44 SWAP1 DUP3 SWAP1 PUSH1 0x0 SWAP1 GAS CALL DUP1 ISZERO PUSH2 0xE8B JUMPI PUSH2 0x111F JUMPI JUMPDEST STOP JUMPDEST PUSH2 0x111D SWAP1 PUSH1 0x20 RETURNDATASIZE PUSH1 0x20 GT PUSH2 0xE84 JUMPI PUSH2 0xE76 DUP2 DUP4 PUSH2 0x1D29 JUMP JUMPDEST PUSH1 0x40 MLOAD PUSH3 0x461BCD PUSH1 0xE5 SHL DUP2 MSTORE PUSH1 0x20 PUSH1 0x4 DUP3 ADD MSTORE PUSH1 0x17 PUSH1 0x24 DUP3 ADD MSTORE PUSH32 0x436F6E7472616374206D75737420626520706175736564000000000000000000 PUSH1 0x44 DUP3 ADD MSTORE PUSH1 0x64 SWAP1 REVERT JUMPDEST CALLVALUE PUSH2 0x37E JUMPI PUSH1 0x0 CALLDATASIZE PUSH1 0x3 NOT ADD SLT PUSH2 0x37E JUMPI PUSH1 0x40 MLOAD PUSH32 0x0 PUSH1 0x1 PUSH1 0x1 PUSH1 0xA0 SHL SUB AND DUP2 MSTORE PUSH1 0x20 SWAP1 RETURN JUMPDEST CALLVALUE PUSH2 0x37E JUMPI PUSH1 0x0 CALLDATASIZE PUSH1 0x3 NOT ADD SLT PUSH2 0x37E JUMPI PUSH1 0x1 SLOAD PUSH1 0x40 MLOAD PUSH1 0x1 PUSH1 0x1 PUSH1 0xA0 SHL SUB SWAP1 SWAP2 AND DUP2 MSTORE PUSH1 0x20 SWAP1 RETURN JUMPDEST CALLVALUE PUSH2 0x37E JUMPI PUSH1 0x0 CALLDATASIZE PUSH1 0x3 NOT ADD SLT PUSH2 0x37E JUMPI PUSH2 0x1210 PUSH1 0x1 DUP1 PUSH1 0xA0 SHL SUB PUSH1 0x1 SLOAD AND CALLER EQ PUSH2 0x20BF JUMP JUMPDEST PUSH1 0x2 DUP1 SLOAD PUSH1 0xFF PUSH1 0xA0 SHL NOT AND PUSH1 0x1 PUSH1 0xA0 SHL OR SWAP1 SSTORE STOP JUMPDEST CALLVALUE PUSH2 0x37E JUMPI PUSH1 0x40 CALLDATASIZE PUSH1 0x3 NOT ADD SLT PUSH2 0x37E JUMPI PUSH2 0x123E PUSH2 0x1DB6 JUMP JUMPDEST PUSH1 0x4 CALLDATALOAD PUSH1 0x0 MSTORE PUSH1 0x7 PUSH1 0x20 MSTORE PUSH1 0x40 PUSH1 0x0 KECCAK256 SWAP1 PUSH1 0x1 DUP1 PUSH1 0xA0 SHL SUB AND PUSH1 0x0 MSTORE PUSH1 0x20 MSTORE PUSH1 0x20 PUSH1 0x40 PUSH1 0x0 KECCAK256 SLOAD PUSH1 0x40 MLOAD SWAP1 DUP2 MSTORE RETURN JUMPDEST CALLVALUE PUSH2 0x37E JUMPI PUSH1 0x20 CALLDATASIZE PUSH1 0x3 NOT ADD SLT PUSH2 0x37E JUMPI PUSH1 0x1 PUSH1 0x1 PUSH1 0xA0 SHL SUB PUSH2 0x128E PUSH2 0x1DA0 JUMP JUMPDEST AND PUSH1 0x0 MSTORE PUSH1 0x6 PUSH1 0x20 MSTORE PUSH1 0x40 PUSH1 0x0 KECCAK256 PUSH1 0x40 MLOAD SWAP1 DUP2 PUSH1 0x20 DUP3 SLOAD SWAP2 DUP3 DUP2 MSTORE ADD SWAP2 PUSH1 0x0 MSTORE PUSH1 0x20 PUSH1 0x0 KECCAK256 SWAP1 PUSH1 0x0 JUMPDEST DUP2 DUP2 LT PUSH2 0x12E2 JUMPI PUSH2 0x6A1 DUP6 PUSH2 0x12CE DUP2 DUP8 SUB DUP3 PUSH2 0x1D29 JUMP JUMPDEST PUSH1 0x40 MLOAD SWAP2 DUP3 SWAP2 PUSH1 0x20 DUP4 MSTORE PUSH1 0x20 DUP4 ADD SWAP1 PUSH2 0x1DE8 JUMP JUMPDEST DUP3 SLOAD DUP5 MSTORE PUSH1 0x20 SWAP1 SWAP4 ADD SWAP3 PUSH1 0x1 SWAP3 DUP4 ADD SWAP3 ADD PUSH2 0x12B7 JUMP JUMPDEST CALLVALUE PUSH2 0x37E JUMPI PUSH1 0x0 CALLDATASIZE PUSH1 0x3 NOT ADD SLT PUSH2 0x37E JUMPI PUSH1 0x40 MLOAD PUSH32 0x0 PUSH1 0x1 PUSH1 0x1 PUSH1 0xA0 SHL SUB AND DUP2 MSTORE PUSH1 0x20 SWAP1 RETURN JUMPDEST CALLVALUE PUSH2 0x37E JUMPI PUSH1 0x0 CALLDATASIZE PUSH1 0x3 NOT ADD SLT PUSH2 0x37E JUMPI PUSH1 0x20 PUSH1 0xFF PUSH1 0x2 SLOAD PUSH1 0xA0 SHR AND PUSH1 0x40 MLOAD SWAP1 ISZERO ISZERO DUP2 MSTORE RETURN JUMPDEST CALLVALUE PUSH2 0x37E JUMPI PUSH1 0x0 CALLDATASIZE PUSH1 0x3 NOT ADD SLT PUSH2 0x37E JUMPI PUSH2 0x1389 PUSH1 0x1 DUP1 PUSH1 0xA0 SHL SUB PUSH1 0x1 SLOAD AND CALLER EQ PUSH2 0x20BF JUMP JUMPDEST PUSH1 0x2 DUP1 SLOAD PUSH1 0xFF PUSH1 0xA0 SHL NOT AND SWAP1 SSTORE STOP JUMPDEST CALLVALUE PUSH2 0x37E JUMPI PUSH1 0x20 CALLDATASIZE PUSH1 0x3 NOT ADD SLT PUSH2 0x37E JUMPI PUSH1 0x4 CALLDATALOAD DUP1 ISZERO ISZERO DUP1 PUSH2 0x1461 JUMPI JUMPDEST PUSH2 0x13BE SWAP1 PUSH2 0x1F92 JUMP JUMPDEST PUSH2 0x13D0 PUSH1 0xFF PUSH1 0x2 SLOAD PUSH1 0xA0 SHR AND ISZERO PUSH2 0x2012 JUMP JUMPDEST DUP1 PUSH1 0x0 MSTORE PUSH1 0x3 PUSH1 0x20 MSTORE PUSH1 0x40 PUSH1 0x0 KECCAK256 PUSH1 0xFF PUSH1 0x7 DUP3 ADD SLOAD AND PUSH1 0x5 DUP2 LT ISZERO PUSH2 0x35C JUMPI PUSH2 0x13F9 SWAP1 ISZERO PUSH2 0x1FD2 JUMP JUMPDEST PUSH1 0x5 DUP2 ADD SLOAD TIMESTAMP GT SWAP1 DUP2 ISZERO PUSH2 0x1451 JUMPI JUMPDEST POP ISZERO PUSH2 0x1417 JUMPI PUSH2 0x111D SWAP1 PUSH2 0x2177 JUMP JUMPDEST PUSH1 0x40 MLOAD PUSH3 0x461BCD PUSH1 0xE5 SHL DUP2 MSTORE PUSH1 0x20 PUSH1 0x4 DUP3 ADD MSTORE PUSH1 0x12 PUSH1 0x24 DUP3 ADD MSTORE PUSH18 0x10D85B9B9BDD081C995CDBDB1D99481E595D PUSH1 0x72 SHL PUSH1 0x44 DUP3 ADD MSTORE PUSH1 0x64 SWAP1 REVERT JUMPDEST PUSH1 0x5 SWAP2 POP PUSH1 0x9 ADD SLOAD LT ISZERO DUP3 PUSH2 0x1408 JUMP JUMPDEST POP PUSH1 0x0 SLOAD DUP2 GT ISZERO PUSH2 0x13B5 JUMP JUMPDEST CALLVALUE PUSH2 0x37E JUMPI PUSH1 0x40 CALLDATASIZE PUSH1 0x3 NOT ADD SLT PUSH2 0x37E JUMPI PUSH2 0x1486 PUSH2 0x1DA0 JUMP JUMPDEST PUSH1 0x1 PUSH1 0x1 PUSH1 0xA0 SHL SUB AND PUSH1 0x0 SWAP1 DUP2 MSTORE PUSH1 0x6 PUSH1 0x20 MSTORE PUSH1 0x40 SWAP1 KECCAK256 DUP1 SLOAD PUSH1 0x24 CALLDATALOAD SWAP2 SWAP1 DUP3 LT ISZERO PUSH2 0x37E JUMPI PUSH1 0x20 SWAP2 PUSH2 0x14B7 SWAP2 PUSH2 0x1CC3 JUMP JUMPDEST SWAP1 SLOAD SWAP1 PUSH1 0x3 SHL SHR PUSH1 0x40 MLOAD SWAP1 DUP2 MSTORE RETURN JUMPDEST CALLVALUE PUSH2 0x37E JUMPI PUSH1 0x0 CALLDATASIZE PUSH1 0x3 NOT ADD SLT PUSH2 0x37E JUMPI PUSH1 0x20 PUSH1 0x40 MLOAD PUSH8 0x8AC7230489E80000 DUP2 MSTORE RETURN JUMPDEST CALLVALUE PUSH2 0x37E JUMPI PUSH1 0xA0 CALLDATASIZE PUSH1 0x3 NOT ADD SLT PUSH2 0x37E JUMPI PUSH1 0x4 CALLDATALOAD PUSH1 0x24 CALLDATALOAD SWAP1 PUSH1 0x4 DUP3 LT ISZERO PUSH2 0x37E JUMPI PUSH1 0x64 CALLDATALOAD SWAP2 PUSH1 0x44 CALLDATALOAD PUSH1 0x84 CALLDATALOAD PUSH1 0x1 PUSH1 0x1 PUSH1 0x40 SHL SUB DUP2 GT PUSH2 0x37E JUMPI PUSH2 0x1530 SWAP1 CALLDATASIZE SWAP1 PUSH1 0x4 ADD PUSH2 0x1D4A JUMP JUMPDEST SWAP4 DUP4 ISZERO ISZERO DUP1 PUSH2 0x1C65 JUMPI JUMPDEST PUSH2 0x1543 SWAP1 PUSH2 0x1F92 JUMP JUMPDEST DUP4 PUSH1 0x0 MSTORE PUSH1 0x3 PUSH1 0x20 MSTORE PUSH1 0xFF PUSH1 0x7 PUSH1 0x40 PUSH1 0x0 KECCAK256 ADD SLOAD AND PUSH1 0x5 DUP2 LT ISZERO PUSH2 0x35C JUMPI PUSH2 0x156B SWAP1 ISZERO PUSH2 0x1FD2 JUMP JUMPDEST DUP4 PUSH1 0x0 MSTORE PUSH1 0x3 PUSH1 0x20 MSTORE PUSH1 0x5 PUSH1 0x40 PUSH1 0x0 KECCAK256 ADD SLOAD TIMESTAMP GT PUSH2 0x1C2F JUMPI PUSH2 0x1595 PUSH1 0xFF PUSH1 0x2 SLOAD PUSH1 0xA0 SHR AND ISZERO PUSH2 0x2012 JUMP JUMPDEST PUSH1 0x0 SWAP5 DUP4 ISZERO PUSH2 0x1BF8 JUMPI DUP3 ISZERO ISZERO DUP1 PUSH2 0x1BED JUMPI JUMPDEST ISZERO PUSH2 0x1BB3 JUMPI PUSH8 0x8AC7230489E80000 DUP3 LT PUSH2 0x1B79 JUMPI DUP1 MLOAD ISZERO PUSH2 0x1B3B JUMPI DUP5 DUP7 MSTORE PUSH1 0x4 PUSH1 0x20 SWAP1 DUP2 MSTORE PUSH1 0x40 DUP1 DUP9 KECCAK256 CALLER DUP10 MSTORE SWAP1 SWAP2 MSTORE DUP7 KECCAK256 PUSH1 0x1 ADD SLOAD PUSH1 0x1 PUSH1 0x1 PUSH1 0xA0 SHL SUB AND PUSH2 0x1B02 JUMPI PUSH1 0x40 MLOAD PUSH4 0x4E44D071 PUSH1 0xE1 SHL DUP2 MSTORE CALLER PUSH1 0x4 DUP3 ADD MSTORE PUSH32 0x0 PUSH1 0x1 PUSH1 0x1 PUSH1 0xA0 SHL SUB AND PUSH1 0x20 DUP3 PUSH1 0x24 DUP2 DUP5 GAS STATICCALL SWAP2 DUP3 ISZERO PUSH2 0x1AC2 JUMPI DUP9 SWAP3 PUSH2 0x1ACD JUMPI JUMPDEST POP SWAP1 PUSH1 0x20 PUSH1 0x4 SWAP3 PUSH1 0x40 MLOAD SWAP4 DUP5 DUP1 SWAP3 PUSH4 0x93EA1CFD PUSH1 0xE0 SHL DUP3 MSTORE GAS STATICCALL SWAP2 DUP3 ISZERO PUSH2 0x1AC2 JUMPI DUP9 SWAP3 PUSH2 0x1A8A JUMPI JUMPDEST POP LT PUSH2 0x1A45 JUMPI PUSH1 0x40 MLOAD PUSH4 0x23B872DD PUSH1 0xE0 SHL DUP2 MSTORE CALLER PUSH1 0x4 DUP3 ADD MSTORE ADDRESS PUSH1 0x24 DUP3 ADD MSTORE PUSH1 0x44 DUP2 ADD DUP4 SWAP1 MSTORE PUSH1 0x20 DUP2 PUSH1 0x64 DUP2 DUP11 PUSH1 0x1 PUSH1 0x1 PUSH1 0xA0 SHL SUB PUSH32 0x0 AND GAS CALL SWAP1 DUP2 ISZERO PUSH2 0x1A3A JUMPI DUP8 SWAP2 PUSH2 0x1A1B JUMPI JUMPDEST POP ISZERO PUSH2 0x19DE JUMPI PUSH1 0x40 MLOAD PUSH2 0x16DF DUP2 PUSH2 0x1CF1 JUMP JUMPDEST DUP6 DUP2 MSTORE PUSH1 0x20 DUP2 ADD CALLER DUP2 MSTORE PUSH1 0x40 DUP3 ADD SWAP3 PUSH2 0x16F8 DUP8 DUP6 PUSH2 0x207A JUMP JUMPDEST PUSH1 0x60 DUP4 ADD DUP7 DUP2 MSTORE PUSH1 0x80 DUP5 ADD SWAP1 DUP7 DUP3 MSTORE PUSH1 0xA0 DUP6 ADD SWAP3 DUP4 MSTORE PUSH1 0xC0 DUP6 ADD SWAP4 TIMESTAMP DUP6 MSTORE PUSH1 0xE0 DUP7 ADD SWAP7 DUP13 DUP9 MSTORE DUP12 DUP14 MSTORE PUSH1 0x4 PUSH1 0x20 MSTORE PUSH1 0x40 DUP14 KECCAK256 DUP14 PUSH1 0x1 DUP1 PUSH1 0xA0 SHL SUB CALLER AND SWAP1 MSTORE PUSH1 0x20 MSTORE PUSH1 0x40 DUP14 KECCAK256 SWAP7 MLOAD DUP8 SSTORE PUSH1 0x1 DUP8 ADD SWAP2 PUSH1 0x1 DUP1 PUSH1 0xA0 SHL SUB SWAP1 PUSH1 0x1 DUP1 PUSH1 0xA0 SHL SUB SWAP1 MLOAD AND AND PUSH1 0x1 PUSH1 0x1 PUSH1 0x60 SHL SUB PUSH1 0xA0 SHL DUP4 SLOAD AND OR DUP3 SSTORE MLOAD PUSH1 0x4 DUP2 LT ISZERO PUSH2 0x19CA JUMPI DUP2 SLOAD PUSH1 0xFF PUSH1 0xA0 SHL NOT AND PUSH1 0xA0 SWAP2 SWAP1 SWAP2 SHL PUSH1 0xFF PUSH1 0xA0 SHL AND OR SWAP1 SSTORE MLOAD PUSH1 0x2 DUP6 ADD SSTORE MLOAD PUSH1 0x3 DUP5 ADD SSTORE MLOAD DUP1 MLOAD PUSH1 0x4 DUP5 ADD SWAP2 PUSH1 0x1 PUSH1 0x1 PUSH1 0x40 SHL SUB DUP3 GT PUSH2 0x19B6 JUMPI PUSH2 0x17B8 DUP4 SLOAD PUSH2 0x1E1C JUMP JUMPDEST PUSH1 0x1F DUP2 GT PUSH2 0x1971 JUMPI JUMPDEST POP PUSH1 0x20 SWAP1 PUSH1 0x1F DUP4 GT PUSH1 0x1 EQ PUSH2 0x1909 JUMPI PUSH1 0x6 SWAP6 SWAP5 SWAP4 SWAP3 SWAP2 DUP13 SWAP2 DUP4 PUSH2 0x18FE JUMPI JUMPDEST POP POP DUP2 PUSH1 0x1 SHL SWAP2 PUSH1 0x0 NOT SWAP1 PUSH1 0x3 SHL SHR NOT AND OR SWAP1 SSTORE JUMPDEST MLOAD PUSH1 0x5 DUP3 ADD SSTORE ADD SWAP1 MLOAD ISZERO ISZERO PUSH1 0xFF DUP1 NOT DUP4 SLOAD AND SWAP2 AND OR SWAP1 SSTORE DUP4 DUP6 MSTORE PUSH1 0x5 PUSH1 0x20 MSTORE PUSH1 0x40 DUP6 KECCAK256 DUP1 SLOAD SWAP1 PUSH1 0x1 PUSH1 0x40 SHL DUP3 LT ISZERO PUSH2 0xB98 JUMPI SWAP2 PUSH2 0x185A DUP3 PUSH32 0x48548E2CE8972B197D1D6CE06E8AA73010781ED451AE1221E2F9956A8F804EB6 SWAP5 PUSH1 0x1 DUP10 SWAP8 SWAP6 ADD DUP2 SSTORE PUSH2 0x1CC3 JUMP JUMPDEST DUP2 SLOAD SWAP1 PUSH1 0x3 SHL SWAP1 CALLER DUP3 SHL SWAP2 PUSH1 0x1 DUP1 PUSH1 0xA0 SHL SUB SWAP1 SHL NOT AND OR SWAP1 SSTORE DUP4 DUP8 MSTORE PUSH1 0x3 PUSH1 0x20 MSTORE PUSH1 0x8 PUSH1 0x40 DUP9 KECCAK256 ADD PUSH2 0x188D DUP3 DUP3 SLOAD PUSH2 0x2086 JUMP JUMPDEST SWAP1 SSTORE DUP4 DUP8 MSTORE PUSH1 0x3 PUSH1 0x20 MSTORE PUSH1 0x9 PUSH1 0x40 DUP9 KECCAK256 ADD PUSH2 0x18A8 DUP2 SLOAD PUSH2 0x2093 JUMP JUMPDEST SWAP1 SSTORE PUSH2 0x18BB PUSH1 0x40 MLOAD SWAP3 DUP4 SWAP3 CALLER SWAP8 DUP5 PUSH2 0x20A2 JUMP JUMPDEST SUB SWAP1 LOG3 DUP1 DUP3 MSTORE PUSH1 0x3 PUSH1 0x20 MSTORE PUSH1 0x40 DUP3 KECCAK256 PUSH1 0xA PUSH1 0x9 DUP3 ADD SLOAD LT SWAP1 DUP2 ISZERO SWAP2 PUSH2 0x18F0 JUMPI JUMPDEST POP PUSH2 0x18E4 JUMPI POP DUP1 RETURN JUMPDEST PUSH2 0x18ED SWAP1 PUSH2 0x2177 JUMP JUMPDEST DUP1 RETURN JUMPDEST PUSH1 0x5 SWAP2 POP ADD SLOAD TIMESTAMP GT DUP4 PUSH2 0x18DB JUMP JUMPDEST ADD MLOAD SWAP1 POP DUP13 DUP1 PUSH2 0x17DF JUMP JUMPDEST DUP4 DUP13 MSTORE DUP2 DUP13 KECCAK256 SWAP2 SWAP1 PUSH1 0x1F NOT DUP5 AND DUP14 JUMPDEST DUP2 DUP2 LT PUSH2 0x1959 JUMPI POP SWAP2 PUSH1 0x1 SWAP4 SWAP2 DUP6 PUSH1 0x6 SWAP10 SWAP9 SWAP8 SWAP7 SWAP5 LT PUSH2 0x1940 JUMPI JUMPDEST POP POP POP DUP2 SHL ADD SWAP1 SSTORE PUSH2 0x17F4 JUMP JUMPDEST ADD MLOAD PUSH1 0x0 NOT PUSH1 0xF8 DUP5 PUSH1 0x3 SHL AND SHR NOT AND SWAP1 SSTORE DUP13 DUP1 DUP1 PUSH2 0x1933 JUMP JUMPDEST SWAP3 SWAP4 PUSH1 0x20 PUSH1 0x1 DUP2 SWAP3 DUP8 DUP7 ADD MLOAD DUP2 SSTORE ADD SWAP6 ADD SWAP4 ADD PUSH2 0x1918 JUMP JUMPDEST DUP4 DUP13 MSTORE PUSH1 0x20 DUP13 KECCAK256 PUSH1 0x1F DUP5 ADD PUSH1 0x5 SHR DUP2 ADD SWAP2 PUSH1 0x20 DUP6 LT PUSH2 0x19AC JUMPI JUMPDEST PUSH1 0x1F ADD PUSH1 0x5 SHR ADD SWAP1 JUMPDEST DUP2 DUP2 LT PUSH2 0x19A1 JUMPI POP PUSH2 0x17C1 JUMP JUMPDEST DUP13 DUP2 SSTORE PUSH1 0x1 ADD PUSH2 0x1994 JUMP JUMPDEST SWAP1 SWAP2 POP DUP2 SWAP1 PUSH2 0x198B JUMP JUMPDEST PUSH4 0x4E487B71 PUSH1 0xE0 SHL DUP12 MSTORE PUSH1 0x41 PUSH1 0x4 MSTORE PUSH1 0x24 DUP12 REVERT JUMPDEST PUSH4 0x4E487B71 PUSH1 0xE0 SHL DUP14 MSTORE PUSH1 0x21 PUSH1 0x4 MSTORE PUSH1 0x24 DUP14 REVERT JUMPDEST PUSH1 0x40 MLOAD PUSH3 0x461BCD PUSH1 0xE5 SHL DUP2 MSTORE PUSH1 0x20 PUSH1 0x4 DUP3 ADD MSTORE PUSH1 0x15 PUSH1 0x24 DUP3 ADD MSTORE PUSH21 0x14DD185AD9481D1C985B9CD9995C8819985A5B1959 PUSH1 0x5A SHL PUSH1 0x44 DUP3 ADD MSTORE PUSH1 0x64 SWAP1 REVERT JUMPDEST PUSH2 0x1A34 SWAP2 POP PUSH1 0x20 RETURNDATASIZE PUSH1 0x20 GT PUSH2 0xE84 JUMPI PUSH2 0xE76 DUP2 DUP4 PUSH2 0x1D29 JUMP JUMPDEST DUP8 PUSH2 0x16CD JUMP JUMPDEST PUSH1 0x40 MLOAD RETURNDATASIZE DUP10 DUP3 RETURNDATACOPY RETURNDATASIZE SWAP1 REVERT JUMPDEST PUSH1 0x40 MLOAD PUSH3 0x461BCD PUSH1 0xE5 SHL DUP2 MSTORE PUSH1 0x20 PUSH1 0x4 DUP3 ADD MSTORE PUSH1 0x17 PUSH1 0x24 DUP3 ADD MSTORE PUSH32 0x496E73756666696369656E742072657075746174696F6E000000000000000000 PUSH1 0x44 DUP3 ADD MSTORE PUSH1 0x64 SWAP1 REVERT JUMPDEST SWAP1 SWAP2 POP PUSH1 0x20 DUP2 RETURNDATASIZE PUSH1 0x20 GT PUSH2 0x1ABA JUMPI JUMPDEST DUP2 PUSH2 0x1AA6 PUSH1 0x20 SWAP4 DUP4 PUSH2 0x1D29 JUMP JUMPDEST DUP2 ADD SUB SLT PUSH2 0x1AB6 JUMPI MLOAD SWAP1 DUP9 PUSH2 0x1666 JUMP JUMPDEST DUP8 DUP1 REVERT JUMPDEST RETURNDATASIZE SWAP2 POP PUSH2 0x1A99 JUMP JUMPDEST PUSH1 0x40 MLOAD RETURNDATASIZE DUP11 DUP3 RETURNDATACOPY RETURNDATASIZE SWAP1 REVERT JUMPDEST SWAP2 POP PUSH1 0x20 DUP3 RETURNDATASIZE PUSH1 0x20 GT PUSH2 0x1AFA JUMPI JUMPDEST DUP2 PUSH2 0x1AE8 PUSH1 0x20 SWAP4 DUP4 PUSH2 0x1D29 JUMP JUMPDEST DUP2 ADD SUB SLT PUSH2 0x1AB6 JUMPI SWAP1 MLOAD SWAP1 PUSH1 0x20 PUSH2 0x163E JUMP JUMPDEST RETURNDATASIZE SWAP2 POP PUSH2 0x1ADB JUMP JUMPDEST PUSH1 0x40 MLOAD PUSH3 0x461BCD PUSH1 0xE5 SHL DUP2 MSTORE PUSH1 0x20 PUSH1 0x4 DUP3 ADD MSTORE PUSH1 0x11 PUSH1 0x24 DUP3 ADD MSTORE PUSH17 0x105B1C9958591E481CDD589B5A5D1D1959 PUSH1 0x7A SHL PUSH1 0x44 DUP3 ADD MSTORE PUSH1 0x64 SWAP1 REVERT JUMPDEST PUSH1 0x40 MLOAD PUSH3 0x461BCD PUSH1 0xE5 SHL DUP2 MSTORE PUSH1 0x20 PUSH1 0x4 DUP3 ADD MSTORE PUSH1 0x16 PUSH1 0x24 DUP3 ADD MSTORE PUSH22 0x105B985B1E5CDA5CC81A185CDA081C995C5D5A5C9959 PUSH1 0x52 SHL PUSH1 0x44 DUP3 ADD MSTORE PUSH1 0x64 SWAP1 REVERT JUMPDEST PUSH1 0x40 MLOAD PUSH3 0x461BCD PUSH1 0xE5 SHL DUP2 MSTORE PUSH1 0x20 PUSH1 0x4 DUP3 ADD MSTORE PUSH1 0x12 PUSH1 0x24 DUP3 ADD MSTORE PUSH18 0x496E73756666696369656E74207374616B65 PUSH1 0x70 SHL PUSH1 0x44 DUP3 ADD MSTORE PUSH1 0x64 SWAP1 REVERT JUMPDEST PUSH1 0x40 MLOAD PUSH3 0x461BCD PUSH1 0xE5 SHL DUP2 MSTORE PUSH1 0x20 PUSH1 0x4 DUP3 ADD MSTORE PUSH1 0x12 PUSH1 0x24 DUP3 ADD MSTORE PUSH18 0x496E76616C696420636F6E666964656E6365 PUSH1 0x70 SHL PUSH1 0x44 DUP3 ADD MSTORE PUSH1 0x64 SWAP1 REVERT JUMPDEST POP PUSH1 0x64 DUP4 GT ISZERO PUSH2 0x15A7 JUMP JUMPDEST PUSH1 0x40 MLOAD PUSH3 0x461BCD PUSH1 0xE5 SHL DUP2 MSTORE PUSH1 0x20 PUSH1 0x4 DUP3 ADD MSTORE PUSH1 0xF PUSH1 0x24 DUP3 ADD MSTORE PUSH15 0x125B9D985B1A59081D995C991A58DD PUSH1 0x8A SHL PUSH1 0x44 DUP3 ADD MSTORE PUSH1 0x64 SWAP1 REVERT JUMPDEST PUSH1 0x40 MLOAD PUSH3 0x461BCD PUSH1 0xE5 SHL DUP2 MSTORE PUSH1 0x20 PUSH1 0x4 DUP3 ADD MSTORE PUSH1 0xE PUSH1 0x24 DUP3 ADD MSTORE PUSH14 0x109BDD5B9D1E48195E1C1A5C9959 PUSH1 0x92 SHL PUSH1 0x44 DUP3 ADD MSTORE PUSH1 0x64 SWAP1 REVERT JUMPDEST POP PUSH1 0x0 SLOAD DUP5 GT ISZERO PUSH2 0x153A JUMP JUMPDEST CALLVALUE PUSH2 0x37E JUMPI PUSH1 0x40 CALLDATASIZE PUSH1 0x3 NOT ADD SLT PUSH2 0x37E JUMPI PUSH1 0x24 CALLDATALOAD PUSH1 0x4 CALLDATALOAD PUSH1 0x0 MSTORE PUSH1 0x5 PUSH1 0x20 MSTORE PUSH1 0x40 PUSH1 0x0 KECCAK256 DUP1 SLOAD DUP3 LT ISZERO PUSH2 0x37E JUMPI PUSH1 0x20 SWAP2 PUSH2 0x1CAA SWAP2 PUSH2 0x1CC3 JUMP JUMPDEST SWAP1 SLOAD PUSH1 0x40 MLOAD PUSH1 0x3 SWAP3 SWAP1 SWAP3 SHL SHR PUSH1 0x1 PUSH1 0x1 PUSH1 0xA0 SHL SUB AND DUP2 MSTORE RETURN JUMPDEST DUP1 SLOAD DUP3 LT ISZERO PUSH2 0x1CDB JUMPI PUSH1 0x0 MSTORE PUSH1 0x20 PUSH1 0x0 KECCAK256 ADD SWAP1 PUSH1 0x0 SWAP1 JUMP JUMPDEST PUSH4 0x4E487B71 PUSH1 0xE0 SHL PUSH1 0x0 MSTORE PUSH1 0x32 PUSH1 0x4 MSTORE PUSH1 0x24 PUSH1 0x0 REVERT JUMPDEST PUSH2 0x100 DUP2 ADD SWAP1 DUP2 LT PUSH1 0x1 PUSH1 0x1 PUSH1 0x40 SHL SUB DUP3 GT OR PUSH2 0xC83 JUMPI PUSH1 0x40 MSTORE JUMP JUMPDEST PUSH2 0x180 DUP2 ADD SWAP1 DUP2 LT PUSH1 0x1 PUSH1 0x1 PUSH1 0x40 SHL SUB DUP3 GT OR PUSH2 0xC83 JUMPI PUSH1 0x40 MSTORE JUMP JUMPDEST SWAP1 PUSH1 0x1F DUP1 NOT SWAP2 ADD AND DUP2 ADD SWAP1 DUP2 LT PUSH1 0x1 PUSH1 0x1 PUSH1 0x40 SHL SUB DUP3 GT OR PUSH2 0xC83 JUMPI PUSH1 0x40 MSTORE JUMP JUMPDEST DUP2 PUSH1 0x1F DUP3 ADD SLT ISZERO PUSH2 0x37E JUMPI DUP1 CALLDATALOAD SWAP1 PUSH1 0x1 PUSH1 0x1 PUSH1 0x40 SHL SUB DUP3 GT PUSH2 0xC83 JUMPI PUSH1 0x40 MLOAD SWAP3 PUSH2 0x1D7E PUSH1 0x1F DUP5 ADD PUSH1 0x1F NOT AND PUSH1 0x20 ADD DUP6 PUSH2 0x1D29 JUMP JUMPDEST DUP3 DUP5 MSTORE PUSH1 0x20 DUP4 DUP4 ADD ADD GT PUSH2 0x37E JUMPI DUP2 PUSH1 0x0 SWAP3 PUSH1 0x20 DUP1 SWAP4 ADD DUP4 DUP7 ADD CALLDATACOPY DUP4 ADD ADD MSTORE SWAP1 JUMP JUMPDEST PUSH1 0x4 CALLDATALOAD SWAP1 PUSH1 0x1 PUSH1 0x1 PUSH1 0xA0 SHL SUB DUP3 AND DUP3 SUB PUSH2 0x37E JUMPI JUMP JUMPDEST PUSH1 0x24 CALLDATALOAD SWAP1 PUSH1 0x1 PUSH1 0x1 PUSH1 0xA0 SHL SUB DUP3 AND DUP3 SUB PUSH2 0x37E JUMPI JUMP JUMPDEST CALLVALUE PUSH2 0x37E JUMPI PUSH1 0x0 CALLDATASIZE PUSH1 0x3 NOT ADD SLT PUSH2 0x37E JUMPI PUSH1 0x20 PUSH1 0x40 MLOAD PUSH1 0x5 DUP2 MSTORE RETURN JUMPDEST SWAP1 PUSH1 0x20 DUP1 DUP4 MLOAD SWAP3 DUP4 DUP2 MSTORE ADD SWAP3 ADD SWAP1 PUSH1 0x0 JUMPDEST DUP2 DUP2 LT PUSH2 0x1E06 JUMPI POP POP POP SWAP1 JUMP JUMPDEST DUP3 MLOAD DUP5 MSTORE PUSH1 0x20 SWAP4 DUP5 ADD SWAP4 SWAP1 SWAP3 ADD SWAP2 PUSH1 0x1 ADD PUSH2 0x1DF9 JUMP JUMPDEST SWAP1 PUSH1 0x1 DUP3 DUP2 SHR SWAP3 AND DUP1 ISZERO PUSH2 0x1E4C JUMPI JUMPDEST PUSH1 0x20 DUP4 LT EQ PUSH2 0x1E36 JUMPI JUMP JUMPDEST PUSH4 0x4E487B71 PUSH1 0xE0 SHL PUSH1 0x0 MSTORE PUSH1 0x22 PUSH1 0x4 MSTORE PUSH1 0x24 PUSH1 0x0 REVERT JUMPDEST SWAP2 PUSH1 0x7F AND SWAP2 PUSH2 0x1E2B JUMP JUMPDEST SWAP1 PUSH1 0x40 MLOAD SWAP2 DUP3 PUSH1 0x0 DUP3 SLOAD SWAP3 PUSH2 0x1E6A DUP5 PUSH2 0x1E1C JUMP JUMPDEST DUP1 DUP5 MSTORE SWAP4 PUSH1 0x1 DUP2 AND SWAP1 DUP2 ISZERO PUSH2 0x1ED8 JUMPI POP PUSH1 0x1 EQ PUSH2 0x1E91 JUMPI JUMPDEST POP PUSH2 0x1E8F SWAP3 POP SUB DUP4 PUSH2 0x1D29 JUMP JUMPDEST JUMP JUMPDEST SWAP1 POP PUSH1 0x0 SWAP3 SWAP2 SWAP3 MSTORE PUSH1 0x20 PUSH1 0x0 KECCAK256 SWAP1 PUSH1 0x0 SWAP2 JUMPDEST DUP2 DUP4 LT PUSH2 0x1EBC JUMPI POP POP SWAP1 PUSH1 0x20 PUSH2 0x1E8F SWAP3 DUP3 ADD ADD CODESIZE PUSH2 0x1E82 JUMP JUMPDEST PUSH1 0x20 SWAP2 SWAP4 POP DUP1 PUSH1 0x1 SWAP2 SLOAD DUP4 DUP6 DUP10 ADD ADD MSTORE ADD SWAP2 ADD SWAP1 SWAP2 DUP5 SWAP3 PUSH2 0x1EA3 JUMP JUMPDEST SWAP1 POP PUSH1 0x20 SWAP3 POP PUSH2 0x1E8F SWAP5 SWAP2 POP PUSH1 0xFF NOT AND DUP3 DUP5 ADD MSTORE ISZERO ISZERO PUSH1 0x5 SHL DUP3 ADD ADD CODESIZE PUSH2 0x1E82 JUMP JUMPDEST SWAP1 PUSH1 0x4 DUP3 LT ISZERO PUSH2 0x35C JUMPI MSTORE JUMP JUMPDEST SWAP2 SWAP1 DUP3 MLOAD SWAP3 DUP4 DUP3 MSTORE PUSH1 0x0 JUMPDEST DUP5 DUP2 LT PUSH2 0x1F33 JUMPI POP POP DUP3 PUSH1 0x0 PUSH1 0x20 DUP1 SWAP5 SWAP6 DUP5 ADD ADD MSTORE PUSH1 0x1F DUP1 NOT SWAP2 ADD AND ADD ADD SWAP1 JUMP JUMPDEST DUP1 PUSH1 0x20 DUP1 SWAP3 DUP5 ADD ADD MLOAD DUP3 DUP3 DUP7 ADD ADD MSTORE ADD PUSH2 0x1F12 JUMP JUMPDEST SWAP1 PUSH1 0x20 DUP1 DUP4 MLOAD SWAP3 DUP4 DUP2 MSTORE ADD SWAP3 ADD SWAP1 PUSH1 0x0 JUMPDEST DUP2 DUP2 LT PUSH2 0x1F66 JUMPI POP POP POP SWAP1 JUMP JUMPDEST DUP3 MLOAD PUSH1 0x1 PUSH1 0x1 PUSH1 0xA0 SHL SUB AND DUP5 MSTORE PUSH1 0x20 SWAP4 DUP5 ADD SWAP4 SWAP1 SWAP3 ADD SWAP2 PUSH1 0x1 ADD PUSH2 0x1F59 JUMP JUMPDEST SWAP1 PUSH1 0x5 DUP3 LT ISZERO PUSH2 0x35C JUMPI MSTORE JUMP JUMPDEST ISZERO PUSH2 0x1F99 JUMPI JUMP JUMPDEST PUSH1 0x40 MLOAD PUSH3 0x461BCD PUSH1 0xE5 SHL DUP2 MSTORE PUSH1 0x20 PUSH1 0x4 DUP3 ADD MSTORE PUSH1 0x11 PUSH1 0x24 DUP3 ADD MSTORE PUSH17 0x125B9D985B1A5908189BDD5B9D1E481251 PUSH1 0x7A SHL PUSH1 0x44 DUP3 ADD MSTORE PUSH1 0x64 SWAP1 REVERT JUMPDEST ISZERO PUSH2 0x1FD9 JUMPI JUMP JUMPDEST PUSH1 0x40 MLOAD PUSH3 0x461BCD PUSH1 0xE5 SHL DUP2 MSTORE PUSH1 0x20 PUSH1 0x4 DUP3 ADD MSTORE PUSH1 0x11 PUSH1 0x24 DUP3 ADD MSTORE PUSH17 0x426F756E7479206E6F7420616374697665 PUSH1 0x78 SHL PUSH1 0x44 DUP3 ADD MSTORE PUSH1 0x64 SWAP1 REVERT JUMPDEST ISZERO PUSH2 0x2019 JUMPI JUMP JUMPDEST PUSH1 0x40 MLOAD PUSH3 0x461BCD PUSH1 0xE5 SHL DUP2 MSTORE PUSH1 0x20 PUSH1 0x4 DUP3 ADD MSTORE PUSH1 0x12 PUSH1 0x24 DUP3 ADD MSTORE PUSH18 0x10DBDB9D1C9858DD081A5CC81C185D5CD959 PUSH1 0x72 SHL PUSH1 0x44 DUP3 ADD MSTORE PUSH1 0x64 SWAP1 REVERT JUMPDEST SWAP1 DUP2 PUSH1 0x20 SWAP2 SUB SLT PUSH2 0x37E JUMPI MLOAD SWAP1 JUMP JUMPDEST SWAP1 DUP2 PUSH1 0x20 SWAP2 SUB SLT PUSH2 0x37E JUMPI MLOAD DUP1 ISZERO ISZERO DUP2 SUB PUSH2 0x37E JUMPI SWAP1 JUMP JUMPDEST PUSH1 0x4 DUP3 LT ISZERO PUSH2 0x35C JUMPI MSTORE JUMP JUMPDEST SWAP2 SWAP1 DUP3 ADD DUP1 SWAP3 GT PUSH2 0xF0C JUMPI JUMP JUMPDEST PUSH1 0x0 NOT DUP2 EQ PUSH2 0xF0C JUMPI PUSH1 0x1 ADD SWAP1 JUMP JUMPDEST PUSH1 0x40 SWAP2 SWAP5 SWAP4 SWAP3 PUSH2 0x20B6 DUP3 PUSH1 0x60 DUP2 ADD SWAP8 PUSH2 0x1EFA JUMP JUMPDEST PUSH1 0x20 DUP3 ADD MSTORE ADD MSTORE JUMP JUMPDEST ISZERO PUSH2 0x20C6 JUMPI JUMP JUMPDEST PUSH1 0x40 MLOAD PUSH3 0x461BCD PUSH1 0xE5 SHL DUP2 MSTORE PUSH1 0x20 PUSH1 0x4 DUP3 ADD MSTORE PUSH1 0xE PUSH1 0x24 DUP3 ADD MSTORE PUSH14 0x139BDD08185D5D1A1BDC9A5E9959 PUSH1 0x92 SHL PUSH1 0x44 DUP3 ADD MSTORE PUSH1 0x64 SWAP1 REVERT JUMPDEST SWAP1 PUSH1 0x4 DUP2 LT ISZERO PUSH2 0x35C JUMPI PUSH2 0xFF00 DUP3 SLOAD SWAP2 PUSH1 0x8 SHL AND SWAP1 PUSH2 0xFF00 NOT AND OR SWAP1 SSTORE JUMP JUMPDEST ISZERO PUSH2 0x2122 JUMPI JUMP JUMPDEST PUSH1 0x40 MLOAD PUSH3 0x461BCD PUSH1 0xE5 SHL DUP2 MSTORE PUSH1 0x20 PUSH1 0x4 DUP3 ADD MSTORE PUSH1 0xD PUSH1 0x24 DUP3 ADD MSTORE PUSH13 0x1499599D5B990819985A5B1959 PUSH1 0x9A SHL PUSH1 0x44 DUP3 ADD MSTORE PUSH1 0x64 SWAP1 REVERT JUMPDEST DUP2 ISZERO PUSH2 0x2161 JUMPI DIV SWAP1 JUMP JUMPDEST PUSH4 0x4E487B71 PUSH1 0xE0 SHL PUSH1 0x0 MSTORE PUSH1 0x12 PUSH1 0x4 MSTORE PUSH1 0x24 PUSH1 0x0 REVERT JUMPDEST SWAP1 DUP2 PUSH1 0x0 MSTORE PUSH1 0x3 PUSH1 0x20 MSTORE PUSH1 0x40 PUSH1 0x0 KECCAK256 SWAP2 DUP1 PUSH1 0x0 MSTORE PUSH1 0x5 PUSH1 0x20 MSTORE PUSH1 0x40 PUSH1 0x0 KECCAK256 DUP1 SLOAD ISZERO PUSH2 0x2379 JUMPI SWAP1 PUSH1 0x7 SWAP3 SWAP2 PUSH2 0x21AA DUP3 PUSH2 0x242D JUMP JUMPDEST SWAP5 SWAP1 SWAP6 ADD PUSH2 0x21B8 DUP7 DUP3 PUSH2 0x20FC JUMP JUMPDEST DUP1 SLOAD PUSH1 0xFF NOT AND PUSH1 0x2 OR SWAP1 SSTORE PUSH32 0x0 PUSH1 0x1 PUSH1 0x1 PUSH1 0xA0 SHL SUB AND SWAP3 PUSH1 0x0 JUMPDEST DUP3 SLOAD DUP2 LT ISZERO PUSH2 0x22CD JUMPI PUSH2 0x2204 DUP2 DUP5 PUSH2 0x1CC3 JUMP JUMPDEST PUSH1 0x1 DUP1 PUSH1 0xA0 SHL SUB SWAP2 SLOAD SWAP1 PUSH1 0x3 SHL SHR AND SWAP1 DUP5 PUSH1 0x0 MSTORE PUSH1 0x4 PUSH1 0x20 MSTORE PUSH1 0x40 DUP1 PUSH1 0x0 KECCAK256 PUSH1 0x0 SWAP1 PUSH1 0x1 DUP1 PUSH1 0xA0 SHL SUB DUP6 AND DUP3 MSTORE PUSH1 0x20 MSTORE KECCAK256 PUSH1 0xFF PUSH1 0x1 DUP3 ADD SLOAD PUSH1 0xA0 SHR AND SWAP1 PUSH1 0x4 DUP11 LT ISZERO PUSH2 0x35C JUMPI PUSH1 0x4 DUP3 LT ISZERO PUSH2 0x35C JUMPI PUSH1 0x3 DUP11 SWAP2 ADD SLOAD SWAP2 PUSH1 0x40 MLOAD SWAP5 PUSH4 0x15F09F43 PUSH1 0xE0 SHL DUP7 MSTORE PUSH1 0x4 DUP7 ADD MSTORE DUP8 PUSH1 0x24 DUP7 ADD MSTORE EQ PUSH1 0x44 DUP5 ADD MSTORE PUSH1 0x64 DUP4 ADD MSTORE PUSH1 0x20 DUP3 PUSH1 0x84 DUP2 PUSH1 0x0 DUP11 GAS CALL SWAP2 DUP3 ISZERO PUSH2 0xE8B JUMPI PUSH1 0x1 SWAP3 PUSH2 0x229F JUMPI JUMPDEST POP ADD PUSH2 0x21F1 JUMP JUMPDEST PUSH2 0x22BF SWAP1 PUSH1 0x20 RETURNDATASIZE DUP2 GT PUSH2 0x22C6 JUMPI JUMPDEST PUSH2 0x22B7 DUP2 DUP4 PUSH2 0x1D29 JUMP JUMPDEST DUP2 ADD SWAP1 PUSH2 0x2053 JUMP JUMPDEST POP CODESIZE PUSH2 0x2298 JUMP JUMPDEST POP RETURNDATASIZE PUSH2 0x22AD JUMP JUMPDEST POP SWAP5 SWAP2 SWAP4 SWAP3 POP POP PUSH2 0x22DF DUP3 DUP3 DUP6 PUSH2 0x2757 JUMP JUMPDEST PUSH1 0x0 DUP4 DUP2 MSTORE PUSH1 0x5 PUSH1 0x20 MSTORE PUSH1 0x40 SWAP1 KECCAK256 SLOAD SWAP1 DUP2 ISZERO PUSH2 0x234B JUMPI PUSH2 0x2710 DUP4 MUL SWAP3 DUP1 DUP5 DIV PUSH2 0x2710 EQ SWAP1 ISZERO OR ISZERO PUSH2 0xF0C JUMPI PUSH2 0x2346 PUSH2 0x2338 DUP4 PUSH32 0x5DEA6BB4BB437E9B4CF2CF14F32CC74A3D9C83B99DEAF3B6184BEE5C0C33408C SWAP6 PUSH2 0x2157 JUMP JUMPDEST SWAP3 JUMPDEST PUSH1 0x40 MLOAD SWAP4 DUP5 SWAP4 DUP5 PUSH2 0x20A2 JUMP JUMPDEST SUB SWAP1 LOG2 JUMP JUMPDEST PUSH32 0x5DEA6BB4BB437E9B4CF2CF14F32CC74A3D9C83B99DEAF3B6184BEE5C0C33408C SWAP3 POP PUSH2 0x2346 PUSH1 0x0 SWAP3 PUSH2 0x233A JUMP JUMPDEST POP POP PUSH1 0x7 DUP3 ADD DUP1 SLOAD PUSH1 0xFF NOT AND PUSH1 0x3 OR SWAP1 SSTORE PUSH1 0x1 DUP3 ADD SLOAD PUSH1 0x4 SWAP3 DUP4 ADD SLOAD PUSH1 0x40 MLOAD PUSH4 0xA9059CBB PUSH1 0xE0 SHL DUP2 MSTORE PUSH1 0x1 PUSH1 0x1 PUSH1 0xA0 SHL SUB SWAP3 SWAP1 SWAP3 AND SWAP4 DUP3 ADD SWAP4 SWAP1 SWAP4 MSTORE PUSH1 0x24 DUP2 ADD SWAP3 SWAP1 SWAP3 MSTORE SWAP1 PUSH1 0x20 DUP2 DUP1 PUSH1 0x44 DUP2 ADD SUB DUP2 PUSH1 0x0 PUSH32 0x0 PUSH1 0x1 PUSH1 0x1 PUSH1 0xA0 SHL SUB AND GAS CALL DUP1 ISZERO PUSH2 0xE8B JUMPI PUSH2 0x1E8F SWAP2 PUSH1 0x0 SWAP2 PUSH2 0x240E JUMPI JUMPDEST POP PUSH2 0x211B JUMP JUMPDEST PUSH2 0x2427 SWAP2 POP PUSH1 0x20 RETURNDATASIZE PUSH1 0x20 GT PUSH2 0xE84 JUMPI PUSH2 0xE76 DUP2 DUP4 PUSH2 0x1D29 JUMP JUMPDEST CODESIZE PUSH2 0x2408 JUMP JUMPDEST SWAP1 DUP2 PUSH1 0x0 MSTORE PUSH1 0x5 PUSH1 0x20 MSTORE PUSH1 0x40 PUSH1 0x0 KECCAK256 PUSH1 0x0 SWAP1 DUP2 DUP1 SWAP2 DUP2 SWAP1 DUP1 SLOAD SWAP1 JUMPDEST DUP2 DUP4 LT PUSH2 0x25E7 JUMPI POP POP POP DUP2 ISZERO PUSH2 0x25DA JUMPI PUSH1 0x64 DUP2 MUL SWAP1 DUP1 DUP3 DIV PUSH1 0x64 EQ SWAP1 ISZERO OR ISZERO PUSH2 0xF0C JUMPI DUP2 PUSH2 0x2475 SWAP2 PUSH2 0x2157 JUMP JUMPDEST SWAP2 PUSH1 0x64 DUP2 MUL SWAP1 DUP1 DUP3 DIV PUSH1 0x64 EQ SWAP1 ISZERO OR ISZERO PUSH2 0xF0C JUMPI PUSH1 0x42 SWAP2 PUSH2 0x2495 SWAP2 PUSH2 0x2157 JUMP JUMPDEST SWAP2 LT PUSH2 0x2533 JUMPI POP PUSH1 0x2 SWAP2 PUSH1 0x0 SWAP1 DUP1 PUSH1 0x0 MSTORE PUSH1 0x5 PUSH1 0x20 MSTORE PUSH1 0x40 PUSH1 0x0 KECCAK256 PUSH1 0x0 SWAP2 DUP2 SLOAD SWAP3 JUMPDEST DUP4 DUP2 LT PUSH2 0x24C5 JUMPI POP POP POP POP SWAP1 JUMP JUMPDEST DUP2 PUSH1 0x0 MSTORE PUSH1 0x4 PUSH1 0x20 MSTORE PUSH1 0xFF PUSH1 0x1 PUSH1 0x40 DUP1 PUSH1 0x0 KECCAK256 PUSH2 0x24E2 DUP6 DUP9 PUSH2 0x1CC3 JUMP JUMPDEST DUP5 DUP1 PUSH1 0xA0 SHL SUB SWAP2 SLOAD SWAP1 PUSH1 0x3 SHL SHR AND SWAP1 PUSH1 0x0 SWAP2 DUP5 DUP1 PUSH1 0xA0 SHL SUB AND DUP3 MSTORE PUSH1 0x20 MSTORE KECCAK256 ADD SLOAD PUSH1 0xA0 SHR AND PUSH1 0x4 DUP2 LT ISZERO PUSH2 0x35C JUMPI DUP8 EQ PUSH2 0x251F JUMPI JUMPDEST PUSH1 0x1 ADD PUSH2 0x24B7 JUMP JUMPDEST SWAP4 PUSH2 0x252B PUSH1 0x1 SWAP2 PUSH2 0x2093 JUMP JUMPDEST SWAP5 SWAP1 POP PUSH2 0x2517 JUMP JUMPDEST PUSH1 0x42 GT PUSH2 0x25D2 JUMPI PUSH1 0x1 SWAP2 PUSH1 0x0 SWAP1 DUP1 PUSH1 0x0 MSTORE PUSH1 0x5 PUSH1 0x20 MSTORE PUSH1 0x40 PUSH1 0x0 KECCAK256 PUSH1 0x0 SWAP1 DUP1 SLOAD SWAP3 JUMPDEST DUP4 DUP4 LT PUSH2 0x2563 JUMPI POP POP POP POP SWAP1 JUMP JUMPDEST DUP1 PUSH1 0x0 MSTORE PUSH1 0x4 PUSH1 0x20 MSTORE PUSH1 0xFF DUP8 PUSH1 0x40 DUP1 PUSH1 0x0 KECCAK256 PUSH2 0x257F DUP8 DUP8 PUSH2 0x1CC3 JUMP JUMPDEST SWAP1 SLOAD PUSH1 0x3 SWAP2 SWAP1 SWAP2 SHL SHR PUSH1 0x1 PUSH1 0x1 PUSH1 0xA0 SHL SUB AND PUSH1 0x0 SWAP1 DUP2 MSTORE PUSH1 0x20 SWAP2 SWAP1 SWAP2 MSTORE KECCAK256 ADD SLOAD PUSH1 0xA0 SHR AND SWAP3 PUSH1 0x4 DUP5 LT ISZERO PUSH2 0x35C JUMPI DUP8 DUP1 SWAP5 EQ PUSH2 0x25BF JUMPI JUMPDEST DUP4 ADD SWAP3 POP PUSH2 0x2555 JUMP JUMPDEST SWAP5 PUSH2 0x25CA DUP5 SWAP2 PUSH2 0x2093 JUMP JUMPDEST SWAP6 SWAP1 POP PUSH2 0x25B6 JUMP JUMPDEST PUSH1 0x0 SWAP2 POP DUP2 SWAP1 JUMP JUMPDEST POP POP POP SWAP1 POP PUSH1 0x0 SWAP1 PUSH1 0x0 SWAP1 JUMP JUMPDEST SWAP1 SWAP2 SWAP3 SWAP4 DUP8 PUSH1 0x0 MSTORE PUSH1 0x4 PUSH1 0x20 MSTORE PUSH1 0x40 DUP1 PUSH1 0x0 KECCAK256 PUSH2 0x2604 DUP7 DUP6 PUSH2 0x1CC3 JUMP JUMPDEST SWAP1 SLOAD PUSH1 0x3 SWAP2 DUP3 SHL SHR PUSH1 0x1 PUSH1 0x1 PUSH1 0xA0 SHL SUB AND PUSH1 0x0 SWAP1 DUP2 MSTORE PUSH1 0x20 SWAP3 SWAP1 SWAP3 MSTORE SWAP2 SWAP1 KECCAK256 SWAP1 DUP2 ADD SLOAD PUSH1 0x2 DUP3 ADD SLOAD SWAP2 SWAP7 SWAP2 DUP1 DUP3 MUL SWAP2 DUP1 ISZERO SWAP1 DUP4 DIV SWAP1 SWAP2 EQ OR ISZERO PUSH2 0xF0C JUMPI PUSH1 0x1 PUSH2 0x2653 PUSH1 0x64 PUSH1 0xFF SWAP4 DIV DUP1 SWAP6 PUSH2 0x2086 JUMP JUMPDEST SWAP8 ADD SLOAD PUSH1 0xA0 SHR AND PUSH1 0x4 DUP2 LT ISZERO PUSH2 0x35C JUMPI PUSH1 0x2 DUP2 SUB PUSH2 0x2682 JUMPI POP PUSH1 0x1 SWAP2 PUSH2 0x2678 SWAP2 PUSH2 0x2086 JUMP JUMPDEST SWAP4 JUMPDEST ADD SWAP2 SWAP1 PUSH2 0x2448 JUMP JUMPDEST SWAP1 SWAP5 SWAP2 SWAP1 PUSH1 0x1 EQ PUSH2 0x2697 JUMPI JUMPDEST POP PUSH1 0x1 SWAP1 PUSH2 0x267A JUMP JUMPDEST PUSH2 0x26A4 SWAP1 PUSH1 0x1 SWAP3 SWAP8 PUSH2 0x2086 JUMP JUMPDEST SWAP6 SWAP1 PUSH2 0x268E JUMP JUMPDEST SWAP2 SWAP1 DUP3 SUB SWAP2 DUP3 GT PUSH2 0xF0C JUMPI JUMP JUMPDEST ISZERO PUSH2 0x26BF JUMPI JUMP JUMPDEST PUSH1 0x40 MLOAD PUSH3 0x461BCD PUSH1 0xE5 SHL DUP2 MSTORE PUSH1 0x20 PUSH1 0x4 DUP3 ADD MSTORE PUSH1 0x13 PUSH1 0x24 DUP3 ADD MSTORE PUSH19 0x119959481D1C985B9CD9995C8819985A5B1959 PUSH1 0x6A SHL PUSH1 0x44 DUP3 ADD MSTORE PUSH1 0x64 SWAP1 REVERT JUMPDEST PUSH1 0x1 PUSH1 0x1 PUSH1 0x40 SHL SUB DUP2 GT PUSH2 0xC83 JUMPI PUSH1 0x5 SHL PUSH1 0x20 ADD SWAP1 JUMP JUMPDEST SWAP1 PUSH2 0x271B DUP3 PUSH2 0x26FA JUMP JUMPDEST PUSH2 0x2728 PUSH1 0x40 MLOAD SWAP2 DUP3 PUSH2 0x1D29 JUMP JUMPDEST DUP3 DUP2 MSTORE DUP1 SWAP3 PUSH2 0x2739 PUSH1 0x1F NOT SWAP2 PUSH2 0x26FA JUMP JUMPDEST ADD SWAP1 PUSH1 0x20 CALLDATASIZE SWAP2 ADD CALLDATACOPY JUMP JUMPDEST DUP1 MLOAD DUP3 LT ISZERO PUSH2 0x1CDB JUMPI PUSH1 0x20 SWAP2 PUSH1 0x5 SHL ADD ADD SWAP1 JUMP JUMPDEST SWAP1 SWAP2 SWAP3 DUP2 PUSH1 0x0 MSTORE PUSH1 0x3 PUSH1 0x20 MSTORE PUSH1 0x40 PUSH1 0x0 KECCAK256 SWAP3 DUP3 PUSH1 0x0 MSTORE PUSH1 0x5 PUSH1 0x20 MSTORE PUSH1 0x40 PUSH1 0x0 KECCAK256 SWAP1 PUSH1 0x4 DUP6 ADD SLOAD SWAP6 PUSH1 0x5 DUP8 MUL DUP8 DUP2 DIV PUSH1 0x5 EQ DUP9 ISZERO OR ISZERO PUSH2 0xF0C JUMPI PUSH1 0x64 SWAP1 DIV SWAP6 PUSH2 0x279F DUP8 DUP10 PUSH2 0x26AB JUMP JUMPDEST SWAP1 PUSH1 0x4 DUP5 LT ISZERO SWAP9 DUP10 PUSH2 0x35C JUMPI DUP5 ISZERO DUP1 ISZERO PUSH2 0x2D67 JUMPI JUMPDEST PUSH2 0x2B72 JUMPI POP POP DUP2 PUSH1 0x0 SWAP2 DUP8 PUSH1 0x0 MSTORE PUSH1 0x5 PUSH1 0x20 MSTORE PUSH1 0x40 PUSH1 0x0 KECCAK256 PUSH1 0x0 SWAP1 DUP1 SLOAD SWAP2 JUMPDEST DUP3 DUP2 LT PUSH2 0x2AF0 JUMPI POP POP POP PUSH2 0x27EF SWAP3 PUSH2 0x27EA SWAP2 PUSH2 0x2086 JUMP JUMPDEST PUSH2 0x2157 JUMP JUMPDEST SWAP7 PUSH2 0x27F9 DUP3 PUSH2 0x26FA JUMP JUMPDEST SWAP3 PUSH2 0x2807 PUSH1 0x40 MLOAD SWAP5 DUP6 PUSH2 0x1D29 JUMP JUMPDEST DUP3 DUP5 MSTORE PUSH1 0x1F NOT PUSH2 0x2816 DUP5 PUSH2 0x26FA JUMP JUMPDEST ADD CALLDATASIZE PUSH1 0x20 DUP7 ADD CALLDATACOPY PUSH2 0x282F PUSH2 0x2829 DUP5 PUSH2 0x2711 JUMP JUMPDEST SWAP4 PUSH2 0x2711 JUMP JUMPDEST SWAP5 PUSH1 0x0 SWAP7 DUP8 JUMPDEST DUP3 SLOAD DUP2 LT ISZERO PUSH2 0x29EB JUMPI DUP5 PUSH2 0x2849 DUP3 DUP6 PUSH2 0x1CC3 JUMP JUMPDEST SWAP1 SLOAD PUSH1 0x0 DUP14 DUP2 MSTORE PUSH1 0x4 PUSH1 0x20 SWAP1 DUP2 MSTORE PUSH1 0x40 DUP1 DUP4 KECCAK256 PUSH1 0x3 SWAP6 SWAP1 SWAP6 SHL SWAP4 SWAP1 SWAP4 SHR PUSH1 0x1 PUSH1 0x1 PUSH1 0xA0 SHL SUB AND DUP1 DUP4 MSTORE SWAP4 SWAP1 MSTORE KECCAK256 PUSH1 0x1 DUP2 ADD SLOAD PUSH1 0xA0 SHR PUSH1 0xFF AND SWAP3 PUSH2 0x35C JUMPI PUSH1 0x4 DUP4 LT ISZERO PUSH2 0x35C JUMPI DUP7 DUP16 SWAP4 EQ DUP1 PUSH2 0x29DC JUMPI JUMPDEST PUSH2 0x28A9 JUMPI JUMPDEST POP POP POP PUSH1 0x1 ADD PUSH2 0x2835 JUMP JUMPDEST PUSH1 0x20 PUSH2 0x28D1 PUSH1 0x3 DUP4 SWAP7 SWAP15 SWAP5 SWAP6 SWAP7 PUSH1 0x6 PUSH2 0x2901 SWAP6 ADD PUSH1 0x1 PUSH1 0xFF NOT DUP3 SLOAD AND OR SWAP1 SSTORE ADD SWAP6 DUP7 SLOAD PUSH2 0x2086 JUMP JUMPDEST PUSH1 0x40 MLOAD PUSH4 0xA9059CBB PUSH1 0xE0 SHL DUP2 MSTORE PUSH1 0x1 PUSH1 0x1 PUSH1 0xA0 SHL SUB DUP7 AND PUSH1 0x4 DUP3 ADD MSTORE PUSH1 0x24 DUP2 ADD SWAP2 SWAP1 SWAP2 MSTORE SWAP2 DUP3 SWAP1 DUP2 SWAP1 PUSH1 0x44 DUP3 ADD SWAP1 JUMP JUMPDEST SUB DUP2 PUSH1 0x0 PUSH32 0x0 PUSH1 0x1 PUSH1 0x1 PUSH1 0xA0 SHL SUB AND GAS CALL SWAP1 DUP2 ISZERO PUSH2 0xE8B JUMPI PUSH1 0x0 SWAP2 PUSH2 0x29BE JUMPI JUMPDEST POP ISZERO PUSH2 0x2980 JUMPI PUSH1 0x1 SWAP3 DUP15 PUSH2 0x2975 SWAP4 PUSH2 0x2958 DUP5 DUP14 PUSH2 0x2743 JUMP JUMPDEST MSTORE PUSH2 0x2963 DUP4 DUP12 PUSH2 0x2743 JUMP JUMPDEST MSTORE SLOAD PUSH2 0x296F DUP3 DUP13 PUSH2 0x2743 JUMP JUMPDEST MSTORE PUSH2 0x2093 JUMP JUMPDEST SWAP9 SWAP1 POP DUP12 CODESIZE DUP1 PUSH2 0x289E JUMP JUMPDEST PUSH1 0x40 MLOAD PUSH3 0x461BCD PUSH1 0xE5 SHL DUP2 MSTORE PUSH1 0x20 PUSH1 0x4 DUP3 ADD MSTORE PUSH1 0x16 PUSH1 0x24 DUP3 ADD MSTORE PUSH22 0x14995DD85C99081D1C985B9CD9995C8819985A5B1959 PUSH1 0x52 SHL PUSH1 0x44 DUP3 ADD MSTORE PUSH1 0x64 SWAP1 REVERT JUMPDEST PUSH2 0x29D6 SWAP2 POP PUSH1 0x20 RETURNDATASIZE DUP2 GT PUSH2 0xE84 JUMPI PUSH2 0xE76 DUP2 DUP4 PUSH2 0x1D29 JUMP JUMPDEST CODESIZE PUSH2 0x2940 JUMP JUMPDEST POP PUSH1 0xFF PUSH1 0x6 DUP3 ADD SLOAD AND ISZERO PUSH2 0x2899 JUMP JUMPDEST POP PUSH1 0x2 SLOAD PUSH1 0x40 MLOAD PUSH4 0xA9059CBB PUSH1 0xE0 SHL DUP2 MSTORE PUSH1 0x1 PUSH1 0x1 PUSH1 0xA0 SHL SUB SWAP1 SWAP2 AND PUSH1 0x4 DUP3 ADD MSTORE PUSH1 0x24 DUP2 ADD SWAP11 SWAP1 SWAP11 MSTORE SWAP10 POP SWAP7 SWAP8 SWAP5 SWAP7 POP SWAP2 SWAP5 POP SWAP2 SWAP3 SWAP2 POP PUSH1 0x20 SWAP1 POP DUP2 DUP1 PUSH1 0x44 DUP2 ADD SUB DUP2 PUSH1 0x0 PUSH32 0x0 PUSH1 0x1 PUSH1 0x1 PUSH1 0xA0 SHL SUB AND GAS CALL SWAP4 DUP5 ISZERO PUSH2 0xE8B JUMPI PUSH2 0x2AC3 PUSH2 0x2AB5 SWAP5 PUSH2 0x2AA1 PUSH32 0xD351CD492A912258F00082A96C5A8BAE620E3808063036B80A6F09AFA78DAE9B SWAP8 PUSH2 0x2346 SWAP6 PUSH1 0x0 SWAP2 PUSH2 0x2AD1 JUMPI JUMPDEST POP PUSH2 0x26B8 JUMP JUMPDEST PUSH1 0x40 MLOAD SWAP6 DUP7 SWAP6 PUSH1 0x60 DUP8 MSTORE PUSH1 0x60 DUP8 ADD SWAP1 PUSH2 0x1F48 JUMP JUMPDEST SWAP1 DUP6 DUP3 SUB PUSH1 0x20 DUP8 ADD MSTORE PUSH2 0x1DE8 JUMP JUMPDEST SWAP1 DUP4 DUP3 SUB PUSH1 0x40 DUP6 ADD MSTORE PUSH2 0x1DE8 JUMP JUMPDEST PUSH2 0x2AEA SWAP2 POP PUSH1 0x20 RETURNDATASIZE PUSH1 0x20 GT PUSH2 0xE84 JUMPI PUSH2 0xE76 DUP2 DUP4 PUSH2 0x1D29 JUMP JUMPDEST CODESIZE PUSH2 0x2A9B JUMP JUMPDEST SWAP1 SWAP2 SWAP3 SWAP4 POP PUSH1 0x40 PUSH2 0x2B01 DUP3 DUP5 PUSH2 0x1CC3 JUMP JUMPDEST SWAP1 SLOAD PUSH1 0x0 DUP14 DUP2 MSTORE PUSH1 0x4 PUSH1 0x20 SWAP1 DUP2 MSTORE DUP5 DUP3 KECCAK256 PUSH1 0x3 SWAP5 SWAP1 SWAP5 SHL SWAP3 SWAP1 SWAP3 SHR PUSH1 0x1 PUSH1 0x1 PUSH1 0xA0 SHL SUB AND DUP2 MSTORE SWAP2 SWAP1 MSTORE KECCAK256 PUSH1 0x1 DUP2 ADD SLOAD PUSH1 0xA0 SHR PUSH1 0xFF AND DUP14 PUSH2 0x35C JUMPI PUSH1 0x4 DUP2 LT ISZERO PUSH2 0x35C JUMPI DUP9 SUB PUSH2 0x2B59 JUMPI JUMPDEST POP PUSH1 0x1 ADD SWAP1 DUP6 SWAP4 SWAP3 SWAP2 PUSH2 0x27D3 JUMP JUMPDEST PUSH1 0x1 SWAP2 SWAP6 PUSH1 0x3 PUSH2 0x2B6B SWAP3 ADD SLOAD SWAP1 PUSH2 0x2086 JUMP JUMPDEST SWAP5 SWAP1 PUSH2 0x2B4B JUMP JUMPDEST SWAP1 SWAP4 POP PUSH2 0x2BE5 SWAP5 SWAP6 SWAP9 POP PUSH2 0x2B8B SWAP3 POP DUP8 SWAP7 SWAP8 SWAP2 POP PUSH2 0x26AB JUMP JUMPDEST PUSH1 0x2 SLOAD PUSH1 0x40 MLOAD PUSH4 0xA9059CBB PUSH1 0xE0 SHL DUP2 MSTORE PUSH1 0x1 PUSH1 0x1 PUSH1 0xA0 SHL SUB SWAP2 DUP3 AND PUSH1 0x4 DUP3 ADD MSTORE PUSH1 0x24 DUP2 ADD SWAP7 SWAP1 SWAP7 MSTORE PUSH32 0x0 AND SWAP5 SWAP3 PUSH1 0x20 SWAP1 DUP5 SWAP1 DUP2 SWAP1 PUSH1 0x44 DUP3 ADD SWAP1 JUMP JUMPDEST SUB DUP2 PUSH1 0x0 DUP10 GAS CALL SWAP2 DUP3 ISZERO PUSH2 0xE8B JUMPI PUSH2 0x2C0A PUSH1 0x20 SWAP4 PUSH2 0x2C3F SWAP6 PUSH1 0x0 SWAP2 PUSH2 0x2D50 JUMPI POP PUSH2 0x26B8 JUMP JUMPDEST PUSH1 0x1 ADD SLOAD PUSH1 0x40 MLOAD PUSH4 0xA9059CBB PUSH1 0xE0 SHL DUP2 MSTORE PUSH1 0x1 PUSH1 0x1 PUSH1 0xA0 SHL SUB SWAP1 SWAP2 AND PUSH1 0x4 DUP3 ADD MSTORE PUSH1 0x24 DUP2 ADD SWAP2 SWAP1 SWAP2 MSTORE SWAP2 DUP3 SWAP1 DUP2 SWAP1 PUSH1 0x44 DUP3 ADD SWAP1 JUMP JUMPDEST SUB DUP2 PUSH1 0x0 DUP8 GAS CALL DUP1 ISZERO PUSH2 0xE8B JUMPI PUSH2 0x2C5D SWAP2 PUSH1 0x0 SWAP2 PUSH2 0x240E JUMPI POP PUSH2 0x211B JUMP JUMPDEST PUSH1 0x0 JUMPDEST DUP2 SLOAD DUP2 LT ISZERO PUSH2 0x2D4A JUMPI PUSH2 0x2CCD PUSH1 0x20 PUSH2 0x2C78 DUP4 DUP6 PUSH2 0x1CC3 JUMP JUMPDEST SWAP1 SLOAD PUSH1 0x0 DUP9 DUP2 MSTORE PUSH1 0x4 DUP1 DUP6 MSTORE PUSH1 0x40 DUP1 DUP4 KECCAK256 PUSH1 0x3 SWAP6 DUP7 SHL SWAP5 SWAP1 SWAP5 SHR PUSH1 0x1 PUSH1 0x1 PUSH1 0xA0 SHL SUB AND DUP1 DUP5 MSTORE SWAP4 DUP7 MSTORE SWAP2 DUP3 SWAP1 KECCAK256 SWAP1 SWAP4 ADD SLOAD SWAP1 MLOAD PUSH4 0xA9059CBB PUSH1 0xE0 SHL DUP2 MSTORE SWAP3 DUP4 ADD SWAP2 SWAP1 SWAP2 MSTORE PUSH1 0x24 DUP3 ADD MSTORE SWAP2 DUP3 SWAP1 DUP2 SWAP1 PUSH1 0x44 DUP3 ADD SWAP1 JUMP JUMPDEST SUB DUP2 PUSH1 0x0 DUP9 GAS CALL SWAP1 DUP2 ISZERO PUSH2 0xE8B JUMPI PUSH1 0x0 SWAP2 PUSH2 0x2D2C JUMPI JUMPDEST POP ISZERO PUSH2 0x2CF1 JUMPI PUSH1 0x1 ADD PUSH2 0x2C60 JUMP JUMPDEST PUSH1 0x40 MLOAD PUSH3 0x461BCD PUSH1 0xE5 SHL DUP2 MSTORE PUSH1 0x20 PUSH1 0x4 DUP3 ADD MSTORE PUSH1 0x13 PUSH1 0x24 DUP3 ADD MSTORE PUSH19 0x14DD185AD9481C995D1D5C9B8819985A5B1959 PUSH1 0x6A SHL PUSH1 0x44 DUP3 ADD MSTORE PUSH1 0x64 SWAP1 REVERT JUMPDEST PUSH2 0x2D44 SWAP2 POP PUSH1 0x20 RETURNDATASIZE DUP2 GT PUSH2 0xE84 JUMPI PUSH2 0xE76 DUP2 DUP4 PUSH2 0x1D29 JUMP JUMPDEST CODESIZE PUSH2 0x2CE3 JUMP JUMPDEST POP POP POP POP JUMP JUMPDEST PUSH2 0x2AEA SWAP2 POP DUP6 RETURNDATASIZE DUP8 GT PUSH2 0xE84 JUMPI PUSH2 0xE76 DUP2 DUP4 PUSH2 0x1D29 JUMP JUMPDEST POP DUP4 ISZERO PUSH2 0x27B4 JUMP INVALID LOG2 PUSH5 0x6970667358 0x22 SLT KECCAK256 SWAP7 CALLDATASIZE 0xEB NOT PUSH0 BLOBHASH 0x2C SWAP12 0xEE BLOBHASH 0x24 0xAE DUP4 JUMP GAS 0xCF PREVRANDAO 0xDE 0xE CODECOPY POP PREVRANDAO 0x29 DUP9 MOD EXTCODECOPY OR DUP12 PUSH5 0xA4412A6473 PUSH16 0x6C634300081C00330000000000000000 "},"methodIdentifiers":{"ANALYSIS_TIMEOUT()":"cb522370","CONSENSUS_THRESHOLD()":"bca125f0","MIN_ANALYSES_TO_RESOLVE()":"9e6cc94e","MIN_STAKE_AMOUNT()":"27ed7188","PLATFORM_FEE_PERCENT()":"560d52d4","analyses(uint256,address)":"bdeb4c2f","analystSubmissionIds(uint256,address)":"6fa971c5","bounties(uint256)":"dc2f8744","bountyAnalysts(uint256,uint256)":"0be8ff00","bountyCounter()":"a0d59787","createBounty(string,string,uint256,uint256,string)":"b2bc1fbd","emergencyWithdraw(address,uint256)":"95ccea67","feeCollector()":"c415b95c","getAnalysis(uint256,address)":"eab4e425","getBounty(uint256)":"ee8c4bbf","getBountyAnalysts(uint256)":"c7d22e9c","getTotalBounties()":"0c12d5a4","getUserBounties(address)":"6591a185","owner()":"8da5cb5b","pause()":"8456cb59","paused()":"5c975abb","reputationSystem()":"6587eda1","resolveBounty(uint256)":"3451c0bc","setFeeCollector(address)":"a42dce80","submitAnalysis(uint256,uint8,uint256,uint256,string)":"1a147e37","threatToken()":"9008e13f","unpause()":"3f4ba83a","userBounties(address,uint256)":"2b9234b9"}}}}}