{"contracts/upgradeable/BountyManagerV2.sol":{"BountyManagerV2":{"abi":[{"inputs":[],"stateMutability":"nonpayable","type":"constructor"},{"inputs":[],"name":"AccessControlBadConfirmation","type":"error"},{"inputs":[{"internalType":"address","name":"account","type":"address"},{"internalType":"bytes32","name":"neededRole","type":"bytes32"}],"name":"AccessControlUnauthorizedAccount","type":"error"},{"inputs":[{"internalType":"address","name":"target","type":"address"}],"name":"AddressEmptyCode","type":"error"},{"inputs":[{"internalType":"address","name":"implementation","type":"address"}],"name":"ERC1967InvalidImplementation","type":"error"},{"inputs":[],"name":"ERC1967NonPayable","type":"error"},{"inputs":[],"name":"EnforcedPause","type":"error"},{"inputs":[],"name":"ExpectedPause","type":"error"},{"inputs":[],"name":"FailedCall","type":"error"},{"inputs":[],"name":"InvalidInitialization","type":"error"},{"inputs":[],"name":"NotInitializing","type":"error"},{"inputs":[],"name":"ReentrancyGuardReentrantCall","type":"error"},{"inputs":[],"name":"UUPSUnauthorizedCallContext","type":"error"},{"inputs":[{"internalType":"bytes32","name":"slot","type":"bytes32"}],"name":"UUPSUnsupportedProxiableUUID","type":"error"},{"anonymous":false,"inputs":[{"indexed":true,"internalType":"uint256","name":"bountyId","type":"uint256"},{"indexed":true,"internalType":"address","name":"analyst","type":"address"},{"indexed":false,"internalType":"enum BountyManagerV2.ThreatVerdict","name":"verdict","type":"uint8"},{"indexed":false,"internalType":"uint256","name":"stakeAmount","type":"uint256"},{"indexed":false,"internalType":"string","name":"analysisHash","type":"string"}],"name":"AnalysisSubmitted","type":"event"},{"anonymous":false,"inputs":[{"indexed":true,"internalType":"uint256","name":"bountyId","type":"uint256"},{"indexed":true,"internalType":"address","name":"creator","type":"address"},{"indexed":false,"internalType":"string","name":"artifactHash","type":"string"},{"indexed":false,"internalType":"uint256","name":"reward","type":"uint256"},{"indexed":false,"internalType":"uint256","name":"deadline","type":"uint256"}],"name":"BountyCreated","type":"event"},{"anonymous":false,"inputs":[{"indexed":true,"internalType":"uint256","name":"bountyId","type":"uint256"},{"indexed":false,"internalType":"enum BountyManagerV2.ThreatVerdict","name":"consensusVerdict","type":"uint8"},{"indexed":false,"internalType":"uint256","name":"totalReward","type":"uint256"},{"indexed":false,"internalType":"uint256","name":"winnerCount","type":"uint256"}],"name":"BountyResolved","type":"event"},{"anonymous":false,"inputs":[{"indexed":true,"internalType":"uint256","name":"disputeId","type":"uint256"},{"indexed":true,"internalType":"uint256","name":"bountyId","type":"uint256"},{"indexed":true,"internalType":"address","name":"disputer","type":"address"},{"indexed":false,"internalType":"string","name":"reason","type":"string"}],"name":"DisputeCreated","type":"event"},{"anonymous":false,"inputs":[{"indexed":true,"internalType":"uint256","name":"disputeId","type":"uint256"},{"indexed":true,"internalType":"uint256","name":"bountyId","type":"uint256"},{"indexed":false,"internalType":"enum BountyManagerV2.DisputeStatus","name":"status","type":"uint8"},{"indexed":false,"internalType":"address","name":"resolver","type":"address"}],"name":"DisputeResolved","type":"event"},{"anonymous":false,"inputs":[{"indexed":false,"internalType":"uint64","name":"version","type":"uint64"}],"name":"Initialized","type":"event"},{"anonymous":false,"inputs":[{"indexed":false,"internalType":"address","name":"account","type":"address"}],"name":"Paused","type":"event"},{"anonymous":false,"inputs":[{"indexed":true,"internalType":"uint256","name":"bountyId","type":"uint256"},{"indexed":true,"internalType":"address","name":"analyst","type":"address"},{"indexed":false,"internalType":"uint256","name":"rewardAmount","type":"uint256"}],"name":"RewardDistributed","type":"event"},{"anonymous":false,"inputs":[{"indexed":true,"internalType":"bytes32","name":"role","type":"bytes32"},{"indexed":true,"internalType":"bytes32","name":"previousAdminRole","type":"bytes32"},{"indexed":true,"internalType":"bytes32","name":"newAdminRole","type":"bytes32"}],"name":"RoleAdminChanged","type":"event"},{"anonymous":false,"inputs":[{"indexed":true,"internalType":"bytes32","name":"role","type":"bytes32"},{"indexed":true,"internalType":"address","name":"account","type":"address"},{"indexed":true,"internalType":"address","name":"sender","type":"address"}],"name":"RoleGranted","type":"event"},{"anonymous":false,"inputs":[{"indexed":true,"internalType":"bytes32","name":"role","type":"bytes32"},{"indexed":true,"internalType":"address","name":"account","type":"address"},{"indexed":true,"internalType":"address","name":"sender","type":"address"}],"name":"RoleRevoked","type":"event"},{"anonymous":false,"inputs":[{"indexed":true,"internalType":"uint256","name":"bountyId","type":"uint256"},{"indexed":true,"internalType":"address","name":"analyst","type":"address"},{"indexed":false,"internalType":"uint256","name":"slashedAmount","type":"uint256"}],"name":"StakeSlashed","type":"event"},{"anonymous":false,"inputs":[{"indexed":true,"internalType":"address","name":"resolver","type":"address"}],"name":"TrustedResolverAdded","type":"event"},{"anonymous":false,"inputs":[{"indexed":true,"internalType":"address","name":"resolver","type":"address"}],"name":"TrustedResolverRemoved","type":"event"},{"anonymous":false,"inputs":[{"indexed":false,"internalType":"address","name":"account","type":"address"}],"name":"Unpaused","type":"event"},{"anonymous":false,"inputs":[{"indexed":true,"internalType":"address","name":"implementation","type":"address"}],"name":"Upgraded","type":"event"},{"inputs":[],"name":"ANALYSIS_TIMEOUT","outputs":[{"internalType":"uint256","name":"","type":"uint256"}],"stateMutability":"view","type":"function"},{"inputs":[],"name":"CONSENSUS_THRESHOLD","outputs":[{"internalType":"uint256","name":"","type":"uint256"}],"stateMutability":"view","type":"function"},{"inputs":[],"name":"DEFAULT_ADMIN_ROLE","outputs":[{"internalType":"bytes32","name":"","type":"bytes32"}],"stateMutability":"view","type":"function"},{"inputs":[],"name":"DISPUTE_PERIOD","outputs":[{"internalType":"uint256","name":"","type":"uint256"}],"stateMutability":"view","type":"function"},{"inputs":[],"name":"MIN_ANALYSES_TO_RESOLVE","outputs":[{"internalType":"uint256","name":"","type":"uint256"}],"stateMutability":"view","type":"function"},{"inputs":[],"name":"MIN_DISPUTE_STAKE","outputs":[{"internalType":"uint256","name":"","type":"uint256"}],"stateMutability":"view","type":"function"},{"inputs":[],"name":"MIN_STAKE_AMOUNT","outputs":[{"internalType":"uint256","name":"","type":"uint256"}],"stateMutability":"view","type":"function"},{"inputs":[],"name":"OPERATOR_ROLE","outputs":[{"internalType":"bytes32","name":"","type":"bytes32"}],"stateMutability":"view","type":"function"},{"inputs":[],"name":"PAUSER_ROLE","outputs":[{"internalType":"bytes32","name":"","type":"bytes32"}],"stateMutability":"view","type":"function"},{"inputs":[],"name":"PLATFORM_FEE_PERCENT","outputs":[{"internalType":"uint256","name":"","type":"uint256"}],"stateMutability":"view","type":"function"},{"inputs":[],"name":"UPGRADER_ROLE","outputs":[{"internalType":"bytes32","name":"","type":"bytes32"}],"stateMutability":"view","type":"function"},{"inputs":[],"name":"UPGRADE_INTERFACE_VERSION","outputs":[{"internalType":"string","name":"","type":"string"}],"stateMutability":"view","type":"function"},{"inputs":[{"internalType":"address","name":"resolver","type":"address"}],"name":"addTrustedResolver","outputs":[],"stateMutability":"nonpayable","type":"function"},{"inputs":[{"internalType":"uint256","name":"","type":"uint256"},{"internalType":"address","name":"","type":"address"}],"name":"analyses","outputs":[{"internalType":"address","name":"analyst","type":"address"},{"internalType":"enum BountyManagerV2.ThreatVerdict","name":"verdict","type":"uint8"},{"internalType":"uint256","name":"confidence","type":"uint256"},{"internalType":"uint256","name":"stakeAmount","type":"uint256"},{"internalType":"string","name":"analysisHash","type":"string"},{"internalType":"uint256","name":"submittedAt","type":"uint256"},{"internalType":"bool","name":"rewarded","type":"bool"}],"stateMutability":"view","type":"function"},{"inputs":[{"internalType":"uint256","name":"","type":"uint256"},{"internalType":"address","name":"","type":"address"}],"name":"analystSubmissionIds","outputs":[{"internalType":"uint256","name":"","type":"uint256"}],"stateMutability":"view","type":"function"},{"inputs":[{"internalType":"uint256","name":"","type":"uint256"}],"name":"bounties","outputs":[{"internalType":"uint256","name":"id","type":"uint256"},{"internalType":"address","name":"creator","type":"address"},{"internalType":"string","name":"artifactHash","type":"string"},{"internalType":"enum BountyManagerV2.ArtifactType","name":"artifactType","type":"uint8"},{"internalType":"uint256","name":"rewardAmount","type":"uint256"},{"internalType":"uint256","name":"deadline","type":"uint256"},{"internalType":"string","name":"description","type":"string"},{"internalType":"enum BountyManagerV2.BountyStatus","name":"status","type":"uint8"},{"internalType":"enum BountyManagerV2.ThreatVerdict","name":"consensusVerdict","type":"uint8"},{"internalType":"uint256","name":"totalStaked","type":"uint256"},{"internalType":"uint256","name":"analysisCount","type":"uint256"},{"internalType":"uint256","name":"createdAt","type":"uint256"}],"stateMutability":"view","type":"function"},{"inputs":[{"internalType":"uint256","name":"","type":"uint256"},{"internalType":"uint256","name":"","type":"uint256"}],"name":"bountyAnalysts","outputs":[{"internalType":"address","name":"","type":"address"}],"stateMutability":"view","type":"function"},{"inputs":[],"name":"bountyCounter","outputs":[{"internalType":"uint256","name":"","type":"uint256"}],"stateMutability":"view","type":"function"},{"inputs":[{"internalType":"uint256","name":"","type":"uint256"},{"internalType":"uint256","name":"","type":"uint256"}],"name":"bountyDisputes","outputs":[{"internalType":"uint256","name":"id","type":"uint256"},{"internalType":"uint256","name":"bountyId","type":"uint256"},{"internalType":"address","name":"disputer","type":"address"},{"internalType":"string","name":"reason","type":"string"},{"internalType":"uint256","name":"stakeAmount","type":"uint256"},{"internalType":"enum BountyManagerV2.DisputeStatus","name":"status","type":"uint8"},{"internalType":"uint256","name":"createdAt","type":"uint256"},{"internalType":"uint256","name":"resolvedAt","type":"uint256"},{"internalType":"address","name":"resolver","type":"address"}],"stateMutability":"view","type":"function"},{"inputs":[{"internalType":"string","name":"artifactHash","type":"string"},{"internalType":"enum BountyManagerV2.ArtifactType","name":"artifactType","type":"uint8"},{"internalType":"uint256","name":"rewardAmount","type":"uint256"},{"internalType":"uint256","name":"deadline","type":"uint256"},{"internalType":"string","name":"description","type":"string"}],"name":"createBounty","outputs":[{"internalType":"uint256","name":"","type":"uint256"}],"stateMutability":"nonpayable","type":"function"},{"inputs":[{"internalType":"uint256","name":"bountyId","type":"uint256"},{"internalType":"string","name":"reason","type":"string"}],"name":"createDispute","outputs":[],"stateMutability":"nonpayable","type":"function"},{"inputs":[],"name":"disputeCounter","outputs":[{"internalType":"uint256","name":"","type":"uint256"}],"stateMutability":"view","type":"function"},{"inputs":[],"name":"feeCollector","outputs":[{"internalType":"address","name":"","type":"address"}],"stateMutability":"view","type":"function"},{"inputs":[{"internalType":"uint256","name":"bountyId","type":"uint256"},{"internalType":"address","name":"analyst","type":"address"}],"name":"getAnalysis","outputs":[{"components":[{"internalType":"address","name":"analyst","type":"address"},{"internalType":"enum BountyManagerV2.ThreatVerdict","name":"verdict","type":"uint8"},{"internalType":"uint256","name":"confidence","type":"uint256"},{"internalType":"uint256","name":"stakeAmount","type":"uint256"},{"internalType":"string","name":"analysisHash","type":"string"},{"internalType":"uint256","name":"submittedAt","type":"uint256"},{"internalType":"bool","name":"rewarded","type":"bool"}],"internalType":"struct BountyManagerV2.Analysis","name":"","type":"tuple"}],"stateMutability":"view","type":"function"},{"inputs":[{"internalType":"uint256","name":"bountyId","type":"uint256"}],"name":"getBounty","outputs":[{"components":[{"internalType":"uint256","name":"id","type":"uint256"},{"internalType":"address","name":"creator","type":"address"},{"internalType":"string","name":"artifactHash","type":"string"},{"internalType":"enum BountyManagerV2.ArtifactType","name":"artifactType","type":"uint8"},{"internalType":"uint256","name":"rewardAmount","type":"uint256"},{"internalType":"uint256","name":"deadline","type":"uint256"},{"internalType":"string","name":"description","type":"string"},{"internalType":"enum BountyManagerV2.BountyStatus","name":"status","type":"uint8"},{"internalType":"enum BountyManagerV2.ThreatVerdict","name":"consensusVerdict","type":"uint8"},{"internalType":"uint256","name":"totalStaked","type":"uint256"},{"internalType":"uint256","name":"analysisCount","type":"uint256"},{"internalType":"uint256","name":"createdAt","type":"uint256"}],"internalType":"struct BountyManagerV2.Bounty","name":"","type":"tuple"}],"stateMutability":"view","type":"function"},{"inputs":[{"internalType":"uint256","name":"bountyId","type":"uint256"}],"name":"getBountyAnalysts","outputs":[{"internalType":"address[]","name":"","type":"address[]"}],"stateMutability":"view","type":"function"},{"inputs":[{"internalType":"uint256","name":"bountyId","type":"uint256"}],"name":"getBountyDisputes","outputs":[{"components":[{"internalType":"uint256","name":"id","type":"uint256"},{"internalType":"uint256","name":"bountyId","type":"uint256"},{"internalType":"address","name":"disputer","type":"address"},{"internalType":"string","name":"reason","type":"string"},{"internalType":"uint256","name":"stakeAmount","type":"uint256"},{"internalType":"enum BountyManagerV2.DisputeStatus","name":"status","type":"uint8"},{"internalType":"uint256","name":"createdAt","type":"uint256"},{"internalType":"uint256","name":"resolvedAt","type":"uint256"},{"internalType":"address","name":"resolver","type":"address"}],"internalType":"struct BountyManagerV2.Dispute[]","name":"","type":"tuple[]"}],"stateMutability":"view","type":"function"},{"inputs":[{"internalType":"bytes32","name":"role","type":"bytes32"}],"name":"getRoleAdmin","outputs":[{"internalType":"bytes32","name":"","type":"bytes32"}],"stateMutability":"view","type":"function"},{"inputs":[{"internalType":"bytes32","name":"role","type":"bytes32"},{"internalType":"address","name":"account","type":"address"}],"name":"grantRole","outputs":[],"stateMutability":"nonpayable","type":"function"},{"inputs":[{"internalType":"bytes32","name":"role","type":"bytes32"},{"internalType":"address","name":"account","type":"address"}],"name":"hasRole","outputs":[{"internalType":"bool","name":"","type":"bool"}],"stateMutability":"view","type":"function"},{"inputs":[{"internalType":"address","name":"_threatToken","type":"address"},{"internalType":"address","name":"_reputationSystem","type":"address"},{"internalType":"address","name":"_feeCollector","type":"address"}],"name":"initialize","outputs":[],"stateMutability":"nonpayable","type":"function"},{"inputs":[{"internalType":"uint256","name":"","type":"uint256"}],"name":"isDisputed","outputs":[{"internalType":"bool","name":"","type":"bool"}],"stateMutability":"view","type":"function"},{"inputs":[],"name":"pause","outputs":[],"stateMutability":"nonpayable","type":"function"},{"inputs":[],"name":"paused","outputs":[{"internalType":"bool","name":"","type":"bool"}],"stateMutability":"view","type":"function"},{"inputs":[],"name":"proxiableUUID","outputs":[{"internalType":"bytes32","name":"","type":"bytes32"}],"stateMutability":"view","type":"function"},{"inputs":[{"internalType":"address","name":"resolver","type":"address"}],"name":"removeTrustedResolver","outputs":[],"stateMutability":"nonpayable","type":"function"},{"inputs":[{"internalType":"bytes32","name":"role","type":"bytes32"},{"internalType":"address","name":"callerConfirmation","type":"address"}],"name":"renounceRole","outputs":[],"stateMutability":"nonpayable","type":"function"},{"inputs":[],"name":"reputationSystem","outputs":[{"internalType":"contract IReputationSystem","name":"","type":"address"}],"stateMutability":"view","type":"function"},{"inputs":[{"internalType":"uint256","name":"bountyId","type":"uint256"},{"internalType":"uint256","name":"disputeIndex","type":"uint256"},{"internalType":"bool","name":"accept","type":"bool"}],"name":"resolveDispute","outputs":[],"stateMutability":"nonpayable","type":"function"},{"inputs":[{"internalType":"bytes32","name":"role","type":"bytes32"},{"internalType":"address","name":"account","type":"address"}],"name":"revokeRole","outputs":[],"stateMutability":"nonpayable","type":"function"},{"inputs":[{"internalType":"address","name":"_feeCollector","type":"address"}],"name":"setFeeCollector","outputs":[],"stateMutability":"nonpayable","type":"function"},{"inputs":[{"internalType":"uint256","name":"bountyId","type":"uint256"},{"internalType":"enum BountyManagerV2.ThreatVerdict","name":"verdict","type":"uint8"},{"internalType":"uint256","name":"confidence","type":"uint256"},{"internalType":"uint256","name":"stakeAmount","type":"uint256"},{"internalType":"string","name":"analysisHash","type":"string"}],"name":"submitAnalysis","outputs":[],"stateMutability":"nonpayable","type":"function"},{"inputs":[{"internalType":"bytes4","name":"interfaceId","type":"bytes4"}],"name":"supportsInterface","outputs":[{"internalType":"bool","name":"","type":"bool"}],"stateMutability":"view","type":"function"},{"inputs":[],"name":"threatToken","outputs":[{"internalType":"contract IERC20","name":"","type":"address"}],"stateMutability":"view","type":"function"},{"inputs":[{"internalType":"address","name":"","type":"address"}],"name":"trustedResolvers","outputs":[{"internalType":"bool","name":"","type":"bool"}],"stateMutability":"view","type":"function"},{"inputs":[],"name":"unpause","outputs":[],"stateMutability":"nonpayable","type":"function"},{"inputs":[{"internalType":"address","name":"newImplementation","type":"address"},{"internalType":"bytes","name":"data","type":"bytes"}],"name":"upgradeToAndCall","outputs":[],"stateMutability":"payable","type":"function"},{"inputs":[{"internalType":"address","name":"","type":"address"},{"internalType":"uint256","name":"","type":"uint256"}],"name":"userBounties","outputs":[{"internalType":"uint256","name":"","type":"uint256"}],"stateMutability":"view","type":"function"},{"inputs":[],"name":"version","outputs":[{"internalType":"string","name":"","type":"string"}],"stateMutability":"pure","type":"function"}],"evm":{"bytecode":{"linkReferences":{},"object":"60a080604052346100ea57306080527ff0c57e16840df040f15088dc2f81fe391c3923bec73e23a9662efc9c229c6a005460ff8160401c166100d9576002600160401b03196001600160401b03821601610073575b60405161441090816100f08239608051818181611e490152611eee0152f35b6001600160401b0319166001600160401b039081177ff0c57e16840df040f15088dc2f81fe391c3923bec73e23a9662efc9c229c6a005581527fc7f505b2f371ae2175ee4913f4499e1f2633a7b5936321eed1cdaeb6115181d290602090a13880610054565b63f92ee8a960e01b60005260046000fd5b600080fdfe608080604052600436101561001357600080fd5b60003560e01c90816301ffc9a714612f525750806303abc75214612f2e5780630be8ff0014612ee457806319d66fb114612ea55780631a147e3714612794578063248a9ca31461276e57806327ed71881461274b57806329bd74b0146126e55780632b9234b91461268c5780632f2ff15d1461265b5780633472dba3146125b457806336568abe1461256e57806336c47f5f1461219f5780633f4ba83a1461211c5780634f1ef28614611ea057806352d1902d14611e3657806354fd4d5014611def578063560d52d4146114de5780635c975abb14611dbf5780636587eda114611d965780636fa971c514611d4e5780637ccc586e14611d1d5780637d36f4d314611cff5780638456cb5914611c8b5780639008e13f14611c6257806391d1485414611c085780639a2be33614611a185780639c32c447146114e35780639e6cc94e146114de578063a0d59787146114c0578063a217fddf146114a4578063a42dce801461140e578063a5bbe22b146113f0578063ad3cb1cc146113a5578063b0b0d226146112d8578063bca125f0146112bc578063bdeb4c2f14611205578063c0c53b8b14610f64578063c415b95c14610f3b578063c7d22e9c14610e5f578063cb52237014610e41578063cd4fe3d5146107b5578063d547741f1461077d578063dc2f87441461067b578063e63ab1e914610640578063eab4e425146104dc578063ee8c4bbf146102b5578063f5b541a61461027a5763f72c0d8b1461023a57600080fd5b346102755760003660031901126102755760206040517f189ab7a9244df0848122154315af71fe140f3db0fe014031783b0946b8c9d2e38152f35b600080fd5b346102755760003660031901126102755760206040517f97667070c54ef182b0f5858b034beac1b6f3089aa2d3188bb1e8929f4fa9b9298152f35b346102755760203660031901126102755760043560006101606040516102da8161304c565b828152826020820152606060408201528260608201528260808201528260a0820152606060c08201528260e08201528261010082015282610120820152826101408201520152801515806104d0575b61033290613274565b6000526005602052604060002060405161034b8161304c565b8154815260018201546001600160a01b03166020820190815291610371600282016131b6565b6040830190815260ff6003830154169161038f60608501938461337c565b600481015460808501908152600582015460a086019081526103b3600684016131b6565b60c08701908152600784015460e0880196919060ff811660048110156104ba57885260081c60ff16926101008901936103eb81613156565b84526008860154946101208a019586526009870154966101408b01978852600a0154976101608b019889526040519b8c9b60208d525160208d0152600160a01b6001900390511660408c01525160608b0161018090526101a08b0161044f916130f9565b935160808b0161045e9161325a565b5160a08a01525160c089015251878203601f190160e089015261048191906130f9565b9451610100870161049191613267565b5161049b81613156565b6101208601525161014085015251610160840152516101808301520390f35b634e487b7160e01b600052602160045260246000fd5b50600254811115610329565b346102755760403660031901126102755760406004356104fa612fff565b90600060c0845161050a81613015565b8281528260208201528286820152826060820152606060808201528260a0820152015280151580610634575b61053f90613274565b60005260066020528160002060009160018060a01b031682526020522060405161056881613015565b81546001600160a01b038116825260208201929060a01c60ff1661058b81613156565b83526001810154604083019081526106216002830154606085019081526105b4600385016131b6565b906080860191825260ff600560048701549660a089019788520154169360c0870194151585526040519788976020895260018060a01b039051166020890152516105fd81613156565b60408801525160608701525160808601525160e060a08601526101008501906130f9565b915160c084015251151560e08301520390f35b50600254811115610536565b346102755760003660031901126102755760206040517f65d7a28e3265b37a6474929f336521b332c1681b933f6cb9f3376673440d862a8152f35b34610275576020366003190112610275576004356000908152600560205260409020805460018201546001600160a01b0316916106ba600282016131b6565b600382015460ff169160048101546005820154600683016106da906131b6565b6007840154958660081c60ff1692600886015494600987015496600a0154976040519b8c9b8c5260208c015260408b0161018090526101808b0161071d916130f9565b9260608b0161072b9161325a565b60808a015260a089015287810360c0890152610746916130f9565b946107589060e088019060ff16613267565b61076181613156565b6101008601526101208501526101408401526101608301520390f35b34610275576040366003190112610275576107b360043561079c612fff565b906107ae6107a9826132f7565b6134a3565b613834565b005b346102755760a0366003190112610275576004356001600160401b038111610275576107e59036906004016130db565b6024356005811015610275576084356001600160401b038111610275576108109036906004016130db565b916108196133a7565b805115610e045760443515610dbf57610e104201804211610da9576064351115610d7057600080546040516323b872dd60e01b815233600482015230602482015260448035908201529160209183916064918391906001600160a01b03165af1908115610d6457600091610d35575b5015610cf8576108996002546132e8565b9182600255604051926108ab8461304c565b80845260208401943386526108ca60408601938585526060870161337c565b604435608086015260643560a086015260c0850152600060e08501526000610100850152600061012085015260006101408501524261016085015260005260056020526040600020938351855560018060a01b03905116600185019060018060a01b03166001600160601b0360a01b825416179055519283516001600160401b038111610ce25761095e600283015461317c565b601f8111610c97575b506020601f8211600114610c29578192939495600092610c1e575b50508160011b916000199060031b1c19161760028201555b6060830151926003820160058510156104ba5760009460ff801983541691161790556080810151600483015560a081015160058301556006820160c08201518051906001600160401b038211610c0a5781906109f6845461317c565b601f8111610bba575b50602090601f8311600114610b57578892610b4c575b50508160011b916000199060031b1c19161790555b6007820160e08201516004811015610b385791610a6861016092600a9460ff8019835416911617815561010083015190610a6382613156565b613388565b61012081015160088501556101408101516009850155015191015533825260086020526040822060025490805493600160401b851015610b24575083610ab5916001602096018155612fbb565b819291549060031b91821b91600019901b191617905560025490817f4e9ff8debce04524518777fdf120513b8f7e1f434da1099fd190d1aae0d495b6610b06604051936060855260608501906130f9565b926044358682015260643560408201528033940390a3604051908152f35b634e487b7160e01b81526041600452602490fd5b634e487b7160e01b86526021600452602486fd5b015190508780610a15565b8489528189209250601f198416895b818110610ba25750908460019594939210610b89575b505050811b019055610a2a565b015160001960f88460031b161c19169055878080610b7c565b92936020600181928786015181550195019301610b66565b90915083885260208820601f840160051c81019160208510610c00575b90601f859493920160051c01905b818110610bf257506109ff565b898155849350600101610be5565b9091508190610bd7565b634e487b7160e01b87526041600452602487fd5b015190508580610982565b60028301600052806000209060005b601f1984168110610c7f575060019394959683601f19811610610c66575b505050811b01600282015561099a565b015160001960f88460031b161c19169055858080610c56565b9091602060018192858b015181550193019101610c38565b600283016000526020600020601f830160051c81019160208410610cd8575b601f0160051c01905b818110610ccc5750610967565b60008155600101610cbf565b9091508190610cb6565b634e487b7160e01b600052604160045260246000fd5b60405162461bcd60e51b8152602060048201526015602482015274151bdad95b881d1c985b9cd9995c8819985a5b1959605a1b6044820152606490fd5b610d57915060203d602011610d5d575b610d4f8183613068565b8101906132c3565b84610888565b503d610d45565b6040513d6000823e3d90fd5b60405162461bcd60e51b81526020600482015260116024820152702232b0b23634b732903a37b79039b7b7b760791b6044820152606490fd5b634e487b7160e01b600052601160045260246000fd5b60405162461bcd60e51b815260206004820152601760248201527f526577617264206d75737420626520706f7369746976650000000000000000006044820152606490fd5b60405162461bcd60e51b8152602060048201526015602482015274092dcecc2d8d2c840c2e4e8d2ccc2c6e840d0c2e6d605b1b6044820152606490fd5b34610275576000366003190112610275576020604051620151808152f35b346102755760203660031901126102755760043580151580610f2f575b610e8590613274565b600052600760205260406000206040518060208354918281520190819360005260206000209060005b818110610f105750505081610ec4910382613068565b6040519182916020830190602084525180915260408301919060005b818110610eee575050500390f35b82516001600160a01b0316845285945060209384019390920191600101610ee0565b82546001600160a01b0316845260209093019260019283019201610eae565b50600254811115610e7c565b34610275576000366003190112610275576004546040516001600160a01b039091168152602090f35b3461027557606036600319011261027557610f7d612fe9565b610f85612fff565b6044356001600160a01b0381169190829003610275576000805160206143bb833981519152549260ff8460401c1615936001600160401b038116801590816111fd575b60011490816111f3575b1590816111ea575b506111d95767ffffffffffffffff1981166001176000805160206143bb83398151915255846111ac575b506001600160a01b031690811561116f576001600160a01b031690811561112a57611030831515613338565b611038613b13565b611040613b13565b611048613b13565b611050613b13565b600160008051602061437b8339815191525561106a613b13565b6001600160601b0360a01b60005416176000556001600160601b0360a01b60015416176001556001600160601b0360a01b60045416176004556110ac336134ed565b506110b63361358d565b506110c033613649565b506110ca33613705565b506110d157005b68ff0000000000000000196000805160206143bb83398151915254166000805160206143bb833981519152557fc7f505b2f371ae2175ee4913f4499e1f2633a7b5936321eed1cdaeb6115181d2602060405160018152a1005b60405162461bcd60e51b815260206004820152601960248201527f496e76616c69642072657075746174696f6e2073797374656d000000000000006044820152606490fd5b60405162461bcd60e51b8152602060048201526015602482015274496e76616c696420746f6b656e206164647265737360581b6044820152606490fd5b68ffffffffffffffffff191668010000000000000001176000805160206143bb8339815191525584611004565b63f92ee8a960e01b60005260046000fd5b90501586610fda565b303b159150610fd2565b869150610fc8565b34610275576040366003190112610275576040611220612fff565b60043560005260066020528160002060009160018060a01b0316825260205220805460ff8160a01c169160018101546112ab6002830154611263600385016131b6565b9060ff60056004870154960154169360405197889760018060a01b0316885261128b81613156565b60208801526040870152606086015260e0608086015260e08501906130f9565b9160a0840152151560c08301520390f35b3461027557600036600319011261027557602060405160428152f35b34610275576112e636612fa5565b90600052600a60205260406000209081548110156102755761130791613160565b508054600182015460028301549092906001600160a01b031661132c600383016131b6565b9160048101549260ff60058301541661137d600684015492600785015494600860018060a01b039101541695604051998a998a5260208a0152604089015261012060608901526101208801906130f9565b94608087015261138c81613156565b60a086015260c085015260e08401526101008301520390f35b34610275576000366003190112610275576113ec60408051906113c88183613068565b60058252640352e302e360dc1b6020830152519182916020835260208301906130f9565b0390f35b346102755760003660031901126102755760206040516202a3008152f35b3461027557602036600319011261027557611427612fe9565b3360009081527fb7db2dd08fcb62d0c9e08c51941cae53c267786a0b75803fb7960902fc8ef97d602052604090205460ff161561148a576001600160a01b0316611472811515613338565b6001600160601b0360a01b6004541617600455600080f35b63e2517d3f60e01b60005233600452600060245260446000fd5b3461027557600036600319011261027557602060405160008152f35b34610275576000366003190112610275576020600254604051908152f35b61313a565b34610275576040366003190112610275576004356024356001600160401b038111610275576115169036906004016130db565b81151580611a0c575b61152890613274565b6115306138d4565b6115386133a7565b816000526005602052604060002091600783019260ff84541660048110156104ba576001036119d157600501546202a3008101809111610da95742116119955780600052600b60205260ff6040600020541661195d5781511561192657600080546040516323b872dd60e01b81523360048201523060248201526802b5e3af16b188000060448201529160209183916064918391906001600160a01b03165af1908115610d6457600091611907575b50156118c2576115f86003546132e8565b92836003556040519361160a85613030565b8452602084019382855260408101943386526060820195858752608083016802b5e3af16b1880000815260a084016000815260c085019142835260e0860193600085526101008701956000875289600052600a60205260406000208054600160401b811015610ce25761168291600182018155613160565b9890986118ac57518855516001880155516002870180546001600160a01b0319166001600160a01b03929092169190911790559851805190999060038701906001600160401b038111610ce2576116d9825461317c565b601f8111611864575b506020601f82116001146117f35781906008999a9b9c9d6000926117e8575b50508160011b916000199060031b1c19161790555b51600487015560058601905161172b81613156565b61173481613156565b60ff8019835416911617905551600685015551600784015560018060a01b0390511691019060018060a01b03166001600160601b0360a01b82541617905581600052600b6020526040600020600160ff19825416179055600260ff198254161790556003547f187cf2180cf205abb3a86a43c8a0e9e92ffdc0d1029d2982b525b335a50efe5160405160208152806117d1339660208301906130f9565b0390a4600160008051602061437b83398151915255005b015190508d80611701565b601f1982169c83600052816000209d60005b81811061184757509160089a9b9c9d9e9184600195941061182e575b505050811b019055611716565b015160001960f88460031b161c191690558d8080611821565b919e8f60016020928684930151815501940192019e91929e611805565b826000526020600020601f830160051c810191602084106118a2575b601f0160051c01905b81811061189657506116e2565b60008155600101611889565b9091508190611880565b634e487b7160e01b600052600060045260246000fd5b60405162461bcd60e51b815260206004820152601d60248201527f44697370757465207374616b65207472616e73666572206661696c65640000006044820152606490fd5b611920915060203d602011610d5d57610d4f8183613068565b846115e7565b60405162461bcd60e51b815260206004820152600f60248201526e1499585cdbdb881c995c5d5a5c9959608a1b6044820152606490fd5b60405162461bcd60e51b815260206004820152601060248201526f105b1c9958591e48191a5cdc1d5d195960821b6044820152606490fd5b60405162461bcd60e51b8152602060048201526014602482015273111a5cdc1d5d19481c195c9a5bd908195b99195960621b6044820152606490fd5b60405162461bcd60e51b8152602060048201526013602482015272109bdd5b9d1e481b9bdd081c995cdbdb1d9959606a1b6044820152606490fd5b5060025482111561151f565b346102755760203660031901126102755760043580151580611bfc575b611a3e90613274565b600052600a60205260406000208054906001600160401b038211610ce25760405191611a7060208260051b0184613068565b80835260208301809260005260206000206000915b838310611b6757848660405191829160208301906020845251809152604083019060408160051b85010192916000905b828210611ac457505050500390f35b919360019193955060208091603f19898203018552875190815181528282015183820152848060a01b036040830151166040820152610100611b17606084015161012060608501526101208401906130f9565b926080810151608084015260a0810151611b3081613156565b60a084015260c081015160c084015260e081015160e084015281878060a01b03910151169101529601920192018594939192611ab5565b60096020600192604051611b7a81613030565b855481528486015483820152848060a01b036002870154166040820152611ba3600387016131b6565b60608201526004860154608082015260ff600587015416611bc381613156565b60a0820152600686015460c0820152600786015460e0820152848060a01b03600887015416610100820152815201920192019190611a85565b50600254811115611a35565b3461027557604036600319011261027557611c21612fff565b60043560005260008051602061433b83398151915260205260406000209060018060a01b0316600052602052602060ff604060002054166040519015158152f35b34610275576000366003190112610275576000546040516001600160a01b039091168152602090f35b3461027557600036600319011261027557611ca4613431565b611cac6133a7565b600160ff1960008051602061435b83398151915254161760008051602061435b833981519152557f62e78cea01bee320cd4e420270b5ea74000d11b0c9f74754ebdbfc544b05a2586020604051338152a1005b34610275576000366003190112610275576020600354604051908152f35b3461027557602036600319011261027557600435600052600b602052602060ff604060002054166040519015158152f35b3461027557604036600319011261027557611d67612fff565b600435600052600960205260406000209060018060a01b03166000526020526020604060002054604051908152f35b34610275576000366003190112610275576001546040516001600160a01b039091168152602090f35b3461027557600036600319011261027557602060ff60008051602061435b83398151915254166040519015158152f35b34610275576000366003190112610275576113ec6040805190611e128183613068565b60058252640322e302e360dc1b6020830152519182916020835260208301906130f9565b34610275576000366003190112610275577f00000000000000000000000000000000000000000000000000000000000000006001600160a01b03163003611e8f57602060405160008051602061431b8339815191528152f35b63703e46dd60e11b60005260046000fd5b604036600319011261027557611eb4612fe9565b6024356001600160401b038111610275573660238201121561027557611ee49036906024816004013591016130a4565b6001600160a01b037f0000000000000000000000000000000000000000000000000000000000000000163081149081156120f9575b50611e8f573360009081527fab71e3f32666744d246edff3f96e4bdafee2e9867098cdd118a979a7464786a8602052604090205460ff16156120c0576040516352d1902d60e01b81526001600160a01b0383169290602081600481875afa6000918161208c575b50611f9a5783634c9c8ce360e01b60005260045260246000fd5b8060008051602061431b8339815191528592036120785750813b156120645760008051602061431b83398151915280546001600160a01b031916821790557fbc7cd75a20ee27fd9adebab32041f755214dbc6bffa90cc0225b39da2e5c2d3b600080a281511561204a576000808360206107b395519101845af43d15612042573d9161202583613089565b926120336040519485613068565b83523d6000602085013e614299565b606091614299565b50503461205357005b63b398979f60e01b60005260046000fd5b634c9c8ce360e01b60005260045260246000fd5b632a87526960e21b60005260045260246000fd5b9091506020813d6020116120b8575b816120a860209383613068565b8101031261027557519085611f80565b3d915061209b565b63e2517d3f60e01b600052336004527f189ab7a9244df0848122154315af71fe140f3db0fe014031783b0946b8c9d2e360245260446000fd5b60008051602061431b833981519152546001600160a01b03161415905083611f19565b3461027557600036600319011261027557612135613431565b60008051602061435b8339815191525460ff81161561218e5760ff191660008051602061435b833981519152557f5db9ee0a495bf2e6ff9c91a7834c1ba4fdd244a5e8aa4e537bd38aeae4b073aa6020604051338152a1005b638dfc202b60e01b60005260046000fd5b346102755760603660031901126102755760043560443560243581151582036102755782151580612562575b6121d490613274565b6121dc6138d4565b33600052600c60205260ff60406000205416801561253c575b156125065782600052600b60205260ff60406000205416156124cb5782600052600a60205260406000205481101561248e5761223e9083600052600a6020526040600020613160565b50600581019182549060ff821661225481613156565b61245457156123975750815460ff191660019081178355600054600283015460048401546122cf936020936001600160a01b0393841693169161229a9181901c906132db565b60405163a9059cbb60e01b81526001600160a01b03909316600484015260248301529092839190829060009082906044820190565b03925af18015610d64577f7dc7ef709ed70af0e3aca8355c0b8973c38220c136b84b339fa731a8dbdd6f399260409260ff9261237a575b5085600052600560205260078360002001821981541690555b4260078201556008810180546001600160a01b031916331790556000868152600b602052839020805483191690555493548251911661235d81613156565b8152336020820152a3600160008051602061437b83398151915255005b6123929060203d602011610d5d57610d4f8183613068565b612306565b60ff1916600217825560008054600480548482015460405163a9059cbb60e01b81526001600160a01b039283169381019390935260248301529092602092849216908290816044810103925af18015610d64577f7dc7ef709ed70af0e3aca8355c0b8973c38220c136b84b339fa731a8dbdd6f399260409260ff92612437575b50856000526005602052600783600020016001831982541617905561231f565b61244f9060203d602011610d5d57610d4f8183613068565b612417565b60405162461bcd60e51b815260206004820152601260248201527144697370757465206e6f742061637469766560701b6044820152606490fd5b60405162461bcd60e51b8152602060048201526015602482015274092dcecc2d8d2c840c8d2e6e0eae8ca40d2dcc8caf605b1b6044820152606490fd5b60405162461bcd60e51b8152602060048201526013602482015272109bdd5b9d1e481b9bdd08191a5cdc1d5d1959606a1b6044820152606490fd5b60405162461bcd60e51b815260206004820152600e60248201526d139bdd08185d5d1a1bdc9a5e995960921b6044820152606490fd5b5033600090815260008051602061439b833981519152602052604090205460ff166121f5565b506002548311156121cb565b3461027557604036600319011261027557612587612fff565b336001600160a01b038216036125a3576107b390600435613834565b63334bd91960e11b60005260046000fd5b34610275576020366003190112610275576125cd612fe9565b6125d56133d1565b6001600160a01b031680156126245780600052600c6020526040600020600160ff198254161790557f1c376651d9207bf0144db8010d3775bc2c4b2d648d55d363fc5e73bd6d8da4df600080a2005b60405162461bcd60e51b815260206004820152600f60248201526e496e76616c6964206164647265737360881b6044820152606490fd5b34610275576040366003190112610275576107b360043561267a612fff565b906126876107a9826132f7565b61379d565b34610275576040366003190112610275576126a5612fe9565b6001600160a01b0316600090815260086020526040902080546024359190821015610275576020916126d691612fbb565b90549060031b1c604051908152f35b34610275576020366003190112610275576126fe612fe9565b6127066133d1565b6001600160a01b03166000818152600c60205260408120805460ff191690557ff6e6a15eb088d192f246222a22f245bac4e98d6f39761885e07f6d73e93b40f59080a2005b34610275576000366003190112610275576020604051678ac7230489e800008152f35b3461027557602036600319011261027557602061278c6004356132f7565b604051908152f35b346102755760a036600319011261027557600435602435600381101561027557604435906064356084356001600160401b038111610275576127da9036906004016130db565b9284151580612e99575b6127ed90613274565b84600052600560205260ff6007604060002001541660048110156104ba57612e60578460005260056020526005604060002001544211612e2a5761282f6133a7565b61283883613156565b8215612df35780151580612de8575b15612dae57678ac7230489e800008210612d745760008581526006602090815260408083203384529091529020546001600160a01b0316612d3b57600154604051634e44d07160e11b8152336004820152906001600160a01b0316602082602481845afa918215610d6457600092612d06575b50906020600492604051938480926393ea1cfd60e01b82525afa918215610d6457600092612cd2575b5010612c8d57600080546040516323b872dd60e01b8152336004820152306024820152604481018590529160209183916064918391906001600160a01b03165af1908115610d6457600091612c6e575b5015612c315760405161294581613015565b338152602081019161295685613156565b848352604082810191825260608301858152608084018881524260a08601908152600060c087018181528c8252600660209081528683203384529052949020955186546001600160a01b0319166001600160a01b0391909116178655955192959390926129c281613156565b6129cb81613156565b855460ff60a01b191660a09190911b60ff60a01b1617855551600185015551600284015551805160038401916001600160401b038211610ce257612a0f835461317c565b601f8111612be9575b50602090601f8311600114612b7d576005959493929160009183612b72575b50508160011b916000199060031b1c19161790555b516004820155019051151560ff80198354169116179055836000526007602052604060002091825491600160401b831015610ce257612ab383879560017f110591d5654c5cd0d03db42f359ffea137edcbcc8639b424c1694f9e2ad8626d96018155612fbb565b81549060031b9033821b9160018060a01b03901b19161790558360005260056020526008604060002001612ae88282546132db565b90558360005260056020526009604060002001612b0581546132e8565b905560405191612b1481613156565b825260208201526060604082015280612b32339560608301906130f9565b0390a38060005260056020526040600020600a60098201541090811591612b64575b50612b5b57005b6107b390613910565b600591500154421182612b54565b015190508b80612a37565b90601f1983169184600052816000209260005b818110612bd157509160019391856005999897969410612bb8575b505050811b019055612a4c565b015160001960f88460031b161c191690558b8080612bab565b92936020600181928786015181550195019301612b90565b836000526020600020601f840160051c81019160208510612c27575b601f0160051c01905b818110612c1b5750612a18565b60008155600101612c0e565b9091508190612c05565b60405162461bcd60e51b815260206004820152601560248201527414dd185ad9481d1c985b9cd9995c8819985a5b1959605a1b6044820152606490fd5b612c87915060203d602011610d5d57610d4f8183613068565b86612933565b60405162461bcd60e51b815260206004820152601760248201527f496e73756666696369656e742072657075746174696f6e0000000000000000006044820152606490fd5b9091506020813d602011612cfe575b81612cee60209383613068565b81010312610275575190876128e3565b3d9150612ce1565b91506020823d602011612d33575b81612d2160209383613068565b810103126102755790519060206128ba565b3d9150612d14565b60405162461bcd60e51b8152602060048201526011602482015270105b1c9958591e481cdd589b5a5d1d1959607a1b6044820152606490fd5b60405162461bcd60e51b8152602060048201526012602482015271496e73756666696369656e74207374616b6560701b6044820152606490fd5b60405162461bcd60e51b8152602060048201526012602482015271496e76616c696420636f6e666964656e636560701b6044820152606490fd5b506064811115612847565b60405162461bcd60e51b815260206004820152600f60248201526e125b9d985b1a59081d995c991a58dd608a1b6044820152606490fd5b60405162461bcd60e51b815260206004820152600e60248201526d109bdd5b9d1e48195e1c1a5c995960921b6044820152606490fd5b60405162461bcd60e51b8152602060048201526011602482015270426f756e7479206e6f742061637469766560781b6044820152606490fd5b506002548511156127e4565b34610275576020366003190112610275576001600160a01b03612ec6612fe9565b16600052600c602052602060ff604060002054166040519015158152f35b3461027557612ef236612fa5565b9060005260076020526040600020805482101561027557602091612f1591612fbb565b905460405160039290921b1c6001600160a01b03168152f35b346102755760003660031901126102755760206040516802b5e3af16b18800008152f35b34610275576020366003190112610275576004359063ffffffff60e01b821680920361027557602091637965db0b60e01b8114908115612f94575b5015158152f35b6301ffc9a760e01b14905083612f8d565b6040906003190112610275576004359060243590565b8054821015612fd35760005260206000200190600090565b634e487b7160e01b600052603260045260246000fd5b600435906001600160a01b038216820361027557565b602435906001600160a01b038216820361027557565b60e081019081106001600160401b03821117610ce257604052565b61012081019081106001600160401b03821117610ce257604052565b61018081019081106001600160401b03821117610ce257604052565b90601f801991011681019081106001600160401b03821117610ce257604052565b6001600160401b038111610ce257601f01601f191660200190565b9291926130b082613089565b916130be6040519384613068565b829481845281830111610275578281602093846000960137010152565b9080601f83011215610275578160206130f6933591016130a4565b90565b919082519283825260005b848110613125575050826000602080949584010152601f8019910116010190565b80602080928401015182828601015201613104565b3461027557600036600319011261027557602060405160058152f35b600311156104ba57565b8054821015612fd3576000526009602060002091020190600090565b90600182811c921680156131ac575b602083101461319657565b634e487b7160e01b600052602260045260246000fd5b91607f169161318b565b90604051918260008254926131ca8461317c565b808452936001811690811561323857506001146131f1575b506131ef92500383613068565b565b90506000929192526020600020906000915b81831061321c5750509060206131ef92820101386131e2565b6020919350806001915483858901015201910190918492613203565b9050602092506131ef94915060ff191682840152151560051b820101386131e2565b9060058210156104ba5752565b9060048210156104ba5752565b1561327b57565b60405162461bcd60e51b8152602060048201526011602482015270125b9d985b1a5908189bdd5b9d1e481251607a1b6044820152606490fd5b90816020910312610275575190565b90816020910312610275575180151581036102755790565b91908201809211610da957565b6000198114610da95760010190565b60005260008051602061433b83398151915260205260016040600020015490565b8115613322570490565b634e487b7160e01b600052601260045260246000fd5b1561333f57565b60405162461bcd60e51b815260206004820152601560248201527424b73b30b634b2103332b29031b7b63632b1ba37b960591b6044820152606490fd5b60058210156104ba5752565b9061339281613156565b61ff0082549160081b169061ff001916179055565b60ff60008051602061435b83398151915254166133c057565b63d93c066560e01b60005260046000fd5b33600090815260008051602061439b833981519152602052604090205460ff16156133f857565b63e2517d3f60e01b600052336004527f97667070c54ef182b0f5858b034beac1b6f3089aa2d3188bb1e8929f4fa9b92960245260446000fd5b3360009081527f75442b0a96088b5456bc4ed01394c96a4feec0f883c9494257d76b96ab1c9b6b602052604090205460ff161561346a57565b63e2517d3f60e01b600052336004527f65d7a28e3265b37a6474929f336521b332c1681b933f6cb9f3376673440d862a60245260446000fd5b600081815260008051602061433b8339815191526020908152604080832033845290915290205460ff16156134d55750565b63e2517d3f60e01b6000523360045260245260446000fd5b6001600160a01b03811660009081527fb7db2dd08fcb62d0c9e08c51941cae53c267786a0b75803fb7960902fc8ef97d602052604090205460ff16613587576001600160a01b031660008181527fb7db2dd08fcb62d0c9e08c51941cae53c267786a0b75803fb7960902fc8ef97d60205260408120805460ff191660011790553391906000805160206142fb8339815191528180a4600190565b50600090565b6001600160a01b03811660009081527fab71e3f32666744d246edff3f96e4bdafee2e9867098cdd118a979a7464786a8602052604090205460ff16613587576001600160a01b031660008181527fab71e3f32666744d246edff3f96e4bdafee2e9867098cdd118a979a7464786a860205260408120805460ff191660011790553391907f189ab7a9244df0848122154315af71fe140f3db0fe014031783b0946b8c9d2e3906000805160206142fb8339815191529080a4600190565b6001600160a01b03811660009081527f75442b0a96088b5456bc4ed01394c96a4feec0f883c9494257d76b96ab1c9b6b602052604090205460ff16613587576001600160a01b031660008181527f75442b0a96088b5456bc4ed01394c96a4feec0f883c9494257d76b96ab1c9b6b60205260408120805460ff191660011790553391907f65d7a28e3265b37a6474929f336521b332c1681b933f6cb9f3376673440d862a906000805160206142fb8339815191529080a4600190565b6001600160a01b038116600090815260008051602061439b833981519152602052604090205460ff16613587576001600160a01b0316600081815260008051602061439b83398151915260205260408120805460ff191660011790553391907f97667070c54ef182b0f5858b034beac1b6f3089aa2d3188bb1e8929f4fa9b929906000805160206142fb8339815191529080a4600190565b600081815260008051602061433b833981519152602090815260408083206001600160a01b038616845290915290205460ff1661382d57600081815260008051602061433b833981519152602090815260408083206001600160a01b0395909516808452949091528120805460ff19166001179055339291906000805160206142fb8339815191529080a4600190565b5050600090565b600081815260008051602061433b833981519152602090815260408083206001600160a01b038616845290915290205460ff161561382d57600081815260008051602061433b833981519152602090815260408083206001600160a01b0395909516808452949091528120805460ff19169055339291907ff6391f5c32d9c69d2a47ea670b442974b53935d1edc7fd64eb21e047a839171b9080a4600190565b600260008051602061437b83398151915254146138ff57600260008051602061437b83398151915255565b633ee5aeb560e01b60005260046000fd5b8060005260056020526040600020908060005260076020526040600020805415613a925761393d82613b41565b6007859692960161394e8782613388565b805460ff1916600117905560005b8354811015613a3c578060208660846139768b9589612fbb565b9054600084815260068652604080822060039490941b9290921c6001600160a01b0316808252928652908120805460a01c60ff16976139b490613156565b6139bd88613156565b8d600260018060a01b036001541692015490604051998a9788966315f09f4360e01b88526004880152602487015214604485015260648401525af1918215610d6457600192613a0e575b500161395c565b613a2e9060203d8111613a35575b613a268183613068565b8101906132b4565b5038613a07565b503d613a1c565b506060925060047f2bb8fecfa448bfe5d3f1045a783a32a8d17d3366db366edcd82bda6008c0a4b19495969296613a74838589613dcf565b015460405192613a8381613156565b835260208301526040820152a2565b505060078101805460ff1916600317905560008054600183015460049384015460405163a9059cbb60e01b81526001600160a01b03928316958101959095526024850152602092849290911690829081604481015b03925af18015610d6457613af85750565b613b109060203d602011610d5d57610d4f8183613068565b50565b60ff6000805160206143bb8339815191525460401c1615613b3057565b631afcd79f60e31b60005260046000fd5b908160005260076020526040600020600080809281908054905b818310613cf7575050508215613cea57606481029080820460641490151715610da957613b8a83604292613318565b10613c265750506000828152600760205260408120805460019490918391825b848110613bb957505050505090565b839082600052600660205260ff604080600020613bd68488612fbb565b905460039190911b1c6001600160a01b03166000908152602091909152205460a01c16916104ba578882613c0a8294613156565b14613c16575b01613baa565b95613c20906132e8565b95613c10565b606481029080820460641490151715610da957604291613c4591613318565b10613ce25760008281526007602052604081208054600294839290835b838110613c7157505050505090565b8160005260066020528460ff604080600020613c8d8588612fbb565b905460039190911b1c6001600160a01b03166000908152602091909152205460a01c16906104ba5780613cc08a92613156565b14613cce575b600101613c62565b94613cda6001916132e8565b959050613cc6565b600091508190565b5050509050600090600090565b90919294876000526006602052604080600020613d148685612fbb565b905460039190911b1c6001600160a01b0316600090815260209190915220600281015460018201549197918082029180159083049091141715610da957613d61606460ff920480946132db565b975460a01c16613d7081613156565b60018103613d8f5750600191613d85916132db565b935b019190613b5b565b90949190600290613d9f81613156565b14613dae575b50600190613d87565b613dbb90600192966132db565b9490613da5565b91908203918211610da957565b80600052600560205260406000209281600052600760205260406000209060048501546005810281810460051482151715610da9576064900495613e138783613dc2565b91613e1d87613156565b86158015614291575b6140b557505060009084600052600760205260406000206000908054915b828110613ff857505050613e619291613e5c916132db565b613318565b9460005b8254811015613fab5780613e7a889285612fbb565b9054600087815260066020908152604080832060039590951b9390931c6001600160a01b0316808352939052208054889060a01c60ff16613eba82613156565b613ec381613156565b1480613f9c575b613edb575b50506001915001613e65565b613f39613eff600095600284600560209601600160ff1982541617905501546132db565b855460405163a9059cbb60e01b81526001600160a01b03868116600483015260248201939093529687939190921691839182906044820190565b03925af1928315610d6457600193613f80575b50857fab7542bafced3da2d8c881cb2dd1de859fac7c20d3650d2902ad389a64e0888360206040518c8152a3879138613ecf565b613f979060203d8111610d5d57610d4f8183613068565b613f4c565b5060ff60058201541615613eca565b50600080546004805460405163a9059cbb60e01b81526001600160a01b03918216928101929092526024820198909852929750919560209550869450909116915082908160448101613ae7565b6001908860005260066020526040806000206140148386612fbb565b858060a01b0391549060031b1c1690600091858060a01b03168252602052208a60ff825460a01c1661404582613156565b61404e81613156565b0361405b575b5001613e44565b600261406a91015480976132db565b95897fba00be99b4ba100b19f2c080160ab22c2b8f4d62027d6524c532e7578d7a43b460206140998588612fbb565b878060a01b0391549060031b1c1693604051908152a338614054565b61411195965087935060209250966140cf91949897613dc2565b600080546004805460405163a9059cbb60e01b81526001600160a01b039182169281019290925260248201969096529692948793911691839182906044820190565b03925af1918215610d645761416d93602093614276575b50600080546001929092015460405163a9059cbb60e01b81526001600160a01b0391821660048201526024810194909452929485939092169183919082906044820190565b03925af18015610d6457614259575b5060005b83548110156142535761421b9082600052600660205260206040806000206141a88489612fbb565b90546001600160a01b0360039290921b1c81166000908152918452918120905490911660026141d7858a612fbb565b9054919093015460405163a9059cbb60e01b815260039490941b9190911c6001600160a01b0316600484015260248301529093849190829060009082906044820190565b03925af1918215610d6457600192614235575b5001614180565b61424c9060203d8111610d5d57610d4f8183613068565b503861422e565b50509050565b6142719060203d602011610d5d57610d4f8183613068565b61417c565b61428c90843d8611610d5d57610d4f8183613068565b614128565b508315613e26565b906142bf57508051156142ae57602081519101fd5b63d6bda27560e01b60005260046000fd5b815115806142f1575b6142d0575090565b639996b31560e01b60009081526001600160a01b0391909116600452602490fd5b50803b156142c856fe2f8788117e7eff1d82e926ec794901d17c78024a50270940304540a733656f0d360894a13ba1a3210667c828492db98dca3e2076cc3735a920a3ca505d382bbc02dd7bc7dec4dceedda775e58dd541e08a116c6c53815c0bd028192f7b626800cd5ed15c6e187e77e9aee88184c21f4f2182ab5827cb3b7e07fbedcd63f033009b779b17422d0df92223018b32b4d1fa46e071723d6817e2486d003becc55f00448256db8f8fb95ee3eaaf89c1051414494e85cebb6057fcf996cc3d0ccfb456f0c57e16840df040f15088dc2f81fe391c3923bec73e23a9662efc9c229c6a00a26469706673582212204867f3a14ba70ede273c67b2a78fd0bbab085c3757dda108f96e210ee767bef564736f6c634300081c0033","opcodes":"PUSH1 0xA0 DUP1 PUSH1 0x40 MSTORE CALLVALUE PUSH2 0xEA JUMPI ADDRESS PUSH1 0x80 MSTORE PUSH32 0xF0C57E16840DF040F15088DC2F81FE391C3923BEC73E23A9662EFC9C229C6A00 SLOAD PUSH1 0xFF DUP2 PUSH1 0x40 SHR AND PUSH2 0xD9 JUMPI PUSH1 0x2 PUSH1 0x1 PUSH1 0x40 SHL SUB NOT PUSH1 0x1 PUSH1 0x1 PUSH1 0x40 SHL SUB DUP3 AND ADD PUSH2 0x73 JUMPI JUMPDEST PUSH1 0x40 MLOAD PUSH2 0x4410 SWAP1 DUP2 PUSH2 0xF0 DUP3 CODECOPY PUSH1 0x80 MLOAD DUP2 DUP2 DUP2 PUSH2 0x1E49 ADD MSTORE PUSH2 0x1EEE ADD MSTORE RETURN JUMPDEST PUSH1 0x1 PUSH1 0x1 PUSH1 0x40 SHL SUB NOT AND PUSH1 0x1 PUSH1 0x1 PUSH1 0x40 SHL SUB SWAP1 DUP2 OR PUSH32 0xF0C57E16840DF040F15088DC2F81FE391C3923BEC73E23A9662EFC9C229C6A00 SSTORE DUP2 MSTORE PUSH32 0xC7F505B2F371AE2175EE4913F4499E1F2633A7B5936321EED1CDAEB6115181D2 SWAP1 PUSH1 0x20 SWAP1 LOG1 CODESIZE DUP1 PUSH2 0x54 JUMP JUMPDEST PUSH4 0xF92EE8A9 PUSH1 0xE0 SHL PUSH1 0x0 MSTORE PUSH1 0x4 PUSH1 0x0 REVERT JUMPDEST PUSH1 0x0 DUP1 REVERT INVALID PUSH1 0x80 DUP1 PUSH1 0x40 MSTORE PUSH1 0x4 CALLDATASIZE LT ISZERO PUSH2 0x13 JUMPI PUSH1 0x0 DUP1 REVERT JUMPDEST PUSH1 0x0 CALLDATALOAD PUSH1 0xE0 SHR SWAP1 DUP2 PUSH4 0x1FFC9A7 EQ PUSH2 0x2F52 JUMPI POP DUP1 PUSH4 0x3ABC752 EQ PUSH2 0x2F2E JUMPI DUP1 PUSH4 0xBE8FF00 EQ PUSH2 0x2EE4 JUMPI DUP1 PUSH4 0x19D66FB1 EQ PUSH2 0x2EA5 JUMPI DUP1 PUSH4 0x1A147E37 EQ PUSH2 0x2794 JUMPI DUP1 PUSH4 0x248A9CA3 EQ PUSH2 0x276E JUMPI DUP1 PUSH4 0x27ED7188 EQ PUSH2 0x274B JUMPI DUP1 PUSH4 0x29BD74B0 EQ PUSH2 0x26E5 JUMPI DUP1 PUSH4 0x2B9234B9 EQ PUSH2 0x268C JUMPI DUP1 PUSH4 0x2F2FF15D EQ PUSH2 0x265B JUMPI DUP1 PUSH4 0x3472DBA3 EQ PUSH2 0x25B4 JUMPI DUP1 PUSH4 0x36568ABE EQ PUSH2 0x256E JUMPI DUP1 PUSH4 0x36C47F5F EQ PUSH2 0x219F JUMPI DUP1 PUSH4 0x3F4BA83A EQ PUSH2 0x211C JUMPI DUP1 PUSH4 0x4F1EF286 EQ PUSH2 0x1EA0 JUMPI DUP1 PUSH4 0x52D1902D EQ PUSH2 0x1E36 JUMPI DUP1 PUSH4 0x54FD4D50 EQ PUSH2 0x1DEF JUMPI DUP1 PUSH4 0x560D52D4 EQ PUSH2 0x14DE JUMPI DUP1 PUSH4 0x5C975ABB EQ PUSH2 0x1DBF JUMPI DUP1 PUSH4 0x6587EDA1 EQ PUSH2 0x1D96 JUMPI DUP1 PUSH4 0x6FA971C5 EQ PUSH2 0x1D4E JUMPI DUP1 PUSH4 0x7CCC586E EQ PUSH2 0x1D1D JUMPI DUP1 PUSH4 0x7D36F4D3 EQ PUSH2 0x1CFF JUMPI DUP1 PUSH4 0x8456CB59 EQ PUSH2 0x1C8B JUMPI DUP1 PUSH4 0x9008E13F EQ PUSH2 0x1C62 JUMPI DUP1 PUSH4 0x91D14854 EQ PUSH2 0x1C08 JUMPI DUP1 PUSH4 0x9A2BE336 EQ PUSH2 0x1A18 JUMPI DUP1 PUSH4 0x9C32C447 EQ PUSH2 0x14E3 JUMPI DUP1 PUSH4 0x9E6CC94E EQ PUSH2 0x14DE JUMPI DUP1 PUSH4 0xA0D59787 EQ PUSH2 0x14C0 JUMPI DUP1 PUSH4 0xA217FDDF EQ PUSH2 0x14A4 JUMPI DUP1 PUSH4 0xA42DCE80 EQ PUSH2 0x140E JUMPI DUP1 PUSH4 0xA5BBE22B EQ PUSH2 0x13F0 JUMPI DUP1 PUSH4 0xAD3CB1CC EQ PUSH2 0x13A5 JUMPI DUP1 PUSH4 0xB0B0D226 EQ PUSH2 0x12D8 JUMPI DUP1 PUSH4 0xBCA125F0 EQ PUSH2 0x12BC JUMPI DUP1 PUSH4 0xBDEB4C2F EQ PUSH2 0x1205 JUMPI DUP1 PUSH4 0xC0C53B8B EQ PUSH2 0xF64 JUMPI DUP1 PUSH4 0xC415B95C EQ PUSH2 0xF3B JUMPI DUP1 PUSH4 0xC7D22E9C EQ PUSH2 0xE5F JUMPI DUP1 PUSH4 0xCB522370 EQ PUSH2 0xE41 JUMPI DUP1 PUSH4 0xCD4FE3D5 EQ PUSH2 0x7B5 JUMPI DUP1 PUSH4 0xD547741F EQ PUSH2 0x77D JUMPI DUP1 PUSH4 0xDC2F8744 EQ PUSH2 0x67B JUMPI DUP1 PUSH4 0xE63AB1E9 EQ PUSH2 0x640 JUMPI DUP1 PUSH4 0xEAB4E425 EQ PUSH2 0x4DC JUMPI DUP1 PUSH4 0xEE8C4BBF EQ PUSH2 0x2B5 JUMPI DUP1 PUSH4 0xF5B541A6 EQ PUSH2 0x27A JUMPI PUSH4 0xF72C0D8B EQ PUSH2 0x23A JUMPI PUSH1 0x0 DUP1 REVERT JUMPDEST CALLVALUE PUSH2 0x275 JUMPI PUSH1 0x0 CALLDATASIZE PUSH1 0x3 NOT ADD SLT PUSH2 0x275 JUMPI PUSH1 0x20 PUSH1 0x40 MLOAD PUSH32 0x189AB7A9244DF0848122154315AF71FE140F3DB0FE014031783B0946B8C9D2E3 DUP2 MSTORE RETURN JUMPDEST PUSH1 0x0 DUP1 REVERT JUMPDEST CALLVALUE PUSH2 0x275 JUMPI PUSH1 0x0 CALLDATASIZE PUSH1 0x3 NOT ADD SLT PUSH2 0x275 JUMPI PUSH1 0x20 PUSH1 0x40 MLOAD PUSH32 0x97667070C54EF182B0F5858B034BEAC1B6F3089AA2D3188BB1E8929F4FA9B929 DUP2 MSTORE RETURN JUMPDEST CALLVALUE PUSH2 0x275 JUMPI PUSH1 0x20 CALLDATASIZE PUSH1 0x3 NOT ADD SLT PUSH2 0x275 JUMPI PUSH1 0x4 CALLDATALOAD PUSH1 0x0 PUSH2 0x160 PUSH1 0x40 MLOAD PUSH2 0x2DA DUP2 PUSH2 0x304C JUMP JUMPDEST DUP3 DUP2 MSTORE DUP3 PUSH1 0x20 DUP3 ADD MSTORE PUSH1 0x60 PUSH1 0x40 DUP3 ADD MSTORE DUP3 PUSH1 0x60 DUP3 ADD MSTORE DUP3 PUSH1 0x80 DUP3 ADD MSTORE DUP3 PUSH1 0xA0 DUP3 ADD MSTORE PUSH1 0x60 PUSH1 0xC0 DUP3 ADD MSTORE DUP3 PUSH1 0xE0 DUP3 ADD MSTORE DUP3 PUSH2 0x100 DUP3 ADD MSTORE DUP3 PUSH2 0x120 DUP3 ADD MSTORE DUP3 PUSH2 0x140 DUP3 ADD MSTORE ADD MSTORE DUP1 ISZERO ISZERO DUP1 PUSH2 0x4D0 JUMPI JUMPDEST PUSH2 0x332 SWAP1 PUSH2 0x3274 JUMP JUMPDEST PUSH1 0x0 MSTORE PUSH1 0x5 PUSH1 0x20 MSTORE PUSH1 0x40 PUSH1 0x0 KECCAK256 PUSH1 0x40 MLOAD PUSH2 0x34B DUP2 PUSH2 0x304C JUMP JUMPDEST DUP2 SLOAD DUP2 MSTORE PUSH1 0x1 DUP3 ADD SLOAD PUSH1 0x1 PUSH1 0x1 PUSH1 0xA0 SHL SUB AND PUSH1 0x20 DUP3 ADD SWAP1 DUP2 MSTORE SWAP2 PUSH2 0x371 PUSH1 0x2 DUP3 ADD PUSH2 0x31B6 JUMP JUMPDEST PUSH1 0x40 DUP4 ADD SWAP1 DUP2 MSTORE PUSH1 0xFF PUSH1 0x3 DUP4 ADD SLOAD AND SWAP2 PUSH2 0x38F PUSH1 0x60 DUP6 ADD SWAP4 DUP5 PUSH2 0x337C JUMP JUMPDEST PUSH1 0x4 DUP2 ADD SLOAD PUSH1 0x80 DUP6 ADD SWAP1 DUP2 MSTORE PUSH1 0x5 DUP3 ADD SLOAD PUSH1 0xA0 DUP7 ADD SWAP1 DUP2 MSTORE PUSH2 0x3B3 PUSH1 0x6 DUP5 ADD PUSH2 0x31B6 JUMP JUMPDEST PUSH1 0xC0 DUP8 ADD SWAP1 DUP2 MSTORE PUSH1 0x7 DUP5 ADD SLOAD PUSH1 0xE0 DUP9 ADD SWAP7 SWAP2 SWAP1 PUSH1 0xFF DUP2 AND PUSH1 0x4 DUP2 LT ISZERO PUSH2 0x4BA JUMPI DUP9 MSTORE PUSH1 0x8 SHR PUSH1 0xFF AND SWAP3 PUSH2 0x100 DUP10 ADD SWAP4 PUSH2 0x3EB DUP2 PUSH2 0x3156 JUMP JUMPDEST DUP5 MSTORE PUSH1 0x8 DUP7 ADD SLOAD SWAP5 PUSH2 0x120 DUP11 ADD SWAP6 DUP7 MSTORE PUSH1 0x9 DUP8 ADD SLOAD SWAP7 PUSH2 0x140 DUP12 ADD SWAP8 DUP9 MSTORE PUSH1 0xA ADD SLOAD SWAP8 PUSH2 0x160 DUP12 ADD SWAP9 DUP10 MSTORE PUSH1 0x40 MLOAD SWAP12 DUP13 SWAP12 PUSH1 0x20 DUP14 MSTORE MLOAD PUSH1 0x20 DUP14 ADD MSTORE PUSH1 0x1 PUSH1 0xA0 SHL PUSH1 0x1 SWAP1 SUB SWAP1 MLOAD AND PUSH1 0x40 DUP13 ADD MSTORE MLOAD PUSH1 0x60 DUP12 ADD PUSH2 0x180 SWAP1 MSTORE PUSH2 0x1A0 DUP12 ADD PUSH2 0x44F SWAP2 PUSH2 0x30F9 JUMP JUMPDEST SWAP4 MLOAD PUSH1 0x80 DUP12 ADD PUSH2 0x45E SWAP2 PUSH2 0x325A JUMP JUMPDEST MLOAD PUSH1 0xA0 DUP11 ADD MSTORE MLOAD PUSH1 0xC0 DUP10 ADD MSTORE MLOAD DUP8 DUP3 SUB PUSH1 0x1F NOT ADD PUSH1 0xE0 DUP10 ADD MSTORE PUSH2 0x481 SWAP2 SWAP1 PUSH2 0x30F9 JUMP JUMPDEST SWAP5 MLOAD PUSH2 0x100 DUP8 ADD PUSH2 0x491 SWAP2 PUSH2 0x3267 JUMP JUMPDEST MLOAD PUSH2 0x49B DUP2 PUSH2 0x3156 JUMP JUMPDEST PUSH2 0x120 DUP7 ADD MSTORE MLOAD PUSH2 0x140 DUP6 ADD MSTORE MLOAD PUSH2 0x160 DUP5 ADD MSTORE MLOAD PUSH2 0x180 DUP4 ADD MSTORE SUB SWAP1 RETURN JUMPDEST PUSH4 0x4E487B71 PUSH1 0xE0 SHL PUSH1 0x0 MSTORE PUSH1 0x21 PUSH1 0x4 MSTORE PUSH1 0x24 PUSH1 0x0 REVERT JUMPDEST POP PUSH1 0x2 SLOAD DUP2 GT ISZERO PUSH2 0x329 JUMP JUMPDEST CALLVALUE PUSH2 0x275 JUMPI PUSH1 0x40 CALLDATASIZE PUSH1 0x3 NOT ADD SLT PUSH2 0x275 JUMPI PUSH1 0x40 PUSH1 0x4 CALLDATALOAD PUSH2 0x4FA PUSH2 0x2FFF JUMP JUMPDEST SWAP1 PUSH1 0x0 PUSH1 0xC0 DUP5 MLOAD PUSH2 0x50A DUP2 PUSH2 0x3015 JUMP JUMPDEST DUP3 DUP2 MSTORE DUP3 PUSH1 0x20 DUP3 ADD MSTORE DUP3 DUP7 DUP3 ADD MSTORE DUP3 PUSH1 0x60 DUP3 ADD MSTORE PUSH1 0x60 PUSH1 0x80 DUP3 ADD MSTORE DUP3 PUSH1 0xA0 DUP3 ADD MSTORE ADD MSTORE DUP1 ISZERO ISZERO DUP1 PUSH2 0x634 JUMPI JUMPDEST PUSH2 0x53F SWAP1 PUSH2 0x3274 JUMP JUMPDEST PUSH1 0x0 MSTORE PUSH1 0x6 PUSH1 0x20 MSTORE DUP2 PUSH1 0x0 KECCAK256 PUSH1 0x0 SWAP2 PUSH1 0x1 DUP1 PUSH1 0xA0 SHL SUB AND DUP3 MSTORE PUSH1 0x20 MSTORE KECCAK256 PUSH1 0x40 MLOAD PUSH2 0x568 DUP2 PUSH2 0x3015 JUMP JUMPDEST DUP2 SLOAD PUSH1 0x1 PUSH1 0x1 PUSH1 0xA0 SHL SUB DUP2 AND DUP3 MSTORE PUSH1 0x20 DUP3 ADD SWAP3 SWAP1 PUSH1 0xA0 SHR PUSH1 0xFF AND PUSH2 0x58B DUP2 PUSH2 0x3156 JUMP JUMPDEST DUP4 MSTORE PUSH1 0x1 DUP2 ADD SLOAD PUSH1 0x40 DUP4 ADD SWAP1 DUP2 MSTORE PUSH2 0x621 PUSH1 0x2 DUP4 ADD SLOAD PUSH1 0x60 DUP6 ADD SWAP1 DUP2 MSTORE PUSH2 0x5B4 PUSH1 0x3 DUP6 ADD PUSH2 0x31B6 JUMP JUMPDEST SWAP1 PUSH1 0x80 DUP7 ADD SWAP2 DUP3 MSTORE PUSH1 0xFF PUSH1 0x5 PUSH1 0x4 DUP8 ADD SLOAD SWAP7 PUSH1 0xA0 DUP10 ADD SWAP8 DUP9 MSTORE ADD SLOAD AND SWAP4 PUSH1 0xC0 DUP8 ADD SWAP5 ISZERO ISZERO DUP6 MSTORE PUSH1 0x40 MLOAD SWAP8 DUP9 SWAP8 PUSH1 0x20 DUP10 MSTORE PUSH1 0x1 DUP1 PUSH1 0xA0 SHL SUB SWAP1 MLOAD AND PUSH1 0x20 DUP10 ADD MSTORE MLOAD PUSH2 0x5FD DUP2 PUSH2 0x3156 JUMP JUMPDEST PUSH1 0x40 DUP9 ADD MSTORE MLOAD PUSH1 0x60 DUP8 ADD MSTORE MLOAD PUSH1 0x80 DUP7 ADD MSTORE MLOAD PUSH1 0xE0 PUSH1 0xA0 DUP7 ADD MSTORE PUSH2 0x100 DUP6 ADD SWAP1 PUSH2 0x30F9 JUMP JUMPDEST SWAP2 MLOAD PUSH1 0xC0 DUP5 ADD MSTORE MLOAD ISZERO ISZERO PUSH1 0xE0 DUP4 ADD MSTORE SUB SWAP1 RETURN JUMPDEST POP PUSH1 0x2 SLOAD DUP2 GT ISZERO PUSH2 0x536 JUMP JUMPDEST CALLVALUE PUSH2 0x275 JUMPI PUSH1 0x0 CALLDATASIZE PUSH1 0x3 NOT ADD SLT PUSH2 0x275 JUMPI PUSH1 0x20 PUSH1 0x40 MLOAD PUSH32 0x65D7A28E3265B37A6474929F336521B332C1681B933F6CB9F3376673440D862A DUP2 MSTORE RETURN JUMPDEST CALLVALUE PUSH2 0x275 JUMPI PUSH1 0x20 CALLDATASIZE PUSH1 0x3 NOT ADD SLT PUSH2 0x275 JUMPI PUSH1 0x4 CALLDATALOAD PUSH1 0x0 SWAP1 DUP2 MSTORE PUSH1 0x5 PUSH1 0x20 MSTORE PUSH1 0x40 SWAP1 KECCAK256 DUP1 SLOAD PUSH1 0x1 DUP3 ADD SLOAD PUSH1 0x1 PUSH1 0x1 PUSH1 0xA0 SHL SUB AND SWAP2 PUSH2 0x6BA PUSH1 0x2 DUP3 ADD PUSH2 0x31B6 JUMP JUMPDEST PUSH1 0x3 DUP3 ADD SLOAD PUSH1 0xFF AND SWAP2 PUSH1 0x4 DUP2 ADD SLOAD PUSH1 0x5 DUP3 ADD SLOAD PUSH1 0x6 DUP4 ADD PUSH2 0x6DA SWAP1 PUSH2 0x31B6 JUMP JUMPDEST PUSH1 0x7 DUP5 ADD SLOAD SWAP6 DUP7 PUSH1 0x8 SHR PUSH1 0xFF AND SWAP3 PUSH1 0x8 DUP7 ADD SLOAD SWAP5 PUSH1 0x9 DUP8 ADD SLOAD SWAP7 PUSH1 0xA ADD SLOAD SWAP8 PUSH1 0x40 MLOAD SWAP12 DUP13 SWAP12 DUP13 MSTORE PUSH1 0x20 DUP13 ADD MSTORE PUSH1 0x40 DUP12 ADD PUSH2 0x180 SWAP1 MSTORE PUSH2 0x180 DUP12 ADD PUSH2 0x71D SWAP2 PUSH2 0x30F9 JUMP JUMPDEST SWAP3 PUSH1 0x60 DUP12 ADD PUSH2 0x72B SWAP2 PUSH2 0x325A JUMP JUMPDEST PUSH1 0x80 DUP11 ADD MSTORE PUSH1 0xA0 DUP10 ADD MSTORE DUP8 DUP2 SUB PUSH1 0xC0 DUP10 ADD MSTORE PUSH2 0x746 SWAP2 PUSH2 0x30F9 JUMP JUMPDEST SWAP5 PUSH2 0x758 SWAP1 PUSH1 0xE0 DUP9 ADD SWAP1 PUSH1 0xFF AND PUSH2 0x3267 JUMP JUMPDEST PUSH2 0x761 DUP2 PUSH2 0x3156 JUMP JUMPDEST PUSH2 0x100 DUP7 ADD MSTORE PUSH2 0x120 DUP6 ADD MSTORE PUSH2 0x140 DUP5 ADD MSTORE PUSH2 0x160 DUP4 ADD MSTORE SUB SWAP1 RETURN JUMPDEST CALLVALUE PUSH2 0x275 JUMPI PUSH1 0x40 CALLDATASIZE PUSH1 0x3 NOT ADD SLT PUSH2 0x275 JUMPI PUSH2 0x7B3 PUSH1 0x4 CALLDATALOAD PUSH2 0x79C PUSH2 0x2FFF JUMP JUMPDEST SWAP1 PUSH2 0x7AE PUSH2 0x7A9 DUP3 PUSH2 0x32F7 JUMP JUMPDEST PUSH2 0x34A3 JUMP JUMPDEST PUSH2 0x3834 JUMP JUMPDEST STOP JUMPDEST CALLVALUE PUSH2 0x275 JUMPI PUSH1 0xA0 CALLDATASIZE PUSH1 0x3 NOT ADD SLT PUSH2 0x275 JUMPI PUSH1 0x4 CALLDATALOAD PUSH1 0x1 PUSH1 0x1 PUSH1 0x40 SHL SUB DUP2 GT PUSH2 0x275 JUMPI PUSH2 0x7E5 SWAP1 CALLDATASIZE SWAP1 PUSH1 0x4 ADD PUSH2 0x30DB JUMP JUMPDEST PUSH1 0x24 CALLDATALOAD PUSH1 0x5 DUP2 LT ISZERO PUSH2 0x275 JUMPI PUSH1 0x84 CALLDATALOAD PUSH1 0x1 PUSH1 0x1 PUSH1 0x40 SHL SUB DUP2 GT PUSH2 0x275 JUMPI PUSH2 0x810 SWAP1 CALLDATASIZE SWAP1 PUSH1 0x4 ADD PUSH2 0x30DB JUMP JUMPDEST SWAP2 PUSH2 0x819 PUSH2 0x33A7 JUMP JUMPDEST DUP1 MLOAD ISZERO PUSH2 0xE04 JUMPI PUSH1 0x44 CALLDATALOAD ISZERO PUSH2 0xDBF JUMPI PUSH2 0xE10 TIMESTAMP ADD DUP1 TIMESTAMP GT PUSH2 0xDA9 JUMPI PUSH1 0x64 CALLDATALOAD GT ISZERO PUSH2 0xD70 JUMPI PUSH1 0x0 DUP1 SLOAD PUSH1 0x40 MLOAD PUSH4 0x23B872DD PUSH1 0xE0 SHL DUP2 MSTORE CALLER PUSH1 0x4 DUP3 ADD MSTORE ADDRESS PUSH1 0x24 DUP3 ADD MSTORE PUSH1 0x44 DUP1 CALLDATALOAD SWAP1 DUP3 ADD MSTORE SWAP2 PUSH1 0x20 SWAP2 DUP4 SWAP2 PUSH1 0x64 SWAP2 DUP4 SWAP2 SWAP1 PUSH1 0x1 PUSH1 0x1 PUSH1 0xA0 SHL SUB AND GAS CALL SWAP1 DUP2 ISZERO PUSH2 0xD64 JUMPI PUSH1 0x0 SWAP2 PUSH2 0xD35 JUMPI JUMPDEST POP ISZERO PUSH2 0xCF8 JUMPI PUSH2 0x899 PUSH1 0x2 SLOAD PUSH2 0x32E8 JUMP JUMPDEST SWAP2 DUP3 PUSH1 0x2 SSTORE PUSH1 0x40 MLOAD SWAP3 PUSH2 0x8AB DUP5 PUSH2 0x304C JUMP JUMPDEST DUP1 DUP5 MSTORE PUSH1 0x20 DUP5 ADD SWAP5 CALLER DUP7 MSTORE PUSH2 0x8CA PUSH1 0x40 DUP7 ADD SWAP4 DUP6 DUP6 MSTORE PUSH1 0x60 DUP8 ADD PUSH2 0x337C JUMP JUMPDEST PUSH1 0x44 CALLDATALOAD PUSH1 0x80 DUP7 ADD MSTORE PUSH1 0x64 CALLDATALOAD PUSH1 0xA0 DUP7 ADD MSTORE PUSH1 0xC0 DUP6 ADD MSTORE PUSH1 0x0 PUSH1 0xE0 DUP6 ADD MSTORE PUSH1 0x0 PUSH2 0x100 DUP6 ADD MSTORE PUSH1 0x0 PUSH2 0x120 DUP6 ADD MSTORE PUSH1 0x0 PUSH2 0x140 DUP6 ADD MSTORE TIMESTAMP PUSH2 0x160 DUP6 ADD MSTORE PUSH1 0x0 MSTORE PUSH1 0x5 PUSH1 0x20 MSTORE PUSH1 0x40 PUSH1 0x0 KECCAK256 SWAP4 DUP4 MLOAD DUP6 SSTORE PUSH1 0x1 DUP1 PUSH1 0xA0 SHL SUB SWAP1 MLOAD AND PUSH1 0x1 DUP6 ADD SWAP1 PUSH1 0x1 DUP1 PUSH1 0xA0 SHL SUB AND PUSH1 0x1 PUSH1 0x1 PUSH1 0x60 SHL SUB PUSH1 0xA0 SHL DUP3 SLOAD AND OR SWAP1 SSTORE MLOAD SWAP3 DUP4 MLOAD PUSH1 0x1 PUSH1 0x1 PUSH1 0x40 SHL SUB DUP2 GT PUSH2 0xCE2 JUMPI PUSH2 0x95E PUSH1 0x2 DUP4 ADD SLOAD PUSH2 0x317C JUMP JUMPDEST PUSH1 0x1F DUP2 GT PUSH2 0xC97 JUMPI JUMPDEST POP PUSH1 0x20 PUSH1 0x1F DUP3 GT PUSH1 0x1 EQ PUSH2 0xC29 JUMPI DUP2 SWAP3 SWAP4 SWAP5 SWAP6 PUSH1 0x0 SWAP3 PUSH2 0xC1E JUMPI JUMPDEST POP POP DUP2 PUSH1 0x1 SHL SWAP2 PUSH1 0x0 NOT SWAP1 PUSH1 0x3 SHL SHR NOT AND OR PUSH1 0x2 DUP3 ADD SSTORE JUMPDEST PUSH1 0x60 DUP4 ADD MLOAD SWAP3 PUSH1 0x3 DUP3 ADD PUSH1 0x5 DUP6 LT ISZERO PUSH2 0x4BA JUMPI PUSH1 0x0 SWAP5 PUSH1 0xFF DUP1 NOT DUP4 SLOAD AND SWAP2 AND OR SWAP1 SSTORE PUSH1 0x80 DUP2 ADD MLOAD PUSH1 0x4 DUP4 ADD SSTORE PUSH1 0xA0 DUP2 ADD MLOAD PUSH1 0x5 DUP4 ADD SSTORE PUSH1 0x6 DUP3 ADD PUSH1 0xC0 DUP3 ADD MLOAD DUP1 MLOAD SWAP1 PUSH1 0x1 PUSH1 0x1 PUSH1 0x40 SHL SUB DUP3 GT PUSH2 0xC0A JUMPI DUP2 SWAP1 PUSH2 0x9F6 DUP5 SLOAD PUSH2 0x317C JUMP JUMPDEST PUSH1 0x1F DUP2 GT PUSH2 0xBBA JUMPI JUMPDEST POP PUSH1 0x20 SWAP1 PUSH1 0x1F DUP4 GT PUSH1 0x1 EQ PUSH2 0xB57 JUMPI DUP9 SWAP3 PUSH2 0xB4C JUMPI JUMPDEST POP POP DUP2 PUSH1 0x1 SHL SWAP2 PUSH1 0x0 NOT SWAP1 PUSH1 0x3 SHL SHR NOT AND OR SWAP1 SSTORE JUMPDEST PUSH1 0x7 DUP3 ADD PUSH1 0xE0 DUP3 ADD MLOAD PUSH1 0x4 DUP2 LT ISZERO PUSH2 0xB38 JUMPI SWAP2 PUSH2 0xA68 PUSH2 0x160 SWAP3 PUSH1 0xA SWAP5 PUSH1 0xFF DUP1 NOT DUP4 SLOAD AND SWAP2 AND OR DUP2 SSTORE PUSH2 0x100 DUP4 ADD MLOAD SWAP1 PUSH2 0xA63 DUP3 PUSH2 0x3156 JUMP JUMPDEST PUSH2 0x3388 JUMP JUMPDEST PUSH2 0x120 DUP2 ADD MLOAD PUSH1 0x8 DUP6 ADD SSTORE PUSH2 0x140 DUP2 ADD MLOAD PUSH1 0x9 DUP6 ADD SSTORE ADD MLOAD SWAP2 ADD SSTORE CALLER DUP3 MSTORE PUSH1 0x8 PUSH1 0x20 MSTORE PUSH1 0x40 DUP3 KECCAK256 PUSH1 0x2 SLOAD SWAP1 DUP1 SLOAD SWAP4 PUSH1 0x1 PUSH1 0x40 SHL DUP6 LT ISZERO PUSH2 0xB24 JUMPI POP DUP4 PUSH2 0xAB5 SWAP2 PUSH1 0x1 PUSH1 0x20 SWAP7 ADD DUP2 SSTORE PUSH2 0x2FBB JUMP JUMPDEST DUP2 SWAP3 SWAP2 SLOAD SWAP1 PUSH1 0x3 SHL SWAP2 DUP3 SHL SWAP2 PUSH1 0x0 NOT SWAP1 SHL NOT AND OR SWAP1 SSTORE PUSH1 0x2 SLOAD SWAP1 DUP2 PUSH32 0x4E9FF8DEBCE04524518777FDF120513B8F7E1F434DA1099FD190D1AAE0D495B6 PUSH2 0xB06 PUSH1 0x40 MLOAD SWAP4 PUSH1 0x60 DUP6 MSTORE PUSH1 0x60 DUP6 ADD SWAP1 PUSH2 0x30F9 JUMP JUMPDEST SWAP3 PUSH1 0x44 CALLDATALOAD DUP7 DUP3 ADD MSTORE PUSH1 0x64 CALLDATALOAD PUSH1 0x40 DUP3 ADD MSTORE DUP1 CALLER SWAP5 SUB SWAP1 LOG3 PUSH1 0x40 MLOAD SWAP1 DUP2 MSTORE RETURN JUMPDEST PUSH4 0x4E487B71 PUSH1 0xE0 SHL DUP2 MSTORE PUSH1 0x41 PUSH1 0x4 MSTORE PUSH1 0x24 SWAP1 REVERT JUMPDEST PUSH4 0x4E487B71 PUSH1 0xE0 SHL DUP7 MSTORE PUSH1 0x21 PUSH1 0x4 MSTORE PUSH1 0x24 DUP7 REVERT JUMPDEST ADD MLOAD SWAP1 POP DUP8 DUP1 PUSH2 0xA15 JUMP JUMPDEST DUP5 DUP10 MSTORE DUP2 DUP10 KECCAK256 SWAP3 POP PUSH1 0x1F NOT DUP5 AND DUP10 JUMPDEST DUP2 DUP2 LT PUSH2 0xBA2 JUMPI POP SWAP1 DUP5 PUSH1 0x1 SWAP6 SWAP5 SWAP4 SWAP3 LT PUSH2 0xB89 JUMPI JUMPDEST POP POP POP DUP2 SHL ADD SWAP1 SSTORE PUSH2 0xA2A JUMP JUMPDEST ADD MLOAD PUSH1 0x0 NOT PUSH1 0xF8 DUP5 PUSH1 0x3 SHL AND SHR NOT AND SWAP1 SSTORE DUP8 DUP1 DUP1 PUSH2 0xB7C JUMP JUMPDEST SWAP3 SWAP4 PUSH1 0x20 PUSH1 0x1 DUP2 SWAP3 DUP8 DUP7 ADD MLOAD DUP2 SSTORE ADD SWAP6 ADD SWAP4 ADD PUSH2 0xB66 JUMP JUMPDEST SWAP1 SWAP2 POP DUP4 DUP9 MSTORE PUSH1 0x20 DUP9 KECCAK256 PUSH1 0x1F DUP5 ADD PUSH1 0x5 SHR DUP2 ADD SWAP2 PUSH1 0x20 DUP6 LT PUSH2 0xC00 JUMPI JUMPDEST SWAP1 PUSH1 0x1F DUP6 SWAP5 SWAP4 SWAP3 ADD PUSH1 0x5 SHR ADD SWAP1 JUMPDEST DUP2 DUP2 LT PUSH2 0xBF2 JUMPI POP PUSH2 0x9FF JUMP JUMPDEST DUP10 DUP2 SSTORE DUP5 SWAP4 POP PUSH1 0x1 ADD PUSH2 0xBE5 JUMP JUMPDEST SWAP1 SWAP2 POP DUP2 SWAP1 PUSH2 0xBD7 JUMP JUMPDEST PUSH4 0x4E487B71 PUSH1 0xE0 SHL DUP8 MSTORE PUSH1 0x41 PUSH1 0x4 MSTORE PUSH1 0x24 DUP8 REVERT JUMPDEST ADD MLOAD SWAP1 POP DUP6 DUP1 PUSH2 0x982 JUMP JUMPDEST PUSH1 0x2 DUP4 ADD PUSH1 0x0 MSTORE DUP1 PUSH1 0x0 KECCAK256 SWAP1 PUSH1 0x0 JUMPDEST PUSH1 0x1F NOT DUP5 AND DUP2 LT PUSH2 0xC7F JUMPI POP PUSH1 0x1 SWAP4 SWAP5 SWAP6 SWAP7 DUP4 PUSH1 0x1F NOT DUP2 AND LT PUSH2 0xC66 JUMPI JUMPDEST POP POP POP DUP2 SHL ADD PUSH1 0x2 DUP3 ADD SSTORE PUSH2 0x99A JUMP JUMPDEST ADD MLOAD PUSH1 0x0 NOT PUSH1 0xF8 DUP5 PUSH1 0x3 SHL AND SHR NOT AND SWAP1 SSTORE DUP6 DUP1 DUP1 PUSH2 0xC56 JUMP JUMPDEST SWAP1 SWAP2 PUSH1 0x20 PUSH1 0x1 DUP2 SWAP3 DUP6 DUP12 ADD MLOAD DUP2 SSTORE ADD SWAP4 ADD SWAP2 ADD PUSH2 0xC38 JUMP JUMPDEST PUSH1 0x2 DUP4 ADD PUSH1 0x0 MSTORE PUSH1 0x20 PUSH1 0x0 KECCAK256 PUSH1 0x1F DUP4 ADD PUSH1 0x5 SHR DUP2 ADD SWAP2 PUSH1 0x20 DUP5 LT PUSH2 0xCD8 JUMPI JUMPDEST PUSH1 0x1F ADD PUSH1 0x5 SHR ADD SWAP1 JUMPDEST DUP2 DUP2 LT PUSH2 0xCCC JUMPI POP PUSH2 0x967 JUMP JUMPDEST PUSH1 0x0 DUP2 SSTORE PUSH1 0x1 ADD PUSH2 0xCBF JUMP JUMPDEST SWAP1 SWAP2 POP DUP2 SWAP1 PUSH2 0xCB6 JUMP JUMPDEST PUSH4 0x4E487B71 PUSH1 0xE0 SHL PUSH1 0x0 MSTORE PUSH1 0x41 PUSH1 0x4 MSTORE PUSH1 0x24 PUSH1 0x0 REVERT JUMPDEST PUSH1 0x40 MLOAD PUSH3 0x461BCD PUSH1 0xE5 SHL DUP2 MSTORE PUSH1 0x20 PUSH1 0x4 DUP3 ADD MSTORE PUSH1 0x15 PUSH1 0x24 DUP3 ADD MSTORE PUSH21 0x151BDAD95B881D1C985B9CD9995C8819985A5B1959 PUSH1 0x5A SHL PUSH1 0x44 DUP3 ADD MSTORE PUSH1 0x64 SWAP1 REVERT JUMPDEST PUSH2 0xD57 SWAP2 POP PUSH1 0x20 RETURNDATASIZE PUSH1 0x20 GT PUSH2 0xD5D JUMPI JUMPDEST PUSH2 0xD4F DUP2 DUP4 PUSH2 0x3068 JUMP JUMPDEST DUP2 ADD SWAP1 PUSH2 0x32C3 JUMP JUMPDEST DUP5 PUSH2 0x888 JUMP JUMPDEST POP RETURNDATASIZE PUSH2 0xD45 JUMP JUMPDEST PUSH1 0x40 MLOAD RETURNDATASIZE PUSH1 0x0 DUP3 RETURNDATACOPY RETURNDATASIZE SWAP1 REVERT JUMPDEST PUSH1 0x40 MLOAD PUSH3 0x461BCD PUSH1 0xE5 SHL DUP2 MSTORE PUSH1 0x20 PUSH1 0x4 DUP3 ADD MSTORE PUSH1 0x11 PUSH1 0x24 DUP3 ADD MSTORE PUSH17 0x2232B0B23634B732903A37B79039B7B7B7 PUSH1 0x79 SHL PUSH1 0x44 DUP3 ADD MSTORE PUSH1 0x64 SWAP1 REVERT JUMPDEST PUSH4 0x4E487B71 PUSH1 0xE0 SHL PUSH1 0x0 MSTORE PUSH1 0x11 PUSH1 0x4 MSTORE PUSH1 0x24 PUSH1 0x0 REVERT JUMPDEST PUSH1 0x40 MLOAD PUSH3 0x461BCD PUSH1 0xE5 SHL DUP2 MSTORE PUSH1 0x20 PUSH1 0x4 DUP3 ADD MSTORE PUSH1 0x17 PUSH1 0x24 DUP3 ADD MSTORE PUSH32 0x526577617264206D75737420626520706F736974697665000000000000000000 PUSH1 0x44 DUP3 ADD MSTORE PUSH1 0x64 SWAP1 REVERT JUMPDEST PUSH1 0x40 MLOAD PUSH3 0x461BCD PUSH1 0xE5 SHL DUP2 MSTORE PUSH1 0x20 PUSH1 0x4 DUP3 ADD MSTORE PUSH1 0x15 PUSH1 0x24 DUP3 ADD MSTORE PUSH21 0x92DCECC2D8D2C840C2E4E8D2CCC2C6E840D0C2E6D PUSH1 0x5B SHL PUSH1 0x44 DUP3 ADD MSTORE PUSH1 0x64 SWAP1 REVERT JUMPDEST CALLVALUE PUSH2 0x275 JUMPI PUSH1 0x0 CALLDATASIZE PUSH1 0x3 NOT ADD SLT PUSH2 0x275 JUMPI PUSH1 0x20 PUSH1 0x40 MLOAD PUSH3 0x15180 DUP2 MSTORE RETURN JUMPDEST CALLVALUE PUSH2 0x275 JUMPI PUSH1 0x20 CALLDATASIZE PUSH1 0x3 NOT ADD SLT PUSH2 0x275 JUMPI PUSH1 0x4 CALLDATALOAD DUP1 ISZERO ISZERO DUP1 PUSH2 0xF2F JUMPI JUMPDEST PUSH2 0xE85 SWAP1 PUSH2 0x3274 JUMP JUMPDEST PUSH1 0x0 MSTORE PUSH1 0x7 PUSH1 0x20 MSTORE PUSH1 0x40 PUSH1 0x0 KECCAK256 PUSH1 0x40 MLOAD DUP1 PUSH1 0x20 DUP4 SLOAD SWAP2 DUP3 DUP2 MSTORE ADD SWAP1 DUP2 SWAP4 PUSH1 0x0 MSTORE PUSH1 0x20 PUSH1 0x0 KECCAK256 SWAP1 PUSH1 0x0 JUMPDEST DUP2 DUP2 LT PUSH2 0xF10 JUMPI POP POP POP DUP2 PUSH2 0xEC4 SWAP2 SUB DUP3 PUSH2 0x3068 JUMP JUMPDEST PUSH1 0x40 MLOAD SWAP2 DUP3 SWAP2 PUSH1 0x20 DUP4 ADD SWAP1 PUSH1 0x20 DUP5 MSTORE MLOAD DUP1 SWAP2 MSTORE PUSH1 0x40 DUP4 ADD SWAP2 SWAP1 PUSH1 0x0 JUMPDEST DUP2 DUP2 LT PUSH2 0xEEE JUMPI POP POP POP SUB SWAP1 RETURN JUMPDEST DUP3 MLOAD PUSH1 0x1 PUSH1 0x1 PUSH1 0xA0 SHL SUB AND DUP5 MSTORE DUP6 SWAP5 POP PUSH1 0x20 SWAP4 DUP5 ADD SWAP4 SWAP1 SWAP3 ADD SWAP2 PUSH1 0x1 ADD PUSH2 0xEE0 JUMP JUMPDEST DUP3 SLOAD PUSH1 0x1 PUSH1 0x1 PUSH1 0xA0 SHL SUB AND DUP5 MSTORE PUSH1 0x20 SWAP1 SWAP4 ADD SWAP3 PUSH1 0x1 SWAP3 DUP4 ADD SWAP3 ADD PUSH2 0xEAE JUMP JUMPDEST POP PUSH1 0x2 SLOAD DUP2 GT ISZERO PUSH2 0xE7C JUMP JUMPDEST CALLVALUE PUSH2 0x275 JUMPI PUSH1 0x0 CALLDATASIZE PUSH1 0x3 NOT ADD SLT PUSH2 0x275 JUMPI PUSH1 0x4 SLOAD PUSH1 0x40 MLOAD PUSH1 0x1 PUSH1 0x1 PUSH1 0xA0 SHL SUB SWAP1 SWAP2 AND DUP2 MSTORE PUSH1 0x20 SWAP1 RETURN JUMPDEST CALLVALUE PUSH2 0x275 JUMPI PUSH1 0x60 CALLDATASIZE PUSH1 0x3 NOT ADD SLT PUSH2 0x275 JUMPI PUSH2 0xF7D PUSH2 0x2FE9 JUMP JUMPDEST PUSH2 0xF85 PUSH2 0x2FFF JUMP JUMPDEST PUSH1 0x44 CALLDATALOAD PUSH1 0x1 PUSH1 0x1 PUSH1 0xA0 SHL SUB DUP2 AND SWAP2 SWAP1 DUP3 SWAP1 SUB PUSH2 0x275 JUMPI PUSH1 0x0 DUP1 MLOAD PUSH1 0x20 PUSH2 0x43BB DUP4 CODECOPY DUP2 MLOAD SWAP2 MSTORE SLOAD SWAP3 PUSH1 0xFF DUP5 PUSH1 0x40 SHR AND ISZERO SWAP4 PUSH1 0x1 PUSH1 0x1 PUSH1 0x40 SHL SUB DUP2 AND DUP1 ISZERO SWAP1 DUP2 PUSH2 0x11FD JUMPI JUMPDEST PUSH1 0x1 EQ SWAP1 DUP2 PUSH2 0x11F3 JUMPI JUMPDEST ISZERO SWAP1 DUP2 PUSH2 0x11EA JUMPI JUMPDEST POP PUSH2 0x11D9 JUMPI PUSH8 0xFFFFFFFFFFFFFFFF NOT DUP2 AND PUSH1 0x1 OR PUSH1 0x0 DUP1 MLOAD PUSH1 0x20 PUSH2 0x43BB DUP4 CODECOPY DUP2 MLOAD SWAP2 MSTORE SSTORE DUP5 PUSH2 0x11AC JUMPI JUMPDEST POP PUSH1 0x1 PUSH1 0x1 PUSH1 0xA0 SHL SUB AND SWAP1 DUP2 ISZERO PUSH2 0x116F JUMPI PUSH1 0x1 PUSH1 0x1 PUSH1 0xA0 SHL SUB AND SWAP1 DUP2 ISZERO PUSH2 0x112A JUMPI PUSH2 0x1030 DUP4 ISZERO ISZERO PUSH2 0x3338 JUMP JUMPDEST PUSH2 0x1038 PUSH2 0x3B13 JUMP JUMPDEST PUSH2 0x1040 PUSH2 0x3B13 JUMP JUMPDEST PUSH2 0x1048 PUSH2 0x3B13 JUMP JUMPDEST PUSH2 0x1050 PUSH2 0x3B13 JUMP JUMPDEST PUSH1 0x1 PUSH1 0x0 DUP1 MLOAD PUSH1 0x20 PUSH2 0x437B DUP4 CODECOPY DUP2 MLOAD SWAP2 MSTORE SSTORE PUSH2 0x106A PUSH2 0x3B13 JUMP JUMPDEST PUSH1 0x1 PUSH1 0x1 PUSH1 0x60 SHL SUB PUSH1 0xA0 SHL PUSH1 0x0 SLOAD AND OR PUSH1 0x0 SSTORE PUSH1 0x1 PUSH1 0x1 PUSH1 0x60 SHL SUB PUSH1 0xA0 SHL PUSH1 0x1 SLOAD AND OR PUSH1 0x1 SSTORE PUSH1 0x1 PUSH1 0x1 PUSH1 0x60 SHL SUB PUSH1 0xA0 SHL PUSH1 0x4 SLOAD AND OR PUSH1 0x4 SSTORE PUSH2 0x10AC CALLER PUSH2 0x34ED JUMP JUMPDEST POP PUSH2 0x10B6 CALLER PUSH2 0x358D JUMP JUMPDEST POP PUSH2 0x10C0 CALLER PUSH2 0x3649 JUMP JUMPDEST POP PUSH2 0x10CA CALLER PUSH2 0x3705 JUMP JUMPDEST POP PUSH2 0x10D1 JUMPI STOP JUMPDEST PUSH9 0xFF0000000000000000 NOT PUSH1 0x0 DUP1 MLOAD PUSH1 0x20 PUSH2 0x43BB DUP4 CODECOPY DUP2 MLOAD SWAP2 MSTORE SLOAD AND PUSH1 0x0 DUP1 MLOAD PUSH1 0x20 PUSH2 0x43BB DUP4 CODECOPY DUP2 MLOAD SWAP2 MSTORE SSTORE PUSH32 0xC7F505B2F371AE2175EE4913F4499E1F2633A7B5936321EED1CDAEB6115181D2 PUSH1 0x20 PUSH1 0x40 MLOAD PUSH1 0x1 DUP2 MSTORE LOG1 STOP JUMPDEST PUSH1 0x40 MLOAD PUSH3 0x461BCD PUSH1 0xE5 SHL DUP2 MSTORE PUSH1 0x20 PUSH1 0x4 DUP3 ADD MSTORE PUSH1 0x19 PUSH1 0x24 DUP3 ADD MSTORE PUSH32 0x496E76616C69642072657075746174696F6E2073797374656D00000000000000 PUSH1 0x44 DUP3 ADD MSTORE PUSH1 0x64 SWAP1 REVERT JUMPDEST PUSH1 0x40 MLOAD PUSH3 0x461BCD PUSH1 0xE5 SHL DUP2 MSTORE PUSH1 0x20 PUSH1 0x4 DUP3 ADD MSTORE PUSH1 0x15 PUSH1 0x24 DUP3 ADD MSTORE PUSH21 0x496E76616C696420746F6B656E2061646472657373 PUSH1 0x58 SHL PUSH1 0x44 DUP3 ADD MSTORE PUSH1 0x64 SWAP1 REVERT JUMPDEST PUSH9 0xFFFFFFFFFFFFFFFFFF NOT AND PUSH9 0x10000000000000001 OR PUSH1 0x0 DUP1 MLOAD PUSH1 0x20 PUSH2 0x43BB DUP4 CODECOPY DUP2 MLOAD SWAP2 MSTORE SSTORE DUP5 PUSH2 0x1004 JUMP JUMPDEST PUSH4 0xF92EE8A9 PUSH1 0xE0 SHL PUSH1 0x0 MSTORE PUSH1 0x4 PUSH1 0x0 REVERT JUMPDEST SWAP1 POP ISZERO DUP7 PUSH2 0xFDA JUMP JUMPDEST ADDRESS EXTCODESIZE ISZERO SWAP2 POP PUSH2 0xFD2 JUMP JUMPDEST DUP7 SWAP2 POP PUSH2 0xFC8 JUMP JUMPDEST CALLVALUE PUSH2 0x275 JUMPI PUSH1 0x40 CALLDATASIZE PUSH1 0x3 NOT ADD SLT PUSH2 0x275 JUMPI PUSH1 0x40 PUSH2 0x1220 PUSH2 0x2FFF JUMP JUMPDEST PUSH1 0x4 CALLDATALOAD PUSH1 0x0 MSTORE PUSH1 0x6 PUSH1 0x20 MSTORE DUP2 PUSH1 0x0 KECCAK256 PUSH1 0x0 SWAP2 PUSH1 0x1 DUP1 PUSH1 0xA0 SHL SUB AND DUP3 MSTORE PUSH1 0x20 MSTORE KECCAK256 DUP1 SLOAD PUSH1 0xFF DUP2 PUSH1 0xA0 SHR AND SWAP2 PUSH1 0x1 DUP2 ADD SLOAD PUSH2 0x12AB PUSH1 0x2 DUP4 ADD SLOAD PUSH2 0x1263 PUSH1 0x3 DUP6 ADD PUSH2 0x31B6 JUMP JUMPDEST SWAP1 PUSH1 0xFF PUSH1 0x5 PUSH1 0x4 DUP8 ADD SLOAD SWAP7 ADD SLOAD AND SWAP4 PUSH1 0x40 MLOAD SWAP8 DUP9 SWAP8 PUSH1 0x1 DUP1 PUSH1 0xA0 SHL SUB AND DUP9 MSTORE PUSH2 0x128B DUP2 PUSH2 0x3156 JUMP JUMPDEST PUSH1 0x20 DUP9 ADD MSTORE PUSH1 0x40 DUP8 ADD MSTORE PUSH1 0x60 DUP7 ADD MSTORE PUSH1 0xE0 PUSH1 0x80 DUP7 ADD MSTORE PUSH1 0xE0 DUP6 ADD SWAP1 PUSH2 0x30F9 JUMP JUMPDEST SWAP2 PUSH1 0xA0 DUP5 ADD MSTORE ISZERO ISZERO PUSH1 0xC0 DUP4 ADD MSTORE SUB SWAP1 RETURN JUMPDEST CALLVALUE PUSH2 0x275 JUMPI PUSH1 0x0 CALLDATASIZE PUSH1 0x3 NOT ADD SLT PUSH2 0x275 JUMPI PUSH1 0x20 PUSH1 0x40 MLOAD PUSH1 0x42 DUP2 MSTORE RETURN JUMPDEST CALLVALUE PUSH2 0x275 JUMPI PUSH2 0x12E6 CALLDATASIZE PUSH2 0x2FA5 JUMP JUMPDEST SWAP1 PUSH1 0x0 MSTORE PUSH1 0xA PUSH1 0x20 MSTORE PUSH1 0x40 PUSH1 0x0 KECCAK256 SWAP1 DUP2 SLOAD DUP2 LT ISZERO PUSH2 0x275 JUMPI PUSH2 0x1307 SWAP2 PUSH2 0x3160 JUMP JUMPDEST POP DUP1 SLOAD PUSH1 0x1 DUP3 ADD SLOAD PUSH1 0x2 DUP4 ADD SLOAD SWAP1 SWAP3 SWAP1 PUSH1 0x1 PUSH1 0x1 PUSH1 0xA0 SHL SUB AND PUSH2 0x132C PUSH1 0x3 DUP4 ADD PUSH2 0x31B6 JUMP JUMPDEST SWAP2 PUSH1 0x4 DUP2 ADD SLOAD SWAP3 PUSH1 0xFF PUSH1 0x5 DUP4 ADD SLOAD AND PUSH2 0x137D PUSH1 0x6 DUP5 ADD SLOAD SWAP3 PUSH1 0x7 DUP6 ADD SLOAD SWAP5 PUSH1 0x8 PUSH1 0x1 DUP1 PUSH1 0xA0 SHL SUB SWAP2 ADD SLOAD AND SWAP6 PUSH1 0x40 MLOAD SWAP10 DUP11 SWAP10 DUP11 MSTORE PUSH1 0x20 DUP11 ADD MSTORE PUSH1 0x40 DUP10 ADD MSTORE PUSH2 0x120 PUSH1 0x60 DUP10 ADD MSTORE PUSH2 0x120 DUP9 ADD SWAP1 PUSH2 0x30F9 JUMP JUMPDEST SWAP5 PUSH1 0x80 DUP8 ADD MSTORE PUSH2 0x138C DUP2 PUSH2 0x3156 JUMP JUMPDEST PUSH1 0xA0 DUP7 ADD MSTORE PUSH1 0xC0 DUP6 ADD MSTORE PUSH1 0xE0 DUP5 ADD MSTORE PUSH2 0x100 DUP4 ADD MSTORE SUB SWAP1 RETURN JUMPDEST CALLVALUE PUSH2 0x275 JUMPI PUSH1 0x0 CALLDATASIZE PUSH1 0x3 NOT ADD SLT PUSH2 0x275 JUMPI PUSH2 0x13EC PUSH1 0x40 DUP1 MLOAD SWAP1 PUSH2 0x13C8 DUP2 DUP4 PUSH2 0x3068 JUMP JUMPDEST PUSH1 0x5 DUP3 MSTORE PUSH5 0x352E302E3 PUSH1 0xDC SHL PUSH1 0x20 DUP4 ADD MSTORE MLOAD SWAP2 DUP3 SWAP2 PUSH1 0x20 DUP4 MSTORE PUSH1 0x20 DUP4 ADD SWAP1 PUSH2 0x30F9 JUMP JUMPDEST SUB SWAP1 RETURN JUMPDEST CALLVALUE PUSH2 0x275 JUMPI PUSH1 0x0 CALLDATASIZE PUSH1 0x3 NOT ADD SLT PUSH2 0x275 JUMPI PUSH1 0x20 PUSH1 0x40 MLOAD PUSH3 0x2A300 DUP2 MSTORE RETURN JUMPDEST CALLVALUE PUSH2 0x275 JUMPI PUSH1 0x20 CALLDATASIZE PUSH1 0x3 NOT ADD SLT PUSH2 0x275 JUMPI PUSH2 0x1427 PUSH2 0x2FE9 JUMP JUMPDEST CALLER PUSH1 0x0 SWAP1 DUP2 MSTORE PUSH32 0xB7DB2DD08FCB62D0C9E08C51941CAE53C267786A0B75803FB7960902FC8EF97D PUSH1 0x20 MSTORE PUSH1 0x40 SWAP1 KECCAK256 SLOAD PUSH1 0xFF AND ISZERO PUSH2 0x148A JUMPI PUSH1 0x1 PUSH1 0x1 PUSH1 0xA0 SHL SUB AND PUSH2 0x1472 DUP2 ISZERO ISZERO PUSH2 0x3338 JUMP JUMPDEST PUSH1 0x1 PUSH1 0x1 PUSH1 0x60 SHL SUB PUSH1 0xA0 SHL PUSH1 0x4 SLOAD AND OR PUSH1 0x4 SSTORE PUSH1 0x0 DUP1 RETURN JUMPDEST PUSH4 0xE2517D3F PUSH1 0xE0 SHL PUSH1 0x0 MSTORE CALLER PUSH1 0x4 MSTORE PUSH1 0x0 PUSH1 0x24 MSTORE PUSH1 0x44 PUSH1 0x0 REVERT JUMPDEST CALLVALUE PUSH2 0x275 JUMPI PUSH1 0x0 CALLDATASIZE PUSH1 0x3 NOT ADD SLT PUSH2 0x275 JUMPI PUSH1 0x20 PUSH1 0x40 MLOAD PUSH1 0x0 DUP2 MSTORE RETURN JUMPDEST CALLVALUE PUSH2 0x275 JUMPI PUSH1 0x0 CALLDATASIZE PUSH1 0x3 NOT ADD SLT PUSH2 0x275 JUMPI PUSH1 0x20 PUSH1 0x2 SLOAD PUSH1 0x40 MLOAD SWAP1 DUP2 MSTORE RETURN JUMPDEST PUSH2 0x313A JUMP JUMPDEST CALLVALUE PUSH2 0x275 JUMPI PUSH1 0x40 CALLDATASIZE PUSH1 0x3 NOT ADD SLT PUSH2 0x275 JUMPI PUSH1 0x4 CALLDATALOAD PUSH1 0x24 CALLDATALOAD PUSH1 0x1 PUSH1 0x1 PUSH1 0x40 SHL SUB DUP2 GT PUSH2 0x275 JUMPI PUSH2 0x1516 SWAP1 CALLDATASIZE SWAP1 PUSH1 0x4 ADD PUSH2 0x30DB JUMP JUMPDEST DUP2 ISZERO ISZERO DUP1 PUSH2 0x1A0C JUMPI JUMPDEST PUSH2 0x1528 SWAP1 PUSH2 0x3274 JUMP JUMPDEST PUSH2 0x1530 PUSH2 0x38D4 JUMP JUMPDEST PUSH2 0x1538 PUSH2 0x33A7 JUMP JUMPDEST DUP2 PUSH1 0x0 MSTORE PUSH1 0x5 PUSH1 0x20 MSTORE PUSH1 0x40 PUSH1 0x0 KECCAK256 SWAP2 PUSH1 0x7 DUP4 ADD SWAP3 PUSH1 0xFF DUP5 SLOAD AND PUSH1 0x4 DUP2 LT ISZERO PUSH2 0x4BA JUMPI PUSH1 0x1 SUB PUSH2 0x19D1 JUMPI PUSH1 0x5 ADD SLOAD PUSH3 0x2A300 DUP2 ADD DUP1 SWAP2 GT PUSH2 0xDA9 JUMPI TIMESTAMP GT PUSH2 0x1995 JUMPI DUP1 PUSH1 0x0 MSTORE PUSH1 0xB PUSH1 0x20 MSTORE PUSH1 0xFF PUSH1 0x40 PUSH1 0x0 KECCAK256 SLOAD AND PUSH2 0x195D JUMPI DUP2 MLOAD ISZERO PUSH2 0x1926 JUMPI PUSH1 0x0 DUP1 SLOAD PUSH1 0x40 MLOAD PUSH4 0x23B872DD PUSH1 0xE0 SHL DUP2 MSTORE CALLER PUSH1 0x4 DUP3 ADD MSTORE ADDRESS PUSH1 0x24 DUP3 ADD MSTORE PUSH9 0x2B5E3AF16B1880000 PUSH1 0x44 DUP3 ADD MSTORE SWAP2 PUSH1 0x20 SWAP2 DUP4 SWAP2 PUSH1 0x64 SWAP2 DUP4 SWAP2 SWAP1 PUSH1 0x1 PUSH1 0x1 PUSH1 0xA0 SHL SUB AND GAS CALL SWAP1 DUP2 ISZERO PUSH2 0xD64 JUMPI PUSH1 0x0 SWAP2 PUSH2 0x1907 JUMPI JUMPDEST POP ISZERO PUSH2 0x18C2 JUMPI PUSH2 0x15F8 PUSH1 0x3 SLOAD PUSH2 0x32E8 JUMP JUMPDEST SWAP3 DUP4 PUSH1 0x3 SSTORE PUSH1 0x40 MLOAD SWAP4 PUSH2 0x160A DUP6 PUSH2 0x3030 JUMP JUMPDEST DUP5 MSTORE PUSH1 0x20 DUP5 ADD SWAP4 DUP3 DUP6 MSTORE PUSH1 0x40 DUP2 ADD SWAP5 CALLER DUP7 MSTORE PUSH1 0x60 DUP3 ADD SWAP6 DUP6 DUP8 MSTORE PUSH1 0x80 DUP4 ADD PUSH9 0x2B5E3AF16B1880000 DUP2 MSTORE PUSH1 0xA0 DUP5 ADD PUSH1 0x0 DUP2 MSTORE PUSH1 0xC0 DUP6 ADD SWAP2 TIMESTAMP DUP4 MSTORE PUSH1 0xE0 DUP7 ADD SWAP4 PUSH1 0x0 DUP6 MSTORE PUSH2 0x100 DUP8 ADD SWAP6 PUSH1 0x0 DUP8 MSTORE DUP10 PUSH1 0x0 MSTORE PUSH1 0xA PUSH1 0x20 MSTORE PUSH1 0x40 PUSH1 0x0 KECCAK256 DUP1 SLOAD PUSH1 0x1 PUSH1 0x40 SHL DUP2 LT ISZERO PUSH2 0xCE2 JUMPI PUSH2 0x1682 SWAP2 PUSH1 0x1 DUP3 ADD DUP2 SSTORE PUSH2 0x3160 JUMP JUMPDEST SWAP9 SWAP1 SWAP9 PUSH2 0x18AC JUMPI MLOAD DUP9 SSTORE MLOAD PUSH1 0x1 DUP9 ADD SSTORE MLOAD PUSH1 0x2 DUP8 ADD DUP1 SLOAD PUSH1 0x1 PUSH1 0x1 PUSH1 0xA0 SHL SUB NOT AND PUSH1 0x1 PUSH1 0x1 PUSH1 0xA0 SHL SUB SWAP3 SWAP1 SWAP3 AND SWAP2 SWAP1 SWAP2 OR SWAP1 SSTORE SWAP9 MLOAD DUP1 MLOAD SWAP1 SWAP10 SWAP1 PUSH1 0x3 DUP8 ADD SWAP1 PUSH1 0x1 PUSH1 0x1 PUSH1 0x40 SHL SUB DUP2 GT PUSH2 0xCE2 JUMPI PUSH2 0x16D9 DUP3 SLOAD PUSH2 0x317C JUMP JUMPDEST PUSH1 0x1F DUP2 GT PUSH2 0x1864 JUMPI JUMPDEST POP PUSH1 0x20 PUSH1 0x1F DUP3 GT PUSH1 0x1 EQ PUSH2 0x17F3 JUMPI DUP2 SWAP1 PUSH1 0x8 SWAP10 SWAP11 SWAP12 SWAP13 SWAP14 PUSH1 0x0 SWAP3 PUSH2 0x17E8 JUMPI JUMPDEST POP POP DUP2 PUSH1 0x1 SHL SWAP2 PUSH1 0x0 NOT SWAP1 PUSH1 0x3 SHL SHR NOT AND OR SWAP1 SSTORE JUMPDEST MLOAD PUSH1 0x4 DUP8 ADD SSTORE PUSH1 0x5 DUP7 ADD SWAP1 MLOAD PUSH2 0x172B DUP2 PUSH2 0x3156 JUMP JUMPDEST PUSH2 0x1734 DUP2 PUSH2 0x3156 JUMP JUMPDEST PUSH1 0xFF DUP1 NOT DUP4 SLOAD AND SWAP2 AND OR SWAP1 SSTORE MLOAD PUSH1 0x6 DUP6 ADD SSTORE MLOAD PUSH1 0x7 DUP5 ADD SSTORE PUSH1 0x1 DUP1 PUSH1 0xA0 SHL SUB SWAP1 MLOAD AND SWAP2 ADD SWAP1 PUSH1 0x1 DUP1 PUSH1 0xA0 SHL SUB AND PUSH1 0x1 PUSH1 0x1 PUSH1 0x60 SHL SUB PUSH1 0xA0 SHL DUP3 SLOAD AND OR SWAP1 SSTORE DUP2 PUSH1 0x0 MSTORE PUSH1 0xB PUSH1 0x20 MSTORE PUSH1 0x40 PUSH1 0x0 KECCAK256 PUSH1 0x1 PUSH1 0xFF NOT DUP3 SLOAD AND OR SWAP1 SSTORE PUSH1 0x2 PUSH1 0xFF NOT DUP3 SLOAD AND OR SWAP1 SSTORE PUSH1 0x3 SLOAD PUSH32 0x187CF2180CF205ABB3A86A43C8A0E9E92FFDC0D1029D2982B525B335A50EFE51 PUSH1 0x40 MLOAD PUSH1 0x20 DUP2 MSTORE DUP1 PUSH2 0x17D1 CALLER SWAP7 PUSH1 0x20 DUP4 ADD SWAP1 PUSH2 0x30F9 JUMP JUMPDEST SUB SWAP1 LOG4 PUSH1 0x1 PUSH1 0x0 DUP1 MLOAD PUSH1 0x20 PUSH2 0x437B DUP4 CODECOPY DUP2 MLOAD SWAP2 MSTORE SSTORE STOP JUMPDEST ADD MLOAD SWAP1 POP DUP14 DUP1 PUSH2 0x1701 JUMP JUMPDEST PUSH1 0x1F NOT DUP3 AND SWAP13 DUP4 PUSH1 0x0 MSTORE DUP2 PUSH1 0x0 KECCAK256 SWAP14 PUSH1 0x0 JUMPDEST DUP2 DUP2 LT PUSH2 0x1847 JUMPI POP SWAP2 PUSH1 0x8 SWAP11 SWAP12 SWAP13 SWAP14 SWAP15 SWAP2 DUP5 PUSH1 0x1 SWAP6 SWAP5 LT PUSH2 0x182E JUMPI JUMPDEST POP POP POP DUP2 SHL ADD SWAP1 SSTORE PUSH2 0x1716 JUMP JUMPDEST ADD MLOAD PUSH1 0x0 NOT PUSH1 0xF8 DUP5 PUSH1 0x3 SHL AND SHR NOT AND SWAP1 SSTORE DUP14 DUP1 DUP1 PUSH2 0x1821 JUMP JUMPDEST SWAP2 SWAP15 DUP16 PUSH1 0x1 PUSH1 0x20 SWAP3 DUP7 DUP5 SWAP4 ADD MLOAD DUP2 SSTORE ADD SWAP5 ADD SWAP3 ADD SWAP15 SWAP2 SWAP3 SWAP15 PUSH2 0x1805 JUMP JUMPDEST DUP3 PUSH1 0x0 MSTORE PUSH1 0x20 PUSH1 0x0 KECCAK256 PUSH1 0x1F DUP4 ADD PUSH1 0x5 SHR DUP2 ADD SWAP2 PUSH1 0x20 DUP5 LT PUSH2 0x18A2 JUMPI JUMPDEST PUSH1 0x1F ADD PUSH1 0x5 SHR ADD SWAP1 JUMPDEST DUP2 DUP2 LT PUSH2 0x1896 JUMPI POP PUSH2 0x16E2 JUMP JUMPDEST PUSH1 0x0 DUP2 SSTORE PUSH1 0x1 ADD PUSH2 0x1889 JUMP JUMPDEST SWAP1 SWAP2 POP DUP2 SWAP1 PUSH2 0x1880 JUMP JUMPDEST PUSH4 0x4E487B71 PUSH1 0xE0 SHL PUSH1 0x0 MSTORE PUSH1 0x0 PUSH1 0x4 MSTORE PUSH1 0x24 PUSH1 0x0 REVERT JUMPDEST PUSH1 0x40 MLOAD PUSH3 0x461BCD PUSH1 0xE5 SHL DUP2 MSTORE PUSH1 0x20 PUSH1 0x4 DUP3 ADD MSTORE PUSH1 0x1D PUSH1 0x24 DUP3 ADD MSTORE PUSH32 0x44697370757465207374616B65207472616E73666572206661696C6564000000 PUSH1 0x44 DUP3 ADD MSTORE PUSH1 0x64 SWAP1 REVERT JUMPDEST PUSH2 0x1920 SWAP2 POP PUSH1 0x20 RETURNDATASIZE PUSH1 0x20 GT PUSH2 0xD5D JUMPI PUSH2 0xD4F DUP2 DUP4 PUSH2 0x3068 JUMP JUMPDEST DUP5 PUSH2 0x15E7 JUMP JUMPDEST PUSH1 0x40 MLOAD PUSH3 0x461BCD PUSH1 0xE5 SHL DUP2 MSTORE PUSH1 0x20 PUSH1 0x4 DUP3 ADD MSTORE PUSH1 0xF PUSH1 0x24 DUP3 ADD MSTORE PUSH15 0x1499585CDBDB881C995C5D5A5C9959 PUSH1 0x8A SHL PUSH1 0x44 DUP3 ADD MSTORE PUSH1 0x64 SWAP1 REVERT JUMPDEST PUSH1 0x40 MLOAD PUSH3 0x461BCD PUSH1 0xE5 SHL DUP2 MSTORE PUSH1 0x20 PUSH1 0x4 DUP3 ADD MSTORE PUSH1 0x10 PUSH1 0x24 DUP3 ADD MSTORE PUSH16 0x105B1C9958591E48191A5CDC1D5D1959 PUSH1 0x82 SHL PUSH1 0x44 DUP3 ADD MSTORE PUSH1 0x64 SWAP1 REVERT JUMPDEST PUSH1 0x40 MLOAD PUSH3 0x461BCD PUSH1 0xE5 SHL DUP2 MSTORE PUSH1 0x20 PUSH1 0x4 DUP3 ADD MSTORE PUSH1 0x14 PUSH1 0x24 DUP3 ADD MSTORE PUSH20 0x111A5CDC1D5D19481C195C9A5BD908195B991959 PUSH1 0x62 SHL PUSH1 0x44 DUP3 ADD MSTORE PUSH1 0x64 SWAP1 REVERT JUMPDEST PUSH1 0x40 MLOAD PUSH3 0x461BCD PUSH1 0xE5 SHL DUP2 MSTORE PUSH1 0x20 PUSH1 0x4 DUP3 ADD MSTORE PUSH1 0x13 PUSH1 0x24 DUP3 ADD MSTORE PUSH19 0x109BDD5B9D1E481B9BDD081C995CDBDB1D9959 PUSH1 0x6A SHL PUSH1 0x44 DUP3 ADD MSTORE PUSH1 0x64 SWAP1 REVERT JUMPDEST POP PUSH1 0x2 SLOAD DUP3 GT ISZERO PUSH2 0x151F JUMP JUMPDEST CALLVALUE PUSH2 0x275 JUMPI PUSH1 0x20 CALLDATASIZE PUSH1 0x3 NOT ADD SLT PUSH2 0x275 JUMPI PUSH1 0x4 CALLDATALOAD DUP1 ISZERO ISZERO DUP1 PUSH2 0x1BFC JUMPI JUMPDEST PUSH2 0x1A3E SWAP1 PUSH2 0x3274 JUMP JUMPDEST PUSH1 0x0 MSTORE PUSH1 0xA PUSH1 0x20 MSTORE PUSH1 0x40 PUSH1 0x0 KECCAK256 DUP1 SLOAD SWAP1 PUSH1 0x1 PUSH1 0x1 PUSH1 0x40 SHL SUB DUP3 GT PUSH2 0xCE2 JUMPI PUSH1 0x40 MLOAD SWAP2 PUSH2 0x1A70 PUSH1 0x20 DUP3 PUSH1 0x5 SHL ADD DUP5 PUSH2 0x3068 JUMP JUMPDEST DUP1 DUP4 MSTORE PUSH1 0x20 DUP4 ADD DUP1 SWAP3 PUSH1 0x0 MSTORE PUSH1 0x20 PUSH1 0x0 KECCAK256 PUSH1 0x0 SWAP2 JUMPDEST DUP4 DUP4 LT PUSH2 0x1B67 JUMPI DUP5 DUP7 PUSH1 0x40 MLOAD SWAP2 DUP3 SWAP2 PUSH1 0x20 DUP4 ADD SWAP1 PUSH1 0x20 DUP5 MSTORE MLOAD DUP1 SWAP2 MSTORE PUSH1 0x40 DUP4 ADD SWAP1 PUSH1 0x40 DUP2 PUSH1 0x5 SHL DUP6 ADD ADD SWAP3 SWAP2 PUSH1 0x0 SWAP1 JUMPDEST DUP3 DUP3 LT PUSH2 0x1AC4 JUMPI POP POP POP POP SUB SWAP1 RETURN JUMPDEST SWAP2 SWAP4 PUSH1 0x1 SWAP2 SWAP4 SWAP6 POP PUSH1 0x20 DUP1 SWAP2 PUSH1 0x3F NOT DUP10 DUP3 SUB ADD DUP6 MSTORE DUP8 MLOAD SWAP1 DUP2 MLOAD DUP2 MSTORE DUP3 DUP3 ADD MLOAD DUP4 DUP3 ADD MSTORE DUP5 DUP1 PUSH1 0xA0 SHL SUB PUSH1 0x40 DUP4 ADD MLOAD AND PUSH1 0x40 DUP3 ADD MSTORE PUSH2 0x100 PUSH2 0x1B17 PUSH1 0x60 DUP5 ADD MLOAD PUSH2 0x120 PUSH1 0x60 DUP6 ADD MSTORE PUSH2 0x120 DUP5 ADD SWAP1 PUSH2 0x30F9 JUMP JUMPDEST SWAP3 PUSH1 0x80 DUP2 ADD MLOAD PUSH1 0x80 DUP5 ADD MSTORE PUSH1 0xA0 DUP2 ADD MLOAD PUSH2 0x1B30 DUP2 PUSH2 0x3156 JUMP JUMPDEST PUSH1 0xA0 DUP5 ADD MSTORE PUSH1 0xC0 DUP2 ADD MLOAD PUSH1 0xC0 DUP5 ADD MSTORE PUSH1 0xE0 DUP2 ADD MLOAD PUSH1 0xE0 DUP5 ADD MSTORE DUP2 DUP8 DUP1 PUSH1 0xA0 SHL SUB SWAP2 ADD MLOAD AND SWAP2 ADD MSTORE SWAP7 ADD SWAP3 ADD SWAP3 ADD DUP6 SWAP5 SWAP4 SWAP2 SWAP3 PUSH2 0x1AB5 JUMP JUMPDEST PUSH1 0x9 PUSH1 0x20 PUSH1 0x1 SWAP3 PUSH1 0x40 MLOAD PUSH2 0x1B7A DUP2 PUSH2 0x3030 JUMP JUMPDEST DUP6 SLOAD DUP2 MSTORE DUP5 DUP7 ADD SLOAD DUP4 DUP3 ADD MSTORE DUP5 DUP1 PUSH1 0xA0 SHL SUB PUSH1 0x2 DUP8 ADD SLOAD AND PUSH1 0x40 DUP3 ADD MSTORE PUSH2 0x1BA3 PUSH1 0x3 DUP8 ADD PUSH2 0x31B6 JUMP JUMPDEST PUSH1 0x60 DUP3 ADD MSTORE PUSH1 0x4 DUP7 ADD SLOAD PUSH1 0x80 DUP3 ADD MSTORE PUSH1 0xFF PUSH1 0x5 DUP8 ADD SLOAD AND PUSH2 0x1BC3 DUP2 PUSH2 0x3156 JUMP JUMPDEST PUSH1 0xA0 DUP3 ADD MSTORE PUSH1 0x6 DUP7 ADD SLOAD PUSH1 0xC0 DUP3 ADD MSTORE PUSH1 0x7 DUP7 ADD SLOAD PUSH1 0xE0 DUP3 ADD MSTORE DUP5 DUP1 PUSH1 0xA0 SHL SUB PUSH1 0x8 DUP8 ADD SLOAD AND PUSH2 0x100 DUP3 ADD MSTORE DUP2 MSTORE ADD SWAP3 ADD SWAP3 ADD SWAP2 SWAP1 PUSH2 0x1A85 JUMP JUMPDEST POP PUSH1 0x2 SLOAD DUP2 GT ISZERO PUSH2 0x1A35 JUMP JUMPDEST CALLVALUE PUSH2 0x275 JUMPI PUSH1 0x40 CALLDATASIZE PUSH1 0x3 NOT ADD SLT PUSH2 0x275 JUMPI PUSH2 0x1C21 PUSH2 0x2FFF JUMP JUMPDEST PUSH1 0x4 CALLDATALOAD PUSH1 0x0 MSTORE PUSH1 0x0 DUP1 MLOAD PUSH1 0x20 PUSH2 0x433B DUP4 CODECOPY DUP2 MLOAD SWAP2 MSTORE PUSH1 0x20 MSTORE PUSH1 0x40 PUSH1 0x0 KECCAK256 SWAP1 PUSH1 0x1 DUP1 PUSH1 0xA0 SHL SUB AND PUSH1 0x0 MSTORE PUSH1 0x20 MSTORE PUSH1 0x20 PUSH1 0xFF PUSH1 0x40 PUSH1 0x0 KECCAK256 SLOAD AND PUSH1 0x40 MLOAD SWAP1 ISZERO ISZERO DUP2 MSTORE RETURN JUMPDEST CALLVALUE PUSH2 0x275 JUMPI PUSH1 0x0 CALLDATASIZE PUSH1 0x3 NOT ADD SLT PUSH2 0x275 JUMPI PUSH1 0x0 SLOAD PUSH1 0x40 MLOAD PUSH1 0x1 PUSH1 0x1 PUSH1 0xA0 SHL SUB SWAP1 SWAP2 AND DUP2 MSTORE PUSH1 0x20 SWAP1 RETURN JUMPDEST CALLVALUE PUSH2 0x275 JUMPI PUSH1 0x0 CALLDATASIZE PUSH1 0x3 NOT ADD SLT PUSH2 0x275 JUMPI PUSH2 0x1CA4 PUSH2 0x3431 JUMP JUMPDEST PUSH2 0x1CAC PUSH2 0x33A7 JUMP JUMPDEST PUSH1 0x1 PUSH1 0xFF NOT PUSH1 0x0 DUP1 MLOAD PUSH1 0x20 PUSH2 0x435B DUP4 CODECOPY DUP2 MLOAD SWAP2 MSTORE SLOAD AND OR PUSH1 0x0 DUP1 MLOAD PUSH1 0x20 PUSH2 0x435B DUP4 CODECOPY DUP2 MLOAD SWAP2 MSTORE SSTORE PUSH32 0x62E78CEA01BEE320CD4E420270B5EA74000D11B0C9F74754EBDBFC544B05A258 PUSH1 0x20 PUSH1 0x40 MLOAD CALLER DUP2 MSTORE LOG1 STOP JUMPDEST CALLVALUE PUSH2 0x275 JUMPI PUSH1 0x0 CALLDATASIZE PUSH1 0x3 NOT ADD SLT PUSH2 0x275 JUMPI PUSH1 0x20 PUSH1 0x3 SLOAD PUSH1 0x40 MLOAD SWAP1 DUP2 MSTORE RETURN JUMPDEST CALLVALUE PUSH2 0x275 JUMPI PUSH1 0x20 CALLDATASIZE PUSH1 0x3 NOT ADD SLT PUSH2 0x275 JUMPI PUSH1 0x4 CALLDATALOAD PUSH1 0x0 MSTORE PUSH1 0xB PUSH1 0x20 MSTORE PUSH1 0x20 PUSH1 0xFF PUSH1 0x40 PUSH1 0x0 KECCAK256 SLOAD AND PUSH1 0x40 MLOAD SWAP1 ISZERO ISZERO DUP2 MSTORE RETURN JUMPDEST CALLVALUE PUSH2 0x275 JUMPI PUSH1 0x40 CALLDATASIZE PUSH1 0x3 NOT ADD SLT PUSH2 0x275 JUMPI PUSH2 0x1D67 PUSH2 0x2FFF JUMP JUMPDEST PUSH1 0x4 CALLDATALOAD PUSH1 0x0 MSTORE PUSH1 0x9 PUSH1 0x20 MSTORE PUSH1 0x40 PUSH1 0x0 KECCAK256 SWAP1 PUSH1 0x1 DUP1 PUSH1 0xA0 SHL SUB AND PUSH1 0x0 MSTORE PUSH1 0x20 MSTORE PUSH1 0x20 PUSH1 0x40 PUSH1 0x0 KECCAK256 SLOAD PUSH1 0x40 MLOAD SWAP1 DUP2 MSTORE RETURN JUMPDEST CALLVALUE PUSH2 0x275 JUMPI PUSH1 0x0 CALLDATASIZE PUSH1 0x3 NOT ADD SLT PUSH2 0x275 JUMPI PUSH1 0x1 SLOAD PUSH1 0x40 MLOAD PUSH1 0x1 PUSH1 0x1 PUSH1 0xA0 SHL SUB SWAP1 SWAP2 AND DUP2 MSTORE PUSH1 0x20 SWAP1 RETURN JUMPDEST CALLVALUE PUSH2 0x275 JUMPI PUSH1 0x0 CALLDATASIZE PUSH1 0x3 NOT ADD SLT PUSH2 0x275 JUMPI PUSH1 0x20 PUSH1 0xFF PUSH1 0x0 DUP1 MLOAD PUSH1 0x20 PUSH2 0x435B DUP4 CODECOPY DUP2 MLOAD SWAP2 MSTORE SLOAD AND PUSH1 0x40 MLOAD SWAP1 ISZERO ISZERO DUP2 MSTORE RETURN JUMPDEST CALLVALUE PUSH2 0x275 JUMPI PUSH1 0x0 CALLDATASIZE PUSH1 0x3 NOT ADD SLT PUSH2 0x275 JUMPI PUSH2 0x13EC PUSH1 0x40 DUP1 MLOAD SWAP1 PUSH2 0x1E12 DUP2 DUP4 PUSH2 0x3068 JUMP JUMPDEST PUSH1 0x5 DUP3 MSTORE PUSH5 0x322E302E3 PUSH1 0xDC SHL PUSH1 0x20 DUP4 ADD MSTORE MLOAD SWAP2 DUP3 SWAP2 PUSH1 0x20 DUP4 MSTORE PUSH1 0x20 DUP4 ADD SWAP1 PUSH2 0x30F9 JUMP JUMPDEST CALLVALUE PUSH2 0x275 JUMPI PUSH1 0x0 CALLDATASIZE PUSH1 0x3 NOT ADD SLT PUSH2 0x275 JUMPI PUSH32 0x0 PUSH1 0x1 PUSH1 0x1 PUSH1 0xA0 SHL SUB AND ADDRESS SUB PUSH2 0x1E8F JUMPI PUSH1 0x20 PUSH1 0x40 MLOAD PUSH1 0x0 DUP1 MLOAD PUSH1 0x20 PUSH2 0x431B DUP4 CODECOPY DUP2 MLOAD SWAP2 MSTORE DUP2 MSTORE RETURN JUMPDEST PUSH4 0x703E46DD PUSH1 0xE1 SHL PUSH1 0x0 MSTORE PUSH1 0x4 PUSH1 0x0 REVERT JUMPDEST PUSH1 0x40 CALLDATASIZE PUSH1 0x3 NOT ADD SLT PUSH2 0x275 JUMPI PUSH2 0x1EB4 PUSH2 0x2FE9 JUMP JUMPDEST PUSH1 0x24 CALLDATALOAD PUSH1 0x1 PUSH1 0x1 PUSH1 0x40 SHL SUB DUP2 GT PUSH2 0x275 JUMPI CALLDATASIZE PUSH1 0x23 DUP3 ADD SLT ISZERO PUSH2 0x275 JUMPI PUSH2 0x1EE4 SWAP1 CALLDATASIZE SWAP1 PUSH1 0x24 DUP2 PUSH1 0x4 ADD CALLDATALOAD SWAP2 ADD PUSH2 0x30A4 JUMP JUMPDEST PUSH1 0x1 PUSH1 0x1 PUSH1 0xA0 SHL SUB PUSH32 0x0 AND ADDRESS DUP2 EQ SWAP1 DUP2 ISZERO PUSH2 0x20F9 JUMPI JUMPDEST POP PUSH2 0x1E8F JUMPI CALLER PUSH1 0x0 SWAP1 DUP2 MSTORE PUSH32 0xAB71E3F32666744D246EDFF3F96E4BDAFEE2E9867098CDD118A979A7464786A8 PUSH1 0x20 MSTORE PUSH1 0x40 SWAP1 KECCAK256 SLOAD PUSH1 0xFF AND ISZERO PUSH2 0x20C0 JUMPI PUSH1 0x40 MLOAD PUSH4 0x52D1902D PUSH1 0xE0 SHL DUP2 MSTORE PUSH1 0x1 PUSH1 0x1 PUSH1 0xA0 SHL SUB DUP4 AND SWAP3 SWAP1 PUSH1 0x20 DUP2 PUSH1 0x4 DUP2 DUP8 GAS STATICCALL PUSH1 0x0 SWAP2 DUP2 PUSH2 0x208C JUMPI JUMPDEST POP PUSH2 0x1F9A JUMPI DUP4 PUSH4 0x4C9C8CE3 PUSH1 0xE0 SHL PUSH1 0x0 MSTORE PUSH1 0x4 MSTORE PUSH1 0x24 PUSH1 0x0 REVERT JUMPDEST DUP1 PUSH1 0x0 DUP1 MLOAD PUSH1 0x20 PUSH2 0x431B DUP4 CODECOPY DUP2 MLOAD SWAP2 MSTORE DUP6 SWAP3 SUB PUSH2 0x2078 JUMPI POP DUP2 EXTCODESIZE ISZERO PUSH2 0x2064 JUMPI PUSH1 0x0 DUP1 MLOAD PUSH1 0x20 PUSH2 0x431B DUP4 CODECOPY DUP2 MLOAD SWAP2 MSTORE DUP1 SLOAD PUSH1 0x1 PUSH1 0x1 PUSH1 0xA0 SHL SUB NOT AND DUP3 OR SWAP1 SSTORE PUSH32 0xBC7CD75A20EE27FD9ADEBAB32041F755214DBC6BFFA90CC0225B39DA2E5C2D3B PUSH1 0x0 DUP1 LOG2 DUP2 MLOAD ISZERO PUSH2 0x204A JUMPI PUSH1 0x0 DUP1 DUP4 PUSH1 0x20 PUSH2 0x7B3 SWAP6 MLOAD SWAP2 ADD DUP5 GAS DELEGATECALL RETURNDATASIZE ISZERO PUSH2 0x2042 JUMPI RETURNDATASIZE SWAP2 PUSH2 0x2025 DUP4 PUSH2 0x3089 JUMP JUMPDEST SWAP3 PUSH2 0x2033 PUSH1 0x40 MLOAD SWAP5 DUP6 PUSH2 0x3068 JUMP JUMPDEST DUP4 MSTORE RETURNDATASIZE PUSH1 0x0 PUSH1 0x20 DUP6 ADD RETURNDATACOPY PUSH2 0x4299 JUMP JUMPDEST PUSH1 0x60 SWAP2 PUSH2 0x4299 JUMP JUMPDEST POP POP CALLVALUE PUSH2 0x2053 JUMPI STOP JUMPDEST PUSH4 0xB398979F PUSH1 0xE0 SHL PUSH1 0x0 MSTORE PUSH1 0x4 PUSH1 0x0 REVERT JUMPDEST PUSH4 0x4C9C8CE3 PUSH1 0xE0 SHL PUSH1 0x0 MSTORE PUSH1 0x4 MSTORE PUSH1 0x24 PUSH1 0x0 REVERT JUMPDEST PUSH4 0x2A875269 PUSH1 0xE2 SHL PUSH1 0x0 MSTORE PUSH1 0x4 MSTORE PUSH1 0x24 PUSH1 0x0 REVERT JUMPDEST SWAP1 SWAP2 POP PUSH1 0x20 DUP2 RETURNDATASIZE PUSH1 0x20 GT PUSH2 0x20B8 JUMPI JUMPDEST DUP2 PUSH2 0x20A8 PUSH1 0x20 SWAP4 DUP4 PUSH2 0x3068 JUMP JUMPDEST DUP2 ADD SUB SLT PUSH2 0x275 JUMPI MLOAD SWAP1 DUP6 PUSH2 0x1F80 JUMP JUMPDEST RETURNDATASIZE SWAP2 POP PUSH2 0x209B JUMP JUMPDEST PUSH4 0xE2517D3F PUSH1 0xE0 SHL PUSH1 0x0 MSTORE CALLER PUSH1 0x4 MSTORE PUSH32 0x189AB7A9244DF0848122154315AF71FE140F3DB0FE014031783B0946B8C9D2E3 PUSH1 0x24 MSTORE PUSH1 0x44 PUSH1 0x0 REVERT JUMPDEST PUSH1 0x0 DUP1 MLOAD PUSH1 0x20 PUSH2 0x431B DUP4 CODECOPY DUP2 MLOAD SWAP2 MSTORE SLOAD PUSH1 0x1 PUSH1 0x1 PUSH1 0xA0 SHL SUB AND EQ ISZERO SWAP1 POP DUP4 PUSH2 0x1F19 JUMP JUMPDEST CALLVALUE PUSH2 0x275 JUMPI PUSH1 0x0 CALLDATASIZE PUSH1 0x3 NOT ADD SLT PUSH2 0x275 JUMPI PUSH2 0x2135 PUSH2 0x3431 JUMP JUMPDEST PUSH1 0x0 DUP1 MLOAD PUSH1 0x20 PUSH2 0x435B DUP4 CODECOPY DUP2 MLOAD SWAP2 MSTORE SLOAD PUSH1 0xFF DUP2 AND ISZERO PUSH2 0x218E JUMPI PUSH1 0xFF NOT AND PUSH1 0x0 DUP1 MLOAD PUSH1 0x20 PUSH2 0x435B DUP4 CODECOPY DUP2 MLOAD SWAP2 MSTORE SSTORE PUSH32 0x5DB9EE0A495BF2E6FF9C91A7834C1BA4FDD244A5E8AA4E537BD38AEAE4B073AA PUSH1 0x20 PUSH1 0x40 MLOAD CALLER DUP2 MSTORE LOG1 STOP JUMPDEST PUSH4 0x8DFC202B PUSH1 0xE0 SHL PUSH1 0x0 MSTORE PUSH1 0x4 PUSH1 0x0 REVERT JUMPDEST CALLVALUE PUSH2 0x275 JUMPI PUSH1 0x60 CALLDATASIZE PUSH1 0x3 NOT ADD SLT PUSH2 0x275 JUMPI PUSH1 0x4 CALLDATALOAD PUSH1 0x44 CALLDATALOAD PUSH1 0x24 CALLDATALOAD DUP2 ISZERO ISZERO DUP3 SUB PUSH2 0x275 JUMPI DUP3 ISZERO ISZERO DUP1 PUSH2 0x2562 JUMPI JUMPDEST PUSH2 0x21D4 SWAP1 PUSH2 0x3274 JUMP JUMPDEST PUSH2 0x21DC PUSH2 0x38D4 JUMP JUMPDEST CALLER PUSH1 0x0 MSTORE PUSH1 0xC PUSH1 0x20 MSTORE PUSH1 0xFF PUSH1 0x40 PUSH1 0x0 KECCAK256 SLOAD AND DUP1 ISZERO PUSH2 0x253C JUMPI JUMPDEST ISZERO PUSH2 0x2506 JUMPI DUP3 PUSH1 0x0 MSTORE PUSH1 0xB PUSH1 0x20 MSTORE PUSH1 0xFF PUSH1 0x40 PUSH1 0x0 KECCAK256 SLOAD AND ISZERO PUSH2 0x24CB JUMPI DUP3 PUSH1 0x0 MSTORE PUSH1 0xA PUSH1 0x20 MSTORE PUSH1 0x40 PUSH1 0x0 KECCAK256 SLOAD DUP2 LT ISZERO PUSH2 0x248E JUMPI PUSH2 0x223E SWAP1 DUP4 PUSH1 0x0 MSTORE PUSH1 0xA PUSH1 0x20 MSTORE PUSH1 0x40 PUSH1 0x0 KECCAK256 PUSH2 0x3160 JUMP JUMPDEST POP PUSH1 0x5 DUP2 ADD SWAP2 DUP3 SLOAD SWAP1 PUSH1 0xFF DUP3 AND PUSH2 0x2254 DUP2 PUSH2 0x3156 JUMP JUMPDEST PUSH2 0x2454 JUMPI ISZERO PUSH2 0x2397 JUMPI POP DUP2 SLOAD PUSH1 0xFF NOT AND PUSH1 0x1 SWAP1 DUP2 OR DUP4 SSTORE PUSH1 0x0 SLOAD PUSH1 0x2 DUP4 ADD SLOAD PUSH1 0x4 DUP5 ADD SLOAD PUSH2 0x22CF SWAP4 PUSH1 0x20 SWAP4 PUSH1 0x1 PUSH1 0x1 PUSH1 0xA0 SHL SUB SWAP4 DUP5 AND SWAP4 AND SWAP2 PUSH2 0x229A SWAP2 DUP2 SWAP1 SHR SWAP1 PUSH2 0x32DB JUMP JUMPDEST PUSH1 0x40 MLOAD PUSH4 0xA9059CBB PUSH1 0xE0 SHL DUP2 MSTORE PUSH1 0x1 PUSH1 0x1 PUSH1 0xA0 SHL SUB SWAP1 SWAP4 AND PUSH1 0x4 DUP5 ADD MSTORE PUSH1 0x24 DUP4 ADD MSTORE SWAP1 SWAP3 DUP4 SWAP2 SWAP1 DUP3 SWAP1 PUSH1 0x0 SWAP1 DUP3 SWAP1 PUSH1 0x44 DUP3 ADD SWAP1 JUMP JUMPDEST SUB SWAP3 GAS CALL DUP1 ISZERO PUSH2 0xD64 JUMPI PUSH32 0x7DC7EF709ED70AF0E3ACA8355C0B8973C38220C136B84B339FA731A8DBDD6F39 SWAP3 PUSH1 0x40 SWAP3 PUSH1 0xFF SWAP3 PUSH2 0x237A JUMPI JUMPDEST POP DUP6 PUSH1 0x0 MSTORE PUSH1 0x5 PUSH1 0x20 MSTORE PUSH1 0x7 DUP4 PUSH1 0x0 KECCAK256 ADD DUP3 NOT DUP2 SLOAD AND SWAP1 SSTORE JUMPDEST TIMESTAMP PUSH1 0x7 DUP3 ADD SSTORE PUSH1 0x8 DUP2 ADD DUP1 SLOAD PUSH1 0x1 PUSH1 0x1 PUSH1 0xA0 SHL SUB NOT AND CALLER OR SWAP1 SSTORE PUSH1 0x0 DUP7 DUP2 MSTORE PUSH1 0xB PUSH1 0x20 MSTORE DUP4 SWAP1 KECCAK256 DUP1 SLOAD DUP4 NOT AND SWAP1 SSTORE SLOAD SWAP4 SLOAD DUP3 MLOAD SWAP2 AND PUSH2 0x235D DUP2 PUSH2 0x3156 JUMP JUMPDEST DUP2 MSTORE CALLER PUSH1 0x20 DUP3 ADD MSTORE LOG3 PUSH1 0x1 PUSH1 0x0 DUP1 MLOAD PUSH1 0x20 PUSH2 0x437B DUP4 CODECOPY DUP2 MLOAD SWAP2 MSTORE SSTORE STOP JUMPDEST PUSH2 0x2392 SWAP1 PUSH1 0x20 RETURNDATASIZE PUSH1 0x20 GT PUSH2 0xD5D JUMPI PUSH2 0xD4F DUP2 DUP4 PUSH2 0x3068 JUMP JUMPDEST PUSH2 0x2306 JUMP JUMPDEST PUSH1 0xFF NOT AND PUSH1 0x2 OR DUP3 SSTORE PUSH1 0x0 DUP1 SLOAD PUSH1 0x4 DUP1 SLOAD DUP5 DUP3 ADD SLOAD PUSH1 0x40 MLOAD PUSH4 0xA9059CBB PUSH1 0xE0 SHL DUP2 MSTORE PUSH1 0x1 PUSH1 0x1 PUSH1 0xA0 SHL SUB SWAP3 DUP4 AND SWAP4 DUP2 ADD SWAP4 SWAP1 SWAP4 MSTORE PUSH1 0x24 DUP4 ADD MSTORE SWAP1 SWAP3 PUSH1 0x20 SWAP3 DUP5 SWAP3 AND SWAP1 DUP3 SWAP1 DUP2 PUSH1 0x44 DUP2 ADD SUB SWAP3 GAS CALL DUP1 ISZERO PUSH2 0xD64 JUMPI PUSH32 0x7DC7EF709ED70AF0E3ACA8355C0B8973C38220C136B84B339FA731A8DBDD6F39 SWAP3 PUSH1 0x40 SWAP3 PUSH1 0xFF SWAP3 PUSH2 0x2437 JUMPI JUMPDEST POP DUP6 PUSH1 0x0 MSTORE PUSH1 0x5 PUSH1 0x20 MSTORE PUSH1 0x7 DUP4 PUSH1 0x0 KECCAK256 ADD PUSH1 0x1 DUP4 NOT DUP3 SLOAD AND OR SWAP1 SSTORE PUSH2 0x231F JUMP JUMPDEST PUSH2 0x244F SWAP1 PUSH1 0x20 RETURNDATASIZE PUSH1 0x20 GT PUSH2 0xD5D JUMPI PUSH2 0xD4F DUP2 DUP4 PUSH2 0x3068 JUMP JUMPDEST PUSH2 0x2417 JUMP JUMPDEST PUSH1 0x40 MLOAD PUSH3 0x461BCD PUSH1 0xE5 SHL DUP2 MSTORE PUSH1 0x20 PUSH1 0x4 DUP3 ADD MSTORE PUSH1 0x12 PUSH1 0x24 DUP3 ADD MSTORE PUSH18 0x44697370757465206E6F7420616374697665 PUSH1 0x70 SHL PUSH1 0x44 DUP3 ADD MSTORE PUSH1 0x64 SWAP1 REVERT JUMPDEST PUSH1 0x40 MLOAD PUSH3 0x461BCD PUSH1 0xE5 SHL DUP2 MSTORE PUSH1 0x20 PUSH1 0x4 DUP3 ADD MSTORE PUSH1 0x15 PUSH1 0x24 DUP3 ADD MSTORE PUSH21 0x92DCECC2D8D2C840C8D2E6E0EAE8CA40D2DCC8CAF PUSH1 0x5B SHL PUSH1 0x44 DUP3 ADD MSTORE PUSH1 0x64 SWAP1 REVERT JUMPDEST PUSH1 0x40 MLOAD PUSH3 0x461BCD PUSH1 0xE5 SHL DUP2 MSTORE PUSH1 0x20 PUSH1 0x4 DUP3 ADD MSTORE PUSH1 0x13 PUSH1 0x24 DUP3 ADD MSTORE PUSH19 0x109BDD5B9D1E481B9BDD08191A5CDC1D5D1959 PUSH1 0x6A SHL PUSH1 0x44 DUP3 ADD MSTORE PUSH1 0x64 SWAP1 REVERT JUMPDEST PUSH1 0x40 MLOAD PUSH3 0x461BCD PUSH1 0xE5 SHL DUP2 MSTORE PUSH1 0x20 PUSH1 0x4 DUP3 ADD MSTORE PUSH1 0xE PUSH1 0x24 DUP3 ADD MSTORE PUSH14 0x139BDD08185D5D1A1BDC9A5E9959 PUSH1 0x92 SHL PUSH1 0x44 DUP3 ADD MSTORE PUSH1 0x64 SWAP1 REVERT JUMPDEST POP CALLER PUSH1 0x0 SWAP1 DUP2 MSTORE PUSH1 0x0 DUP1 MLOAD PUSH1 0x20 PUSH2 0x439B DUP4 CODECOPY DUP2 MLOAD SWAP2 MSTORE PUSH1 0x20 MSTORE PUSH1 0x40 SWAP1 KECCAK256 SLOAD PUSH1 0xFF AND PUSH2 0x21F5 JUMP JUMPDEST POP PUSH1 0x2 SLOAD DUP4 GT ISZERO PUSH2 0x21CB JUMP JUMPDEST CALLVALUE PUSH2 0x275 JUMPI PUSH1 0x40 CALLDATASIZE PUSH1 0x3 NOT ADD SLT PUSH2 0x275 JUMPI PUSH2 0x2587 PUSH2 0x2FFF JUMP JUMPDEST CALLER PUSH1 0x1 PUSH1 0x1 PUSH1 0xA0 SHL SUB DUP3 AND SUB PUSH2 0x25A3 JUMPI PUSH2 0x7B3 SWAP1 PUSH1 0x4 CALLDATALOAD PUSH2 0x3834 JUMP JUMPDEST PUSH4 0x334BD919 PUSH1 0xE1 SHL PUSH1 0x0 MSTORE PUSH1 0x4 PUSH1 0x0 REVERT JUMPDEST CALLVALUE PUSH2 0x275 JUMPI PUSH1 0x20 CALLDATASIZE PUSH1 0x3 NOT ADD SLT PUSH2 0x275 JUMPI PUSH2 0x25CD PUSH2 0x2FE9 JUMP JUMPDEST PUSH2 0x25D5 PUSH2 0x33D1 JUMP JUMPDEST PUSH1 0x1 PUSH1 0x1 PUSH1 0xA0 SHL SUB AND DUP1 ISZERO PUSH2 0x2624 JUMPI DUP1 PUSH1 0x0 MSTORE PUSH1 0xC PUSH1 0x20 MSTORE PUSH1 0x40 PUSH1 0x0 KECCAK256 PUSH1 0x1 PUSH1 0xFF NOT DUP3 SLOAD AND OR SWAP1 SSTORE PUSH32 0x1C376651D9207BF0144DB8010D3775BC2C4B2D648D55D363FC5E73BD6D8DA4DF PUSH1 0x0 DUP1 LOG2 STOP JUMPDEST PUSH1 0x40 MLOAD PUSH3 0x461BCD PUSH1 0xE5 SHL DUP2 MSTORE PUSH1 0x20 PUSH1 0x4 DUP3 ADD MSTORE PUSH1 0xF PUSH1 0x24 DUP3 ADD MSTORE PUSH15 0x496E76616C69642061646472657373 PUSH1 0x88 SHL PUSH1 0x44 DUP3 ADD MSTORE PUSH1 0x64 SWAP1 REVERT JUMPDEST CALLVALUE PUSH2 0x275 JUMPI PUSH1 0x40 CALLDATASIZE PUSH1 0x3 NOT ADD SLT PUSH2 0x275 JUMPI PUSH2 0x7B3 PUSH1 0x4 CALLDATALOAD PUSH2 0x267A PUSH2 0x2FFF JUMP JUMPDEST SWAP1 PUSH2 0x2687 PUSH2 0x7A9 DUP3 PUSH2 0x32F7 JUMP JUMPDEST PUSH2 0x379D JUMP JUMPDEST CALLVALUE PUSH2 0x275 JUMPI PUSH1 0x40 CALLDATASIZE PUSH1 0x3 NOT ADD SLT PUSH2 0x275 JUMPI PUSH2 0x26A5 PUSH2 0x2FE9 JUMP JUMPDEST PUSH1 0x1 PUSH1 0x1 PUSH1 0xA0 SHL SUB AND PUSH1 0x0 SWAP1 DUP2 MSTORE PUSH1 0x8 PUSH1 0x20 MSTORE PUSH1 0x40 SWAP1 KECCAK256 DUP1 SLOAD PUSH1 0x24 CALLDATALOAD SWAP2 SWAP1 DUP3 LT ISZERO PUSH2 0x275 JUMPI PUSH1 0x20 SWAP2 PUSH2 0x26D6 SWAP2 PUSH2 0x2FBB JUMP JUMPDEST SWAP1 SLOAD SWAP1 PUSH1 0x3 SHL SHR PUSH1 0x40 MLOAD SWAP1 DUP2 MSTORE RETURN JUMPDEST CALLVALUE PUSH2 0x275 JUMPI PUSH1 0x20 CALLDATASIZE PUSH1 0x3 NOT ADD SLT PUSH2 0x275 JUMPI PUSH2 0x26FE PUSH2 0x2FE9 JUMP JUMPDEST PUSH2 0x2706 PUSH2 0x33D1 JUMP JUMPDEST PUSH1 0x1 PUSH1 0x1 PUSH1 0xA0 SHL SUB AND PUSH1 0x0 DUP2 DUP2 MSTORE PUSH1 0xC PUSH1 0x20 MSTORE PUSH1 0x40 DUP2 KECCAK256 DUP1 SLOAD PUSH1 0xFF NOT AND SWAP1 SSTORE PUSH32 0xF6E6A15EB088D192F246222A22F245BAC4E98D6F39761885E07F6D73E93B40F5 SWAP1 DUP1 LOG2 STOP JUMPDEST CALLVALUE PUSH2 0x275 JUMPI PUSH1 0x0 CALLDATASIZE PUSH1 0x3 NOT ADD SLT PUSH2 0x275 JUMPI PUSH1 0x20 PUSH1 0x40 MLOAD PUSH8 0x8AC7230489E80000 DUP2 MSTORE RETURN JUMPDEST CALLVALUE PUSH2 0x275 JUMPI PUSH1 0x20 CALLDATASIZE PUSH1 0x3 NOT ADD SLT PUSH2 0x275 JUMPI PUSH1 0x20 PUSH2 0x278C PUSH1 0x4 CALLDATALOAD PUSH2 0x32F7 JUMP JUMPDEST PUSH1 0x40 MLOAD SWAP1 DUP2 MSTORE RETURN JUMPDEST CALLVALUE PUSH2 0x275 JUMPI PUSH1 0xA0 CALLDATASIZE PUSH1 0x3 NOT ADD SLT PUSH2 0x275 JUMPI PUSH1 0x4 CALLDATALOAD PUSH1 0x24 CALLDATALOAD PUSH1 0x3 DUP2 LT ISZERO PUSH2 0x275 JUMPI PUSH1 0x44 CALLDATALOAD SWAP1 PUSH1 0x64 CALLDATALOAD PUSH1 0x84 CALLDATALOAD PUSH1 0x1 PUSH1 0x1 PUSH1 0x40 SHL SUB DUP2 GT PUSH2 0x275 JUMPI PUSH2 0x27DA SWAP1 CALLDATASIZE SWAP1 PUSH1 0x4 ADD PUSH2 0x30DB JUMP JUMPDEST SWAP3 DUP5 ISZERO ISZERO DUP1 PUSH2 0x2E99 JUMPI JUMPDEST PUSH2 0x27ED SWAP1 PUSH2 0x3274 JUMP JUMPDEST DUP5 PUSH1 0x0 MSTORE PUSH1 0x5 PUSH1 0x20 MSTORE PUSH1 0xFF PUSH1 0x7 PUSH1 0x40 PUSH1 0x0 KECCAK256 ADD SLOAD AND PUSH1 0x4 DUP2 LT ISZERO PUSH2 0x4BA JUMPI PUSH2 0x2E60 JUMPI DUP5 PUSH1 0x0 MSTORE PUSH1 0x5 PUSH1 0x20 MSTORE PUSH1 0x5 PUSH1 0x40 PUSH1 0x0 KECCAK256 ADD SLOAD TIMESTAMP GT PUSH2 0x2E2A JUMPI PUSH2 0x282F PUSH2 0x33A7 JUMP JUMPDEST PUSH2 0x2838 DUP4 PUSH2 0x3156 JUMP JUMPDEST DUP3 ISZERO PUSH2 0x2DF3 JUMPI DUP1 ISZERO ISZERO DUP1 PUSH2 0x2DE8 JUMPI JUMPDEST ISZERO PUSH2 0x2DAE JUMPI PUSH8 0x8AC7230489E80000 DUP3 LT PUSH2 0x2D74 JUMPI PUSH1 0x0 DUP6 DUP2 MSTORE PUSH1 0x6 PUSH1 0x20 SWAP1 DUP2 MSTORE PUSH1 0x40 DUP1 DUP4 KECCAK256 CALLER DUP5 MSTORE SWAP1 SWAP2 MSTORE SWAP1 KECCAK256 SLOAD PUSH1 0x1 PUSH1 0x1 PUSH1 0xA0 SHL SUB AND PUSH2 0x2D3B JUMPI PUSH1 0x1 SLOAD PUSH1 0x40 MLOAD PUSH4 0x4E44D071 PUSH1 0xE1 SHL DUP2 MSTORE CALLER PUSH1 0x4 DUP3 ADD MSTORE SWAP1 PUSH1 0x1 PUSH1 0x1 PUSH1 0xA0 SHL SUB AND PUSH1 0x20 DUP3 PUSH1 0x24 DUP2 DUP5 GAS STATICCALL SWAP2 DUP3 ISZERO PUSH2 0xD64 JUMPI PUSH1 0x0 SWAP3 PUSH2 0x2D06 JUMPI JUMPDEST POP SWAP1 PUSH1 0x20 PUSH1 0x4 SWAP3 PUSH1 0x40 MLOAD SWAP4 DUP5 DUP1 SWAP3 PUSH4 0x93EA1CFD PUSH1 0xE0 SHL DUP3 MSTORE GAS STATICCALL SWAP2 DUP3 ISZERO PUSH2 0xD64 JUMPI PUSH1 0x0 SWAP3 PUSH2 0x2CD2 JUMPI JUMPDEST POP LT PUSH2 0x2C8D JUMPI PUSH1 0x0 DUP1 SLOAD PUSH1 0x40 MLOAD PUSH4 0x23B872DD PUSH1 0xE0 SHL DUP2 MSTORE CALLER PUSH1 0x4 DUP3 ADD MSTORE ADDRESS PUSH1 0x24 DUP3 ADD MSTORE PUSH1 0x44 DUP2 ADD DUP6 SWAP1 MSTORE SWAP2 PUSH1 0x20 SWAP2 DUP4 SWAP2 PUSH1 0x64 SWAP2 DUP4 SWAP2 SWAP1 PUSH1 0x1 PUSH1 0x1 PUSH1 0xA0 SHL SUB AND GAS CALL SWAP1 DUP2 ISZERO PUSH2 0xD64 JUMPI PUSH1 0x0 SWAP2 PUSH2 0x2C6E JUMPI JUMPDEST POP ISZERO PUSH2 0x2C31 JUMPI PUSH1 0x40 MLOAD PUSH2 0x2945 DUP2 PUSH2 0x3015 JUMP JUMPDEST CALLER DUP2 MSTORE PUSH1 0x20 DUP2 ADD SWAP2 PUSH2 0x2956 DUP6 PUSH2 0x3156 JUMP JUMPDEST DUP5 DUP4 MSTORE PUSH1 0x40 DUP3 DUP2 ADD SWAP2 DUP3 MSTORE PUSH1 0x60 DUP4 ADD DUP6 DUP2 MSTORE PUSH1 0x80 DUP5 ADD DUP9 DUP2 MSTORE TIMESTAMP PUSH1 0xA0 DUP7 ADD SWAP1 DUP2 MSTORE PUSH1 0x0 PUSH1 0xC0 DUP8 ADD DUP2 DUP2 MSTORE DUP13 DUP3 MSTORE PUSH1 0x6 PUSH1 0x20 SWAP1 DUP2 MSTORE DUP7 DUP4 KECCAK256 CALLER DUP5 MSTORE SWAP1 MSTORE SWAP5 SWAP1 KECCAK256 SWAP6 MLOAD DUP7 SLOAD PUSH1 0x1 PUSH1 0x1 PUSH1 0xA0 SHL SUB NOT AND PUSH1 0x1 PUSH1 0x1 PUSH1 0xA0 SHL SUB SWAP2 SWAP1 SWAP2 AND OR DUP7 SSTORE SWAP6 MLOAD SWAP3 SWAP6 SWAP4 SWAP1 SWAP3 PUSH2 0x29C2 DUP2 PUSH2 0x3156 JUMP JUMPDEST PUSH2 0x29CB DUP2 PUSH2 0x3156 JUMP JUMPDEST DUP6 SLOAD PUSH1 0xFF PUSH1 0xA0 SHL NOT AND PUSH1 0xA0 SWAP2 SWAP1 SWAP2 SHL PUSH1 0xFF PUSH1 0xA0 SHL AND OR DUP6 SSTORE MLOAD PUSH1 0x1 DUP6 ADD SSTORE MLOAD PUSH1 0x2 DUP5 ADD SSTORE MLOAD DUP1 MLOAD PUSH1 0x3 DUP5 ADD SWAP2 PUSH1 0x1 PUSH1 0x1 PUSH1 0x40 SHL SUB DUP3 GT PUSH2 0xCE2 JUMPI PUSH2 0x2A0F DUP4 SLOAD PUSH2 0x317C JUMP JUMPDEST PUSH1 0x1F DUP2 GT PUSH2 0x2BE9 JUMPI JUMPDEST POP PUSH1 0x20 SWAP1 PUSH1 0x1F DUP4 GT PUSH1 0x1 EQ PUSH2 0x2B7D JUMPI PUSH1 0x5 SWAP6 SWAP5 SWAP4 SWAP3 SWAP2 PUSH1 0x0 SWAP2 DUP4 PUSH2 0x2B72 JUMPI JUMPDEST POP POP DUP2 PUSH1 0x1 SHL SWAP2 PUSH1 0x0 NOT SWAP1 PUSH1 0x3 SHL SHR NOT AND OR SWAP1 SSTORE JUMPDEST MLOAD PUSH1 0x4 DUP3 ADD SSTORE ADD SWAP1 MLOAD ISZERO ISZERO PUSH1 0xFF DUP1 NOT DUP4 SLOAD AND SWAP2 AND OR SWAP1 SSTORE DUP4 PUSH1 0x0 MSTORE PUSH1 0x7 PUSH1 0x20 MSTORE PUSH1 0x40 PUSH1 0x0 KECCAK256 SWAP2 DUP3 SLOAD SWAP2 PUSH1 0x1 PUSH1 0x40 SHL DUP4 LT ISZERO PUSH2 0xCE2 JUMPI PUSH2 0x2AB3 DUP4 DUP8 SWAP6 PUSH1 0x1 PUSH32 0x110591D5654C5CD0D03DB42F359FFEA137EDCBCC8639B424C1694F9E2AD8626D SWAP7 ADD DUP2 SSTORE PUSH2 0x2FBB JUMP JUMPDEST DUP2 SLOAD SWAP1 PUSH1 0x3 SHL SWAP1 CALLER DUP3 SHL SWAP2 PUSH1 0x1 DUP1 PUSH1 0xA0 SHL SUB SWAP1 SHL NOT AND OR SWAP1 SSTORE DUP4 PUSH1 0x0 MSTORE PUSH1 0x5 PUSH1 0x20 MSTORE PUSH1 0x8 PUSH1 0x40 PUSH1 0x0 KECCAK256 ADD PUSH2 0x2AE8 DUP3 DUP3 SLOAD PUSH2 0x32DB JUMP JUMPDEST SWAP1 SSTORE DUP4 PUSH1 0x0 MSTORE PUSH1 0x5 PUSH1 0x20 MSTORE PUSH1 0x9 PUSH1 0x40 PUSH1 0x0 KECCAK256 ADD PUSH2 0x2B05 DUP2 SLOAD PUSH2 0x32E8 JUMP JUMPDEST SWAP1 SSTORE PUSH1 0x40 MLOAD SWAP2 PUSH2 0x2B14 DUP2 PUSH2 0x3156 JUMP JUMPDEST DUP3 MSTORE PUSH1 0x20 DUP3 ADD MSTORE PUSH1 0x60 PUSH1 0x40 DUP3 ADD MSTORE DUP1 PUSH2 0x2B32 CALLER SWAP6 PUSH1 0x60 DUP4 ADD SWAP1 PUSH2 0x30F9 JUMP JUMPDEST SUB SWAP1 LOG3 DUP1 PUSH1 0x0 MSTORE PUSH1 0x5 PUSH1 0x20 MSTORE PUSH1 0x40 PUSH1 0x0 KECCAK256 PUSH1 0xA PUSH1 0x9 DUP3 ADD SLOAD LT SWAP1 DUP2 ISZERO SWAP2 PUSH2 0x2B64 JUMPI JUMPDEST POP PUSH2 0x2B5B JUMPI STOP JUMPDEST PUSH2 0x7B3 SWAP1 PUSH2 0x3910 JUMP JUMPDEST PUSH1 0x5 SWAP2 POP ADD SLOAD TIMESTAMP GT DUP3 PUSH2 0x2B54 JUMP JUMPDEST ADD MLOAD SWAP1 POP DUP12 DUP1 PUSH2 0x2A37 JUMP JUMPDEST SWAP1 PUSH1 0x1F NOT DUP4 AND SWAP2 DUP5 PUSH1 0x0 MSTORE DUP2 PUSH1 0x0 KECCAK256 SWAP3 PUSH1 0x0 JUMPDEST DUP2 DUP2 LT PUSH2 0x2BD1 JUMPI POP SWAP2 PUSH1 0x1 SWAP4 SWAP2 DUP6 PUSH1 0x5 SWAP10 SWAP9 SWAP8 SWAP7 SWAP5 LT PUSH2 0x2BB8 JUMPI JUMPDEST POP POP POP DUP2 SHL ADD SWAP1 SSTORE PUSH2 0x2A4C JUMP JUMPDEST ADD MLOAD PUSH1 0x0 NOT PUSH1 0xF8 DUP5 PUSH1 0x3 SHL AND SHR NOT AND SWAP1 SSTORE DUP12 DUP1 DUP1 PUSH2 0x2BAB JUMP JUMPDEST SWAP3 SWAP4 PUSH1 0x20 PUSH1 0x1 DUP2 SWAP3 DUP8 DUP7 ADD MLOAD DUP2 SSTORE ADD SWAP6 ADD SWAP4 ADD PUSH2 0x2B90 JUMP JUMPDEST DUP4 PUSH1 0x0 MSTORE PUSH1 0x20 PUSH1 0x0 KECCAK256 PUSH1 0x1F DUP5 ADD PUSH1 0x5 SHR DUP2 ADD SWAP2 PUSH1 0x20 DUP6 LT PUSH2 0x2C27 JUMPI JUMPDEST PUSH1 0x1F ADD PUSH1 0x5 SHR ADD SWAP1 JUMPDEST DUP2 DUP2 LT PUSH2 0x2C1B JUMPI POP PUSH2 0x2A18 JUMP JUMPDEST PUSH1 0x0 DUP2 SSTORE PUSH1 0x1 ADD PUSH2 0x2C0E JUMP JUMPDEST SWAP1 SWAP2 POP DUP2 SWAP1 PUSH2 0x2C05 JUMP JUMPDEST PUSH1 0x40 MLOAD PUSH3 0x461BCD PUSH1 0xE5 SHL DUP2 MSTORE PUSH1 0x20 PUSH1 0x4 DUP3 ADD MSTORE PUSH1 0x15 PUSH1 0x24 DUP3 ADD MSTORE PUSH21 0x14DD185AD9481D1C985B9CD9995C8819985A5B1959 PUSH1 0x5A SHL PUSH1 0x44 DUP3 ADD MSTORE PUSH1 0x64 SWAP1 REVERT JUMPDEST PUSH2 0x2C87 SWAP2 POP PUSH1 0x20 RETURNDATASIZE PUSH1 0x20 GT PUSH2 0xD5D JUMPI PUSH2 0xD4F DUP2 DUP4 PUSH2 0x3068 JUMP JUMPDEST DUP7 PUSH2 0x2933 JUMP JUMPDEST PUSH1 0x40 MLOAD PUSH3 0x461BCD PUSH1 0xE5 SHL DUP2 MSTORE PUSH1 0x20 PUSH1 0x4 DUP3 ADD MSTORE PUSH1 0x17 PUSH1 0x24 DUP3 ADD MSTORE PUSH32 0x496E73756666696369656E742072657075746174696F6E000000000000000000 PUSH1 0x44 DUP3 ADD MSTORE PUSH1 0x64 SWAP1 REVERT JUMPDEST SWAP1 SWAP2 POP PUSH1 0x20 DUP2 RETURNDATASIZE PUSH1 0x20 GT PUSH2 0x2CFE JUMPI JUMPDEST DUP2 PUSH2 0x2CEE PUSH1 0x20 SWAP4 DUP4 PUSH2 0x3068 JUMP JUMPDEST DUP2 ADD SUB SLT PUSH2 0x275 JUMPI MLOAD SWAP1 DUP8 PUSH2 0x28E3 JUMP JUMPDEST RETURNDATASIZE SWAP2 POP PUSH2 0x2CE1 JUMP JUMPDEST SWAP2 POP PUSH1 0x20 DUP3 RETURNDATASIZE PUSH1 0x20 GT PUSH2 0x2D33 JUMPI JUMPDEST DUP2 PUSH2 0x2D21 PUSH1 0x20 SWAP4 DUP4 PUSH2 0x3068 JUMP JUMPDEST DUP2 ADD SUB SLT PUSH2 0x275 JUMPI SWAP1 MLOAD SWAP1 PUSH1 0x20 PUSH2 0x28BA JUMP JUMPDEST RETURNDATASIZE SWAP2 POP PUSH2 0x2D14 JUMP JUMPDEST PUSH1 0x40 MLOAD PUSH3 0x461BCD PUSH1 0xE5 SHL DUP2 MSTORE PUSH1 0x20 PUSH1 0x4 DUP3 ADD MSTORE PUSH1 0x11 PUSH1 0x24 DUP3 ADD MSTORE PUSH17 0x105B1C9958591E481CDD589B5A5D1D1959 PUSH1 0x7A SHL PUSH1 0x44 DUP3 ADD MSTORE PUSH1 0x64 SWAP1 REVERT JUMPDEST PUSH1 0x40 MLOAD PUSH3 0x461BCD PUSH1 0xE5 SHL DUP2 MSTORE PUSH1 0x20 PUSH1 0x4 DUP3 ADD MSTORE PUSH1 0x12 PUSH1 0x24 DUP3 ADD MSTORE PUSH18 0x496E73756666696369656E74207374616B65 PUSH1 0x70 SHL PUSH1 0x44 DUP3 ADD MSTORE PUSH1 0x64 SWAP1 REVERT JUMPDEST PUSH1 0x40 MLOAD PUSH3 0x461BCD PUSH1 0xE5 SHL DUP2 MSTORE PUSH1 0x20 PUSH1 0x4 DUP3 ADD MSTORE PUSH1 0x12 PUSH1 0x24 DUP3 ADD MSTORE PUSH18 0x496E76616C696420636F6E666964656E6365 PUSH1 0x70 SHL PUSH1 0x44 DUP3 ADD MSTORE PUSH1 0x64 SWAP1 REVERT JUMPDEST POP PUSH1 0x64 DUP2 GT ISZERO PUSH2 0x2847 JUMP JUMPDEST PUSH1 0x40 MLOAD PUSH3 0x461BCD PUSH1 0xE5 SHL DUP2 MSTORE PUSH1 0x20 PUSH1 0x4 DUP3 ADD MSTORE PUSH1 0xF PUSH1 0x24 DUP3 ADD MSTORE PUSH15 0x125B9D985B1A59081D995C991A58DD PUSH1 0x8A SHL PUSH1 0x44 DUP3 ADD MSTORE PUSH1 0x64 SWAP1 REVERT JUMPDEST PUSH1 0x40 MLOAD PUSH3 0x461BCD PUSH1 0xE5 SHL DUP2 MSTORE PUSH1 0x20 PUSH1 0x4 DUP3 ADD MSTORE PUSH1 0xE PUSH1 0x24 DUP3 ADD MSTORE PUSH14 0x109BDD5B9D1E48195E1C1A5C9959 PUSH1 0x92 SHL PUSH1 0x44 DUP3 ADD MSTORE PUSH1 0x64 SWAP1 REVERT JUMPDEST PUSH1 0x40 MLOAD PUSH3 0x461BCD PUSH1 0xE5 SHL DUP2 MSTORE PUSH1 0x20 PUSH1 0x4 DUP3 ADD MSTORE PUSH1 0x11 PUSH1 0x24 DUP3 ADD MSTORE PUSH17 0x426F756E7479206E6F7420616374697665 PUSH1 0x78 SHL PUSH1 0x44 DUP3 ADD MSTORE PUSH1 0x64 SWAP1 REVERT JUMPDEST POP PUSH1 0x2 SLOAD DUP6 GT ISZERO PUSH2 0x27E4 JUMP JUMPDEST CALLVALUE PUSH2 0x275 JUMPI PUSH1 0x20 CALLDATASIZE PUSH1 0x3 NOT ADD SLT PUSH2 0x275 JUMPI PUSH1 0x1 PUSH1 0x1 PUSH1 0xA0 SHL SUB PUSH2 0x2EC6 PUSH2 0x2FE9 JUMP JUMPDEST AND PUSH1 0x0 MSTORE PUSH1 0xC PUSH1 0x20 MSTORE PUSH1 0x20 PUSH1 0xFF PUSH1 0x40 PUSH1 0x0 KECCAK256 SLOAD AND PUSH1 0x40 MLOAD SWAP1 ISZERO ISZERO DUP2 MSTORE RETURN JUMPDEST CALLVALUE PUSH2 0x275 JUMPI PUSH2 0x2EF2 CALLDATASIZE PUSH2 0x2FA5 JUMP JUMPDEST SWAP1 PUSH1 0x0 MSTORE PUSH1 0x7 PUSH1 0x20 MSTORE PUSH1 0x40 PUSH1 0x0 KECCAK256 DUP1 SLOAD DUP3 LT ISZERO PUSH2 0x275 JUMPI PUSH1 0x20 SWAP2 PUSH2 0x2F15 SWAP2 PUSH2 0x2FBB JUMP JUMPDEST SWAP1 SLOAD PUSH1 0x40 MLOAD PUSH1 0x3 SWAP3 SWAP1 SWAP3 SHL SHR PUSH1 0x1 PUSH1 0x1 PUSH1 0xA0 SHL SUB AND DUP2 MSTORE RETURN JUMPDEST CALLVALUE PUSH2 0x275 JUMPI PUSH1 0x0 CALLDATASIZE PUSH1 0x3 NOT ADD SLT PUSH2 0x275 JUMPI PUSH1 0x20 PUSH1 0x40 MLOAD PUSH9 0x2B5E3AF16B1880000 DUP2 MSTORE RETURN JUMPDEST CALLVALUE PUSH2 0x275 JUMPI PUSH1 0x20 CALLDATASIZE PUSH1 0x3 NOT ADD SLT PUSH2 0x275 JUMPI PUSH1 0x4 CALLDATALOAD SWAP1 PUSH4 0xFFFFFFFF PUSH1 0xE0 SHL DUP3 AND DUP1 SWAP3 SUB PUSH2 0x275 JUMPI PUSH1 0x20 SWAP2 PUSH4 0x7965DB0B PUSH1 0xE0 SHL DUP2 EQ SWAP1 DUP2 ISZERO PUSH2 0x2F94 JUMPI JUMPDEST POP ISZERO ISZERO DUP2 MSTORE RETURN JUMPDEST PUSH4 0x1FFC9A7 PUSH1 0xE0 SHL EQ SWAP1 POP DUP4 PUSH2 0x2F8D JUMP JUMPDEST PUSH1 0x40 SWAP1 PUSH1 0x3 NOT ADD SLT PUSH2 0x275 JUMPI PUSH1 0x4 CALLDATALOAD SWAP1 PUSH1 0x24 CALLDATALOAD SWAP1 JUMP JUMPDEST DUP1 SLOAD DUP3 LT ISZERO PUSH2 0x2FD3 JUMPI PUSH1 0x0 MSTORE PUSH1 0x20 PUSH1 0x0 KECCAK256 ADD SWAP1 PUSH1 0x0 SWAP1 JUMP JUMPDEST PUSH4 0x4E487B71 PUSH1 0xE0 SHL PUSH1 0x0 MSTORE PUSH1 0x32 PUSH1 0x4 MSTORE PUSH1 0x24 PUSH1 0x0 REVERT JUMPDEST PUSH1 0x4 CALLDATALOAD SWAP1 PUSH1 0x1 PUSH1 0x1 PUSH1 0xA0 SHL SUB DUP3 AND DUP3 SUB PUSH2 0x275 JUMPI JUMP JUMPDEST PUSH1 0x24 CALLDATALOAD SWAP1 PUSH1 0x1 PUSH1 0x1 PUSH1 0xA0 SHL SUB DUP3 AND DUP3 SUB PUSH2 0x275 JUMPI JUMP JUMPDEST PUSH1 0xE0 DUP2 ADD SWAP1 DUP2 LT PUSH1 0x1 PUSH1 0x1 PUSH1 0x40 SHL SUB DUP3 GT OR PUSH2 0xCE2 JUMPI PUSH1 0x40 MSTORE JUMP JUMPDEST PUSH2 0x120 DUP2 ADD SWAP1 DUP2 LT PUSH1 0x1 PUSH1 0x1 PUSH1 0x40 SHL SUB DUP3 GT OR PUSH2 0xCE2 JUMPI PUSH1 0x40 MSTORE JUMP JUMPDEST PUSH2 0x180 DUP2 ADD SWAP1 DUP2 LT PUSH1 0x1 PUSH1 0x1 PUSH1 0x40 SHL SUB DUP3 GT OR PUSH2 0xCE2 JUMPI PUSH1 0x40 MSTORE JUMP JUMPDEST SWAP1 PUSH1 0x1F DUP1 NOT SWAP2 ADD AND DUP2 ADD SWAP1 DUP2 LT PUSH1 0x1 PUSH1 0x1 PUSH1 0x40 SHL SUB DUP3 GT OR PUSH2 0xCE2 JUMPI PUSH1 0x40 MSTORE JUMP JUMPDEST PUSH1 0x1 PUSH1 0x1 PUSH1 0x40 SHL SUB DUP2 GT PUSH2 0xCE2 JUMPI PUSH1 0x1F ADD PUSH1 0x1F NOT AND PUSH1 0x20 ADD SWAP1 JUMP JUMPDEST SWAP3 SWAP2 SWAP3 PUSH2 0x30B0 DUP3 PUSH2 0x3089 JUMP JUMPDEST SWAP2 PUSH2 0x30BE PUSH1 0x40 MLOAD SWAP4 DUP5 PUSH2 0x3068 JUMP JUMPDEST DUP3 SWAP5 DUP2 DUP5 MSTORE DUP2 DUP4 ADD GT PUSH2 0x275 JUMPI DUP3 DUP2 PUSH1 0x20 SWAP4 DUP5 PUSH1 0x0 SWAP7 ADD CALLDATACOPY ADD ADD MSTORE JUMP JUMPDEST SWAP1 DUP1 PUSH1 0x1F DUP4 ADD SLT ISZERO PUSH2 0x275 JUMPI DUP2 PUSH1 0x20 PUSH2 0x30F6 SWAP4 CALLDATALOAD SWAP2 ADD PUSH2 0x30A4 JUMP JUMPDEST SWAP1 JUMP JUMPDEST SWAP2 SWAP1 DUP3 MLOAD SWAP3 DUP4 DUP3 MSTORE PUSH1 0x0 JUMPDEST DUP5 DUP2 LT PUSH2 0x3125 JUMPI POP POP DUP3 PUSH1 0x0 PUSH1 0x20 DUP1 SWAP5 SWAP6 DUP5 ADD ADD MSTORE PUSH1 0x1F DUP1 NOT SWAP2 ADD AND ADD ADD SWAP1 JUMP JUMPDEST DUP1 PUSH1 0x20 DUP1 SWAP3 DUP5 ADD ADD MLOAD DUP3 DUP3 DUP7 ADD ADD MSTORE ADD PUSH2 0x3104 JUMP JUMPDEST CALLVALUE PUSH2 0x275 JUMPI PUSH1 0x0 CALLDATASIZE PUSH1 0x3 NOT ADD SLT PUSH2 0x275 JUMPI PUSH1 0x20 PUSH1 0x40 MLOAD PUSH1 0x5 DUP2 MSTORE RETURN JUMPDEST PUSH1 0x3 GT ISZERO PUSH2 0x4BA JUMPI JUMP JUMPDEST DUP1 SLOAD DUP3 LT ISZERO PUSH2 0x2FD3 JUMPI PUSH1 0x0 MSTORE PUSH1 0x9 PUSH1 0x20 PUSH1 0x0 KECCAK256 SWAP2 MUL ADD SWAP1 PUSH1 0x0 SWAP1 JUMP JUMPDEST SWAP1 PUSH1 0x1 DUP3 DUP2 SHR SWAP3 AND DUP1 ISZERO PUSH2 0x31AC JUMPI JUMPDEST PUSH1 0x20 DUP4 LT EQ PUSH2 0x3196 JUMPI JUMP JUMPDEST PUSH4 0x4E487B71 PUSH1 0xE0 SHL PUSH1 0x0 MSTORE PUSH1 0x22 PUSH1 0x4 MSTORE PUSH1 0x24 PUSH1 0x0 REVERT JUMPDEST SWAP2 PUSH1 0x7F AND SWAP2 PUSH2 0x318B JUMP JUMPDEST SWAP1 PUSH1 0x40 MLOAD SWAP2 DUP3 PUSH1 0x0 DUP3 SLOAD SWAP3 PUSH2 0x31CA DUP5 PUSH2 0x317C JUMP JUMPDEST DUP1 DUP5 MSTORE SWAP4 PUSH1 0x1 DUP2 AND SWAP1 DUP2 ISZERO PUSH2 0x3238 JUMPI POP PUSH1 0x1 EQ PUSH2 0x31F1 JUMPI JUMPDEST POP PUSH2 0x31EF SWAP3 POP SUB DUP4 PUSH2 0x3068 JUMP JUMPDEST JUMP JUMPDEST SWAP1 POP PUSH1 0x0 SWAP3 SWAP2 SWAP3 MSTORE PUSH1 0x20 PUSH1 0x0 KECCAK256 SWAP1 PUSH1 0x0 SWAP2 JUMPDEST DUP2 DUP4 LT PUSH2 0x321C JUMPI POP POP SWAP1 PUSH1 0x20 PUSH2 0x31EF SWAP3 DUP3 ADD ADD CODESIZE PUSH2 0x31E2 JUMP JUMPDEST PUSH1 0x20 SWAP2 SWAP4 POP DUP1 PUSH1 0x1 SWAP2 SLOAD DUP4 DUP6 DUP10 ADD ADD MSTORE ADD SWAP2 ADD SWAP1 SWAP2 DUP5 SWAP3 PUSH2 0x3203 JUMP JUMPDEST SWAP1 POP PUSH1 0x20 SWAP3 POP PUSH2 0x31EF SWAP5 SWAP2 POP PUSH1 0xFF NOT AND DUP3 DUP5 ADD MSTORE ISZERO ISZERO PUSH1 0x5 SHL DUP3 ADD ADD CODESIZE PUSH2 0x31E2 JUMP JUMPDEST SWAP1 PUSH1 0x5 DUP3 LT ISZERO PUSH2 0x4BA JUMPI MSTORE JUMP JUMPDEST SWAP1 PUSH1 0x4 DUP3 LT ISZERO PUSH2 0x4BA JUMPI MSTORE JUMP JUMPDEST ISZERO PUSH2 0x327B JUMPI JUMP JUMPDEST PUSH1 0x40 MLOAD PUSH3 0x461BCD PUSH1 0xE5 SHL DUP2 MSTORE PUSH1 0x20 PUSH1 0x4 DUP3 ADD MSTORE PUSH1 0x11 PUSH1 0x24 DUP3 ADD MSTORE PUSH17 0x125B9D985B1A5908189BDD5B9D1E481251 PUSH1 0x7A SHL PUSH1 0x44 DUP3 ADD MSTORE PUSH1 0x64 SWAP1 REVERT JUMPDEST SWAP1 DUP2 PUSH1 0x20 SWAP2 SUB SLT PUSH2 0x275 JUMPI MLOAD SWAP1 JUMP JUMPDEST SWAP1 DUP2 PUSH1 0x20 SWAP2 SUB SLT PUSH2 0x275 JUMPI MLOAD DUP1 ISZERO ISZERO DUP2 SUB PUSH2 0x275 JUMPI SWAP1 JUMP JUMPDEST SWAP2 SWAP1 DUP3 ADD DUP1 SWAP3 GT PUSH2 0xDA9 JUMPI JUMP JUMPDEST PUSH1 0x0 NOT DUP2 EQ PUSH2 0xDA9 JUMPI PUSH1 0x1 ADD SWAP1 JUMP JUMPDEST PUSH1 0x0 MSTORE PUSH1 0x0 DUP1 MLOAD PUSH1 0x20 PUSH2 0x433B DUP4 CODECOPY DUP2 MLOAD SWAP2 MSTORE PUSH1 0x20 MSTORE PUSH1 0x1 PUSH1 0x40 PUSH1 0x0 KECCAK256 ADD SLOAD SWAP1 JUMP JUMPDEST DUP2 ISZERO PUSH2 0x3322 JUMPI DIV SWAP1 JUMP JUMPDEST PUSH4 0x4E487B71 PUSH1 0xE0 SHL PUSH1 0x0 MSTORE PUSH1 0x12 PUSH1 0x4 MSTORE PUSH1 0x24 PUSH1 0x0 REVERT JUMPDEST ISZERO PUSH2 0x333F JUMPI JUMP JUMPDEST PUSH1 0x40 MLOAD PUSH3 0x461BCD PUSH1 0xE5 SHL DUP2 MSTORE PUSH1 0x20 PUSH1 0x4 DUP3 ADD MSTORE PUSH1 0x15 PUSH1 0x24 DUP3 ADD MSTORE PUSH21 0x24B73B30B634B2103332B29031B7B63632B1BA37B9 PUSH1 0x59 SHL PUSH1 0x44 DUP3 ADD MSTORE PUSH1 0x64 SWAP1 REVERT JUMPDEST PUSH1 0x5 DUP3 LT ISZERO PUSH2 0x4BA JUMPI MSTORE JUMP JUMPDEST SWAP1 PUSH2 0x3392 DUP2 PUSH2 0x3156 JUMP JUMPDEST PUSH2 0xFF00 DUP3 SLOAD SWAP2 PUSH1 0x8 SHL AND SWAP1 PUSH2 0xFF00 NOT AND OR SWAP1 SSTORE JUMP JUMPDEST PUSH1 0xFF PUSH1 0x0 DUP1 MLOAD PUSH1 0x20 PUSH2 0x435B DUP4 CODECOPY DUP2 MLOAD SWAP2 MSTORE SLOAD AND PUSH2 0x33C0 JUMPI JUMP JUMPDEST PUSH4 0xD93C0665 PUSH1 0xE0 SHL PUSH1 0x0 MSTORE PUSH1 0x4 PUSH1 0x0 REVERT JUMPDEST CALLER PUSH1 0x0 SWAP1 DUP2 MSTORE PUSH1 0x0 DUP1 MLOAD PUSH1 0x20 PUSH2 0x439B DUP4 CODECOPY DUP2 MLOAD SWAP2 MSTORE PUSH1 0x20 MSTORE PUSH1 0x40 SWAP1 KECCAK256 SLOAD PUSH1 0xFF AND ISZERO PUSH2 0x33F8 JUMPI JUMP JUMPDEST PUSH4 0xE2517D3F PUSH1 0xE0 SHL PUSH1 0x0 MSTORE CALLER PUSH1 0x4 MSTORE PUSH32 0x97667070C54EF182B0F5858B034BEAC1B6F3089AA2D3188BB1E8929F4FA9B929 PUSH1 0x24 MSTORE PUSH1 0x44 PUSH1 0x0 REVERT JUMPDEST CALLER PUSH1 0x0 SWAP1 DUP2 MSTORE PUSH32 0x75442B0A96088B5456BC4ED01394C96A4FEEC0F883C9494257D76B96AB1C9B6B PUSH1 0x20 MSTORE PUSH1 0x40 SWAP1 KECCAK256 SLOAD PUSH1 0xFF AND ISZERO PUSH2 0x346A JUMPI JUMP JUMPDEST PUSH4 0xE2517D3F PUSH1 0xE0 SHL PUSH1 0x0 MSTORE CALLER PUSH1 0x4 MSTORE PUSH32 0x65D7A28E3265B37A6474929F336521B332C1681B933F6CB9F3376673440D862A PUSH1 0x24 MSTORE PUSH1 0x44 PUSH1 0x0 REVERT JUMPDEST PUSH1 0x0 DUP2 DUP2 MSTORE PUSH1 0x0 DUP1 MLOAD PUSH1 0x20 PUSH2 0x433B DUP4 CODECOPY DUP2 MLOAD SWAP2 MSTORE PUSH1 0x20 SWAP1 DUP2 MSTORE PUSH1 0x40 DUP1 DUP4 KECCAK256 CALLER DUP5 MSTORE SWAP1 SWAP2 MSTORE SWAP1 KECCAK256 SLOAD PUSH1 0xFF AND ISZERO PUSH2 0x34D5 JUMPI POP JUMP JUMPDEST PUSH4 0xE2517D3F PUSH1 0xE0 SHL PUSH1 0x0 MSTORE CALLER PUSH1 0x4 MSTORE PUSH1 0x24 MSTORE PUSH1 0x44 PUSH1 0x0 REVERT JUMPDEST PUSH1 0x1 PUSH1 0x1 PUSH1 0xA0 SHL SUB DUP2 AND PUSH1 0x0 SWAP1 DUP2 MSTORE PUSH32 0xB7DB2DD08FCB62D0C9E08C51941CAE53C267786A0B75803FB7960902FC8EF97D PUSH1 0x20 MSTORE PUSH1 0x40 SWAP1 KECCAK256 SLOAD PUSH1 0xFF AND PUSH2 0x3587 JUMPI PUSH1 0x1 PUSH1 0x1 PUSH1 0xA0 SHL SUB AND PUSH1 0x0 DUP2 DUP2 MSTORE PUSH32 0xB7DB2DD08FCB62D0C9E08C51941CAE53C267786A0B75803FB7960902FC8EF97D PUSH1 0x20 MSTORE PUSH1 0x40 DUP2 KECCAK256 DUP1 SLOAD PUSH1 0xFF NOT AND PUSH1 0x1 OR SWAP1 SSTORE CALLER SWAP2 SWAP1 PUSH1 0x0 DUP1 MLOAD PUSH1 0x20 PUSH2 0x42FB DUP4 CODECOPY DUP2 MLOAD SWAP2 MSTORE DUP2 DUP1 LOG4 PUSH1 0x1 SWAP1 JUMP JUMPDEST POP PUSH1 0x0 SWAP1 JUMP JUMPDEST PUSH1 0x1 PUSH1 0x1 PUSH1 0xA0 SHL SUB DUP2 AND PUSH1 0x0 SWAP1 DUP2 MSTORE PUSH32 0xAB71E3F32666744D246EDFF3F96E4BDAFEE2E9867098CDD118A979A7464786A8 PUSH1 0x20 MSTORE PUSH1 0x40 SWAP1 KECCAK256 SLOAD PUSH1 0xFF AND PUSH2 0x3587 JUMPI PUSH1 0x1 PUSH1 0x1 PUSH1 0xA0 SHL SUB AND PUSH1 0x0 DUP2 DUP2 MSTORE PUSH32 0xAB71E3F32666744D246EDFF3F96E4BDAFEE2E9867098CDD118A979A7464786A8 PUSH1 0x20 MSTORE PUSH1 0x40 DUP2 KECCAK256 DUP1 SLOAD PUSH1 0xFF NOT AND PUSH1 0x1 OR SWAP1 SSTORE CALLER SWAP2 SWAP1 PUSH32 0x189AB7A9244DF0848122154315AF71FE140F3DB0FE014031783B0946B8C9D2E3 SWAP1 PUSH1 0x0 DUP1 MLOAD PUSH1 0x20 PUSH2 0x42FB DUP4 CODECOPY DUP2 MLOAD SWAP2 MSTORE SWAP1 DUP1 LOG4 PUSH1 0x1 SWAP1 JUMP JUMPDEST PUSH1 0x1 PUSH1 0x1 PUSH1 0xA0 SHL SUB DUP2 AND PUSH1 0x0 SWAP1 DUP2 MSTORE PUSH32 0x75442B0A96088B5456BC4ED01394C96A4FEEC0F883C9494257D76B96AB1C9B6B PUSH1 0x20 MSTORE PUSH1 0x40 SWAP1 KECCAK256 SLOAD PUSH1 0xFF AND PUSH2 0x3587 JUMPI PUSH1 0x1 PUSH1 0x1 PUSH1 0xA0 SHL SUB AND PUSH1 0x0 DUP2 DUP2 MSTORE PUSH32 0x75442B0A96088B5456BC4ED01394C96A4FEEC0F883C9494257D76B96AB1C9B6B PUSH1 0x20 MSTORE PUSH1 0x40 DUP2 KECCAK256 DUP1 SLOAD PUSH1 0xFF NOT AND PUSH1 0x1 OR SWAP1 SSTORE CALLER SWAP2 SWAP1 PUSH32 0x65D7A28E3265B37A6474929F336521B332C1681B933F6CB9F3376673440D862A SWAP1 PUSH1 0x0 DUP1 MLOAD PUSH1 0x20 PUSH2 0x42FB DUP4 CODECOPY DUP2 MLOAD SWAP2 MSTORE SWAP1 DUP1 LOG4 PUSH1 0x1 SWAP1 JUMP JUMPDEST PUSH1 0x1 PUSH1 0x1 PUSH1 0xA0 SHL SUB DUP2 AND PUSH1 0x0 SWAP1 DUP2 MSTORE PUSH1 0x0 DUP1 MLOAD PUSH1 0x20 PUSH2 0x439B DUP4 CODECOPY DUP2 MLOAD SWAP2 MSTORE PUSH1 0x20 MSTORE PUSH1 0x40 SWAP1 KECCAK256 SLOAD PUSH1 0xFF AND PUSH2 0x3587 JUMPI PUSH1 0x1 PUSH1 0x1 PUSH1 0xA0 SHL SUB AND PUSH1 0x0 DUP2 DUP2 MSTORE PUSH1 0x0 DUP1 MLOAD PUSH1 0x20 PUSH2 0x439B DUP4 CODECOPY DUP2 MLOAD SWAP2 MSTORE PUSH1 0x20 MSTORE PUSH1 0x40 DUP2 KECCAK256 DUP1 SLOAD PUSH1 0xFF NOT AND PUSH1 0x1 OR SWAP1 SSTORE CALLER SWAP2 SWAP1 PUSH32 0x97667070C54EF182B0F5858B034BEAC1B6F3089AA2D3188BB1E8929F4FA9B929 SWAP1 PUSH1 0x0 DUP1 MLOAD PUSH1 0x20 PUSH2 0x42FB DUP4 CODECOPY DUP2 MLOAD SWAP2 MSTORE SWAP1 DUP1 LOG4 PUSH1 0x1 SWAP1 JUMP JUMPDEST PUSH1 0x0 DUP2 DUP2 MSTORE PUSH1 0x0 DUP1 MLOAD PUSH1 0x20 PUSH2 0x433B DUP4 CODECOPY DUP2 MLOAD SWAP2 MSTORE PUSH1 0x20 SWAP1 DUP2 MSTORE PUSH1 0x40 DUP1 DUP4 KECCAK256 PUSH1 0x1 PUSH1 0x1 PUSH1 0xA0 SHL SUB DUP7 AND DUP5 MSTORE SWAP1 SWAP2 MSTORE SWAP1 KECCAK256 SLOAD PUSH1 0xFF AND PUSH2 0x382D JUMPI PUSH1 0x0 DUP2 DUP2 MSTORE PUSH1 0x0 DUP1 MLOAD PUSH1 0x20 PUSH2 0x433B DUP4 CODECOPY DUP2 MLOAD SWAP2 MSTORE PUSH1 0x20 SWAP1 DUP2 MSTORE PUSH1 0x40 DUP1 DUP4 KECCAK256 PUSH1 0x1 PUSH1 0x1 PUSH1 0xA0 SHL SUB SWAP6 SWAP1 SWAP6 AND DUP1 DUP5 MSTORE SWAP5 SWAP1 SWAP2 MSTORE DUP2 KECCAK256 DUP1 SLOAD PUSH1 0xFF NOT AND PUSH1 0x1 OR SWAP1 SSTORE CALLER SWAP3 SWAP2 SWAP1 PUSH1 0x0 DUP1 MLOAD PUSH1 0x20 PUSH2 0x42FB DUP4 CODECOPY DUP2 MLOAD SWAP2 MSTORE SWAP1 DUP1 LOG4 PUSH1 0x1 SWAP1 JUMP JUMPDEST POP POP PUSH1 0x0 SWAP1 JUMP JUMPDEST PUSH1 0x0 DUP2 DUP2 MSTORE PUSH1 0x0 DUP1 MLOAD PUSH1 0x20 PUSH2 0x433B DUP4 CODECOPY DUP2 MLOAD SWAP2 MSTORE PUSH1 0x20 SWAP1 DUP2 MSTORE PUSH1 0x40 DUP1 DUP4 KECCAK256 PUSH1 0x1 PUSH1 0x1 PUSH1 0xA0 SHL SUB DUP7 AND DUP5 MSTORE SWAP1 SWAP2 MSTORE SWAP1 KECCAK256 SLOAD PUSH1 0xFF AND ISZERO PUSH2 0x382D JUMPI PUSH1 0x0 DUP2 DUP2 MSTORE PUSH1 0x0 DUP1 MLOAD PUSH1 0x20 PUSH2 0x433B DUP4 CODECOPY DUP2 MLOAD SWAP2 MSTORE PUSH1 0x20 SWAP1 DUP2 MSTORE PUSH1 0x40 DUP1 DUP4 KECCAK256 PUSH1 0x1 PUSH1 0x1 PUSH1 0xA0 SHL SUB SWAP6 SWAP1 SWAP6 AND DUP1 DUP5 MSTORE SWAP5 SWAP1 SWAP2 MSTORE DUP2 KECCAK256 DUP1 SLOAD PUSH1 0xFF NOT AND SWAP1 SSTORE CALLER SWAP3 SWAP2 SWAP1 PUSH32 0xF6391F5C32D9C69D2A47EA670B442974B53935D1EDC7FD64EB21E047A839171B SWAP1 DUP1 LOG4 PUSH1 0x1 SWAP1 JUMP JUMPDEST PUSH1 0x2 PUSH1 0x0 DUP1 MLOAD PUSH1 0x20 PUSH2 0x437B DUP4 CODECOPY DUP2 MLOAD SWAP2 MSTORE SLOAD EQ PUSH2 0x38FF JUMPI PUSH1 0x2 PUSH1 0x0 DUP1 MLOAD PUSH1 0x20 PUSH2 0x437B DUP4 CODECOPY DUP2 MLOAD SWAP2 MSTORE SSTORE JUMP JUMPDEST PUSH4 0x3EE5AEB5 PUSH1 0xE0 SHL PUSH1 0x0 MSTORE PUSH1 0x4 PUSH1 0x0 REVERT JUMPDEST DUP1 PUSH1 0x0 MSTORE PUSH1 0x5 PUSH1 0x20 MSTORE PUSH1 0x40 PUSH1 0x0 KECCAK256 SWAP1 DUP1 PUSH1 0x0 MSTORE PUSH1 0x7 PUSH1 0x20 MSTORE PUSH1 0x40 PUSH1 0x0 KECCAK256 DUP1 SLOAD ISZERO PUSH2 0x3A92 JUMPI PUSH2 0x393D DUP3 PUSH2 0x3B41 JUMP JUMPDEST PUSH1 0x7 DUP6 SWAP7 SWAP3 SWAP7 ADD PUSH2 0x394E DUP8 DUP3 PUSH2 0x3388 JUMP JUMPDEST DUP1 SLOAD PUSH1 0xFF NOT AND PUSH1 0x1 OR SWAP1 SSTORE PUSH1 0x0 JUMPDEST DUP4 SLOAD DUP2 LT ISZERO PUSH2 0x3A3C JUMPI DUP1 PUSH1 0x20 DUP7 PUSH1 0x84 PUSH2 0x3976 DUP12 SWAP6 DUP10 PUSH2 0x2FBB JUMP JUMPDEST SWAP1 SLOAD PUSH1 0x0 DUP5 DUP2 MSTORE PUSH1 0x6 DUP7 MSTORE PUSH1 0x40 DUP1 DUP3 KECCAK256 PUSH1 0x3 SWAP5 SWAP1 SWAP5 SHL SWAP3 SWAP1 SWAP3 SHR PUSH1 0x1 PUSH1 0x1 PUSH1 0xA0 SHL SUB AND DUP1 DUP3 MSTORE SWAP3 DUP7 MSTORE SWAP1 DUP2 KECCAK256 DUP1 SLOAD PUSH1 0xA0 SHR PUSH1 0xFF AND SWAP8 PUSH2 0x39B4 SWAP1 PUSH2 0x3156 JUMP JUMPDEST PUSH2 0x39BD DUP9 PUSH2 0x3156 JUMP JUMPDEST DUP14 PUSH1 0x2 PUSH1 0x1 DUP1 PUSH1 0xA0 SHL SUB PUSH1 0x1 SLOAD AND SWAP3 ADD SLOAD SWAP1 PUSH1 0x40 MLOAD SWAP10 DUP11 SWAP8 DUP9 SWAP7 PUSH4 0x15F09F43 PUSH1 0xE0 SHL DUP9 MSTORE PUSH1 0x4 DUP9 ADD MSTORE PUSH1 0x24 DUP8 ADD MSTORE EQ PUSH1 0x44 DUP6 ADD MSTORE PUSH1 0x64 DUP5 ADD MSTORE GAS CALL SWAP2 DUP3 ISZERO PUSH2 0xD64 JUMPI PUSH1 0x1 SWAP3 PUSH2 0x3A0E JUMPI JUMPDEST POP ADD PUSH2 0x395C JUMP JUMPDEST PUSH2 0x3A2E SWAP1 PUSH1 0x20 RETURNDATASIZE DUP2 GT PUSH2 0x3A35 JUMPI JUMPDEST PUSH2 0x3A26 DUP2 DUP4 PUSH2 0x3068 JUMP JUMPDEST DUP2 ADD SWAP1 PUSH2 0x32B4 JUMP JUMPDEST POP CODESIZE PUSH2 0x3A07 JUMP JUMPDEST POP RETURNDATASIZE PUSH2 0x3A1C JUMP JUMPDEST POP PUSH1 0x60 SWAP3 POP PUSH1 0x4 PUSH32 0x2BB8FECFA448BFE5D3F1045A783A32A8D17D3366DB366EDCD82BDA6008C0A4B1 SWAP5 SWAP6 SWAP7 SWAP3 SWAP7 PUSH2 0x3A74 DUP4 DUP6 DUP10 PUSH2 0x3DCF JUMP JUMPDEST ADD SLOAD PUSH1 0x40 MLOAD SWAP3 PUSH2 0x3A83 DUP2 PUSH2 0x3156 JUMP JUMPDEST DUP4 MSTORE PUSH1 0x20 DUP4 ADD MSTORE PUSH1 0x40 DUP3 ADD MSTORE LOG2 JUMP JUMPDEST POP POP PUSH1 0x7 DUP2 ADD DUP1 SLOAD PUSH1 0xFF NOT AND PUSH1 0x3 OR SWAP1 SSTORE PUSH1 0x0 DUP1 SLOAD PUSH1 0x1 DUP4 ADD SLOAD PUSH1 0x4 SWAP4 DUP5 ADD SLOAD PUSH1 0x40 MLOAD PUSH4 0xA9059CBB PUSH1 0xE0 SHL DUP2 MSTORE PUSH1 0x1 PUSH1 0x1 PUSH1 0xA0 SHL SUB SWAP3 DUP4 AND SWAP6 DUP2 ADD SWAP6 SWAP1 SWAP6 MSTORE PUSH1 0x24 DUP6 ADD MSTORE PUSH1 0x20 SWAP3 DUP5 SWAP3 SWAP1 SWAP2 AND SWAP1 DUP3 SWAP1 DUP2 PUSH1 0x44 DUP2 ADD JUMPDEST SUB SWAP3 GAS CALL DUP1 ISZERO PUSH2 0xD64 JUMPI PUSH2 0x3AF8 JUMPI POP JUMP JUMPDEST PUSH2 0x3B10 SWAP1 PUSH1 0x20 RETURNDATASIZE PUSH1 0x20 GT PUSH2 0xD5D JUMPI PUSH2 0xD4F DUP2 DUP4 PUSH2 0x3068 JUMP JUMPDEST POP JUMP JUMPDEST PUSH1 0xFF PUSH1 0x0 DUP1 MLOAD PUSH1 0x20 PUSH2 0x43BB DUP4 CODECOPY DUP2 MLOAD SWAP2 MSTORE SLOAD PUSH1 0x40 SHR AND ISZERO PUSH2 0x3B30 JUMPI JUMP JUMPDEST PUSH4 0x1AFCD79F PUSH1 0xE3 SHL PUSH1 0x0 MSTORE PUSH1 0x4 PUSH1 0x0 REVERT JUMPDEST SWAP1 DUP2 PUSH1 0x0 MSTORE PUSH1 0x7 PUSH1 0x20 MSTORE PUSH1 0x40 PUSH1 0x0 KECCAK256 PUSH1 0x0 DUP1 DUP1 SWAP3 DUP2 SWAP1 DUP1 SLOAD SWAP1 JUMPDEST DUP2 DUP4 LT PUSH2 0x3CF7 JUMPI POP POP POP DUP3 ISZERO PUSH2 0x3CEA JUMPI PUSH1 0x64 DUP2 MUL SWAP1 DUP1 DUP3 DIV PUSH1 0x64 EQ SWAP1 ISZERO OR ISZERO PUSH2 0xDA9 JUMPI PUSH2 0x3B8A DUP4 PUSH1 0x42 SWAP3 PUSH2 0x3318 JUMP JUMPDEST LT PUSH2 0x3C26 JUMPI POP POP PUSH1 0x0 DUP3 DUP2 MSTORE PUSH1 0x7 PUSH1 0x20 MSTORE PUSH1 0x40 DUP2 KECCAK256 DUP1 SLOAD PUSH1 0x1 SWAP5 SWAP1 SWAP2 DUP4 SWAP2 DUP3 JUMPDEST DUP5 DUP2 LT PUSH2 0x3BB9 JUMPI POP POP POP POP POP SWAP1 JUMP JUMPDEST DUP4 SWAP1 DUP3 PUSH1 0x0 MSTORE PUSH1 0x6 PUSH1 0x20 MSTORE PUSH1 0xFF PUSH1 0x40 DUP1 PUSH1 0x0 KECCAK256 PUSH2 0x3BD6 DUP5 DUP9 PUSH2 0x2FBB JUMP JUMPDEST SWAP1 SLOAD PUSH1 0x3 SWAP2 SWAP1 SWAP2 SHL SHR PUSH1 0x1 PUSH1 0x1 PUSH1 0xA0 SHL SUB AND PUSH1 0x0 SWAP1 DUP2 MSTORE PUSH1 0x20 SWAP2 SWAP1 SWAP2 MSTORE KECCAK256 SLOAD PUSH1 0xA0 SHR AND SWAP2 PUSH2 0x4BA JUMPI DUP9 DUP3 PUSH2 0x3C0A DUP3 SWAP5 PUSH2 0x3156 JUMP JUMPDEST EQ PUSH2 0x3C16 JUMPI JUMPDEST ADD PUSH2 0x3BAA JUMP JUMPDEST SWAP6 PUSH2 0x3C20 SWAP1 PUSH2 0x32E8 JUMP JUMPDEST SWAP6 PUSH2 0x3C10 JUMP JUMPDEST PUSH1 0x64 DUP2 MUL SWAP1 DUP1 DUP3 DIV PUSH1 0x64 EQ SWAP1 ISZERO OR ISZERO PUSH2 0xDA9 JUMPI PUSH1 0x42 SWAP2 PUSH2 0x3C45 SWAP2 PUSH2 0x3318 JUMP JUMPDEST LT PUSH2 0x3CE2 JUMPI PUSH1 0x0 DUP3 DUP2 MSTORE PUSH1 0x7 PUSH1 0x20 MSTORE PUSH1 0x40 DUP2 KECCAK256 DUP1 SLOAD PUSH1 0x2 SWAP5 DUP4 SWAP3 SWAP1 DUP4 JUMPDEST DUP4 DUP2 LT PUSH2 0x3C71 JUMPI POP POP POP POP POP SWAP1 JUMP JUMPDEST DUP2 PUSH1 0x0 MSTORE PUSH1 0x6 PUSH1 0x20 MSTORE DUP5 PUSH1 0xFF PUSH1 0x40 DUP1 PUSH1 0x0 KECCAK256 PUSH2 0x3C8D DUP6 DUP9 PUSH2 0x2FBB JUMP JUMPDEST SWAP1 SLOAD PUSH1 0x3 SWAP2 SWAP1 SWAP2 SHL SHR PUSH1 0x1 PUSH1 0x1 PUSH1 0xA0 SHL SUB AND PUSH1 0x0 SWAP1 DUP2 MSTORE PUSH1 0x20 SWAP2 SWAP1 SWAP2 MSTORE KECCAK256 SLOAD PUSH1 0xA0 SHR AND SWAP1 PUSH2 0x4BA JUMPI DUP1 PUSH2 0x3CC0 DUP11 SWAP3 PUSH2 0x3156 JUMP JUMPDEST EQ PUSH2 0x3CCE JUMPI JUMPDEST PUSH1 0x1 ADD PUSH2 0x3C62 JUMP JUMPDEST SWAP5 PUSH2 0x3CDA PUSH1 0x1 SWAP2 PUSH2 0x32E8 JUMP JUMPDEST SWAP6 SWAP1 POP PUSH2 0x3CC6 JUMP JUMPDEST PUSH1 0x0 SWAP2 POP DUP2 SWAP1 JUMP JUMPDEST POP POP POP SWAP1 POP PUSH1 0x0 SWAP1 PUSH1 0x0 SWAP1 JUMP JUMPDEST SWAP1 SWAP2 SWAP3 SWAP5 DUP8 PUSH1 0x0 MSTORE PUSH1 0x6 PUSH1 0x20 MSTORE PUSH1 0x40 DUP1 PUSH1 0x0 KECCAK256 PUSH2 0x3D14 DUP7 DUP6 PUSH2 0x2FBB JUMP JUMPDEST SWAP1 SLOAD PUSH1 0x3 SWAP2 SWAP1 SWAP2 SHL SHR PUSH1 0x1 PUSH1 0x1 PUSH1 0xA0 SHL SUB AND PUSH1 0x0 SWAP1 DUP2 MSTORE PUSH1 0x20 SWAP2 SWAP1 SWAP2 MSTORE KECCAK256 PUSH1 0x2 DUP2 ADD SLOAD PUSH1 0x1 DUP3 ADD SLOAD SWAP2 SWAP8 SWAP2 DUP1 DUP3 MUL SWAP2 DUP1 ISZERO SWAP1 DUP4 DIV SWAP1 SWAP2 EQ OR ISZERO PUSH2 0xDA9 JUMPI PUSH2 0x3D61 PUSH1 0x64 PUSH1 0xFF SWAP3 DIV DUP1 SWAP5 PUSH2 0x32DB JUMP JUMPDEST SWAP8 SLOAD PUSH1 0xA0 SHR AND PUSH2 0x3D70 DUP2 PUSH2 0x3156 JUMP JUMPDEST PUSH1 0x1 DUP2 SUB PUSH2 0x3D8F JUMPI POP PUSH1 0x1 SWAP2 PUSH2 0x3D85 SWAP2 PUSH2 0x32DB JUMP JUMPDEST SWAP4 JUMPDEST ADD SWAP2 SWAP1 PUSH2 0x3B5B JUMP JUMPDEST SWAP1 SWAP5 SWAP2 SWAP1 PUSH1 0x2 SWAP1 PUSH2 0x3D9F DUP2 PUSH2 0x3156 JUMP JUMPDEST EQ PUSH2 0x3DAE JUMPI JUMPDEST POP PUSH1 0x1 SWAP1 PUSH2 0x3D87 JUMP JUMPDEST PUSH2 0x3DBB SWAP1 PUSH1 0x1 SWAP3 SWAP7 PUSH2 0x32DB JUMP JUMPDEST SWAP5 SWAP1 PUSH2 0x3DA5 JUMP JUMPDEST SWAP2 SWAP1 DUP3 SUB SWAP2 DUP3 GT PUSH2 0xDA9 JUMPI JUMP JUMPDEST DUP1 PUSH1 0x0 MSTORE PUSH1 0x5 PUSH1 0x20 MSTORE PUSH1 0x40 PUSH1 0x0 KECCAK256 SWAP3 DUP2 PUSH1 0x0 MSTORE PUSH1 0x7 PUSH1 0x20 MSTORE PUSH1 0x40 PUSH1 0x0 KECCAK256 SWAP1 PUSH1 0x4 DUP6 ADD SLOAD PUSH1 0x5 DUP2 MUL DUP2 DUP2 DIV PUSH1 0x5 EQ DUP3 ISZERO OR ISZERO PUSH2 0xDA9 JUMPI PUSH1 0x64 SWAP1 DIV SWAP6 PUSH2 0x3E13 DUP8 DUP4 PUSH2 0x3DC2 JUMP JUMPDEST SWAP2 PUSH2 0x3E1D DUP8 PUSH2 0x3156 JUMP JUMPDEST DUP7 ISZERO DUP1 ISZERO PUSH2 0x4291 JUMPI JUMPDEST PUSH2 0x40B5 JUMPI POP POP PUSH1 0x0 SWAP1 DUP5 PUSH1 0x0 MSTORE PUSH1 0x7 PUSH1 0x20 MSTORE PUSH1 0x40 PUSH1 0x0 KECCAK256 PUSH1 0x0 SWAP1 DUP1 SLOAD SWAP2 JUMPDEST DUP3 DUP2 LT PUSH2 0x3FF8 JUMPI POP POP POP PUSH2 0x3E61 SWAP3 SWAP2 PUSH2 0x3E5C SWAP2 PUSH2 0x32DB JUMP JUMPDEST PUSH2 0x3318 JUMP JUMPDEST SWAP5 PUSH1 0x0 JUMPDEST DUP3 SLOAD DUP2 LT ISZERO PUSH2 0x3FAB JUMPI DUP1 PUSH2 0x3E7A DUP9 SWAP3 DUP6 PUSH2 0x2FBB JUMP JUMPDEST SWAP1 SLOAD PUSH1 0x0 DUP8 DUP2 MSTORE PUSH1 0x6 PUSH1 0x20 SWAP1 DUP2 MSTORE PUSH1 0x40 DUP1 DUP4 KECCAK256 PUSH1 0x3 SWAP6 SWAP1 SWAP6 SHL SWAP4 SWAP1 SWAP4 SHR PUSH1 0x1 PUSH1 0x1 PUSH1 0xA0 SHL SUB AND DUP1 DUP4 MSTORE SWAP4 SWAP1 MSTORE KECCAK256 DUP1 SLOAD DUP9 SWAP1 PUSH1 0xA0 SHR PUSH1 0xFF AND PUSH2 0x3EBA DUP3 PUSH2 0x3156 JUMP JUMPDEST PUSH2 0x3EC3 DUP2 PUSH2 0x3156 JUMP JUMPDEST EQ DUP1 PUSH2 0x3F9C JUMPI JUMPDEST PUSH2 0x3EDB JUMPI JUMPDEST POP POP PUSH1 0x1 SWAP2 POP ADD PUSH2 0x3E65 JUMP JUMPDEST PUSH2 0x3F39 PUSH2 0x3EFF PUSH1 0x0 SWAP6 PUSH1 0x2 DUP5 PUSH1 0x5 PUSH1 0x20 SWAP7 ADD PUSH1 0x1 PUSH1 0xFF NOT DUP3 SLOAD AND OR SWAP1 SSTORE ADD SLOAD PUSH2 0x32DB JUMP JUMPDEST DUP6 SLOAD PUSH1 0x40 MLOAD PUSH4 0xA9059CBB PUSH1 0xE0 SHL DUP2 MSTORE PUSH1 0x1 PUSH1 0x1 PUSH1 0xA0 SHL SUB DUP7 DUP2 AND PUSH1 0x4 DUP4 ADD MSTORE PUSH1 0x24 DUP3 ADD SWAP4 SWAP1 SWAP4 MSTORE SWAP7 DUP8 SWAP4 SWAP2 SWAP1 SWAP3 AND SWAP2 DUP4 SWAP2 DUP3 SWAP1 PUSH1 0x44 DUP3 ADD SWAP1 JUMP JUMPDEST SUB SWAP3 GAS CALL SWAP3 DUP4 ISZERO PUSH2 0xD64 JUMPI PUSH1 0x1 SWAP4 PUSH2 0x3F80 JUMPI JUMPDEST POP DUP6 PUSH32 0xAB7542BAFCED3DA2D8C881CB2DD1DE859FAC7C20D3650D2902AD389A64E08883 PUSH1 0x20 PUSH1 0x40 MLOAD DUP13 DUP2 MSTORE LOG3 DUP8 SWAP2 CODESIZE PUSH2 0x3ECF JUMP JUMPDEST PUSH2 0x3F97 SWAP1 PUSH1 0x20 RETURNDATASIZE DUP2 GT PUSH2 0xD5D JUMPI PUSH2 0xD4F DUP2 DUP4 PUSH2 0x3068 JUMP JUMPDEST PUSH2 0x3F4C JUMP JUMPDEST POP PUSH1 0xFF PUSH1 0x5 DUP3 ADD SLOAD AND ISZERO PUSH2 0x3ECA JUMP JUMPDEST POP PUSH1 0x0 DUP1 SLOAD PUSH1 0x4 DUP1 SLOAD PUSH1 0x40 MLOAD PUSH4 0xA9059CBB PUSH1 0xE0 SHL DUP2 MSTORE PUSH1 0x1 PUSH1 0x1 PUSH1 0xA0 SHL SUB SWAP2 DUP3 AND SWAP3 DUP2 ADD SWAP3 SWAP1 SWAP3 MSTORE PUSH1 0x24 DUP3 ADD SWAP9 SWAP1 SWAP9 MSTORE SWAP3 SWAP8 POP SWAP2 SWAP6 PUSH1 0x20 SWAP6 POP DUP7 SWAP5 POP SWAP1 SWAP2 AND SWAP2 POP DUP3 SWAP1 DUP2 PUSH1 0x44 DUP2 ADD PUSH2 0x3AE7 JUMP JUMPDEST PUSH1 0x1 SWAP1 DUP9 PUSH1 0x0 MSTORE PUSH1 0x6 PUSH1 0x20 MSTORE PUSH1 0x40 DUP1 PUSH1 0x0 KECCAK256 PUSH2 0x4014 DUP4 DUP7 PUSH2 0x2FBB JUMP JUMPDEST DUP6 DUP1 PUSH1 0xA0 SHL SUB SWAP2 SLOAD SWAP1 PUSH1 0x3 SHL SHR AND SWAP1 PUSH1 0x0 SWAP2 DUP6 DUP1 PUSH1 0xA0 SHL SUB AND DUP3 MSTORE PUSH1 0x20 MSTORE KECCAK256 DUP11 PUSH1 0xFF DUP3 SLOAD PUSH1 0xA0 SHR AND PUSH2 0x4045 DUP3 PUSH2 0x3156 JUMP JUMPDEST PUSH2 0x404E DUP2 PUSH2 0x3156 JUMP JUMPDEST SUB PUSH2 0x405B JUMPI JUMPDEST POP ADD PUSH2 0x3E44 JUMP JUMPDEST PUSH1 0x2 PUSH2 0x406A SWAP2 ADD SLOAD DUP1 SWAP8 PUSH2 0x32DB JUMP JUMPDEST SWAP6 DUP10 PUSH32 0xBA00BE99B4BA100B19F2C080160AB22C2B8F4D62027D6524C532E7578D7A43B4 PUSH1 0x20 PUSH2 0x4099 DUP6 DUP9 PUSH2 0x2FBB JUMP JUMPDEST DUP8 DUP1 PUSH1 0xA0 SHL SUB SWAP2 SLOAD SWAP1 PUSH1 0x3 SHL SHR AND SWAP4 PUSH1 0x40 MLOAD SWAP1 DUP2 MSTORE LOG3 CODESIZE PUSH2 0x4054 JUMP JUMPDEST PUSH2 0x4111 SWAP6 SWAP7 POP DUP8 SWAP4 POP PUSH1 0x20 SWAP3 POP SWAP7 PUSH2 0x40CF SWAP2 SWAP5 SWAP9 SWAP8 PUSH2 0x3DC2 JUMP JUMPDEST PUSH1 0x0 DUP1 SLOAD PUSH1 0x4 DUP1 SLOAD PUSH1 0x40 MLOAD PUSH4 0xA9059CBB PUSH1 0xE0 SHL DUP2 MSTORE PUSH1 0x1 PUSH1 0x1 PUSH1 0xA0 SHL SUB SWAP2 DUP3 AND SWAP3 DUP2 ADD SWAP3 SWAP1 SWAP3 MSTORE PUSH1 0x24 DUP3 ADD SWAP7 SWAP1 SWAP7 MSTORE SWAP7 SWAP3 SWAP5 DUP8 SWAP4 SWAP2 AND SWAP2 DUP4 SWAP2 DUP3 SWAP1 PUSH1 0x44 DUP3 ADD SWAP1 JUMP JUMPDEST SUB SWAP3 GAS CALL SWAP2 DUP3 ISZERO PUSH2 0xD64 JUMPI PUSH2 0x416D SWAP4 PUSH1 0x20 SWAP4 PUSH2 0x4276 JUMPI JUMPDEST POP PUSH1 0x0 DUP1 SLOAD PUSH1 0x1 SWAP3 SWAP1 SWAP3 ADD SLOAD PUSH1 0x40 MLOAD PUSH4 0xA9059CBB PUSH1 0xE0 SHL DUP2 MSTORE PUSH1 0x1 PUSH1 0x1 PUSH1 0xA0 SHL SUB SWAP2 DUP3 AND PUSH1 0x4 DUP3 ADD MSTORE PUSH1 0x24 DUP2 ADD SWAP5 SWAP1 SWAP5 MSTORE SWAP3 SWAP5 DUP6 SWAP4 SWAP1 SWAP3 AND SWAP2 DUP4 SWAP2 SWAP1 DUP3 SWAP1 PUSH1 0x44 DUP3 ADD SWAP1 JUMP JUMPDEST SUB SWAP3 GAS CALL DUP1 ISZERO PUSH2 0xD64 JUMPI PUSH2 0x4259 JUMPI JUMPDEST POP PUSH1 0x0 JUMPDEST DUP4 SLOAD DUP2 LT ISZERO PUSH2 0x4253 JUMPI PUSH2 0x421B SWAP1 DUP3 PUSH1 0x0 MSTORE PUSH1 0x6 PUSH1 0x20 MSTORE PUSH1 0x20 PUSH1 0x40 DUP1 PUSH1 0x0 KECCAK256 PUSH2 0x41A8 DUP5 DUP10 PUSH2 0x2FBB JUMP JUMPDEST SWAP1 SLOAD PUSH1 0x1 PUSH1 0x1 PUSH1 0xA0 SHL SUB PUSH1 0x3 SWAP3 SWAP1 SWAP3 SHL SHR DUP2 AND PUSH1 0x0 SWAP1 DUP2 MSTORE SWAP2 DUP5 MSTORE SWAP2 DUP2 KECCAK256 SWAP1 SLOAD SWAP1 SWAP2 AND PUSH1 0x2 PUSH2 0x41D7 DUP6 DUP11 PUSH2 0x2FBB JUMP JUMPDEST SWAP1 SLOAD SWAP2 SWAP1 SWAP4 ADD SLOAD PUSH1 0x40 MLOAD PUSH4 0xA9059CBB PUSH1 0xE0 SHL DUP2 MSTORE PUSH1 0x3 SWAP5 SWAP1 SWAP5 SHL SWAP2 SWAP1 SWAP2 SHR PUSH1 0x1 PUSH1 0x1 PUSH1 0xA0 SHL SUB AND PUSH1 0x4 DUP5 ADD MSTORE PUSH1 0x24 DUP4 ADD MSTORE SWAP1 SWAP4 DUP5 SWAP2 SWAP1 DUP3 SWAP1 PUSH1 0x0 SWAP1 DUP3 SWAP1 PUSH1 0x44 DUP3 ADD SWAP1 JUMP JUMPDEST SUB SWAP3 GAS CALL SWAP2 DUP3 ISZERO PUSH2 0xD64 JUMPI PUSH1 0x1 SWAP3 PUSH2 0x4235 JUMPI JUMPDEST POP ADD PUSH2 0x4180 JUMP JUMPDEST PUSH2 0x424C SWAP1 PUSH1 0x20 RETURNDATASIZE DUP2 GT PUSH2 0xD5D JUMPI PUSH2 0xD4F DUP2 DUP4 PUSH2 0x3068 JUMP JUMPDEST POP CODESIZE PUSH2 0x422E JUMP JUMPDEST POP POP SWAP1 POP JUMP JUMPDEST PUSH2 0x4271 SWAP1 PUSH1 0x20 RETURNDATASIZE PUSH1 0x20 GT PUSH2 0xD5D JUMPI PUSH2 0xD4F DUP2 DUP4 PUSH2 0x3068 JUMP JUMPDEST PUSH2 0x417C JUMP JUMPDEST PUSH2 0x428C SWAP1 DUP5 RETURNDATASIZE DUP7 GT PUSH2 0xD5D JUMPI PUSH2 0xD4F DUP2 DUP4 PUSH2 0x3068 JUMP JUMPDEST PUSH2 0x4128 JUMP JUMPDEST POP DUP4 ISZERO PUSH2 0x3E26 JUMP JUMPDEST SWAP1 PUSH2 0x42BF JUMPI POP DUP1 MLOAD ISZERO PUSH2 0x42AE JUMPI PUSH1 0x20 DUP2 MLOAD SWAP2 ADD REVERT JUMPDEST PUSH4 0xD6BDA275 PUSH1 0xE0 SHL PUSH1 0x0 MSTORE PUSH1 0x4 PUSH1 0x0 REVERT JUMPDEST DUP2 MLOAD ISZERO DUP1 PUSH2 0x42F1 JUMPI JUMPDEST PUSH2 0x42D0 JUMPI POP SWAP1 JUMP JUMPDEST PUSH4 0x9996B315 PUSH1 0xE0 SHL PUSH1 0x0 SWAP1 DUP2 MSTORE PUSH1 0x1 PUSH1 0x1 PUSH1 0xA0 SHL SUB SWAP2 SWAP1 SWAP2 AND PUSH1 0x4 MSTORE PUSH1 0x24 SWAP1 REVERT JUMPDEST POP DUP1 EXTCODESIZE ISZERO PUSH2 0x42C8 JUMP INVALID 0x2F DUP8 DUP9 GT PUSH31 0x7EFF1D82E926EC794901D17C78024A50270940304540A733656F0D360894A1 EXTCODESIZE LOG1 LOG3 0x21 MOD PUSH8 0xC828492DB98DCA3E KECCAK256 PUSH23 0xCC3735A920A3CA505D382BBC02DD7BC7DEC4DCEEDDA775 0xE5 DUP14 0xD5 COINBASE 0xE0 DUP11 GT PUSH13 0x6C53815C0BD028192F7B626800 0xCD MCOPY 0xD1 TLOAD PUSH15 0x187E77E9AEE88184C21F4F2182AB58 0x27 0xCB EXTCODESIZE PUSH31 0x7FBEDCD63F033009B779B17422D0DF92223018B32B4D1FA46E071723D6817 0xE2 BASEFEE PUSH14 0x3BECC55F00448256DB8F8FB95E 0xE3 0xEA 0xAF DUP10 0xC1 SDIV EQ EQ BLOBHASH 0x4E DUP6 0xCE 0xBB PUSH1 0x57 0xFC 0xF9 SWAP7 0xCC RETURNDATASIZE 0xC 0xCF 0xB4 JUMP CREATE 0xC5 PUSH31 0x16840DF040F15088DC2F81FE391C3923BEC73E23A9662EFC9C229C6A00A264 PUSH10 0x706673582212204867F3 LOG1 0x4B 0xA7 0xE 0xDE 0x27 EXTCODECOPY PUSH8 0xB2A78FD0BBAB085C CALLDATACOPY JUMPI 0xDD LOG1 ADDMOD 0xF9 PUSH15 0x210EE767BEF564736F6C634300081C STOP CALLER "},"methodIdentifiers":{"ANALYSIS_TIMEOUT()":"cb522370","CONSENSUS_THRESHOLD()":"bca125f0","DEFAULT_ADMIN_ROLE()":"a217fddf","DISPUTE_PERIOD()":"a5bbe22b","MIN_ANALYSES_TO_RESOLVE()":"9e6cc94e","MIN_DISPUTE_STAKE()":"03abc752","MIN_STAKE_AMOUNT()":"27ed7188","OPERATOR_ROLE()":"f5b541a6","PAUSER_ROLE()":"e63ab1e9","PLATFORM_FEE_PERCENT()":"560d52d4","UPGRADER_ROLE()":"f72c0d8b","UPGRADE_INTERFACE_VERSION()":"ad3cb1cc","addTrustedResolver(address)":"3472dba3","analyses(uint256,address)":"bdeb4c2f","analystSubmissionIds(uint256,address)":"6fa971c5","bounties(uint256)":"dc2f8744","bountyAnalysts(uint256,uint256)":"0be8ff00","bountyCounter()":"a0d59787","bountyDisputes(uint256,uint256)":"b0b0d226","createBounty(string,uint8,uint256,uint256,string)":"cd4fe3d5","createDispute(uint256,string)":"9c32c447","disputeCounter()":"7d36f4d3","feeCollector()":"c415b95c","getAnalysis(uint256,address)":"eab4e425","getBounty(uint256)":"ee8c4bbf","getBountyAnalysts(uint256)":"c7d22e9c","getBountyDisputes(uint256)":"9a2be336","getRoleAdmin(bytes32)":"248a9ca3","grantRole(bytes32,address)":"2f2ff15d","hasRole(bytes32,address)":"91d14854","initialize(address,address,address)":"c0c53b8b","isDisputed(uint256)":"7ccc586e","pause()":"8456cb59","paused()":"5c975abb","proxiableUUID()":"52d1902d","removeTrustedResolver(address)":"29bd74b0","renounceRole(bytes32,address)":"36568abe","reputationSystem()":"6587eda1","resolveDispute(uint256,uint256,bool)":"36c47f5f","revokeRole(bytes32,address)":"d547741f","setFeeCollector(address)":"a42dce80","submitAnalysis(uint256,uint8,uint256,uint256,string)":"1a147e37","supportsInterface(bytes4)":"01ffc9a7","threatToken()":"9008e13f","trustedResolvers(address)":"19d66fb1","unpause()":"3f4ba83a","upgradeToAndCall(address,bytes)":"4f1ef286","userBounties(address,uint256)":"2b9234b9","version()":"54fd4d50"}}}}}