{
  "_format": "hh-sol-artifact-1",
  "contractName": "Governance",
  "sourceName": "contracts/core/Governance.sol",
  "abi": [
    {
      "inputs": [
        {
          "internalType": "address",
          "name": "_threatToken",
          "type": "address"
        }
      ],
      "stateMutability": "nonpayable",
      "type": "constructor"
    },
    {
      "inputs": [],
      "name": "AccessControlBadConfirmation",
      "type": "error"
    },
    {
      "inputs": [
        {
          "internalType": "address",
          "name": "account",
          "type": "address"
        },
        {
          "internalType": "bytes32",
          "name": "neededRole",
          "type": "bytes32"
        }
      ],
      "name": "AccessControlUnauthorizedAccount",
      "type": "error"
    },
    {
      "inputs": [],
      "name": "ReentrancyGuardReentrantCall",
      "type": "error"
    },
    {
      "anonymous": false,
      "inputs": [
        {
          "indexed": true,
          "internalType": "uint256",
          "name": "proposalId",
          "type": "uint256"
        }
      ],
      "name": "ProposalCancelled",
      "type": "event"
    },
    {
      "anonymous": false,
      "inputs": [
        {
          "indexed": true,
          "internalType": "uint256",
          "name": "proposalId",
          "type": "uint256"
        },
        {
          "indexed": true,
          "internalType": "address",
          "name": "proposer",
          "type": "address"
        },
        {
          "indexed": false,
          "internalType": "string",
          "name": "title",
          "type": "string"
        },
        {
          "indexed": false,
          "internalType": "uint256",
          "name": "startTime",
          "type": "uint256"
        },
        {
          "indexed": false,
          "internalType": "uint256",
          "name": "endTime",
          "type": "uint256"
        }
      ],
      "name": "ProposalCreated",
      "type": "event"
    },
    {
      "anonymous": false,
      "inputs": [
        {
          "indexed": true,
          "internalType": "uint256",
          "name": "proposalId",
          "type": "uint256"
        }
      ],
      "name": "ProposalExecuted",
      "type": "event"
    },
    {
      "anonymous": false,
      "inputs": [
        {
          "indexed": true,
          "internalType": "uint256",
          "name": "proposalId",
          "type": "uint256"
        },
        {
          "indexed": false,
          "internalType": "uint256",
          "name": "executionTime",
          "type": "uint256"
        }
      ],
      "name": "ProposalQueued",
      "type": "event"
    },
    {
      "anonymous": false,
      "inputs": [
        {
          "indexed": true,
          "internalType": "bytes32",
          "name": "role",
          "type": "bytes32"
        },
        {
          "indexed": true,
          "internalType": "bytes32",
          "name": "previousAdminRole",
          "type": "bytes32"
        },
        {
          "indexed": true,
          "internalType": "bytes32",
          "name": "newAdminRole",
          "type": "bytes32"
        }
      ],
      "name": "RoleAdminChanged",
      "type": "event"
    },
    {
      "anonymous": false,
      "inputs": [
        {
          "indexed": true,
          "internalType": "bytes32",
          "name": "role",
          "type": "bytes32"
        },
        {
          "indexed": true,
          "internalType": "address",
          "name": "account",
          "type": "address"
        },
        {
          "indexed": true,
          "internalType": "address",
          "name": "sender",
          "type": "address"
        }
      ],
      "name": "RoleGranted",
      "type": "event"
    },
    {
      "anonymous": false,
      "inputs": [
        {
          "indexed": true,
          "internalType": "bytes32",
          "name": "role",
          "type": "bytes32"
        },
        {
          "indexed": true,
          "internalType": "address",
          "name": "account",
          "type": "address"
        },
        {
          "indexed": true,
          "internalType": "address",
          "name": "sender",
          "type": "address"
        }
      ],
      "name": "RoleRevoked",
      "type": "event"
    },
    {
      "anonymous": false,
      "inputs": [
        {
          "indexed": true,
          "internalType": "address",
          "name": "voter",
          "type": "address"
        },
        {
          "indexed": true,
          "internalType": "uint256",
          "name": "proposalId",
          "type": "uint256"
        },
        {
          "indexed": false,
          "internalType": "enum Governance.VoteType",
          "name": "support",
          "type": "uint8"
        },
        {
          "indexed": false,
          "internalType": "uint256",
          "name": "votes",
          "type": "uint256"
        }
      ],
      "name": "VoteCast",
      "type": "event"
    },
    {
      "inputs": [],
      "name": "DEFAULT_ADMIN_ROLE",
      "outputs": [
        {
          "internalType": "bytes32",
          "name": "",
          "type": "bytes32"
        }
      ],
      "stateMutability": "view",
      "type": "function"
    },
    {
      "inputs": [],
      "name": "EXECUTION_DELAY",
      "outputs": [
        {
          "internalType": "uint256",
          "name": "",
          "type": "uint256"
        }
      ],
      "stateMutability": "view",
      "type": "function"
    },
    {
      "inputs": [],
      "name": "EXECUTOR_ROLE",
      "outputs": [
        {
          "internalType": "bytes32",
          "name": "",
          "type": "bytes32"
        }
      ],
      "stateMutability": "view",
      "type": "function"
    },
    {
      "inputs": [],
      "name": "PROPOSAL_THRESHOLD",
      "outputs": [
        {
          "internalType": "uint256",
          "name": "",
          "type": "uint256"
        }
      ],
      "stateMutability": "view",
      "type": "function"
    },
    {
      "inputs": [],
      "name": "PROPOSER_ROLE",
      "outputs": [
        {
          "internalType": "bytes32",
          "name": "",
          "type": "bytes32"
        }
      ],
      "stateMutability": "view",
      "type": "function"
    },
    {
      "inputs": [],
      "name": "QUORUM_PERCENTAGE",
      "outputs": [
        {
          "internalType": "uint256",
          "name": "",
          "type": "uint256"
        }
      ],
      "stateMutability": "view",
      "type": "function"
    },
    {
      "inputs": [],
      "name": "VOTING_PERIOD",
      "outputs": [
        {
          "internalType": "uint256",
          "name": "",
          "type": "uint256"
        }
      ],
      "stateMutability": "view",
      "type": "function"
    },
    {
      "inputs": [
        {
          "internalType": "uint256",
          "name": "proposalId",
          "type": "uint256"
        }
      ],
      "name": "cancel",
      "outputs": [],
      "stateMutability": "nonpayable",
      "type": "function"
    },
    {
      "inputs": [
        {
          "internalType": "uint256",
          "name": "proposalId",
          "type": "uint256"
        },
        {
          "internalType": "enum Governance.VoteType",
          "name": "support",
          "type": "uint8"
        }
      ],
      "name": "castVote",
      "outputs": [],
      "stateMutability": "nonpayable",
      "type": "function"
    },
    {
      "inputs": [
        {
          "internalType": "uint256",
          "name": "proposalId",
          "type": "uint256"
        }
      ],
      "name": "execute",
      "outputs": [],
      "stateMutability": "nonpayable",
      "type": "function"
    },
    {
      "inputs": [
        {
          "internalType": "uint256",
          "name": "proposalId",
          "type": "uint256"
        }
      ],
      "name": "getProposal",
      "outputs": [
        {
          "components": [
            {
              "internalType": "uint256",
              "name": "id",
              "type": "uint256"
            },
            {
              "internalType": "address",
              "name": "proposer",
              "type": "address"
            },
            {
              "internalType": "string",
              "name": "title",
              "type": "string"
            },
            {
              "internalType": "string",
              "name": "description",
              "type": "string"
            },
            {
              "internalType": "address[]",
              "name": "targets",
              "type": "address[]"
            },
            {
              "internalType": "uint256[]",
              "name": "values",
              "type": "uint256[]"
            },
            {
              "internalType": "bytes[]",
              "name": "calldatas",
              "type": "bytes[]"
            },
            {
              "internalType": "uint256",
              "name": "startTime",
              "type": "uint256"
            },
            {
              "internalType": "uint256",
              "name": "endTime",
              "type": "uint256"
            },
            {
              "internalType": "uint256",
              "name": "executionTime",
              "type": "uint256"
            },
            {
              "internalType": "uint256",
              "name": "forVotes",
              "type": "uint256"
            },
            {
              "internalType": "uint256",
              "name": "againstVotes",
              "type": "uint256"
            },
            {
              "internalType": "uint256",
              "name": "abstainVotes",
              "type": "uint256"
            },
            {
              "internalType": "enum Governance.ProposalState",
              "name": "state",
              "type": "uint8"
            },
            {
              "internalType": "bool",
              "name": "executed",
              "type": "bool"
            },
            {
              "internalType": "bool",
              "name": "cancelled",
              "type": "bool"
            }
          ],
          "internalType": "struct Governance.Proposal",
          "name": "",
          "type": "tuple"
        }
      ],
      "stateMutability": "view",
      "type": "function"
    },
    {
      "inputs": [
        {
          "internalType": "uint256",
          "name": "proposalId",
          "type": "uint256"
        }
      ],
      "name": "getProposalState",
      "outputs": [
        {
          "internalType": "enum Governance.ProposalState",
          "name": "",
          "type": "uint8"
        }
      ],
      "stateMutability": "view",
      "type": "function"
    },
    {
      "inputs": [],
      "name": "getQuorum",
      "outputs": [
        {
          "internalType": "uint256",
          "name": "",
          "type": "uint256"
        }
      ],
      "stateMutability": "view",
      "type": "function"
    },
    {
      "inputs": [
        {
          "internalType": "uint256",
          "name": "proposalId",
          "type": "uint256"
        },
        {
          "internalType": "address",
          "name": "voter",
          "type": "address"
        }
      ],
      "name": "getReceipt",
      "outputs": [
        {
          "components": [
            {
              "internalType": "bool",
              "name": "hasVoted",
              "type": "bool"
            },
            {
              "internalType": "enum Governance.VoteType",
              "name": "support",
              "type": "uint8"
            },
            {
              "internalType": "uint256",
              "name": "votes",
              "type": "uint256"
            }
          ],
          "internalType": "struct Governance.Receipt",
          "name": "",
          "type": "tuple"
        }
      ],
      "stateMutability": "view",
      "type": "function"
    },
    {
      "inputs": [
        {
          "internalType": "bytes32",
          "name": "role",
          "type": "bytes32"
        }
      ],
      "name": "getRoleAdmin",
      "outputs": [
        {
          "internalType": "bytes32",
          "name": "",
          "type": "bytes32"
        }
      ],
      "stateMutability": "view",
      "type": "function"
    },
    {
      "inputs": [
        {
          "internalType": "address",
          "name": "user",
          "type": "address"
        }
      ],
      "name": "getUserProposals",
      "outputs": [
        {
          "internalType": "uint256[]",
          "name": "",
          "type": "uint256[]"
        }
      ],
      "stateMutability": "view",
      "type": "function"
    },
    {
      "inputs": [
        {
          "internalType": "address",
          "name": "voter",
          "type": "address"
        }
      ],
      "name": "getVotingPower",
      "outputs": [
        {
          "internalType": "uint256",
          "name": "",
          "type": "uint256"
        }
      ],
      "stateMutability": "view",
      "type": "function"
    },
    {
      "inputs": [
        {
          "internalType": "address",
          "name": "account",
          "type": "address"
        }
      ],
      "name": "grantProposerRole",
      "outputs": [],
      "stateMutability": "nonpayable",
      "type": "function"
    },
    {
      "inputs": [
        {
          "internalType": "bytes32",
          "name": "role",
          "type": "bytes32"
        },
        {
          "internalType": "address",
          "name": "account",
          "type": "address"
        }
      ],
      "name": "grantRole",
      "outputs": [],
      "stateMutability": "nonpayable",
      "type": "function"
    },
    {
      "inputs": [
        {
          "internalType": "uint256",
          "name": "proposalId",
          "type": "uint256"
        }
      ],
      "name": "hasReachedQuorum",
      "outputs": [
        {
          "internalType": "bool",
          "name": "",
          "type": "bool"
        }
      ],
      "stateMutability": "view",
      "type": "function"
    },
    {
      "inputs": [
        {
          "internalType": "bytes32",
          "name": "role",
          "type": "bytes32"
        },
        {
          "internalType": "address",
          "name": "account",
          "type": "address"
        }
      ],
      "name": "hasRole",
      "outputs": [
        {
          "internalType": "bool",
          "name": "",
          "type": "bool"
        }
      ],
      "stateMutability": "view",
      "type": "function"
    },
    {
      "inputs": [],
      "name": "proposalCount",
      "outputs": [
        {
          "internalType": "uint256",
          "name": "",
          "type": "uint256"
        }
      ],
      "stateMutability": "view",
      "type": "function"
    },
    {
      "inputs": [
        {
          "internalType": "uint256",
          "name": "",
          "type": "uint256"
        }
      ],
      "name": "proposals",
      "outputs": [
        {
          "internalType": "uint256",
          "name": "id",
          "type": "uint256"
        },
        {
          "internalType": "address",
          "name": "proposer",
          "type": "address"
        },
        {
          "internalType": "string",
          "name": "title",
          "type": "string"
        },
        {
          "internalType": "string",
          "name": "description",
          "type": "string"
        },
        {
          "internalType": "uint256",
          "name": "startTime",
          "type": "uint256"
        },
        {
          "internalType": "uint256",
          "name": "endTime",
          "type": "uint256"
        },
        {
          "internalType": "uint256",
          "name": "executionTime",
          "type": "uint256"
        },
        {
          "internalType": "uint256",
          "name": "forVotes",
          "type": "uint256"
        },
        {
          "internalType": "uint256",
          "name": "againstVotes",
          "type": "uint256"
        },
        {
          "internalType": "uint256",
          "name": "abstainVotes",
          "type": "uint256"
        },
        {
          "internalType": "enum Governance.ProposalState",
          "name": "state",
          "type": "uint8"
        },
        {
          "internalType": "bool",
          "name": "executed",
          "type": "bool"
        },
        {
          "internalType": "bool",
          "name": "cancelled",
          "type": "bool"
        }
      ],
      "stateMutability": "view",
      "type": "function"
    },
    {
      "inputs": [
        {
          "internalType": "string",
          "name": "title",
          "type": "string"
        },
        {
          "internalType": "string",
          "name": "description",
          "type": "string"
        },
        {
          "internalType": "address[]",
          "name": "targets",
          "type": "address[]"
        },
        {
          "internalType": "uint256[]",
          "name": "values",
          "type": "uint256[]"
        },
        {
          "internalType": "bytes[]",
          "name": "calldatas",
          "type": "bytes[]"
        }
      ],
      "name": "propose",
      "outputs": [
        {
          "internalType": "uint256",
          "name": "",
          "type": "uint256"
        }
      ],
      "stateMutability": "nonpayable",
      "type": "function"
    },
    {
      "inputs": [
        {
          "internalType": "uint256",
          "name": "proposalId",
          "type": "uint256"
        }
      ],
      "name": "queue",
      "outputs": [],
      "stateMutability": "nonpayable",
      "type": "function"
    },
    {
      "inputs": [
        {
          "internalType": "uint256",
          "name": "",
          "type": "uint256"
        },
        {
          "internalType": "address",
          "name": "",
          "type": "address"
        }
      ],
      "name": "receipts",
      "outputs": [
        {
          "internalType": "bool",
          "name": "hasVoted",
          "type": "bool"
        },
        {
          "internalType": "enum Governance.VoteType",
          "name": "support",
          "type": "uint8"
        },
        {
          "internalType": "uint256",
          "name": "votes",
          "type": "uint256"
        }
      ],
      "stateMutability": "view",
      "type": "function"
    },
    {
      "inputs": [
        {
          "internalType": "bytes32",
          "name": "role",
          "type": "bytes32"
        },
        {
          "internalType": "address",
          "name": "callerConfirmation",
          "type": "address"
        }
      ],
      "name": "renounceRole",
      "outputs": [],
      "stateMutability": "nonpayable",
      "type": "function"
    },
    {
      "inputs": [
        {
          "internalType": "address",
          "name": "account",
          "type": "address"
        }
      ],
      "name": "revokeProposerRole",
      "outputs": [],
      "stateMutability": "nonpayable",
      "type": "function"
    },
    {
      "inputs": [
        {
          "internalType": "bytes32",
          "name": "role",
          "type": "bytes32"
        },
        {
          "internalType": "address",
          "name": "account",
          "type": "address"
        }
      ],
      "name": "revokeRole",
      "outputs": [],
      "stateMutability": "nonpayable",
      "type": "function"
    },
    {
      "inputs": [
        {
          "internalType": "bytes4",
          "name": "interfaceId",
          "type": "bytes4"
        }
      ],
      "name": "supportsInterface",
      "outputs": [
        {
          "internalType": "bool",
          "name": "",
          "type": "bool"
        }
      ],
      "stateMutability": "view",
      "type": "function"
    },
    {
      "inputs": [],
      "name": "threatToken",
      "outputs": [
        {
          "internalType": "contract ThreatToken",
          "name": "",
          "type": "address"
        }
      ],
      "stateMutability": "view",
      "type": "function"
    },
    {
      "inputs": [
        {
          "internalType": "address",
          "name": "",
          "type": "address"
        },
        {
          "internalType": "uint256",
          "name": "",
          "type": "uint256"
        }
      ],
      "name": "userProposals",
      "outputs": [
        {
          "internalType": "uint256",
          "name": "",
          "type": "uint256"
        }
      ],
      "stateMutability": "view",
      "type": "function"
    },
    {
      "stateMutability": "payable",
      "type": "receive"
    }
  ],
  "bytecode": "0x60a03461010357601f612c1938819003918201601f19168301916001600160401b038311848410176101085780849260209460405283398101031261010357516001600160a01b03811690819003610103576001805580156100be576080526100673361011e565b506100713361019a565b5061007b33610232565b506040516128ce90816102cb823960805181818161067301528181610d2f01528181610dff01528181610f86015281816111c4015281816119080152611a4f0152f35b60405162461bcd60e51b815260206004820152601560248201527f496e76616c696420746f6b656e206164647265737300000000000000000000006044820152606490fd5b600080fd5b634e487b7160e01b600052604160045260246000fd5b6001600160a01b0381166000908152600080516020612bf9833981519152602052604090205460ff16610194576001600160a01b03166000818152600080516020612bf983398151915260205260408120805460ff19166001179055339190600080516020612b998339815191528180a4600190565b50600090565b6001600160a01b0381166000908152600080516020612bb9833981519152602052604090205460ff16610194576001600160a01b03166000818152600080516020612bb983398151915260205260408120805460ff191660011790553391907fb09aa5aeb3702cfd50b6b62bc4532604938f21248a27a1d5ca736082b6819cc190600080516020612b998339815191529080a4600190565b6001600160a01b0381166000908152600080516020612bd9833981519152602052604090205460ff16610194576001600160a01b03166000818152600080516020612bd983398151915260205260408120805460ff191660011790553391907fd8aa0f3194971a2a116679f7c2090f6939c8d4e01a2a8d7e41d55e5351469e6390600080516020612b998339815191529080a460019056fe6080604052600436101561001b575b361561001957600080fd5b005b60003560e01c8063013cf08b1461203157806301ffc9a714611fdb57806307bd026514611fa057806315e30c9114611f355780631b31527f14611edc578063248a9ca314611ea75780632f2ff15d14611e6757806336568abe14611e2157806337f135d714611e0357806340e58ee514611cad5780634178b24914611c4157806356781388146119a357806359abab051461189f57806371fb58361461103057806378ef113814610fde5780638f61f4f514610fb55780639008e13f14610f705780639080936f14610f1957806391d1485414610ecc578063a217fddf14610eb0578063a6c2660314610e8b578063b1610d7e14610e6d578063bb4d443614610dbc578063c26c12eb14610d09578063c7f758a8146108b2578063d547741f14610872578063da35c66414610854578063ddf0b009146105c7578063e23a9a5214610515578063ee8a7c15146104f9578063fe0d94c1146101f55763fe0ea3e60361000e57346101f05760203660031901126101f05761001961019c6122b2565b6101a4612567565b60008051602061287983398151915260009081526020527f3412d5605ac6cd444957cedb533e5dacad6378b4bc819ebe3652188a665066d6546101eb906125ba565b6125ba565b6125f5565b600080fd5b346101f05760203660031901126101f057600435610211612836565b3360009081527fdae2aa361dfd1ca020a396615627d436107c35eff9fe7738a3512819782d7069602052604090205460ff16156104c057801515806104b4575b61025a906123d4565b8060005260036020526040600020600d8101805460ff8116600781101561049e5760040361046c576009830154421061042757806102a160ff6101009360081c1615612413565b61ff001916178155600560ff198254161790556000600482016006600584019301915b81548110156103fb576102d781836122de565b905460039190911b1c6001600160a01b03166102f382866122de565b90549060031b1c61030483866122de565b5090604051916000908054906103198261212e565b91600181169081156103e457506001146103af575b5050916000939181859403925af13d156103aa573d61034c81612319565b9061035a604051928361219f565b8152600060203d92013e5b15610372576001016102c4565b60405162461bcd60e51b815260206004820152601060248201526f115e1958dd5d1a5bdb8819985a5b195960821b6044820152606490fd5b610365565b90915060005260206000206000905b8282106103d05750508201818361032e565b6001816020925484880152019101906103be565b60ff1916865250508015150283019050818361032e565b847f712ae1383f79ac853f8d882153778e0260ef8f03b504e2866e0593e04d2b291f600080a260018055005b60405162461bcd60e51b815260206004820152601760248201527f457865637574696f6e2064656c6179206e6f74206d65740000000000000000006044820152606490fd5b60405162461bcd60e51b815260206004820152600a602482015269139bdd081c5d595d595960b21b6044820152606490fd5b634e487b7160e01b600052602160045260246000fd5b50600254811115610251565b63e2517d3f60e01b600052336004527fd8aa0f3194971a2a116679f7c2090f6939c8d4e01a2a8d7e41d55e5351469e6360245260446000fd5b346101f05760003660031901126101f0576020604051600a8152f35b346101f05760403660031901126101f05761052e6122c8565b60006040805161053d81612184565b8281528260208201520152600435600052600460205260406000209060018060a01b0316600052602052604060002060405161057881612184565b60ff82548181161515835260081c16916020820190600384101561049e5760016105bf9160609584520154916040840192835260405193511515845251602084019061230c565b516040820152f35b346101f05760203660031901126101f05760043580151580610848575b6105ed906123d4565b8060005260036020526040600020600d810190815460ff8116600781101561049e5760010361080d5760088201544211156107d5578061063460ff809360081c1615612413565b60101c1661079b57600a810154600b82015461065e6106538284612452565b600c85015490612452565b6040516318160ddd60e01b81526020816004817f00000000000000000000000000000000000000000000000000000000000000006001600160a01b03165afa90811561078f5760009161075a575b50600a810290808204600a149015171561072c576064900411159182610750575b50501561074257600360ff1983541617825562015180420180421161072c577f9a2e42fd6722813d69113e7d0079d3d940171428df7373df9c7f7617cfda289292600960209301918255600460ff1982541617905554604051908152a2005b634e487b7160e01b600052601160045260246000fd5b50805460ff19166002179055005b11905084806106cd565b906020823d602011610787575b816107746020938361219f565b81010312610784575051876106ac565b80fd5b3d9150610767565b6040513d6000823e3d90fd5b60405162461bcd60e51b8152602060048201526012602482015271141c9bdc1bdcd85b0818d85b98d95b1b195960721b6044820152606490fd5b60405162461bcd60e51b815260206004820152601060248201526f159bdd1a5b99c81b9bdd08195b99195960821b6044820152606490fd5b60405162461bcd60e51b815260206004820152601360248201527250726f706f73616c206e6f742061637469766560681b6044820152606490fd5b506002548111156105e4565b346101f05760003660031901126101f0576020600254604051908152f35b346101f05760403660031901126101f0576100196004356108916122c8565b906108ad6101e682600052600060205260016040600020015490565b6127b4565b346101f05760203660031901126101f05760043560006101e06040516108d781612168565b8281528260208201526060604082015260608082015260606080820152606060a0820152606060c08201528260e08201528261010082015282610120820152826101408201528261016082015282610180820152826101a0820152826101c0820152015280151580610cfd575b61094d906123d4565b6000526003602052604060002060405161096681612168565b8154815260018201546001600160a01b0316602082019081529061098c600284016121c0565b90604081019182526109a0600385016121c0565b906060810191825260048501926040518085602082975493848152019060005260206000209260005b818110610cdb5750506109de9250038561219f565b608082019384526109f16005870161251c565b9560a083019687526006810196875497610a0a89612389565b98610a186040519a8b61219f565b808a5260208a01916000526020600020916000905b828210610c36575050505060c0840197885260078201549560e08501968752600883015461010086019081526009840154906101208701918252600a850154926101408801938452600b860154946101608901958652600d600c880154976101808b0198895201549960ff8b16986101a08b0199600781101561049e578a526101c08b019a8c60081c60ff1615158c526101e081019c60101c60ff1615158d526040519e8f9160208352516020830152600160a01b600190039051169060400152518d60608101610200905261022001610b0691612264565b90518d8203601f190160808f0152610b1e9190612264565b9151908c601f19818503019060a00152815192838152602001916020019260005b818110610c17575050518c8203601f190160c08e0152610b5f92506123a0565b9a5198601f198b8d030160e08c01528b8a51808252602080808401938360051b01019c01916000905b828210610be957505091516101008d01525050516101208a0152516101408901525161016088015251610180870152516101a0860152519394508493610bd3906101c08601906122a5565b5115156101e08401525115156102008301520390f35b9091929c8f60208f600193610c09918394601f1990830301875251612264565b9f0192019201909291610b88565b84516001600160a01b0316845260209485019490930192600101610b3f565b60405160008554610c468161212e565b8084529060018116908115610cb85750600114610c80575b5060019282610c728594602094038261219f565b815201940191019092610a2d565b6000878152602081209092505b818310610ca257505081016020016001610c5e565b6001816020925483868801015201920191610c8d565b60ff191660208581019190915291151560051b8401909101915060019050610c5e565b84546001600160a01b03168352600194850194899450602090930192016109c9565b50600254811115610944565b346101f05760003660031901126101f0576040516318160ddd60e01b81526020816004817f00000000000000000000000000000000000000000000000000000000000000006001600160a01b03165afa90811561078f57600091610d8a575b50600a810290808204600a149015171561072c57602090606460405191048152f35b906020823d602011610db4575b81610da46020938361219f565b8101031261078457505181610d68565b3d9150610d97565b346101f05760203660031901126101f057610dd56122b2565b6040516370a0823160e01b81526001600160a01b03918216600482015290602090829060249082907f0000000000000000000000000000000000000000000000000000000000000000165afa801561078f57600090610e3a575b602090604051908152f35b506020813d602011610e65575b81610e546020938361219f565b810103126101f05760209051610e2f565b3d9150610e47565b346101f05760003660031901126101f05760206040516203f4808152f35b346101f05760003660031901126101f057602060405169021e19e0c9bab24000008152f35b346101f05760003660031901126101f057602060405160008152f35b346101f05760403660031901126101f057610ee56122c8565b600435600052600060205260406000209060018060a01b0316600052602052602060ff604060002054166040519015158152f35b346101f05760203660031901126101f05760043580151580610f64575b610f3f906123d4565b6000526003602052602060ff600d6040600020015416610f6260405180926122a5565bf35b50600254811115610f36565b346101f05760003660031901126101f0576040517f00000000000000000000000000000000000000000000000000000000000000006001600160a01b03168152602090f35b346101f05760003660031901126101f05760206040516000805160206128798339815191528152f35b346101f05760203660031901126101f0576001600160a01b03610fff6122b2565b16600052600560205261102c611018604060002061251c565b6040519182916020835260208301906123a0565b0390f35b346101f05760a03660031901126101f0576004356001600160401b0381116101f05761106090369060040161236b565b6024356001600160401b0381116101f05761107f90369060040161236b565b604435906001600160401b0382116101f057366023830112156101f05781600401356110aa81612389565b926110b8604051948561219f565b81845260208401906024829360051b820101903682116101f057602401915b81831061187f57505050606435906001600160401b0382116101f057366023830112156101f057816004013561110c81612389565b9261111a604051948561219f565b818452602084016024819360051b830101913683116101f057602401905b82821061186f57505050608435926001600160401b0384116101f057366023850112156101f05783600401359261116e84612389565b9461117c604051968761219f565b84865260208601906024829660051b820101903682116101f05760248101925b82841061182f5750506040516370a0823160e01b8152336004820152915060209050816024817f00000000000000000000000000000000000000000000000000000000000000006001600160a01b03165afa801561078f576000906117f3575b69021e19e0c9bab24000009150106117ae5786511561177257611222875183511461245f565b61122f875186511461245f565b87511561173c57600254600019811461072c57600101968760025587600052600360205260406000209688885560018801336bffffffffffffffffffffffff60a01b825416179055600288018a516001600160401b0381116114b75761129f81611299845461212e565b846124b4565b6020601f82116001146116d45790806112ce926000916116c9575b508160011b916000199060031b1c19161790565b90555b805160038901916001600160401b0382116114b7576112fa826112f4855461212e565b856124b4565b602090601f83116001146116625761132b92916000918361153b575b50508160011b916000199060031b1c19161790565b90555b600487019051916001600160401b0383116114b757600160401b83116114b75761135d838354818555846124f9565b90600052602060002060005b8381106116455750505050600585019051916001600160401b0383116114b757600160401b83116114b7576113a3838354818555846124f9565b90600052602060002060005b838110611631575050505060068301915190600160401b82116114b75782548284558083106115b3575b50916000526020600020916000905b8282106114cd575050505060078101924284556203f48042019182421161072c57806008600d920193845501600160ff19825416179055336000526005602052604060002090815490600160401b8210156114b75760209561147283879560017f6c98a8c940418b35614f0cd02412d5c9606faff474cbb6cdd6640ba5d1a9f06b960181556122de565b81549060031b9086821b91600019901b191617905554935461149f60405192606084526060840190612264565b948783015260408201528033940390a3604051908152f35b634e487b7160e01b600052604160045260246000fd5b80518051906001600160401b0382116114b7576114f4826114ee885461212e565b886124b4565b602090601f8311600114611546579261152c8360019594602094879660009261153b5750508160011b916000199060031b1c19161790565b87555b019401910190926113e8565b015190508d80611316565b90601f1983169187600052816000209260005b81811061159b5750936020936001969387969383889510611582575b505050811b01875561152f565b015160001960f88460031b161c191690558c8080611575565b92936020600181928786015181550195019301611559565b8360005282602060002091820191015b8181106115d057506113d9565b806115dd6001925461212e565b806115ea575b50016115c3565b601f811183146116005750600081555b896115e3565b61161e908260005283601f6020600020920160051c8201910161249d565b80600052600060208120818355556115fa565b6001906020845194019381840155016113af565b82516001600160a01b031681830155602090920191600101611369565b90601f1983169184600052816000209260005b8181106116b15750908460019594939210611698575b505050811b01905561132e565b015160001960f88460031b161c191690558c808061168b565b92936020600181928786015181550195019301611675565b90508d01518e6112ba565b908c91601f1982169084600052806000209160005b8181106117225750938360019510611709575b505050811b0190556112d1565b015160001960f88460031b161c191690558d808e6116fc565b9482015183558f94600190930192602092830192016116e9565b60405162461bcd60e51b815260206004820152600e60248201526d151a5d1b19481c995c5d5a5c995960921b6044820152606490fd5b60405162461bcd60e51b81526020600482015260146024820152734d7573742070726f7669646520616374696f6e7360601b6044820152606490fd5b60405162461bcd60e51b815260206004820152601e60248201527f496e73756666696369656e7420746f6b656e7320746f2070726f706f736500006044820152606490fd5b506020813d602011611827575b8161180d6020938361219f565b810103126101f05769021e19e0c9bab240000090516111fc565b3d9150611800565b83356001600160401b0381116101f0578201366043820112156101f05760209161186483923690604460248201359101612334565b81520193019261119c565b8135815260209182019101611138565b82356001600160a01b03811681036101f0578152602092830192016110d7565b346101f05760203660031901126101f05760043580151580611997575b6118c5906123d4565b60005260036020526118f36040600020600c6118ea600a830154600b84015490612452565b91015490612452565b6040516318160ddd60e01b81526020816004817f00000000000000000000000000000000000000000000000000000000000000006001600160a01b03165afa90811561078f57600091611965575b50600a810290808204600a149015171561072c576020916064604051920411158152f35b906020823d60201161198f575b8161197f6020938361219f565b8101031261078457505182611941565b3d9150611972565b506002548111156118bc565b346101f05760403660031901126101f05760043560243560038110156101f0576119cb612836565b81151580611c35575b6119dd906123d4565b816000526003602052604060002060ff600d82015416600781101561049e57600103611bfc5760088101544211611bc857600083815260046020908152604080832033845290915290208054919060ff8316611b93576040516370a0823160e01b8152336004820152926020846024817f00000000000000000000000000000000000000000000000000000000000000006001600160a01b03165afa93841561078f57600094611b5f575b508315611b285761ffff1916600885901b61ff001617600190811782559081018390558303611b0057600a01611abf828254612452565b90555b611acf604051809361230c565b60208201527f2c9deb38f462962eadbd85a9d3a4120503ee091f1582eaaa10aa8c6797651d2960403392a360018055005b82611b1a57600b01611b13828254612452565b9055611ac2565b600c01611b13828254612452565b60405162461bcd60e51b815260206004820152600f60248201526e2737903b37ba34b733903837bbb2b960891b6044820152606490fd5b90936020823d602011611b8b575b81611b7a6020938361219f565b810103126107845750519286611a88565b3d9150611b6d565b60405162461bcd60e51b815260206004820152600d60248201526c105b1c9958591e481d9bdd1959609a1b6044820152606490fd5b60405162461bcd60e51b815260206004820152600c60248201526b159bdd1a5b99c8195b99195960a21b6044820152606490fd5b60405162461bcd60e51b8152602060048201526011602482015270566f74696e67206e6f742061637469766560781b6044820152606490fd5b506002548211156119d4565b346101f05760403660031901126101f057611c5a6122c8565b600435600052600460205260406000209060018060a01b03166000526020526060604060002060018154910154611ca66040519260ff81161515845260ff602085019160081c1661230c565b6040820152f35b346101f05760203660031901126101f05760043580151580611df7575b611cd3906123d4565b806000526003602052604060002060018060a01b0360018201541633148015611dbf575b15611d8957600d018054611d1160ff8260081c1615612413565b60ff8160101c16611d505762ff00ff1916620100061790557f416e669c63d9a3a5e36ee7cc7e2104b8db28ccd286aa18966e98fa230c73b08c600080a2005b60405162461bcd60e51b8152602060048201526011602482015270105b1c9958591e4818d85b98d95b1b1959607a1b6044820152606490fd5b60405162461bcd60e51b815260206004820152600e60248201526d139bdd08185d5d1a1bdc9a5e995960921b6044820152606490fd5b503360009081527fad3228b676f7d3cd4284a5443f17f1962b36e491b30a40b2405849e597ba5fb5602052604090205460ff16611cf7565b50600254811115611cca565b346101f05760003660031901126101f0576020604051620151808152f35b346101f05760403660031901126101f057611e3a6122c8565b336001600160a01b03821603611e5657610019906004356127b4565b63334bd91960e11b60005260046000fd5b346101f05760403660031901126101f057610019600435611e866122c8565b90611ea26101e682600052600060205260016040600020015490565b612693565b346101f05760203660031901126101f0576020611ed4600435600052600060205260016040600020015490565b604051908152f35b346101f05760403660031901126101f057611ef56122b2565b6001600160a01b03166000908152600560205260409020805460243591908210156101f057602091611f26916122de565b90549060031b1c604051908152f35b346101f05760203660031901126101f057610019611f516122b2565b611f59612567565b60008051602061287983398151915260009081526020527f3412d5605ac6cd444957cedb533e5dacad6378b4bc819ebe3652188a665066d654611f9b906125ba565b61271e565b346101f05760003660031901126101f05760206040517fd8aa0f3194971a2a116679f7c2090f6939c8d4e01a2a8d7e41d55e5351469e638152f35b346101f05760203660031901126101f05760043563ffffffff60e01b81168091036101f057602090637965db0b60e01b8114908115612020575b506040519015158152f35b6301ffc9a760e01b14905082612015565b346101f05760203660031901126101f0576004356000908152600360205260409020805460018201546001600160a01b031691612070600282016121c0565b61207c600383016121c0565b9160078101549260088201546009830154600a84015491600b85015493600c86015495600d0154966040519a8b9a8b5260208b015260408a016101a090526101a08a016120c891612264565b89810360608b01526120d991612264565b96608089015260a088015260c087015260e0860152610100850152610120840152610140830160ff82169061210d916122a5565b8060081c60ff16151561016084015260101c60ff1615156101808301520390f35b90600182811c9216801561215e575b602083101461214857565b634e487b7160e01b600052602260045260246000fd5b91607f169161213d565b61020081019081106001600160401b038211176114b757604052565b606081019081106001600160401b038211176114b757604052565b90601f801991011681019081106001600160401b038211176114b757604052565b90604051918260008254926121d48461212e565b808452936001811690811561224257506001146121fb575b506121f99250038361219f565b565b90506000929192526020600020906000915b8183106122265750509060206121f992820101386121ec565b602091935080600191548385890101520191019091849261220d565b9050602092506121f994915060ff191682840152151560051b820101386121ec565b919082519283825260005b848110612290575050826000602080949584010152601f8019910116010190565b8060208092840101518282860101520161226f565b90600782101561049e5752565b600435906001600160a01b03821682036101f057565b602435906001600160a01b03821682036101f057565b80548210156122f65760005260206000200190600090565b634e487b7160e01b600052603260045260246000fd5b90600382101561049e5752565b6001600160401b0381116114b757601f01601f191660200190565b92919261234082612319565b9161234e604051938461219f565b8294818452818301116101f0578281602093846000960137010152565b9080601f830112156101f05781602061238693359101612334565b90565b6001600160401b0381116114b75760051b60200190565b906020808351928381520192019060005b8181106123be5750505090565b82518452602093840193909201916001016123b1565b156123db57565b60405162461bcd60e51b815260206004820152601060248201526f125b9d985b1a59081c1c9bdc1bdcd85b60821b6044820152606490fd5b1561241a57565b60405162461bcd60e51b815260206004820152601060248201526f105b1c9958591e48195e1958dd5d195960821b6044820152606490fd5b9190820180921161072c57565b1561246657565b60405162461bcd60e51b815260206004820152600f60248201526e098cadccee8d040dad2e6dac2e8c6d608b1b6044820152606490fd5b8181106124a8575050565b6000815560010161249d565b9190601f81116124c357505050565b6121f9926000526020600020906020601f840160051c830193106124ef575b601f0160051c019061249d565b90915081906124e2565b9181811061250657505050565b6121f9926000526020600020918201910161249d565b906040519182815491828252602082019060005260206000209260005b81811061254e5750506121f99250038361219f565b8454835260019485019487945060209093019201612539565b3360009081527fad3228b676f7d3cd4284a5443f17f1962b36e491b30a40b2405849e597ba5fb5602052604090205460ff16156125a057565b63e2517d3f60e01b60005233600452600060245260446000fd5b60008181526020818152604080832033845290915290205460ff16156125dd5750565b63e2517d3f60e01b6000523360045260245260446000fd5b6001600160a01b0381166000908152600080516020612859833981519152602052604090205460ff1661268d576001600160a01b0316600081815260008051602061285983398151915260205260408120805460ff19166001179055339190600080516020612879833981519152907f2f8788117e7eff1d82e926ec794901d17c78024a50270940304540a733656f0d9080a4600190565b50600090565b6000818152602081815260408083206001600160a01b038616845290915290205460ff16612717576000818152602081815260408083206001600160a01b0395909516808452949091528120805460ff19166001179055339291907f2f8788117e7eff1d82e926ec794901d17c78024a50270940304540a733656f0d9080a4600190565b5050600090565b6001600160a01b0381166000908152600080516020612859833981519152602052604090205460ff161561268d576001600160a01b0316600081815260008051602061285983398151915260205260408120805460ff19169055339190600080516020612879833981519152907ff6391f5c32d9c69d2a47ea670b442974b53935d1edc7fd64eb21e047a839171b9080a4600190565b6000818152602081815260408083206001600160a01b038616845290915290205460ff1615612717576000818152602081815260408083206001600160a01b0395909516808452949091528120805460ff19169055339291907ff6391f5c32d9c69d2a47ea670b442974b53935d1edc7fd64eb21e047a839171b9080a4600190565b600260015414612847576002600155565b633ee5aeb560e01b60005260046000fdfe3412d5605ac6cd444957cedb533e5dacad6378b4bc819ebe3652188a665066d5b09aa5aeb3702cfd50b6b62bc4532604938f21248a27a1d5ca736082b6819cc1a2646970667358221220202becc63c06fc8ad1e89524169958a55e1a275ecf74daa4c6d0c7e01e67f07a64736f6c634300081c00332f8788117e7eff1d82e926ec794901d17c78024a50270940304540a733656f0d3412d5605ac6cd444957cedb533e5dacad6378b4bc819ebe3652188a665066d5dae2aa361dfd1ca020a396615627d436107c35eff9fe7738a3512819782d7069ad3228b676f7d3cd4284a5443f17f1962b36e491b30a40b2405849e597ba5fb5",
  "linkReferences": {},
  "deployedLinkReferences": {}
}